{
  "_format": "hh-sol-artifact-1",
  "contractName": "YetiTown",
  "sourceName": "contracts/YetiTown.sol",
  "abi": [
    {
      "inputs": [
        {
          "internalType": "string",
          "name": "_name",
          "type": "string"
        },
        {
          "internalType": "string",
          "name": "_symbol",
          "type": "string"
        },
        {
          "internalType": "string",
          "name": "_initBaseURI",
          "type": "string"
        },
        {
          "internalType": "string",
          "name": "_initNotRevealedUri",
          "type": "string"
        }
      ],
      "stateMutability": "nonpayable",
      "type": "constructor"
    },
    {
      "anonymous": false,
      "inputs": [
        {
          "indexed": true,
          "internalType": "address",
          "name": "owner",
          "type": "address"
        },
        {
          "indexed": true,
          "internalType": "address",
          "name": "approved",
          "type": "address"
        },
        {
          "indexed": true,
          "internalType": "uint256",
          "name": "tokenId",
          "type": "uint256"
        }
      ],
      "name": "Approval",
      "type": "event"
    },
    {
      "anonymous": false,
      "inputs": [
        {
          "indexed": true,
          "internalType": "address",
          "name": "owner",
          "type": "address"
        },
        {
          "indexed": true,
          "internalType": "address",
          "name": "operator",
          "type": "address"
        },
        {
          "indexed": false,
          "internalType": "bool",
          "name": "approved",
          "type": "bool"
        }
      ],
      "name": "ApprovalForAll",
      "type": "event"
    },
    {
      "anonymous": false,
      "inputs": [
        {
          "indexed": true,
          "internalType": "address",
          "name": "previousOwner",
          "type": "address"
        },
        {
          "indexed": true,
          "internalType": "address",
          "name": "newOwner",
          "type": "address"
        }
      ],
      "name": "OwnershipTransferred",
      "type": "event"
    },
    {
      "anonymous": false,
      "inputs": [
        {
          "indexed": true,
          "internalType": "address",
          "name": "from",
          "type": "address"
        },
        {
          "indexed": true,
          "internalType": "address",
          "name": "to",
          "type": "address"
        },
        {
          "indexed": true,
          "internalType": "uint256",
          "name": "tokenId",
          "type": "uint256"
        }
      ],
      "name": "Transfer",
      "type": "event"
    },
    {
      "anonymous": false,
      "inputs": [
        {
          "indexed": true,
          "internalType": "uint256",
          "name": "tokenId",
          "type": "uint256"
        }
      ],
      "name": "YetiBurned",
      "type": "event"
    },
    {
      "anonymous": false,
      "inputs": [
        {
          "indexed": true,
          "internalType": "uint256",
          "name": "tokenId",
          "type": "uint256"
        }
      ],
      "name": "YetiMinted",
      "type": "event"
    },
    {
      "inputs": [],
      "name": "NextTokenId",
      "outputs": [
        {
          "internalType": "uint256",
          "name": "",
          "type": "uint256"
        }
      ],
      "stateMutability": "view",
      "type": "function"
    },
    {
      "inputs": [
        {
          "internalType": "address",
          "name": "_address",
          "type": "address"
        }
      ],
      "name": "addToWhitelist",
      "outputs": [],
      "stateMutability": "nonpayable",
      "type": "function"
    },
    {
      "inputs": [
        {
          "internalType": "address",
          "name": "_address",
          "type": "address"
        }
      ],
      "name": "addressIsPresaleApproved",
      "outputs": [
        {
          "internalType": "bool",
          "name": "",
          "type": "bool"
        }
      ],
      "stateMutability": "view",
      "type": "function"
    },
    {
      "inputs": [
        {
          "internalType": "address",
          "name": "to",
          "type": "address"
        },
        {
          "internalType": "uint256",
          "name": "tokenId",
          "type": "uint256"
        }
      ],
      "name": "approve",
      "outputs": [],
      "stateMutability": "nonpayable",
      "type": "function"
    },
    {
      "inputs": [
        {
          "internalType": "address",
          "name": "owner",
          "type": "address"
        }
      ],
      "name": "balanceOf",
      "outputs": [
        {
          "internalType": "uint256",
          "name": "",
          "type": "uint256"
        }
      ],
      "stateMutability": "view",
      "type": "function"
    },
    {
      "inputs": [],
      "name": "baseExtension",
      "outputs": [
        {
          "internalType": "string",
          "name": "",
          "type": "string"
        }
      ],
      "stateMutability": "view",
      "type": "function"
    },
    {
      "inputs": [
        {
          "internalType": "uint256",
          "name": "tokenId",
          "type": "uint256"
        }
      ],
      "name": "burn",
      "outputs": [],
      "stateMutability": "nonpayable",
      "type": "function"
    },
    {
      "inputs": [],
      "name": "curTreasuryTokenAmount",
      "outputs": [
        {
          "internalType": "uint256",
          "name": "",
          "type": "uint256"
        }
      ],
      "stateMutability": "view",
      "type": "function"
    },
    {
      "inputs": [
        {
          "internalType": "address",
          "name": "_address",
          "type": "address"
        }
      ],
      "name": "flipWhitelistApproveStatus",
      "outputs": [],
      "stateMutability": "nonpayable",
      "type": "function"
    },
    {
      "inputs": [
        {
          "internalType": "uint256",
          "name": "tokenId",
          "type": "uint256"
        }
      ],
      "name": "getApproved",
      "outputs": [
        {
          "internalType": "address",
          "name": "",
          "type": "address"
        }
      ],
      "stateMutability": "view",
      "type": "function"
    },
    {
      "inputs": [
        {
          "internalType": "address[]",
          "name": "addr",
          "type": "address[]"
        }
      ],
      "name": "initPresaleWhitelist",
      "outputs": [],
      "stateMutability": "nonpayable",
      "type": "function"
    },
    {
      "inputs": [
        {
          "internalType": "address",
          "name": "owner",
          "type": "address"
        },
        {
          "internalType": "address",
          "name": "operator",
          "type": "address"
        }
      ],
      "name": "isApprovedForAll",
      "outputs": [
        {
          "internalType": "bool",
          "name": "",
          "type": "bool"
        }
      ],
      "stateMutability": "view",
      "type": "function"
    },
    {
      "inputs": [],
      "name": "lastMagicTokenID",
      "outputs": [
        {
          "internalType": "uint256",
          "name": "",
          "type": "uint256"
        }
      ],
      "stateMutability": "view",
      "type": "function"
    },
    {
      "inputs": [],
      "name": "maxAmountPerWallet",
      "outputs": [
        {
          "internalType": "uint256",
          "name": "",
          "type": "uint256"
        }
      ],
      "stateMutability": "view",
      "type": "function"
    },
    {
      "inputs": [],
      "name": "maxSupply",
      "outputs": [
        {
          "internalType": "uint256",
          "name": "",
          "type": "uint256"
        }
      ],
      "stateMutability": "view",
      "type": "function"
    },
    {
      "inputs": [
        {
          "internalType": "uint256",
          "name": "_mintAmount",
          "type": "uint256"
        }
      ],
      "name": "mint",
      "outputs": [],
      "stateMutability": "payable",
      "type": "function"
    },
    {
      "inputs": [],
      "name": "name",
      "outputs": [
        {
          "internalType": "string",
          "name": "",
          "type": "string"
        }
      ],
      "stateMutability": "view",
      "type": "function"
    },
    {
      "inputs": [],
      "name": "notRevealedUri",
      "outputs": [
        {
          "internalType": "string",
          "name": "",
          "type": "string"
        }
      ],
      "stateMutability": "view",
      "type": "function"
    },
    {
      "inputs": [],
      "name": "owner",
      "outputs": [
        {
          "internalType": "address",
          "name": "",
          "type": "address"
        }
      ],
      "stateMutability": "view",
      "type": "function"
    },
    {
      "inputs": [
        {
          "internalType": "uint256",
          "name": "tokenId",
          "type": "uint256"
        }
      ],
      "name": "ownerOf",
      "outputs": [
        {
          "internalType": "address",
          "name": "",
          "type": "address"
        }
      ],
      "stateMutability": "view",
      "type": "function"
    },
    {
      "inputs": [
        {
          "internalType": "bool",
          "name": "_state",
          "type": "bool"
        }
      ],
      "name": "pause",
      "outputs": [],
      "stateMutability": "nonpayable",
      "type": "function"
    },
    {
      "inputs": [],
      "name": "paused",
      "outputs": [
        {
          "internalType": "bool",
          "name": "",
          "type": "bool"
        }
      ],
      "stateMutability": "view",
      "type": "function"
    },
    {
      "inputs": [],
      "name": "preSaleCost",
      "outputs": [
        {
          "internalType": "uint256",
          "name": "",
          "type": "uint256"
        }
      ],
      "stateMutability": "view",
      "type": "function"
    },
    {
      "inputs": [],
      "name": "publicSaleCost",
      "outputs": [
        {
          "internalType": "uint256",
          "name": "",
          "type": "uint256"
        }
      ],
      "stateMutability": "view",
      "type": "function"
    },
    {
      "inputs": [],
      "name": "publicSaleFlag",
      "outputs": [
        {
          "internalType": "bool",
          "name": "",
          "type": "bool"
        }
      ],
      "stateMutability": "view",
      "type": "function"
    },
    {
      "inputs": [],
      "name": "renounceOwnership",
      "outputs": [],
      "stateMutability": "nonpayable",
      "type": "function"
    },
    {
      "inputs": [
        {
          "internalType": "address",
          "name": "from",
          "type": "address"
        },
        {
          "internalType": "address",
          "name": "to",
          "type": "address"
        },
        {
          "internalType": "uint256",
          "name": "tokenId",
          "type": "uint256"
        }
      ],
      "name": "safeTransferFrom",
      "outputs": [],
      "stateMutability": "nonpayable",
      "type": "function"
    },
    {
      "inputs": [
        {
          "internalType": "address",
          "name": "from",
          "type": "address"
        },
        {
          "internalType": "address",
          "name": "to",
          "type": "address"
        },
        {
          "internalType": "uint256",
          "name": "tokenId",
          "type": "uint256"
        },
        {
          "internalType": "bytes",
          "name": "_data",
          "type": "bytes"
        }
      ],
      "name": "safeTransferFrom",
      "outputs": [],
      "stateMutability": "nonpayable",
      "type": "function"
    },
    {
      "inputs": [
        {
          "internalType": "address",
          "name": "operator",
          "type": "address"
        },
        {
          "internalType": "bool",
          "name": "approved",
          "type": "bool"
        }
      ],
      "name": "setApprovalForAll",
      "outputs": [],
      "stateMutability": "nonpayable",
      "type": "function"
    },
    {
      "inputs": [
        {
          "internalType": "string",
          "name": "_newBaseExtension",
          "type": "string"
        }
      ],
      "name": "setBaseExtension",
      "outputs": [],
      "stateMutability": "nonpayable",
      "type": "function"
    },
    {
      "inputs": [
        {
          "internalType": "string",
          "name": "_newBaseURI",
          "type": "string"
        }
      ],
      "name": "setBaseURI",
      "outputs": [],
      "stateMutability": "nonpayable",
      "type": "function"
    },
    {
      "inputs": [
        {
          "internalType": "uint256",
          "name": "_newMaxSupply",
          "type": "uint256"
        }
      ],
      "name": "setMaxSupply",
      "outputs": [],
      "stateMutability": "nonpayable",
      "type": "function"
    },
    {
      "inputs": [
        {
          "internalType": "string",
          "name": "_notRevealedURI",
          "type": "string"
        }
      ],
      "name": "setNotRevealedURI",
      "outputs": [],
      "stateMutability": "nonpayable",
      "type": "function"
    },
    {
      "inputs": [],
      "name": "setWhitelistSaleStartDate",
      "outputs": [],
      "stateMutability": "nonpayable",
      "type": "function"
    },
    {
      "inputs": [
        {
          "internalType": "bytes4",
          "name": "interfaceId",
          "type": "bytes4"
        }
      ],
      "name": "supportsInterface",
      "outputs": [
        {
          "internalType": "bool",
          "name": "",
          "type": "bool"
        }
      ],
      "stateMutability": "view",
      "type": "function"
    },
    {
      "inputs": [],
      "name": "symbol",
      "outputs": [
        {
          "internalType": "string",
          "name": "",
          "type": "string"
        }
      ],
      "stateMutability": "view",
      "type": "function"
    },
    {
      "inputs": [
        {
          "internalType": "uint256",
          "name": "index",
          "type": "uint256"
        }
      ],
      "name": "tokenByIndex",
      "outputs": [
        {
          "internalType": "uint256",
          "name": "",
          "type": "uint256"
        }
      ],
      "stateMutability": "view",
      "type": "function"
    },
    {
      "inputs": [
        {
          "internalType": "address",
          "name": "owner",
          "type": "address"
        },
        {
          "internalType": "uint256",
          "name": "index",
          "type": "uint256"
        }
      ],
      "name": "tokenOfOwnerByIndex",
      "outputs": [
        {
          "internalType": "uint256",
          "name": "",
          "type": "uint256"
        }
      ],
      "stateMutability": "view",
      "type": "function"
    },
    {
      "inputs": [
        {
          "internalType": "uint256",
          "name": "tokenId",
          "type": "uint256"
        }
      ],
      "name": "tokenURI",
      "outputs": [
        {
          "internalType": "string",
          "name": "",
          "type": "string"
        }
      ],
      "stateMutability": "view",
      "type": "function"
    },
    {
      "inputs": [],
      "name": "totalSupply",
      "outputs": [
        {
          "internalType": "uint256",
          "name": "",
          "type": "uint256"
        }
      ],
      "stateMutability": "view",
      "type": "function"
    },
    {
      "inputs": [
        {
          "internalType": "address",
          "name": "from",
          "type": "address"
        },
        {
          "internalType": "address",
          "name": "to",
          "type": "address"
        },
        {
          "internalType": "uint256",
          "name": "tokenId",
          "type": "uint256"
        }
      ],
      "name": "transferFrom",
      "outputs": [],
      "stateMutability": "nonpayable",
      "type": "function"
    },
    {
      "inputs": [
        {
          "internalType": "address",
          "name": "newOwner",
          "type": "address"
        }
      ],
      "name": "transferOwnership",
      "outputs": [],
      "stateMutability": "nonpayable",
      "type": "function"
    },
    {
      "inputs": [
        {
          "internalType": "address",
          "name": "_to",
          "type": "address"
        },
        {
          "internalType": "uint256",
          "name": "_amount",
          "type": "uint256"
        }
      ],
      "name": "treasuryMint",
      "outputs": [],
      "stateMutability": "nonpayable",
      "type": "function"
    },
    {
      "inputs": [
        {
          "internalType": "address",
          "name": "_to",
          "type": "address"
        },
        {
          "internalType": "uint256",
          "name": "_amount",
          "type": "uint256"
        }
      ],
      "name": "treasuryPresaleMint",
      "outputs": [],
      "stateMutability": "nonpayable",
      "type": "function"
    },
    {
      "inputs": [
        {
          "internalType": "address",
          "name": "",
          "type": "address"
        }
      ],
      "name": "whitelist",
      "outputs": [
        {
          "internalType": "bool",
          "name": "",
          "type": "bool"
        }
      ],
      "stateMutability": "view",
      "type": "function"
    },
    {
      "inputs": [],
      "name": "withdraw",
      "outputs": [],
      "stateMutability": "payable",
      "type": "function"
    }
  ],
  "bytecode": "0x60c06040526005608081905264173539b7b760d91b60a09081526200002891600d919062000224565b506701118f178fb48000600e819055600f556115b3601055600660115560128054600160ff199182168117909255601491909155600060158190556016556017805490911690553480156200007c57600080fd5b506040516200324d3803806200324d8339810160408190526200009f9162000381565b835184908490620000b890600090602085019062000224565b508051620000ce90600190602084019062000224565b505050620000eb620000e56200010b60201b60201c565b6200010f565b620000f68262000161565b6200010181620001c9565b505050506200048d565b3390565b600a80546001600160a01b038381166001600160a01b0319831681179093556040519116919082907f8be0079c531659141344cd1fd0a4f28419497f9722a3daafe3b4186f6b6457e090600090a35050565b600a546001600160a01b03163314620001b05760405162461bcd60e51b815260206004820181905260248201526000805160206200322d83398151915260448201526064015b60405180910390fd5b8051620001c590600c90602084019062000224565b5050565b600a546001600160a01b03163314620002145760405162461bcd60e51b815260206004820181905260248201526000805160206200322d8339815191526044820152606401620001a7565b8051620001c59060139060208401905b82805462000232906200043a565b90600052602060002090601f016020900481019282620002565760008555620002a1565b82601f106200027157805160ff1916838001178555620002a1565b82800160010185558215620002a1579182015b82811115620002a157825182559160200191906001019062000284565b50620002af929150620002b3565b5090565b5b80821115620002af5760008155600101620002b4565b600082601f830112620002dc57600080fd5b81516001600160401b0380821115620002f957620002f962000477565b604051601f8301601f19908116603f0116810190828211818310171562000324576200032462000477565b816040528381526020925086838588010111156200034157600080fd5b600091505b8382101562000365578582018301518183018401529082019062000346565b83821115620003775760008385830101525b9695505050505050565b600080600080608085870312156200039857600080fd5b84516001600160401b0380821115620003b057600080fd5b620003be88838901620002ca565b95506020870151915080821115620003d557600080fd5b620003e388838901620002ca565b94506040870151915080821115620003fa57600080fd5b6200040888838901620002ca565b935060608701519150808211156200041f57600080fd5b506200042e87828801620002ca565b91505092959194509250565b600181811c908216806200044f57607f821691505b602082108114156200047157634e487b7160e01b600052602260045260246000fd5b50919050565b634e487b7160e01b600052604160045260246000fd5b612d90806200049d6000396000f3fe60806040526004361061027d5760003560e01c806366aabbab1161014f578063b88d4fde116100c1578063e43252d71161007a578063e43252d71461072b578063e956e92f1461074b578063e985e9c51461076b578063f2ac7b0d1461078b578063f2c4ce1e146107a1578063f2fde38b146107c157600080fd5b8063b88d4fde1461068a578063c6682862146106aa578063c87b56dd146106bf578063cc9ff9c6146106df578063d5abeb01146106f5578063da3ef23f1461070b57600080fd5b80638da5cb5b116101135780638da5cb5b146105dd57806395d89b41146105f25780639b19251a14610607578063a0712d6814610637578063a22cb4651461064a578063aa35cca31461066a57600080fd5b806366aabbab1461053a5780636f8b44b01461057357806370a0823114610593578063715018a6146105b357806371ee45e9146105c857600080fd5b80632f745c59116101f357806342966c68116101ac57806342966c681461048a578063453afb0f146104aa5780634f6ccce7146104c057806355f804b3146104e05780635c975abb146105005780636352211e1461051a57600080fd5b80632f745c59146103fc57806336db71291461041c5780633bc50f19146104325780633ccfd60b1461044c5780633cdd8d231461045457806342842e0e1461046a57600080fd5b8063095ea7b311610245578063095ea7b3146103485780630bdb095e1461036857806318160ddd146103875780631dbc88361461039c57806323b872dd146103bc57806328e97f07146103dc57600080fd5b806301ffc9a71461028257806302329a29146102b757806306fdde03146102d9578063081812fc146102fb578063081c8c4414610333575b600080fd5b34801561028e57600080fd5b506102a261029d36600461284a565b6107e1565b60405190151581526020015b60405180910390f35b3480156102c357600080fd5b506102d76102d236600461282f565b61080c565b005b3480156102e557600080fd5b506102ee610857565b6040516102ae9190612a13565b34801561030757600080fd5b5061031b6103163660046128cd565b6108e9565b6040516001600160a01b0390911681526020016102ae565b34801561033f57600080fd5b506102ee610971565b34801561035457600080fd5b506102d7610363366004612751565b6109ff565b34801561037457600080fd5b506014545b6040519081526020016102ae565b34801561039357600080fd5b50600854610379565b3480156103a857600080fd5b506102d76103b736600461277b565b610b10565b3480156103c857600080fd5b506102d76103d736600461266f565b610bab565b3480156103e857600080fd5b506102d76103f7366004612751565b610c0e565b34801561040857600080fd5b50610379610417366004612751565b610dba565b34801561042857600080fd5b5061037960115481565b34801561043e57600080fd5b506017546102a29060ff1681565b6102d7610e50565b34801561046057600080fd5b5061037960155481565b34801561047657600080fd5b506102d761048536600461266f565b610ee9565b34801561049657600080fd5b506102d76104a53660046128cd565b610f30565b3480156104b657600080fd5b50610379600f5481565b3480156104cc57600080fd5b506103796104db3660046128cd565b610f93565b3480156104ec57600080fd5b506102d76104fb366004612884565b611026565b34801561050c57600080fd5b506012546102a29060ff1681565b34801561052657600080fd5b5061031b6105353660046128cd565b611068565b34801561054657600080fd5b506102a261055536600461261a565b6001600160a01b031660009081526018602052604090205460ff1690565b34801561057f57600080fd5b506102d761058e3660046128cd565b6110df565b34801561059f57600080fd5b506103796105ae36600461261a565b611113565b3480156105bf57600080fd5b506102d761119a565b3480156105d457600080fd5b506102d76111d5565b3480156105e957600080fd5b5061031b61120a565b3480156105fe57600080fd5b506102ee611219565b34801561061357600080fd5b506102a261062236600461261a565b60186020526000908152604090205460ff1681565b6102d76106453660046128cd565b611228565b34801561065657600080fd5b506102d7610665366004612727565b611504565b34801561067657600080fd5b506102d7610685366004612751565b6115c5565b34801561069657600080fd5b506102d76106a53660046126ab565b6116b9565b3480156106b657600080fd5b506102ee61171e565b3480156106cb57600080fd5b506102ee6106da3660046128cd565b61172b565b3480156106eb57600080fd5b50610379600e5481565b34801561070157600080fd5b5061037960105481565b34801561071757600080fd5b506102d7610726366004612884565b6118b5565b34801561073757600080fd5b506102d761074636600461261a565b6118f7565b34801561075757600080fd5b506102d761076636600461261a565b61196c565b34801561077757600080fd5b506102a261078636600461263c565b6119c4565b34801561079757600080fd5b5061037960165481565b3480156107ad57600080fd5b506102d76107bc366004612884565b6119f2565b3480156107cd57600080fd5b506102d76107dc36600461261a565b611a34565b60006001600160e01b0319821663780e9d6360e01b1480610806575061080682611ad1565b92915050565b3361081561120a565b6001600160a01b0316146108445760405162461bcd60e51b815260040161083b90612ae7565b60405180910390fd5b6012805460ff1916911515919091179055565b60606000805461086690612c2c565b80601f016020809104026020016040519081016040528092919081815260200182805461089290612c2c565b80156108df5780601f106108b4576101008083540402835291602001916108df565b820191906000526020600020905b8154815290600101906020018083116108c257829003601f168201915b5050505050905090565b60006108f482611b21565b6109555760405162461bcd60e51b815260206004820152602c60248201527f4552433732313a20617070726f76656420717565727920666f72206e6f6e657860448201526b34b9ba32b73a103a37b5b2b760a11b606482015260840161083b565b506000908152600460205260409020546001600160a01b031690565b6013805461097e90612c2c565b80601f01602080910402602001604051908101604052809291908181526020018280546109aa90612c2c565b80156109f75780601f106109cc576101008083540402835291602001916109f7565b820191906000526020600020905b8154815290600101906020018083116109da57829003601f168201915b505050505081565b6000610a0a82611068565b9050806001600160a01b0316836001600160a01b03161415610a785760405162461bcd60e51b815260206004820152602160248201527f4552433732313a20617070726f76616c20746f2063757272656e74206f776e656044820152603960f91b606482015260840161083b565b336001600160a01b0382161480610a945750610a9481336119c4565b610b015760405162461bcd60e51b815260206004820152603860248201527f4552433732313a20617070726f76652063616c6c6572206973206e6f74206f776044820152771b995c881b9bdc88185c1c1c9bdd995908199bdc88185b1b60421b606482015260840161083b565b610b0b8383611b3e565b505050565b33610b1961120a565b6001600160a01b031614610b3f5760405162461bcd60e51b815260040161083b90612ae7565b60005b8151811015610ba757600160186000848481518110610b6357610b63612cd8565b6020908102919091018101516001600160a01b03168252810191909152604001600020805460ff191691151591909117905580610b9f81612c67565b915050610b42565b5050565b6000610e10600b5442610bbe9190612be9565b610bc89190612bb6565b905060188111610bd757600080fd5b610be13383611bac565b610bfd5760405162461bcd60e51b815260040161083b90612b1c565b610c08848484611c6e565b50505050565b33610c1761120a565b6001600160a01b031614610c3d5760405162461bcd60e51b815260040161083b90612ae7565b60125460ff1615610c4d57600080fd5b60008111610c6d5760405162461bcd60e51b815260040161083b90612a78565b60105481601554610c7e9190612b9e565b1115610c9c5760405162461bcd60e51b815260040161083b90612aa0565b602d81601654610cac9190612b9e565b1115610d135760405162461bcd60e51b815260206004820152603060248201527f43616e6e6f7420657863656564206d6178206e756d626572206f66205472656160448201526f1cdd5c9e4814d85b1948105b5bdd5b9d60821b606482015260840161083b565b60015b818111610d8557610d3381601554610d2e9190612b9e565b611b21565b610d735780601554610d459190612b9e565b604051600080516020612d3b83398151915290600090a2610d738382601554610d6e9190612b9e565b611e07565b80610d7d81612c67565b915050610d16565b508060156000828254610d989190612b9e565b925050819055508060166000828254610db19190612b9e565b90915550505050565b6000610dc583611113565b8210610e275760405162461bcd60e51b815260206004820152602b60248201527f455243373231456e756d657261626c653a206f776e657220696e646578206f7560448201526a74206f6620626f756e647360a81b606482015260840161083b565b506001600160a01b03919091166000908152600660209081526040808320938352929052205490565b33610e5961120a565b6001600160a01b031614610e7f5760405162461bcd60e51b815260040161083b90612ae7565b6000610e8961120a565b6001600160a01b03164760405160006040518083038185875af1925050503d8060008114610ed3576040519150601f19603f3d011682016040523d82523d6000602084013e610ed8565b606091505b5050905080610ee657600080fd5b50565b6000610e10600b5442610efc9190612be9565b610f069190612bb6565b905060188111610f1557600080fd5b610c08848484604051806020016040528060008152506116b9565b33610f3961120a565b6001600160a01b031614610f5f5760405162461bcd60e51b815260040161083b90612ae7565b60405181907feeabb09be3bb05c61220a396494efe63159608a2e41120749da291153772556590600090a2610ee681611e21565b6000610f9e60085490565b82106110015760405162461bcd60e51b815260206004820152602c60248201527f455243373231456e756d657261626c653a20676c6f62616c20696e646578206f60448201526b7574206f6620626f756e647360a01b606482015260840161083b565b6008828154811061101457611014612cd8565b90600052602060002001549050919050565b3361102f61120a565b6001600160a01b0316146110555760405162461bcd60e51b815260040161083b90612ae7565b8051610ba790600c9060208401906124fd565b6000818152600260205260408120546001600160a01b0316806108065760405162461bcd60e51b815260206004820152602960248201527f4552433732313a206f776e657220717565727920666f72206e6f6e657869737460448201526832b73a103a37b5b2b760b91b606482015260840161083b565b336110e861120a565b6001600160a01b03161461110e5760405162461bcd60e51b815260040161083b90612ae7565b601055565b60006001600160a01b03821661117e5760405162461bcd60e51b815260206004820152602a60248201527f4552433732313a2062616c616e636520717565727920666f7220746865207a65604482015269726f206164647265737360b01b606482015260840161083b565b506001600160a01b031660009081526003602052604090205490565b336111a361120a565b6001600160a01b0316146111c95760405162461bcd60e51b815260040161083b90612ae7565b6111d36000611eb6565b565b336111de61120a565b6001600160a01b0316146112045760405162461bcd60e51b815260040161083b90612ae7565b42600b55565b600a546001600160a01b031690565b60606001805461086690612c2c565b60125460ff161561123857600080fd5b600081116112845760405162461bcd60e51b81526020600482015260196024820152784d757374206174206c65617374206d696e742031207965746960381b604482015260640161083b565b6011548161129133611113565b61129b9190612b9e565b11156112f85760405162461bcd60e51b815260206004820152602660248201527f43616e206e6f74206d696e7420657863656564203620796574697320706572206044820152651dd85b1b195d60d21b606482015260840161083b565b60038111156113495760405162461bcd60e51b815260206004820181905260248201527f416d6f756e74206d757374206265206c657373207468616e2033205965746973604482015260640161083b565b60105460018260145461135c9190612b9e565b6113669190612be9565b111561137157600080fd5b600b5468056bc75e2d6310000090600090610e10906113909042612be9565b61139a9190612bb6565b9050601881106113d75760175460ff166113cd576015546113bc90602e612b9e565b6014556017805460ff191660011790555b600f549150611466565b3360009081526018602052604090205460ff166114495760405162461bcd60e51b815260206004820152602a60248201527f596f7520617265206e6f7420696e207468652077686974656c69737420746f206044820152696d696e7420596574697360b01b606482015260840161083b565b826015600082825461145b9190612b9e565b9091555050600e5491505b61146e61120a565b6001600160a01b0316336001600160a01b03161461149c576114908383612bca565b34101561149c57600080fd5b60005b83811015610c08576114b2601454611b21565b6114f257601454604051600080516020612d3b83398151915290600090a26114dc33601454611e07565b601480549060006114ec83612c67565b91905055505b806114fc81612c67565b91505061149f565b6001600160a01b0382163314156115595760405162461bcd60e51b815260206004820152601960248201527822a9219b99189d1030b8383937bb32903a379031b0b63632b960391b604482015260640161083b565b3360008181526005602090815260408083206001600160a01b03871680855290835292819020805460ff191686151590811790915590519081529192917f17307eab39ab6107e8899845ad3d59bd9653f200f220920489ca2b5937696c31910160405180910390a35050565b336115ce61120a565b6001600160a01b0316146115f45760405162461bcd60e51b815260040161083b90612ae7565b600081116116145760405162461bcd60e51b815260040161083b90612a78565b6010546001826014546116279190612b9e565b6116319190612be9565b111561164f5760405162461bcd60e51b815260040161083b90612aa0565b60015b818111610b0b57611664601454611b21565b6116a757601454604051600080516020612d3b83398151915290600090a261168e83601454611e07565b6001601460008282546116a19190612b9e565b90915550505b806116b181612c67565b915050611652565b6000610e10600b54426116cc9190612be9565b6116d69190612bb6565b9050601881116116e557600080fd5b6116ef3384611bac565b61170b5760405162461bcd60e51b815260040161083b90612b1c565b61171785858585611f08565b5050505050565b600d805461097e90612c2c565b606061173682611b21565b61179a5760405162461bcd60e51b815260206004820152602f60248201527f4552433732314d657461646174613a2055524920717565727920666f72206e6f60448201526e3732bc34b9ba32b73a103a37b5b2b760891b606482015260840161083b565b6000610e10600b54426117ad9190612be9565b6117b79190612bb6565b9050603081101561185557601380546117cf90612c2c565b80601f01602080910402602001604051908101604052809291908181526020018280546117fb90612c2c565b80156118485780601f1061181d57610100808354040283529160200191611848565b820191906000526020600020905b81548152906001019060200180831161182b57829003601f168201915b5050505050915050919050565b600061185f611f3b565b9050600081511161187f57604051806020016040528060008152506118ad565b8061188985611f4a565b600d60405160200161189d93929190612912565b6040516020818303038152906040525b949350505050565b336118be61120a565b6001600160a01b0316146118e45760405162461bcd60e51b815260040161083b90612ae7565b8051610ba790600d9060208401906124fd565b3361190061120a565b6001600160a01b0316146119265760405162461bcd60e51b815260040161083b90612ae7565b6001600160a01b03811660009081526018602052604090205460ff16610ee6576001600160a01b0381166000908152601860205260409020805460ff1916600117905550565b3361197561120a565b6001600160a01b03161461199b5760405162461bcd60e51b815260040161083b90612ae7565b6001600160a01b03166000908152601860205260409020805460ff19811660ff90911615179055565b6001600160a01b03918216600090815260056020908152604080832093909416825291909152205460ff1690565b336119fb61120a565b6001600160a01b031614611a215760405162461bcd60e51b815260040161083b90612ae7565b8051610ba79060139060208401906124fd565b33611a3d61120a565b6001600160a01b031614611a635760405162461bcd60e51b815260040161083b90612ae7565b6001600160a01b038116611ac85760405162461bcd60e51b815260206004820152602660248201527f4f776e61626c653a206e6577206f776e657220697320746865207a65726f206160448201526564647265737360d01b606482015260840161083b565b610ee681611eb6565b60006001600160e01b031982166380ac58cd60e01b1480611b0257506001600160e01b03198216635b5e139f60e01b145b8061080657506301ffc9a760e01b6001600160e01b0319831614610806565b6000908152600260205260409020546001600160a01b0316151590565b600081815260046020526040902080546001600160a01b0319166001600160a01b0384169081179091558190611b7382611068565b6001600160a01b03167f8c5be1e5ebec7d5bd14f71427d1e84f3dd0314c0f7b2291e5b200ac8c7c3b92560405160405180910390a45050565b6000611bb782611b21565b611c185760405162461bcd60e51b815260206004820152602c60248201527f4552433732313a206f70657261746f7220717565727920666f72206e6f6e657860448201526b34b9ba32b73a103a37b5b2b760a11b606482015260840161083b565b6000611c2383611068565b9050806001600160a01b0316846001600160a01b03161480611c5e5750836001600160a01b0316611c53846108e9565b6001600160a01b0316145b806118ad57506118ad81856119c4565b826001600160a01b0316611c8182611068565b6001600160a01b031614611ce95760405162461bcd60e51b815260206004820152602960248201527f4552433732313a207472616e73666572206f6620746f6b656e2074686174206960448201526839903737ba1037bbb760b91b606482015260840161083b565b6001600160a01b038216611d4b5760405162461bcd60e51b8152602060048201526024808201527f4552433732313a207472616e7366657220746f20746865207a65726f206164646044820152637265737360e01b606482015260840161083b565b611d56838383612048565b611d61600082611b3e565b6001600160a01b0383166000908152600360205260408120805460019290611d8a908490612be9565b90915550506001600160a01b0382166000908152600360205260408120805460019290611db8908490612b9e565b909155505060008181526002602052604080822080546001600160a01b0319166001600160a01b038681169182179092559151849391871691600080516020612d1b83398151915291a4505050565b610ba7828260405180602001604052806000815250612100565b6000611e2c82611068565b9050611e3a81600084612048565b611e45600083611b3e565b6001600160a01b0381166000908152600360205260408120805460019290611e6e908490612be9565b909155505060008281526002602052604080822080546001600160a01b0319169055518391906001600160a01b03841690600080516020612d1b833981519152908390a45050565b600a80546001600160a01b038381166001600160a01b0319831681179093556040519116919082907f8be0079c531659141344cd1fd0a4f28419497f9722a3daafe3b4186f6b6457e090600090a35050565b611f13848484611c6e565b611f1f84848484612133565b610c085760405162461bcd60e51b815260040161083b90612a26565b6060600c805461086690612c2c565b606081611f6e5750506040805180820190915260018152600360fc1b602082015290565b8160005b8115611f985780611f8281612c67565b9150611f919050600a83612bb6565b9150611f72565b60008167ffffffffffffffff811115611fb357611fb3612cee565b6040519080825280601f01601f191660200182016040528015611fdd576020820181803683370190505b5090505b84156118ad57611ff2600183612be9565b9150611fff600a86612c82565b61200a906030612b9e565b60f81b81838151811061201f5761201f612cd8565b60200101906001600160f81b031916908160001a905350612041600a86612bb6565b9450611fe1565b6001600160a01b0383166120a35761209e81600880546000838152600960205260408120829055600182018355919091527ff3f7a9fe364faab93b216da50a3214154f22a0a2b415b23a84c8169e8b636ee30155565b6120c6565b816001600160a01b0316836001600160a01b0316146120c6576120c68382612240565b6001600160a01b0382166120dd57610b0b816122dd565b826001600160a01b0316826001600160a01b031614610b0b57610b0b828261238c565b61210a83836123d0565b6121176000848484612133565b610b0b5760405162461bcd60e51b815260040161083b90612a26565b60006001600160a01b0384163b1561223557604051630a85bd0160e11b81526001600160a01b0385169063150b7a02906121779033908990889088906004016129d6565b602060405180830381600087803b15801561219157600080fd5b505af19250505080156121c1575060408051601f3d908101601f191682019092526121be91810190612867565b60015b61221b573d8080156121ef576040519150601f19603f3d011682016040523d82523d6000602084013e6121f4565b606091505b5080516122135760405162461bcd60e51b815260040161083b90612a26565b805181602001fd5b6001600160e01b031916630a85bd0160e11b1490506118ad565b506001949350505050565b6000600161224d84611113565b6122579190612be9565b6000838152600760205260409020549091508082146122aa576001600160a01b03841660009081526006602090815260408083208584528252808320548484528184208190558352600790915290208190555b5060009182526007602090815260408084208490556001600160a01b039094168352600681528383209183525290812055565b6008546000906122ef90600190612be9565b6000838152600960205260408120546008805493945090928490811061231757612317612cd8565b90600052602060002001549050806008838154811061233857612338612cd8565b600091825260208083209091019290925582815260099091526040808220849055858252812055600880548061237057612370612cc2565b6001900381819060005260206000200160009055905550505050565b600061239783611113565b6001600160a01b039093166000908152600660209081526040808320868452825280832085905593825260079052919091209190915550565b6001600160a01b0382166124265760405162461bcd60e51b815260206004820181905260248201527f4552433732313a206d696e7420746f20746865207a65726f2061646472657373604482015260640161083b565b61242f81611b21565b1561247c5760405162461bcd60e51b815260206004820152601c60248201527f4552433732313a20746f6b656e20616c7265616479206d696e74656400000000604482015260640161083b565b61248860008383612048565b6001600160a01b03821660009081526003602052604081208054600192906124b1908490612b9e565b909155505060008181526002602052604080822080546001600160a01b0319166001600160a01b0386169081179091559051839290600080516020612d1b833981519152908290a45050565b82805461250990612c2c565b90600052602060002090601f01602090048101928261252b5760008555612571565b82601f1061254457805160ff1916838001178555612571565b82800160010185558215612571579182015b82811115612571578251825591602001919060010190612556565b5061257d929150612581565b5090565b5b8082111561257d5760008155600101612582565b600067ffffffffffffffff8311156125b0576125b0612cee565b6125c3601f8401601f1916602001612b6d565b90508281528383830111156125d757600080fd5b828260208301376000602084830101529392505050565b80356001600160a01b038116811461260557600080fd5b919050565b8035801515811461260557600080fd5b60006020828403121561262c57600080fd5b612635826125ee565b9392505050565b6000806040838503121561264f57600080fd5b612658836125ee565b9150612666602084016125ee565b90509250929050565b60008060006060848603121561268457600080fd5b61268d846125ee565b925061269b602085016125ee565b9150604084013590509250925092565b600080600080608085870312156126c157600080fd5b6126ca856125ee565b93506126d8602086016125ee565b925060408501359150606085013567ffffffffffffffff8111156126fb57600080fd5b8501601f8101871361270c57600080fd5b61271b87823560208401612596565b91505092959194509250565b6000806040838503121561273a57600080fd5b612743836125ee565b91506126666020840161260a565b6000806040838503121561276457600080fd5b61276d836125ee565b946020939093013593505050565b6000602080838503121561278e57600080fd5b823567ffffffffffffffff808211156127a657600080fd5b818501915085601f8301126127ba57600080fd5b8135818111156127cc576127cc612cee565b8060051b91506127dd848301612b6d565b8181528481019084860184860187018a10156127f857600080fd5b600095505b838610156128225761280e816125ee565b8352600195909501949186019186016127fd565b5098975050505050505050565b60006020828403121561284157600080fd5b6126358261260a565b60006020828403121561285c57600080fd5b813561263581612d04565b60006020828403121561287957600080fd5b815161263581612d04565b60006020828403121561289657600080fd5b813567ffffffffffffffff8111156128ad57600080fd5b8201601f810184136128be57600080fd5b6118ad84823560208401612596565b6000602082840312156128df57600080fd5b5035919050565b600081518084526128fe816020860160208601612c00565b601f01601f19169290920160200192915050565b6000845160206129258285838a01612c00565b8551918401916129388184848a01612c00565b8554920191600090600181811c908083168061295557607f831692505b85831081141561297357634e487b7160e01b85526022600452602485fd5b8080156129875760018114612998576129c5565b60ff198516885283880195506129c5565b60008b81526020902060005b858110156129bd5781548a8201529084019088016129a4565b505083880195505b50939b9a5050505050505050505050565b6001600160a01b0385811682528416602082015260408101839052608060608201819052600090612a09908301846128e6565b9695505050505050565b60208152600061263560208301846128e6565b60208082526032908201527f4552433732313a207472616e7366657220746f206e6f6e20455243373231526560408201527131b2b4bb32b91034b6b83632b6b2b73a32b960711b606082015260800190565b6020808252600e908201526d125b9d985b1a5908185b5bdd5b9d60921b604082015260600190565b60208082526027908201527f43616e6e6f7420657863656564206d6178696d756d206e756d626572206f662060408201526639bab838363c9760c91b606082015260800190565b6020808252818101527f4f776e61626c653a2063616c6c6572206973206e6f7420746865206f776e6572604082015260600190565b60208082526031908201527f4552433732313a207472616e736665722063616c6c6572206973206e6f74206f6040820152701ddb995c881b9bdc88185c1c1c9bdd9959607a1b606082015260800190565b604051601f8201601f1916810167ffffffffffffffff81118282101715612b9657612b96612cee565b604052919050565b60008219821115612bb157612bb1612c96565b500190565b600082612bc557612bc5612cac565b500490565b6000816000190483118215151615612be457612be4612c96565b500290565b600082821015612bfb57612bfb612c96565b500390565b60005b83811015612c1b578181015183820152602001612c03565b83811115610c085750506000910152565b600181811c90821680612c4057607f821691505b60208210811415612c6157634e487b7160e01b600052602260045260246000fd5b50919050565b6000600019821415612c7b57612c7b612c96565b5060010190565b600082612c9157612c91612cac565b500690565b634e487b7160e01b600052601160045260246000fd5b634e487b7160e01b600052601260045260246000fd5b634e487b7160e01b600052603160045260246000fd5b634e487b7160e01b600052603260045260246000fd5b634e487b7160e01b600052604160045260246000fd5b6001600160e01b031981168114610ee657600080fdfeddf252ad1be2c89b69c2b068fc378daa952ba7f163c4a11628f55a4df523b3efddb5d2bc112c1172101a21fb089cd15f592240cd38d55a4fec3ae003442c7bada26469706673582212200bf91cb75ee1a45dca6ddd7b8de55b4d0cc36ba479b7c293d0a1a0896ecc494364736f6c634300080700334f776e61626c653a2063616c6c6572206973206e6f7420746865206f776e6572",
  "linkReferences": {},
  "deployedLinkReferences": {}
}