{
  "_format": "hh-sol-artifact-1",
  "contractName": "YetiTown",
  "sourceName": "contracts/YetiTown.sol",
  "abi": [
    {
      "inputs": [
        {
          "internalType": "string",
          "name": "_name",
          "type": "string"
        },
        {
          "internalType": "string",
          "name": "_symbol",
          "type": "string"
        },
        {
          "internalType": "string",
          "name": "_initBaseURI",
          "type": "string"
        },
        {
          "internalType": "string",
          "name": "_initNotRevealedUri",
          "type": "string"
        }
      ],
      "stateMutability": "nonpayable",
      "type": "constructor"
    },
    {
      "anonymous": false,
      "inputs": [
        {
          "indexed": true,
          "internalType": "address",
          "name": "owner",
          "type": "address"
        },
        {
          "indexed": true,
          "internalType": "address",
          "name": "approved",
          "type": "address"
        },
        {
          "indexed": true,
          "internalType": "uint256",
          "name": "tokenId",
          "type": "uint256"
        }
      ],
      "name": "Approval",
      "type": "event"
    },
    {
      "anonymous": false,
      "inputs": [
        {
          "indexed": true,
          "internalType": "address",
          "name": "owner",
          "type": "address"
        },
        {
          "indexed": true,
          "internalType": "address",
          "name": "operator",
          "type": "address"
        },
        {
          "indexed": false,
          "internalType": "bool",
          "name": "approved",
          "type": "bool"
        }
      ],
      "name": "ApprovalForAll",
      "type": "event"
    },
    {
      "anonymous": false,
      "inputs": [
        {
          "indexed": true,
          "internalType": "address",
          "name": "previousOwner",
          "type": "address"
        },
        {
          "indexed": true,
          "internalType": "address",
          "name": "newOwner",
          "type": "address"
        }
      ],
      "name": "OwnershipTransferred",
      "type": "event"
    },
    {
      "anonymous": false,
      "inputs": [
        {
          "indexed": true,
          "internalType": "address",
          "name": "from",
          "type": "address"
        },
        {
          "indexed": true,
          "internalType": "address",
          "name": "to",
          "type": "address"
        },
        {
          "indexed": true,
          "internalType": "uint256",
          "name": "tokenId",
          "type": "uint256"
        }
      ],
      "name": "Transfer",
      "type": "event"
    },
    {
      "anonymous": false,
      "inputs": [
        {
          "indexed": true,
          "internalType": "uint256",
          "name": "tokenId",
          "type": "uint256"
        }
      ],
      "name": "YetiBurned",
      "type": "event"
    },
    {
      "anonymous": false,
      "inputs": [
        {
          "indexed": true,
          "internalType": "uint256",
          "name": "tokenId",
          "type": "uint256"
        }
      ],
      "name": "YetiMinted",
      "type": "event"
    },
    {
      "inputs": [],
      "name": "NextTokenId",
      "outputs": [
        {
          "internalType": "uint256",
          "name": "",
          "type": "uint256"
        }
      ],
      "stateMutability": "view",
      "type": "function"
    },
    {
      "inputs": [
        {
          "internalType": "address",
          "name": "_address",
          "type": "address"
        }
      ],
      "name": "addToWhitelist",
      "outputs": [],
      "stateMutability": "nonpayable",
      "type": "function"
    },
    {
      "inputs": [
        {
          "internalType": "address",
          "name": "_address",
          "type": "address"
        }
      ],
      "name": "addressIsPresaleApproved",
      "outputs": [
        {
          "internalType": "bool",
          "name": "",
          "type": "bool"
        }
      ],
      "stateMutability": "view",
      "type": "function"
    },
    {
      "inputs": [
        {
          "internalType": "address",
          "name": "to",
          "type": "address"
        },
        {
          "internalType": "uint256",
          "name": "tokenId",
          "type": "uint256"
        }
      ],
      "name": "approve",
      "outputs": [],
      "stateMutability": "nonpayable",
      "type": "function"
    },
    {
      "inputs": [
        {
          "internalType": "address",
          "name": "owner",
          "type": "address"
        }
      ],
      "name": "balanceOf",
      "outputs": [
        {
          "internalType": "uint256",
          "name": "",
          "type": "uint256"
        }
      ],
      "stateMutability": "view",
      "type": "function"
    },
    {
      "inputs": [],
      "name": "baseExtension",
      "outputs": [
        {
          "internalType": "string",
          "name": "",
          "type": "string"
        }
      ],
      "stateMutability": "view",
      "type": "function"
    },
    {
      "inputs": [
        {
          "internalType": "uint256",
          "name": "tokenId",
          "type": "uint256"
        }
      ],
      "name": "burn",
      "outputs": [],
      "stateMutability": "nonpayable",
      "type": "function"
    },
    {
      "inputs": [],
      "name": "curTreasuryTokenAmount",
      "outputs": [
        {
          "internalType": "uint256",
          "name": "",
          "type": "uint256"
        }
      ],
      "stateMutability": "view",
      "type": "function"
    },
    {
      "inputs": [
        {
          "internalType": "address",
          "name": "_address",
          "type": "address"
        }
      ],
      "name": "flipWhitelistApproveStatus",
      "outputs": [],
      "stateMutability": "nonpayable",
      "type": "function"
    },
    {
      "inputs": [
        {
          "internalType": "uint256",
          "name": "tokenId",
          "type": "uint256"
        }
      ],
      "name": "getApproved",
      "outputs": [
        {
          "internalType": "address",
          "name": "",
          "type": "address"
        }
      ],
      "stateMutability": "view",
      "type": "function"
    },
    {
      "inputs": [
        {
          "internalType": "address[]",
          "name": "addr",
          "type": "address[]"
        }
      ],
      "name": "initPresaleWhitelist",
      "outputs": [],
      "stateMutability": "nonpayable",
      "type": "function"
    },
    {
      "inputs": [
        {
          "internalType": "address",
          "name": "owner",
          "type": "address"
        },
        {
          "internalType": "address",
          "name": "operator",
          "type": "address"
        }
      ],
      "name": "isApprovedForAll",
      "outputs": [
        {
          "internalType": "bool",
          "name": "",
          "type": "bool"
        }
      ],
      "stateMutability": "view",
      "type": "function"
    },
    {
      "inputs": [],
      "name": "lastMagicTokenID",
      "outputs": [
        {
          "internalType": "uint256",
          "name": "",
          "type": "uint256"
        }
      ],
      "stateMutability": "view",
      "type": "function"
    },
    {
      "inputs": [],
      "name": "maxAmountPerWallet",
      "outputs": [
        {
          "internalType": "uint256",
          "name": "",
          "type": "uint256"
        }
      ],
      "stateMutability": "view",
      "type": "function"
    },
    {
      "inputs": [],
      "name": "maxSupply",
      "outputs": [
        {
          "internalType": "uint256",
          "name": "",
          "type": "uint256"
        }
      ],
      "stateMutability": "view",
      "type": "function"
    },
    {
      "inputs": [
        {
          "internalType": "uint256",
          "name": "_mintAmount",
          "type": "uint256"
        }
      ],
      "name": "mint",
      "outputs": [],
      "stateMutability": "payable",
      "type": "function"
    },
    {
      "inputs": [],
      "name": "name",
      "outputs": [
        {
          "internalType": "string",
          "name": "",
          "type": "string"
        }
      ],
      "stateMutability": "view",
      "type": "function"
    },
    {
      "inputs": [],
      "name": "notRevealedUri",
      "outputs": [
        {
          "internalType": "string",
          "name": "",
          "type": "string"
        }
      ],
      "stateMutability": "view",
      "type": "function"
    },
    {
      "inputs": [],
      "name": "owner",
      "outputs": [
        {
          "internalType": "address",
          "name": "",
          "type": "address"
        }
      ],
      "stateMutability": "view",
      "type": "function"
    },
    {
      "inputs": [
        {
          "internalType": "uint256",
          "name": "tokenId",
          "type": "uint256"
        }
      ],
      "name": "ownerOf",
      "outputs": [
        {
          "internalType": "address",
          "name": "",
          "type": "address"
        }
      ],
      "stateMutability": "view",
      "type": "function"
    },
    {
      "inputs": [
        {
          "internalType": "bool",
          "name": "_state",
          "type": "bool"
        }
      ],
      "name": "pause",
      "outputs": [],
      "stateMutability": "nonpayable",
      "type": "function"
    },
    {
      "inputs": [],
      "name": "paused",
      "outputs": [
        {
          "internalType": "bool",
          "name": "",
          "type": "bool"
        }
      ],
      "stateMutability": "view",
      "type": "function"
    },
    {
      "inputs": [],
      "name": "preSaleCost",
      "outputs": [
        {
          "internalType": "uint256",
          "name": "",
          "type": "uint256"
        }
      ],
      "stateMutability": "view",
      "type": "function"
    },
    {
      "inputs": [],
      "name": "publicSaleCost",
      "outputs": [
        {
          "internalType": "uint256",
          "name": "",
          "type": "uint256"
        }
      ],
      "stateMutability": "view",
      "type": "function"
    },
    {
      "inputs": [],
      "name": "publicSaleFlag",
      "outputs": [
        {
          "internalType": "bool",
          "name": "",
          "type": "bool"
        }
      ],
      "stateMutability": "view",
      "type": "function"
    },
    {
      "inputs": [],
      "name": "renounceOwnership",
      "outputs": [],
      "stateMutability": "nonpayable",
      "type": "function"
    },
    {
      "inputs": [
        {
          "internalType": "address",
          "name": "from",
          "type": "address"
        },
        {
          "internalType": "address",
          "name": "to",
          "type": "address"
        },
        {
          "internalType": "uint256",
          "name": "tokenId",
          "type": "uint256"
        }
      ],
      "name": "safeTransferFrom",
      "outputs": [],
      "stateMutability": "nonpayable",
      "type": "function"
    },
    {
      "inputs": [
        {
          "internalType": "address",
          "name": "from",
          "type": "address"
        },
        {
          "internalType": "address",
          "name": "to",
          "type": "address"
        },
        {
          "internalType": "uint256",
          "name": "tokenId",
          "type": "uint256"
        },
        {
          "internalType": "bytes",
          "name": "_data",
          "type": "bytes"
        }
      ],
      "name": "safeTransferFrom",
      "outputs": [],
      "stateMutability": "nonpayable",
      "type": "function"
    },
    {
      "inputs": [
        {
          "internalType": "address",
          "name": "operator",
          "type": "address"
        },
        {
          "internalType": "bool",
          "name": "approved",
          "type": "bool"
        }
      ],
      "name": "setApprovalForAll",
      "outputs": [],
      "stateMutability": "nonpayable",
      "type": "function"
    },
    {
      "inputs": [
        {
          "internalType": "string",
          "name": "_newBaseExtension",
          "type": "string"
        }
      ],
      "name": "setBaseExtension",
      "outputs": [],
      "stateMutability": "nonpayable",
      "type": "function"
    },
    {
      "inputs": [
        {
          "internalType": "string",
          "name": "_newBaseURI",
          "type": "string"
        }
      ],
      "name": "setBaseURI",
      "outputs": [],
      "stateMutability": "nonpayable",
      "type": "function"
    },
    {
      "inputs": [
        {
          "internalType": "uint256",
          "name": "_newMaxSupply",
          "type": "uint256"
        }
      ],
      "name": "setMaxSupply",
      "outputs": [],
      "stateMutability": "nonpayable",
      "type": "function"
    },
    {
      "inputs": [
        {
          "internalType": "string",
          "name": "_notRevealedURI",
          "type": "string"
        }
      ],
      "name": "setNotRevealedURI",
      "outputs": [],
      "stateMutability": "nonpayable",
      "type": "function"
    },
    {
      "inputs": [],
      "name": "setWhitelistSaleStartDate",
      "outputs": [],
      "stateMutability": "nonpayable",
      "type": "function"
    },
    {
      "inputs": [
        {
          "internalType": "bytes4",
          "name": "interfaceId",
          "type": "bytes4"
        }
      ],
      "name": "supportsInterface",
      "outputs": [
        {
          "internalType": "bool",
          "name": "",
          "type": "bool"
        }
      ],
      "stateMutability": "view",
      "type": "function"
    },
    {
      "inputs": [],
      "name": "symbol",
      "outputs": [
        {
          "internalType": "string",
          "name": "",
          "type": "string"
        }
      ],
      "stateMutability": "view",
      "type": "function"
    },
    {
      "inputs": [
        {
          "internalType": "uint256",
          "name": "index",
          "type": "uint256"
        }
      ],
      "name": "tokenByIndex",
      "outputs": [
        {
          "internalType": "uint256",
          "name": "",
          "type": "uint256"
        }
      ],
      "stateMutability": "view",
      "type": "function"
    },
    {
      "inputs": [
        {
          "internalType": "address",
          "name": "owner",
          "type": "address"
        },
        {
          "internalType": "uint256",
          "name": "index",
          "type": "uint256"
        }
      ],
      "name": "tokenOfOwnerByIndex",
      "outputs": [
        {
          "internalType": "uint256",
          "name": "",
          "type": "uint256"
        }
      ],
      "stateMutability": "view",
      "type": "function"
    },
    {
      "inputs": [
        {
          "internalType": "uint256",
          "name": "tokenId",
          "type": "uint256"
        }
      ],
      "name": "tokenURI",
      "outputs": [
        {
          "internalType": "string",
          "name": "",
          "type": "string"
        }
      ],
      "stateMutability": "view",
      "type": "function"
    },
    {
      "inputs": [],
      "name": "totalSupply",
      "outputs": [
        {
          "internalType": "uint256",
          "name": "",
          "type": "uint256"
        }
      ],
      "stateMutability": "view",
      "type": "function"
    },
    {
      "inputs": [
        {
          "internalType": "address",
          "name": "from",
          "type": "address"
        },
        {
          "internalType": "address",
          "name": "to",
          "type": "address"
        },
        {
          "internalType": "uint256",
          "name": "tokenId",
          "type": "uint256"
        }
      ],
      "name": "transferFrom",
      "outputs": [],
      "stateMutability": "nonpayable",
      "type": "function"
    },
    {
      "inputs": [
        {
          "internalType": "address",
          "name": "newOwner",
          "type": "address"
        }
      ],
      "name": "transferOwnership",
      "outputs": [],
      "stateMutability": "nonpayable",
      "type": "function"
    },
    {
      "inputs": [
        {
          "internalType": "address",
          "name": "_to",
          "type": "address"
        },
        {
          "internalType": "uint256",
          "name": "_amount",
          "type": "uint256"
        }
      ],
      "name": "tresuryMint",
      "outputs": [],
      "stateMutability": "nonpayable",
      "type": "function"
    },
    {
      "inputs": [
        {
          "internalType": "address",
          "name": "_to",
          "type": "address"
        },
        {
          "internalType": "uint256",
          "name": "_amount",
          "type": "uint256"
        }
      ],
      "name": "tresuryPresaleMint",
      "outputs": [],
      "stateMutability": "nonpayable",
      "type": "function"
    },
    {
      "inputs": [
        {
          "internalType": "address",
          "name": "",
          "type": "address"
        }
      ],
      "name": "whitelist",
      "outputs": [
        {
          "internalType": "bool",
          "name": "",
          "type": "bool"
        }
      ],
      "stateMutability": "view",
      "type": "function"
    },
    {
      "inputs": [],
      "name": "withdraw",
      "outputs": [],
      "stateMutability": "payable",
      "type": "function"
    }
  ],
  "bytecode": "0x60c06040526005608081905264173539b7b760d91b60a09081526200002891600d919062000224565b506701118f178fb48000600e819055600f556115b3601055600660115560128054600160ff199182168117909255601491909155600060158190556016556017805490911690553480156200007c57600080fd5b5060405162003281380380620032818339810160408190526200009f916200037d565b835184908490620000b890600090602085019062000224565b508051620000ce90600190602084019062000224565b505050620000eb620000e56200010b60201b60201c565b6200010f565b620000f68262000161565b6200010181620001c9565b5050505062000484565b3390565b600a80546001600160a01b038381166001600160a01b0319831681179093556040519116919082907f8be0079c531659141344cd1fd0a4f28419497f9722a3daafe3b4186f6b6457e090600090a35050565b600a546001600160a01b03163314620001b05760405162461bcd60e51b815260206004820181905260248201526000805160206200326183398151915260448201526064015b60405180910390fd5b8051620001c590600c90602084019062000224565b5050565b600a546001600160a01b03163314620002145760405162461bcd60e51b81526020600482018190526024820152600080516020620032618339815191526044820152606401620001a7565b8051620001c59060139060208401905b828054620002329062000431565b90600052602060002090601f016020900481019282620002565760008555620002a1565b82601f106200027157805160ff1916838001178555620002a1565b82800160010185558215620002a1579182015b82811115620002a157825182559160200191906001019062000284565b50620002af929150620002b3565b5090565b5b80821115620002af5760008155600101620002b4565b600082601f830112620002db578081fd5b81516001600160401b0380821115620002f857620002f86200046e565b604051601f8301601f19908116603f011681019082821181831017156200032357620003236200046e565b816040528381526020925086838588010111156200033f578485fd5b8491505b8382101562000362578582018301518183018401529082019062000343565b838211156200037357848385830101525b9695505050505050565b6000806000806080858703121562000393578384fd5b84516001600160401b0380821115620003aa578586fd5b620003b888838901620002ca565b95506020870151915080821115620003ce578485fd5b620003dc88838901620002ca565b94506040870151915080821115620003f2578384fd5b6200040088838901620002ca565b9350606087015191508082111562000416578283fd5b506200042587828801620002ca565b91505092959194509250565b600181811c908216806200044657607f821691505b602082108114156200046857634e487b7160e01b600052602260045260246000fd5b50919050565b634e487b7160e01b600052604160045260246000fd5b612dcd80620004946000396000f3fe60806040526004361061027d5760003560e01c806366aabbab1161014f578063b88d4fde116100c1578063e43252d71161007a578063e43252d714610734578063e956e92f14610754578063e985e9c514610774578063f2ac7b0d146107bd578063f2c4ce1e146107d3578063f2fde38b146107f357600080fd5b8063b88d4fde14610693578063c6682862146106b3578063c87b56dd146106c8578063cc9ff9c6146106e8578063d5abeb01146106fe578063da3ef23f1461071457600080fd5b80638420fc96116101135780638420fc96146105dd5780638da5cb5b146105fd57806395d89b411461061b5780639b19251a14610630578063a0712d6814610660578063a22cb4651461067357600080fd5b806366aabbab1461053a5780636f8b44b01461057357806370a0823114610593578063715018a6146105b357806371ee45e9146105c857600080fd5b806336db7129116101f3578063453afb0f116101ac578063453afb0f1461048a5780634f6ccce7146104a057806355f804b3146104c05780635c4ec71d146104e05780635c975abb146105005780636352211e1461051a57600080fd5b806336db7129146103fc5780633bc50f19146104125780633ccfd60b1461042c5780633cdd8d231461043457806342842e0e1461044a57806342966c681461046a57600080fd5b8063095ea7b311610245578063095ea7b3146103485780630bdb095e1461036857806318160ddd146103875780631dbc88361461039c57806323b872dd146103bc5780632f745c59146103dc57600080fd5b806301ffc9a71461028257806302329a29146102b757806306fdde03146102d9578063081812fc146102fb578063081c8c4414610333575b600080fd5b34801561028e57600080fd5b506102a261029d366004612923565b610813565b60405190151581526020015b60405180910390f35b3480156102c357600080fd5b506102d76102d2366004612909565b61083e565b005b3480156102e557600080fd5b506102ee610884565b6040516102ae9190612ae4565b34801561030757600080fd5b5061031b6103163660046129a1565b610916565b6040516001600160a01b0390911681526020016102ae565b34801561033f57600080fd5b506102ee61099e565b34801561035457600080fd5b506102d7610363366004612831565b610a2c565b34801561037457600080fd5b506014545b6040519081526020016102ae565b34801561039357600080fd5b50600854610379565b3480156103a857600080fd5b506102d76103b736600461285a565b610b42565b3480156103c857600080fd5b506102d76103d7366004612754565b610be6565b3480156103e857600080fd5b506103796103f7366004612831565b610c49565b34801561040857600080fd5b5061037960115481565b34801561041e57600080fd5b506017546102a29060ff1681565b6102d7610cdf565b34801561044057600080fd5b5061037960155481565b34801561045657600080fd5b506102d7610465366004612754565b610d7d565b34801561047657600080fd5b506102d76104853660046129a1565b610dc4565b34801561049657600080fd5b50610379600f5481565b3480156104ac57600080fd5b506103796104bb3660046129a1565b610e22565b3480156104cc57600080fd5b506102d76104db36600461295b565b610ec3565b3480156104ec57600080fd5b506102d76104fb366004612831565b610f00565b34801561050c57600080fd5b506012546102a29060ff1681565b34801561052657600080fd5b5061031b6105353660046129a1565b611022565b34801561054657600080fd5b506102a2610555366004612701565b6001600160a01b031660009081526018602052604090205460ff1690565b34801561057f57600080fd5b506102d761058e3660046129a1565b611099565b34801561059f57600080fd5b506103796105ae366004612701565b6110c8565b3480156105bf57600080fd5b506102d761114f565b3480156105d457600080fd5b506102d7611185565b3480156105e957600080fd5b506102d76105f8366004612831565b6111b5565b34801561060957600080fd5b50600a546001600160a01b031661031b565b34801561062757600080fd5b506102ee61138f565b34801561063c57600080fd5b506102a261064b366004612701565b60186020526000908152604090205460ff1681565b6102d761066e3660046129a1565b61139e565b34801561067f57600080fd5b506102d761068e366004612808565b611682565b34801561069f57600080fd5b506102d76106ae36600461278f565b611747565b3480156106bf57600080fd5b506102ee6117ac565b3480156106d457600080fd5b506102ee6106e33660046129a1565b6117b9565b3480156106f457600080fd5b50610379600e5481565b34801561070a57600080fd5b5061037960105481565b34801561072057600080fd5b506102d761072f36600461295b565b611943565b34801561074057600080fd5b506102d761074f366004612701565b611980565b34801561076057600080fd5b506102d761076f366004612701565b6119f0565b34801561078057600080fd5b506102a261078f366004612722565b6001600160a01b03918216600090815260056020908152604080832093909416825291909152205460ff1690565b3480156107c957600080fd5b5061037960165481565b3480156107df57600080fd5b506102d76107ee36600461295b565b611a43565b3480156107ff57600080fd5b506102d761080e366004612701565b611a80565b60006001600160e01b0319821663780e9d6360e01b1480610838575061083882611b18565b92915050565b600a546001600160a01b031633146108715760405162461bcd60e51b815260040161086890612b90565b60405180910390fd5b6012805460ff1916911515919091179055565b60606000805461089390612cd5565b80601f01602080910402602001604051908101604052809291908181526020018280546108bf90612cd5565b801561090c5780601f106108e15761010080835404028352916020019161090c565b820191906000526020600020905b8154815290600101906020018083116108ef57829003601f168201915b5050505050905090565b600061092182611b68565b6109825760405162461bcd60e51b815260206004820152602c60248201527f4552433732313a20617070726f76656420717565727920666f72206e6f6e657860448201526b34b9ba32b73a103a37b5b2b760a11b6064820152608401610868565b506000908152600460205260409020546001600160a01b031690565b601380546109ab90612cd5565b80601f01602080910402602001604051908101604052809291908181526020018280546109d790612cd5565b8015610a245780601f106109f957610100808354040283529160200191610a24565b820191906000526020600020905b815481529060010190602001808311610a0757829003601f168201915b505050505081565b6000610a3782611022565b9050806001600160a01b0316836001600160a01b03161415610aa55760405162461bcd60e51b815260206004820152602160248201527f4552433732313a20617070726f76616c20746f2063757272656e74206f776e656044820152603960f91b6064820152608401610868565b336001600160a01b0382161480610ac15750610ac1813361078f565b610b335760405162461bcd60e51b815260206004820152603860248201527f4552433732313a20617070726f76652063616c6c6572206973206e6f74206f7760448201527f6e6572206e6f7220617070726f76656420666f7220616c6c00000000000000006064820152608401610868565b610b3d8383611b85565b505050565b600a546001600160a01b03163314610b6c5760405162461bcd60e51b815260040161086890612b90565b60005b8151811015610be257600160186000848481518110610b9e57634e487b7160e01b600052603260045260246000fd5b6020908102919091018101516001600160a01b03168252810191909152604001600020805460ff191691151591909117905580610bda81612d10565b915050610b6f565b5050565b6000610e10600b5442610bf99190612c92565b610c039190612c5f565b905060188111610c1257600080fd5b610c1c3383611bf3565b610c385760405162461bcd60e51b815260040161086890612bc5565b610c43848484611cd9565b50505050565b6000610c54836110c8565b8210610cb65760405162461bcd60e51b815260206004820152602b60248201527f455243373231456e756d657261626c653a206f776e657220696e646578206f7560448201526a74206f6620626f756e647360a81b6064820152608401610868565b506001600160a01b03919091166000908152600660209081526040808320938352929052205490565b600a546001600160a01b03163314610d095760405162461bcd60e51b815260040161086890612b90565b6000610d1d600a546001600160a01b031690565b6001600160a01b03164760405160006040518083038185875af1925050503d8060008114610d67576040519150601f19603f3d011682016040523d82523d6000602084013e610d6c565b606091505b5050905080610d7a57600080fd5b50565b6000610e10600b5442610d909190612c92565b610d9a9190612c5f565b905060188111610da957600080fd5b610c4384848460405180602001604052806000815250611747565b600a546001600160a01b03163314610dee5760405162461bcd60e51b815260040161086890612b90565b60405181907feeabb09be3bb05c61220a396494efe63159608a2e41120749da291153772556590600090a2610d7a81611e84565b6000610e2d60085490565b8210610e905760405162461bcd60e51b815260206004820152602c60248201527f455243373231456e756d657261626c653a20676c6f62616c20696e646578206f60448201526b7574206f6620626f756e647360a01b6064820152608401610868565b60088281548110610eb157634e487b7160e01b600052603260045260246000fd5b90600052602060002001549050919050565b600a546001600160a01b03163314610eed5760405162461bcd60e51b815260040161086890612b90565b8051610be290600c9060208401906125e4565b600a546001600160a01b03163314610f2a5760405162461bcd60e51b815260040161086890612b90565b60008111610f6b5760405162461bcd60e51b815260206004820152600e60248201526d125b9d985b1a5908185b5bdd5b9d60921b6044820152606401610868565b601054600182601454610f7e9190612c47565b610f889190612c92565b1115610fa65760405162461bcd60e51b815260040161086890612b49565b60015b818111610b3d57610fbb601454611b68565b611010576014546040517fddb5d2bc112c1172101a21fb089cd15f592240cd38d55a4fec3ae003442c7bad90600090a2610ff783601454611f2b565b60016014600082825461100a9190612c47565b90915550505b8061101a81612d10565b915050610fa9565b6000818152600260205260408120546001600160a01b0316806108385760405162461bcd60e51b815260206004820152602960248201527f4552433732313a206f776e657220717565727920666f72206e6f6e657869737460448201526832b73a103a37b5b2b760b91b6064820152608401610868565b600a546001600160a01b031633146110c35760405162461bcd60e51b815260040161086890612b90565b601055565b60006001600160a01b0382166111335760405162461bcd60e51b815260206004820152602a60248201527f4552433732313a2062616c616e636520717565727920666f7220746865207a65604482015269726f206164647265737360b01b6064820152608401610868565b506001600160a01b031660009081526003602052604090205490565b600a546001600160a01b031633146111795760405162461bcd60e51b815260040161086890612b90565b6111836000611f45565b565b600a546001600160a01b031633146111af5760405162461bcd60e51b815260040161086890612b90565b42600b55565b600a546001600160a01b031633146111df5760405162461bcd60e51b815260040161086890612b90565b60125460ff16156111ef57600080fd5b600081116112305760405162461bcd60e51b815260206004820152600e60248201526d125b9d985b1a5908185b5bdd5b9d60921b6044820152606401610868565b601054816015546112419190612c47565b111561125f5760405162461bcd60e51b815260040161086890612b49565b602d8160165461126f9190612c47565b11156112d65760405162461bcd60e51b815260206004820152603060248201527f43616e6e6f7420657863656564206d6178206e756d626572206f66205472656160448201526f1cdd5c9e4814d85b1948105b5bdd5b9d60821b6064820152608401610868565b60015b81811161135a576112f6816015546112f19190612c47565b611b68565b61134857806015546113089190612c47565b6040517fddb5d2bc112c1172101a21fb089cd15f592240cd38d55a4fec3ae003442c7bad90600090a261134883826015546113439190612c47565b611f2b565b8061135281612d10565b9150506112d9565b50806015600082825461136d9190612c47565b9250508190555080601660008282546113869190612c47565b90915550505050565b60606001805461089390612cd5565b60125460ff16156113ae57600080fd5b600081116113fe5760405162461bcd60e51b815260206004820152601960248201527f4d757374206174206c65617374206d696e7420312079657469000000000000006044820152606401610868565b6011548161140b336110c8565b6114159190612c47565b11156114725760405162461bcd60e51b815260206004820152602660248201527f43616e206e6f74206d696e7420657863656564203620796574697320706572206044820152651dd85b1b195d60d21b6064820152608401610868565b60038111156114c35760405162461bcd60e51b815260206004820181905260248201527f416d6f756e74206d757374206265206c657373207468616e20332059657469736044820152606401610868565b6010546001826014546114d69190612c47565b6114e09190612c92565b11156114eb57600080fd5b600b5468056bc75e2d6310000090600090610e109061150a9042612c92565b6115149190612c5f565b9050601881106115515760175460ff166115475760155461153690602e612c47565b6014556017805460ff191660011790555b600f5491506115e0565b3360009081526018602052604090205460ff166115c35760405162461bcd60e51b815260206004820152602a60248201527f596f7520617265206e6f7420696e207468652077686974656c69737420746f206044820152696d696e7420596574697360b01b6064820152608401610868565b82601560008282546115d59190612c47565b9091555050600e5491505b600a546001600160a01b03163314611608576115fc8383612c73565b34101561160857600080fd5b60005b83811015610c435761161e601454611b68565b611670576014546040517fddb5d2bc112c1172101a21fb089cd15f592240cd38d55a4fec3ae003442c7bad90600090a261165a33601454611f2b565b6014805490600061166a83612d10565b91905055505b8061167a81612d10565b91505061160b565b6001600160a01b0382163314156116db5760405162461bcd60e51b815260206004820152601960248201527f4552433732313a20617070726f766520746f2063616c6c6572000000000000006044820152606401610868565b3360008181526005602090815260408083206001600160a01b03871680855290835292819020805460ff191686151590811790915590519081529192917f17307eab39ab6107e8899845ad3d59bd9653f200f220920489ca2b5937696c31910160405180910390a35050565b6000610e10600b544261175a9190612c92565b6117649190612c5f565b90506018811161177357600080fd5b61177d3384611bf3565b6117995760405162461bcd60e51b815260040161086890612bc5565b6117a585858585611f97565b5050505050565b600d80546109ab90612cd5565b60606117c482611b68565b6118285760405162461bcd60e51b815260206004820152602f60248201527f4552433732314d657461646174613a2055524920717565727920666f72206e6f60448201526e3732bc34b9ba32b73a103a37b5b2b760891b6064820152608401610868565b6000610e10600b544261183b9190612c92565b6118459190612c5f565b905060308110156118e3576013805461185d90612cd5565b80601f016020809104026020016040519081016040528092919081815260200182805461188990612cd5565b80156118d65780601f106118ab576101008083540402835291602001916118d6565b820191906000526020600020905b8154815290600101906020018083116118b957829003601f168201915b5050505050915050919050565b60006118ed611fca565b9050600081511161190d576040518060200160405280600081525061193b565b8061191785611fd9565b600d60405160200161192b939291906129e5565b6040516020818303038152906040525b949350505050565b600a546001600160a01b0316331461196d5760405162461bcd60e51b815260040161086890612b90565b8051610be290600d9060208401906125e4565b600a546001600160a01b031633146119aa5760405162461bcd60e51b815260040161086890612b90565b6001600160a01b03811660009081526018602052604090205460ff16610d7a576001600160a01b0381166000908152601860205260409020805460ff1916600117905550565b600a546001600160a01b03163314611a1a5760405162461bcd60e51b815260040161086890612b90565b6001600160a01b03166000908152601860205260409020805460ff19811660ff90911615179055565b600a546001600160a01b03163314611a6d5760405162461bcd60e51b815260040161086890612b90565b8051610be29060139060208401906125e4565b600a546001600160a01b03163314611aaa5760405162461bcd60e51b815260040161086890612b90565b6001600160a01b038116611b0f5760405162461bcd60e51b815260206004820152602660248201527f4f776e61626c653a206e6577206f776e657220697320746865207a65726f206160448201526564647265737360d01b6064820152608401610868565b610d7a81611f45565b60006001600160e01b031982166380ac58cd60e01b1480611b4957506001600160e01b03198216635b5e139f60e01b145b8061083857506301ffc9a760e01b6001600160e01b0319831614610838565b6000908152600260205260409020546001600160a01b0316151590565b600081815260046020526040902080546001600160a01b0319166001600160a01b0384169081179091558190611bba82611022565b6001600160a01b03167f8c5be1e5ebec7d5bd14f71427d1e84f3dd0314c0f7b2291e5b200ac8c7c3b92560405160405180910390a45050565b6000611bfe82611b68565b611c5f5760405162461bcd60e51b815260206004820152602c60248201527f4552433732313a206f70657261746f7220717565727920666f72206e6f6e657860448201526b34b9ba32b73a103a37b5b2b760a11b6064820152608401610868565b6000611c6a83611022565b9050806001600160a01b0316846001600160a01b03161480611ca55750836001600160a01b0316611c9a84610916565b6001600160a01b0316145b8061193b57506001600160a01b0380821660009081526005602090815260408083209388168352929052205460ff1661193b565b826001600160a01b0316611cec82611022565b6001600160a01b031614611d545760405162461bcd60e51b815260206004820152602960248201527f4552433732313a207472616e73666572206f6620746f6b656e2074686174206960448201526839903737ba1037bbb760b91b6064820152608401610868565b6001600160a01b038216611db65760405162461bcd60e51b8152602060048201526024808201527f4552433732313a207472616e7366657220746f20746865207a65726f206164646044820152637265737360e01b6064820152608401610868565b611dc18383836120f3565b611dcc600082611b85565b6001600160a01b0383166000908152600360205260408120805460019290611df5908490612c92565b90915550506001600160a01b0382166000908152600360205260408120805460019290611e23908490612c47565b909155505060008181526002602052604080822080546001600160a01b0319166001600160a01b0386811691821790925591518493918716917fddf252ad1be2c89b69c2b068fc378daa952ba7f163c4a11628f55a4df523b3ef91a4505050565b6000611e8f82611022565b9050611e9d816000846120f3565b611ea8600083611b85565b6001600160a01b0381166000908152600360205260408120805460019290611ed1908490612c92565b909155505060008281526002602052604080822080546001600160a01b0319169055518391906001600160a01b038416907fddf252ad1be2c89b69c2b068fc378daa952ba7f163c4a11628f55a4df523b3ef908390a45050565b610be28282604051806020016040528060008152506121ab565b600a80546001600160a01b038381166001600160a01b0319831681179093556040519116919082907f8be0079c531659141344cd1fd0a4f28419497f9722a3daafe3b4186f6b6457e090600090a35050565b611fa2848484611cd9565b611fae848484846121de565b610c435760405162461bcd60e51b815260040161086890612af7565b6060600c805461089390612cd5565b606081611ffd5750506040805180820190915260018152600360fc1b602082015290565b8160005b8115612027578061201181612d10565b91506120209050600a83612c5f565b9150612001565b60008167ffffffffffffffff81111561205057634e487b7160e01b600052604160045260246000fd5b6040519080825280601f01601f19166020018201604052801561207a576020820181803683370190505b5090505b841561193b5761208f600183612c92565b915061209c600a86612d2b565b6120a7906030612c47565b60f81b8183815181106120ca57634e487b7160e01b600052603260045260246000fd5b60200101906001600160f81b031916908160001a9053506120ec600a86612c5f565b945061207e565b6001600160a01b03831661214e5761214981600880546000838152600960205260408120829055600182018355919091527ff3f7a9fe364faab93b216da50a3214154f22a0a2b415b23a84c8169e8b636ee30155565b612171565b816001600160a01b0316836001600160a01b0316146121715761217183826122eb565b6001600160a01b03821661218857610b3d81612388565b826001600160a01b0316826001600160a01b031614610b3d57610b3d8282612461565b6121b583836124a5565b6121c260008484846121de565b610b3d5760405162461bcd60e51b815260040161086890612af7565b60006001600160a01b0384163b156122e057604051630a85bd0160e11b81526001600160a01b0385169063150b7a0290612222903390899088908890600401612aa7565b602060405180830381600087803b15801561223c57600080fd5b505af192505050801561226c575060408051601f3d908101601f191682019092526122699181019061293f565b60015b6122c6573d80801561229a576040519150601f19603f3d011682016040523d82523d6000602084013e61229f565b606091505b5080516122be5760405162461bcd60e51b815260040161086890612af7565b805181602001fd5b6001600160e01b031916630a85bd0160e11b14905061193b565b506001949350505050565b600060016122f8846110c8565b6123029190612c92565b600083815260076020526040902054909150808214612355576001600160a01b03841660009081526006602090815260408083208584528252808320548484528184208190558352600790915290208190555b5060009182526007602090815260408084208490556001600160a01b039094168352600681528383209183525290812055565b60085460009061239a90600190612c92565b600083815260096020526040812054600880549394509092849081106123d057634e487b7160e01b600052603260045260246000fd5b9060005260206000200154905080600883815481106123ff57634e487b7160e01b600052603260045260246000fd5b600091825260208083209091019290925582815260099091526040808220849055858252812055600880548061244557634e487b7160e01b600052603160045260246000fd5b6001900381819060005260206000200160009055905550505050565b600061246c836110c8565b6001600160a01b039093166000908152600660209081526040808320868452825280832085905593825260079052919091209190915550565b6001600160a01b0382166124fb5760405162461bcd60e51b815260206004820181905260248201527f4552433732313a206d696e7420746f20746865207a65726f20616464726573736044820152606401610868565b61250481611b68565b156125515760405162461bcd60e51b815260206004820152601c60248201527f4552433732313a20746f6b656e20616c7265616479206d696e746564000000006044820152606401610868565b61255d600083836120f3565b6001600160a01b0382166000908152600360205260408120805460019290612586908490612c47565b909155505060008181526002602052604080822080546001600160a01b0319166001600160a01b03861690811790915590518392907fddf252ad1be2c89b69c2b068fc378daa952ba7f163c4a11628f55a4df523b3ef908290a45050565b8280546125f090612cd5565b90600052602060002090601f0160209004810192826126125760008555612658565b82601f1061262b57805160ff1916838001178555612658565b82800160010185558215612658579182015b8281111561265857825182559160200191906001019061263d565b50612664929150612668565b5090565b5b808211156126645760008155600101612669565b600067ffffffffffffffff83111561269757612697612d6b565b6126aa601f8401601f1916602001612c16565b90508281528383830111156126be57600080fd5b828260208301376000602084830101529392505050565b80356001600160a01b03811681146126ec57600080fd5b919050565b803580151581146126ec57600080fd5b600060208284031215612712578081fd5b61271b826126d5565b9392505050565b60008060408385031215612734578081fd5b61273d836126d5565b915061274b602084016126d5565b90509250929050565b600080600060608486031215612768578081fd5b612771846126d5565b925061277f602085016126d5565b9150604084013590509250925092565b600080600080608085870312156127a4578081fd5b6127ad856126d5565b93506127bb602086016126d5565b925060408501359150606085013567ffffffffffffffff8111156127dd578182fd5b8501601f810187136127ed578182fd5b6127fc8782356020840161267d565b91505092959194509250565b6000806040838503121561281a578182fd5b612823836126d5565b915061274b602084016126f1565b60008060408385031215612843578182fd5b61284c836126d5565b946020939093013593505050565b6000602080838503121561286c578182fd5b823567ffffffffffffffff80821115612883578384fd5b818501915085601f830112612896578384fd5b8135818111156128a8576128a8612d6b565b8060051b91506128b9848301612c16565b8181528481019084860184860187018a10156128d3578788fd5b8795505b838610156128fc576128e8816126d5565b8352600195909501949186019186016128d7565b5098975050505050505050565b60006020828403121561291a578081fd5b61271b826126f1565b600060208284031215612934578081fd5b813561271b81612d81565b600060208284031215612950578081fd5b815161271b81612d81565b60006020828403121561296c578081fd5b813567ffffffffffffffff811115612982578182fd5b8201601f81018413612992578182fd5b61193b8482356020840161267d565b6000602082840312156129b2578081fd5b5035919050565b600081518084526129d1816020860160208601612ca9565b601f01601f19169290920160200192915050565b6000845160206129f88285838a01612ca9565b855191840191612a0b8184848a01612ca9565b85549201918390600181811c9080831680612a2757607f831692505b858310811415612a4557634e487b7160e01b88526022600452602488fd5b808015612a595760018114612a6a57612a96565b60ff19851688528388019550612a96565b60008b815260209020895b85811015612a8e5781548a820152908401908801612a75565b505083880195505b50939b9a5050505050505050505050565b6001600160a01b0385811682528416602082015260408101839052608060608201819052600090612ada908301846129b9565b9695505050505050565b60208152600061271b60208301846129b9565b60208082526032908201527f4552433732313a207472616e7366657220746f206e6f6e20455243373231526560408201527131b2b4bb32b91034b6b83632b6b2b73a32b960711b606082015260800190565b60208082526027908201527f43616e6e6f7420657863656564206d6178696d756d206e756d626572206f662060408201526639bab838363c9760c91b606082015260800190565b6020808252818101527f4f776e61626c653a2063616c6c6572206973206e6f7420746865206f776e6572604082015260600190565b60208082526031908201527f4552433732313a207472616e736665722063616c6c6572206973206e6f74206f6040820152701ddb995c881b9bdc88185c1c1c9bdd9959607a1b606082015260800190565b604051601f8201601f1916810167ffffffffffffffff81118282101715612c3f57612c3f612d6b565b604052919050565b60008219821115612c5a57612c5a612d3f565b500190565b600082612c6e57612c6e612d55565b500490565b6000816000190483118215151615612c8d57612c8d612d3f565b500290565b600082821015612ca457612ca4612d3f565b500390565b60005b83811015612cc4578181015183820152602001612cac565b83811115610c435750506000910152565b600181811c90821680612ce957607f821691505b60208210811415612d0a57634e487b7160e01b600052602260045260246000fd5b50919050565b6000600019821415612d2457612d24612d3f565b5060010190565b600082612d3a57612d3a612d55565b500690565b634e487b7160e01b600052601160045260246000fd5b634e487b7160e01b600052601260045260246000fd5b634e487b7160e01b600052604160045260246000fd5b6001600160e01b031981168114610d7a57600080fdfea264697066735822122013d40b2ed445c7a18307fe14350a8df1580e7c7a94b9554f3a0ca2318c4d720264736f6c634300080400334f776e61626c653a2063616c6c6572206973206e6f7420746865206f776e6572",
  "linkReferences": {},
  "deployedLinkReferences": {}
}