{
  "_format": "hh-sol-artifact-1",
  "contractName": "UnstructuredProxy",
  "sourceName": "contracts/mainnetTesting/UnstructuredProxy.sol",
  "abi": [
    {
      "inputs": [],
      "stateMutability": "nonpayable",
      "type": "constructor"
    },
    {
      "stateMutability": "payable",
      "type": "fallback"
    },
    {
      "inputs": [],
      "name": "implementation",
      "outputs": [
        {
          "internalType": "address",
          "name": "",
          "type": "address"
        }
      ],
      "stateMutability": "view",
      "type": "function"
    },
    {
      "inputs": [],
      "name": "proxyOwner",
      "outputs": [
        {
          "internalType": "address",
          "name": "owner",
          "type": "address"
        }
      ],
      "stateMutability": "view",
      "type": "function"
    },
    {
      "inputs": [
        {
          "internalType": "address",
          "name": "_newOwner",
          "type": "address"
        }
      ],
      "name": "transferProxyOwnership",
      "outputs": [],
      "stateMutability": "nonpayable",
      "type": "function"
    },
    {
      "inputs": [
        {
          "internalType": "address",
          "name": "_impl",
          "type": "address"
        }
      ],
      "name": "upgradeTo",
      "outputs": [],
      "stateMutability": "nonpayable",
      "type": "function"
    },
    {
      "stateMutability": "payable",
      "type": "receive"
    }
  ],
  "bytecode": "0x608060405234801561001057600080fd5b50610039337f41abdf0bc588410884c48a0fda5e2a0b74e12008127712c9a6c9ef14b05dadeb55565b610315806100486000396000f3fe6080604052600436106100435760003560e01c8063025313a21461005a5780633659cfe61461008b5780635c60da1b146100ab578063f1739cae146100c057610052565b36610052576100506100e0565b005b6100506100e0565b34801561006657600080fd5b5061006f6100f2565b6040516001600160a01b03909116815260200160405180910390f35b34801561009757600080fd5b506100506100a6366004610286565b610117565b3480156100b757600080fd5b5061006f610164565b3480156100cc57600080fd5b506100506100db366004610286565b610173565b6100f06100eb6101e6565b61020b565b565b7f41abdf0bc588410884c48a0fda5e2a0b74e12008127712c9a6c9ef14b05dadeb5490565b61011f6100f2565b6001600160a01b0316336001600160a01b0316146101585760405162461bcd60e51b815260040161014f906102b6565b60405180910390fd5b6101618161022f565b50565b600061016e6101e6565b905090565b61017b6100f2565b6001600160a01b0316336001600160a01b0316146101ab5760405162461bcd60e51b815260040161014f906102b6565b6001600160a01b0381166101be57600080fd5b610161817f41abdf0bc588410884c48a0fda5e2a0b74e12008127712c9a6c9ef14b05dadeb55565b7ffede9e42e1fa6028f70c9467c66f74b1840d179d4e78cd28a66d5f518a70a7ae5490565b3660008037600080366000845af43d6000803e80801561022a573d6000f35b3d6000fd5b60006102396101e6565b9050816001600160a01b0316816001600160a01b0316141561025a57600080fd5b610282827ffede9e42e1fa6028f70c9467c66f74b1840d179d4e78cd28a66d5f518a70a7ae55565b5050565b60006020828403121561029857600080fd5b81356001600160a01b03811681146102af57600080fd5b9392505050565b6020808252600f908201526e2737ba10283937bc3c9037bbb732b960891b60408201526060019056fea2646970667358221220f3cae57b0691efc9fe2c79fb9b1b3a423ac510ccc9fec1c14e4917cc9fc93b5264736f6c63430008070033",
  "linkReferences": {},
  "deployedLinkReferences": {}
}