{
  "_format": "hh-sol-artifact-1",
  "contractName": "test1",
  "sourceName": "contracts/mainnetTesting/dummy.sol",
  "abi": [
    {
      "inputs": [],
      "name": "GetFrxstRates",
      "outputs": [
        {
          "internalType": "uint256[][]",
          "name": "",
          "type": "uint256[][]"
        }
      ],
      "stateMutability": "view",
      "type": "function"
    },
    {
      "inputs": [
        {
          "internalType": "uint256[][]",
          "name": "_rates",
          "type": "uint256[][]"
        }
      ],
      "name": "SetFrxstRates",
      "outputs": [],
      "stateMutability": "nonpayable",
      "type": "function"
    },
    {
      "inputs": [
        {
          "internalType": "uint256",
          "name": "",
          "type": "uint256"
        },
        {
          "internalType": "uint256",
          "name": "",
          "type": "uint256"
        }
      ],
      "name": "rates",
      "outputs": [
        {
          "internalType": "uint256",
          "name": "",
          "type": "uint256"
        }
      ],
      "stateMutability": "view",
      "type": "function"
    }
  ],
  "bytecode": "0x603c60e090815260326101005260286101205260809081526046610140908152605a6101605260506101805260a05261020060405260646101a090815260786101c052608c6101e05260c05261005990600090600361006c565b5034801561006657600080fd5b50610162565b8280548282559060005260206000209081019282156100b3579160200282015b828111156100b35782516100a390839060036100c3565b509160200191906001019061008c565b506100bf92915061010f565b5090565b828054828255906000526020600020908101928215610103579160200282015b82811115610103578251829060ff169055916020019190600101906100e3565b506100bf92915061012c565b808211156100bf5760006101238282610141565b5060010161010f565b5b808211156100bf576000815560010161012d565b508054600082559060005260206000209081019061015f919061012c565b50565b6104de806101716000396000f3fe608060405234801561001057600080fd5b50600436106100415760003560e01c806356aaf2571461004657806359b31abf1461005b578063a1b610c514610081575b600080fd5b61005961005436600461027a565b610096565b005b61006e610069366004610391565b6100ad565b6040519081526020015b60405180910390f35b6100896100ea565b60405161007891906103b3565b80516100a9906000906020840190610183565b5050565b600082815481106100bd57600080fd5b9060005260206000200181815481106100d557600080fd5b90600052602060002001600091509150505481565b60606000805480602002602001604051908101604052809291908181526020016000905b8282101561017a5760008481526020908190208301805460408051828502810185019091528181529283018282801561016657602002820191906000526020600020905b815481526020019060010190808311610152575b50505050508152602001906001019061010e565b50505050905090565b8280548282559060005260206000209081019282156101d0579160200282015b828111156101d057825180516101c09184916020909101906101e0565b50916020019190600101906101a3565b506101dc929150610227565b5090565b82805482825590600052602060002090810192821561021b579160200282015b8281111561021b578251825591602001919060010190610200565b506101dc929150610244565b808211156101dc57600061023b8282610259565b50600101610227565b5b808211156101dc5760008155600101610245565b50805460008255906000526020600020908101906102779190610244565b50565b6000602080838503121561028d57600080fd5b823567ffffffffffffffff808211156102a557600080fd5b818501915085601f8301126102b957600080fd5b81356102cc6102c78261046e565b61043d565b80828252858201915085850189878560051b88010111156102ec57600080fd5b60005b848110156103825781358681111561030657600080fd5b8701603f81018c1361031757600080fd5b888101356103276102c78261046e565b808282528b82019150604084018f60408560051b870101111561034957600080fd5b600094505b8385101561036c578035835260019490940193918c01918c0161034e565b50875250505092870192908701906001016102ef565b50909998505050505050505050565b600080604083850312156103a457600080fd5b50508035926020909101359150565b6000602080830181845280855180835260408601915060408160051b87010192508387016000805b8381101561042f57888603603f19018552825180518088529088019088880190845b818110156104195783518352928a0192918a01916001016103fd565b50909750505093860193918601916001016103db565b509398975050505050505050565b604051601f8201601f1916810167ffffffffffffffff8111828210171561046657610466610492565b604052919050565b600067ffffffffffffffff82111561048857610488610492565b5060051b60200190565b634e487b7160e01b600052604160045260246000fdfea2646970667358221220d613263cf329c89934a574880e9107304e0ab2b059f0897da0c692bf5cf4604e64736f6c63430008070033",
  "linkReferences": {},
  "deployedLinkReferences": {}
}