{
  "contracts/mainnetTesting/UnstructuredProxy.sol": {
    "UnstructuredProxy": {
      "abi": [
        {
          "inputs": [],
          "stateMutability": "nonpayable",
          "type": "constructor"
        },
        {
          "stateMutability": "payable",
          "type": "fallback"
        },
        {
          "inputs": [],
          "name": "implementation",
          "outputs": [
            {
              "internalType": "address",
              "name": "",
              "type": "address"
            }
          ],
          "stateMutability": "view",
          "type": "function"
        },
        {
          "inputs": [],
          "name": "proxyOwner",
          "outputs": [
            {
              "internalType": "address",
              "name": "owner",
              "type": "address"
            }
          ],
          "stateMutability": "view",
          "type": "function"
        },
        {
          "inputs": [
            {
              "internalType": "address",
              "name": "_newOwner",
              "type": "address"
            }
          ],
          "name": "transferProxyOwnership",
          "outputs": [],
          "stateMutability": "nonpayable",
          "type": "function"
        },
        {
          "inputs": [
            {
              "internalType": "address",
              "name": "_impl",
              "type": "address"
            }
          ],
          "name": "upgradeTo",
          "outputs": [],
          "stateMutability": "nonpayable",
          "type": "function"
        },
        {
          "stateMutability": "payable",
          "type": "receive"
        }
      ],
      "evm": {
        "bytecode": {
          "linkReferences": {},
          "object": "608060405234801561001057600080fd5b50610039337f41abdf0bc588410884c48a0fda5e2a0b74e12008127712c9a6c9ef14b05dadeb55565b610315806100486000396000f3fe6080604052600436106100435760003560e01c8063025313a21461005a5780633659cfe61461008b5780635c60da1b146100ab578063f1739cae146100c057610052565b36610052576100506100e0565b005b6100506100e0565b34801561006657600080fd5b5061006f6100f2565b6040516001600160a01b03909116815260200160405180910390f35b34801561009757600080fd5b506100506100a6366004610286565b610117565b3480156100b757600080fd5b5061006f610164565b3480156100cc57600080fd5b506100506100db366004610286565b610173565b6100f06100eb6101e6565b61020b565b565b7f41abdf0bc588410884c48a0fda5e2a0b74e12008127712c9a6c9ef14b05dadeb5490565b61011f6100f2565b6001600160a01b0316336001600160a01b0316146101585760405162461bcd60e51b815260040161014f906102b6565b60405180910390fd5b6101618161022f565b50565b600061016e6101e6565b905090565b61017b6100f2565b6001600160a01b0316336001600160a01b0316146101ab5760405162461bcd60e51b815260040161014f906102b6565b6001600160a01b0381166101be57600080fd5b610161817f41abdf0bc588410884c48a0fda5e2a0b74e12008127712c9a6c9ef14b05dadeb55565b7ffede9e42e1fa6028f70c9467c66f74b1840d179d4e78cd28a66d5f518a70a7ae5490565b3660008037600080366000845af43d6000803e80801561022a573d6000f35b3d6000fd5b60006102396101e6565b9050816001600160a01b0316816001600160a01b0316141561025a57600080fd5b610282827ffede9e42e1fa6028f70c9467c66f74b1840d179d4e78cd28a66d5f518a70a7ae55565b5050565b60006020828403121561029857600080fd5b81356001600160a01b03811681146102af57600080fd5b9392505050565b6020808252600f908201526e2737ba10283937bc3c9037bbb732b960891b60408201526060019056fea2646970667358221220f3cae57b0691efc9fe2c79fb9b1b3a423ac510ccc9fec1c14e4917cc9fc93b5264736f6c63430008070033",
          "opcodes": "PUSH1 0x80 PUSH1 0x40 MSTORE CALLVALUE DUP1 ISZERO PUSH2 0x10 JUMPI PUSH1 0x0 DUP1 REVERT JUMPDEST POP PUSH2 0x39 CALLER PUSH32 0x41ABDF0BC588410884C48A0FDA5E2A0B74E12008127712C9A6C9EF14B05DADEB SSTORE JUMP JUMPDEST PUSH2 0x315 DUP1 PUSH2 0x48 PUSH1 0x0 CODECOPY PUSH1 0x0 RETURN INVALID PUSH1 0x80 PUSH1 0x40 MSTORE PUSH1 0x4 CALLDATASIZE LT PUSH2 0x43 JUMPI PUSH1 0x0 CALLDATALOAD PUSH1 0xE0 SHR DUP1 PUSH4 0x25313A2 EQ PUSH2 0x5A JUMPI DUP1 PUSH4 0x3659CFE6 EQ PUSH2 0x8B JUMPI DUP1 PUSH4 0x5C60DA1B EQ PUSH2 0xAB JUMPI DUP1 PUSH4 0xF1739CAE EQ PUSH2 0xC0 JUMPI PUSH2 0x52 JUMP JUMPDEST CALLDATASIZE PUSH2 0x52 JUMPI PUSH2 0x50 PUSH2 0xE0 JUMP JUMPDEST STOP JUMPDEST PUSH2 0x50 PUSH2 0xE0 JUMP JUMPDEST CALLVALUE DUP1 ISZERO PUSH2 0x66 JUMPI PUSH1 0x0 DUP1 REVERT JUMPDEST POP PUSH2 0x6F PUSH2 0xF2 JUMP JUMPDEST PUSH1 0x40 MLOAD PUSH1 0x1 PUSH1 0x1 PUSH1 0xA0 SHL SUB SWAP1 SWAP2 AND DUP2 MSTORE PUSH1 0x20 ADD PUSH1 0x40 MLOAD DUP1 SWAP2 SUB SWAP1 RETURN JUMPDEST CALLVALUE DUP1 ISZERO PUSH2 0x97 JUMPI PUSH1 0x0 DUP1 REVERT JUMPDEST POP PUSH2 0x50 PUSH2 0xA6 CALLDATASIZE PUSH1 0x4 PUSH2 0x286 JUMP JUMPDEST PUSH2 0x117 JUMP JUMPDEST CALLVALUE DUP1 ISZERO PUSH2 0xB7 JUMPI PUSH1 0x0 DUP1 REVERT JUMPDEST POP PUSH2 0x6F PUSH2 0x164 JUMP JUMPDEST CALLVALUE DUP1 ISZERO PUSH2 0xCC JUMPI PUSH1 0x0 DUP1 REVERT JUMPDEST POP PUSH2 0x50 PUSH2 0xDB CALLDATASIZE PUSH1 0x4 PUSH2 0x286 JUMP JUMPDEST PUSH2 0x173 JUMP JUMPDEST PUSH2 0xF0 PUSH2 0xEB PUSH2 0x1E6 JUMP JUMPDEST PUSH2 0x20B JUMP JUMPDEST JUMP JUMPDEST PUSH32 0x41ABDF0BC588410884C48A0FDA5E2A0B74E12008127712C9A6C9EF14B05DADEB SLOAD SWAP1 JUMP JUMPDEST PUSH2 0x11F PUSH2 0xF2 JUMP JUMPDEST PUSH1 0x1 PUSH1 0x1 PUSH1 0xA0 SHL SUB AND CALLER PUSH1 0x1 PUSH1 0x1 PUSH1 0xA0 SHL SUB AND EQ PUSH2 0x158 JUMPI PUSH1 0x40 MLOAD PUSH3 0x461BCD PUSH1 0xE5 SHL DUP2 MSTORE PUSH1 0x4 ADD PUSH2 0x14F SWAP1 PUSH2 0x2B6 JUMP JUMPDEST PUSH1 0x40 MLOAD DUP1 SWAP2 SUB SWAP1 REVERT JUMPDEST PUSH2 0x161 DUP2 PUSH2 0x22F JUMP JUMPDEST POP JUMP JUMPDEST PUSH1 0x0 PUSH2 0x16E PUSH2 0x1E6 JUMP JUMPDEST SWAP1 POP SWAP1 JUMP JUMPDEST PUSH2 0x17B PUSH2 0xF2 JUMP JUMPDEST PUSH1 0x1 PUSH1 0x1 PUSH1 0xA0 SHL SUB AND CALLER PUSH1 0x1 PUSH1 0x1 PUSH1 0xA0 SHL SUB AND EQ PUSH2 0x1AB JUMPI PUSH1 0x40 MLOAD PUSH3 0x461BCD PUSH1 0xE5 SHL DUP2 MSTORE PUSH1 0x4 ADD PUSH2 0x14F SWAP1 PUSH2 0x2B6 JUMP JUMPDEST PUSH1 0x1 PUSH1 0x1 PUSH1 0xA0 SHL SUB DUP2 AND PUSH2 0x1BE JUMPI PUSH1 0x0 DUP1 REVERT JUMPDEST PUSH2 0x161 DUP2 PUSH32 0x41ABDF0BC588410884C48A0FDA5E2A0B74E12008127712C9A6C9EF14B05DADEB SSTORE JUMP JUMPDEST PUSH32 0xFEDE9E42E1FA6028F70C9467C66F74B1840D179D4E78CD28A66D5F518A70A7AE SLOAD SWAP1 JUMP JUMPDEST CALLDATASIZE PUSH1 0x0 DUP1 CALLDATACOPY PUSH1 0x0 DUP1 CALLDATASIZE PUSH1 0x0 DUP5 GAS DELEGATECALL RETURNDATASIZE PUSH1 0x0 DUP1 RETURNDATACOPY DUP1 DUP1 ISZERO PUSH2 0x22A JUMPI RETURNDATASIZE PUSH1 0x0 RETURN JUMPDEST RETURNDATASIZE PUSH1 0x0 REVERT JUMPDEST PUSH1 0x0 PUSH2 0x239 PUSH2 0x1E6 JUMP JUMPDEST SWAP1 POP DUP2 PUSH1 0x1 PUSH1 0x1 PUSH1 0xA0 SHL SUB AND DUP2 PUSH1 0x1 PUSH1 0x1 PUSH1 0xA0 SHL SUB AND EQ ISZERO PUSH2 0x25A JUMPI PUSH1 0x0 DUP1 REVERT JUMPDEST PUSH2 0x282 DUP3 PUSH32 0xFEDE9E42E1FA6028F70C9467C66F74B1840D179D4E78CD28A66D5F518A70A7AE SSTORE JUMP JUMPDEST POP POP JUMP JUMPDEST PUSH1 0x0 PUSH1 0x20 DUP3 DUP5 SUB SLT ISZERO PUSH2 0x298 JUMPI PUSH1 0x0 DUP1 REVERT JUMPDEST DUP2 CALLDATALOAD PUSH1 0x1 PUSH1 0x1 PUSH1 0xA0 SHL SUB DUP2 AND DUP2 EQ PUSH2 0x2AF JUMPI PUSH1 0x0 DUP1 REVERT JUMPDEST SWAP4 SWAP3 POP POP POP JUMP JUMPDEST PUSH1 0x20 DUP1 DUP3 MSTORE PUSH1 0xF SWAP1 DUP3 ADD MSTORE PUSH15 0x2737BA10283937BC3C9037BBB732B9 PUSH1 0x89 SHL PUSH1 0x40 DUP3 ADD MSTORE PUSH1 0x60 ADD SWAP1 JUMP INVALID LOG2 PUSH5 0x6970667358 0x22 SLT KECCAK256 RETURN 0xCA 0xE5 PUSH28 0x691EFC9FE2C79FB9B1B3A423AC510CCC9FEC1C14E4917CC9FC93B52 PUSH5 0x736F6C6343 STOP ADDMOD SMOD STOP CALLER "
        },
        "methodIdentifiers": {
          "implementation()": "5c60da1b",
          "proxyOwner()": "025313a2",
          "transferProxyOwnership(address)": "f1739cae",
          "upgradeTo(address)": "3659cfe6"
        }
      }
    }
  }
}