{
  "_format": "hh-sol-artifact-1",
  "contractName": "YetiGameLogic",
  "sourceName": "contracts/mainnetTesting/GameLogic.sol",
  "abi": [
    {
      "anonymous": false,
      "inputs": [
        {
          "indexed": false,
          "internalType": "uint256",
          "name": "tokenId",
          "type": "uint256"
        },
        {
          "indexed": false,
          "internalType": "address",
          "name": "healer",
          "type": "address"
        },
        {
          "indexed": false,
          "internalType": "uint256",
          "name": "cost",
          "type": "uint256"
        }
      ],
      "name": "Healing",
      "type": "event"
    },
    {
      "anonymous": false,
      "inputs": [
        {
          "indexed": false,
          "internalType": "uint256",
          "name": "tokenId",
          "type": "uint256"
        },
        {
          "indexed": false,
          "internalType": "uint80",
          "name": "injuredblock",
          "type": "uint80"
        }
      ],
      "name": "Injury",
      "type": "event"
    },
    {
      "anonymous": false,
      "inputs": [
        {
          "indexed": false,
          "internalType": "address",
          "name": "",
          "type": "address"
        },
        {
          "indexed": false,
          "internalType": "uint16",
          "name": "",
          "type": "uint16"
        },
        {
          "indexed": false,
          "internalType": "uint8",
          "name": "",
          "type": "uint8"
        }
      ],
      "name": "Log",
      "type": "event"
    },
    {
      "anonymous": false,
      "inputs": [
        {
          "indexed": true,
          "internalType": "address",
          "name": "previousOwner",
          "type": "address"
        },
        {
          "indexed": true,
          "internalType": "address",
          "name": "newOwner",
          "type": "address"
        }
      ],
      "name": "OwnershipTransferred",
      "type": "event"
    },
    {
      "anonymous": false,
      "inputs": [
        {
          "indexed": false,
          "internalType": "address",
          "name": "account",
          "type": "address"
        }
      ],
      "name": "Paused",
      "type": "event"
    },
    {
      "anonymous": false,
      "inputs": [
        {
          "indexed": false,
          "internalType": "uint256",
          "name": "tokenId",
          "type": "uint256"
        }
      ],
      "name": "Stolen",
      "type": "event"
    },
    {
      "anonymous": false,
      "inputs": [
        {
          "indexed": false,
          "internalType": "address",
          "name": "owner",
          "type": "address"
        },
        {
          "indexed": false,
          "internalType": "uint256",
          "name": "tokenId",
          "type": "uint256"
        },
        {
          "indexed": false,
          "internalType": "uint8",
          "name": "activityId",
          "type": "uint8"
        },
        {
          "indexed": false,
          "internalType": "uint256",
          "name": "value",
          "type": "uint256"
        }
      ],
      "name": "TokenStaked",
      "type": "event"
    },
    {
      "anonymous": false,
      "inputs": [
        {
          "indexed": false,
          "internalType": "address",
          "name": "account",
          "type": "address"
        }
      ],
      "name": "Unpaused",
      "type": "event"
    },
    {
      "anonymous": false,
      "inputs": [
        {
          "indexed": false,
          "internalType": "uint256",
          "name": "tokenId",
          "type": "uint256"
        },
        {
          "indexed": false,
          "internalType": "uint256",
          "name": "earned",
          "type": "uint256"
        },
        {
          "indexed": false,
          "internalType": "bool",
          "name": "unstaked",
          "type": "bool"
        }
      ],
      "name": "YetiClaimed",
      "type": "event"
    },
    {
      "inputs": [
        {
          "internalType": "uint256",
          "name": "tokenId",
          "type": "uint256"
        }
      ],
      "name": "ClaimSickYeti",
      "outputs": [],
      "stateMutability": "nonpayable",
      "type": "function"
    },
    {
      "inputs": [],
      "name": "FIGHTING_STOLEN_RISK_PERCENTAGE",
      "outputs": [
        {
          "internalType": "uint256",
          "name": "",
          "type": "uint256"
        }
      ],
      "stateMutability": "view",
      "type": "function"
    },
    {
      "inputs": [],
      "name": "GATHERING_FRXST_TAX_PERCENTAGE",
      "outputs": [
        {
          "internalType": "uint256",
          "name": "",
          "type": "uint256"
        }
      ],
      "stateMutability": "view",
      "type": "function"
    },
    {
      "inputs": [],
      "name": "GATHERING_TAX_RISK_PERCENTAGE",
      "outputs": [
        {
          "internalType": "uint256",
          "name": "",
          "type": "uint256"
        }
      ],
      "stateMutability": "view",
      "type": "function"
    },
    {
      "inputs": [],
      "name": "GENERAL_FRXST_TAX_PERCENTAGE",
      "outputs": [
        {
          "internalType": "uint256",
          "name": "",
          "type": "uint256"
        }
      ],
      "stateMutability": "view",
      "type": "function"
    },
    {
      "inputs": [],
      "name": "GetTotalYetiStaked",
      "outputs": [
        {
          "internalType": "uint256",
          "name": "",
          "type": "uint256"
        }
      ],
      "stateMutability": "view",
      "type": "function"
    },
    {
      "inputs": [],
      "name": "HEALING_COST",
      "outputs": [
        {
          "internalType": "uint256",
          "name": "",
          "type": "uint256"
        }
      ],
      "stateMutability": "view",
      "type": "function"
    },
    {
      "inputs": [],
      "name": "HUNTING_INJURY_RISK_PERCENTAGE",
      "outputs": [
        {
          "internalType": "uint256",
          "name": "",
          "type": "uint256"
        }
      ],
      "stateMutability": "view",
      "type": "function"
    },
    {
      "inputs": [
        {
          "internalType": "uint256",
          "name": "tokenId",
          "type": "uint256"
        }
      ],
      "name": "Heal",
      "outputs": [],
      "stateMutability": "nonpayable",
      "type": "function"
    },
    {
      "inputs": [],
      "name": "INJURY_TIME",
      "outputs": [
        {
          "internalType": "uint256",
          "name": "",
          "type": "uint256"
        }
      ],
      "stateMutability": "view",
      "type": "function"
    },
    {
      "inputs": [],
      "name": "LEVEL_UP_COST_MULTIPLIER",
      "outputs": [
        {
          "internalType": "uint256",
          "name": "",
          "type": "uint256"
        }
      ],
      "stateMutability": "view",
      "type": "function"
    },
    {
      "inputs": [],
      "name": "MINIMUM_TO_EXIT",
      "outputs": [
        {
          "internalType": "uint256",
          "name": "",
          "type": "uint256"
        }
      ],
      "stateMutability": "view",
      "type": "function"
    },
    {
      "inputs": [],
      "name": "RandomnessEngine",
      "outputs": [
        {
          "internalType": "contract IVRF",
          "name": "",
          "type": "address"
        }
      ],
      "stateMutability": "view",
      "type": "function"
    },
    {
      "inputs": [
        {
          "internalType": "address",
          "name": "newSigner",
          "type": "address"
        }
      ],
      "name": "SetDesignatedSigner",
      "outputs": [],
      "stateMutability": "nonpayable",
      "type": "function"
    },
    {
      "inputs": [
        {
          "internalType": "uint256[][]",
          "name": "_exprates",
          "type": "uint256[][]"
        }
      ],
      "name": "SetExpRates",
      "outputs": [],
      "stateMutability": "nonpayable",
      "type": "function"
    },
    {
      "inputs": [
        {
          "internalType": "uint256[][]",
          "name": "_rates",
          "type": "uint256[][]"
        }
      ],
      "name": "SetFrxstRates",
      "outputs": [],
      "stateMutability": "nonpayable",
      "type": "function"
    },
    {
      "inputs": [
        {
          "internalType": "uint256",
          "name": "_tax",
          "type": "uint256"
        }
      ],
      "name": "SetGatherTaxPercentage",
      "outputs": [],
      "stateMutability": "nonpayable",
      "type": "function"
    },
    {
      "inputs": [
        {
          "internalType": "uint256",
          "name": "_tax",
          "type": "uint256"
        }
      ],
      "name": "SetGeneralTaxPercentage",
      "outputs": [],
      "stateMutability": "nonpayable",
      "type": "function"
    },
    {
      "inputs": [
        {
          "internalType": "uint256",
          "name": "_healingcost",
          "type": "uint256"
        }
      ],
      "name": "SetHealingCost",
      "outputs": [],
      "stateMutability": "nonpayable",
      "type": "function"
    },
    {
      "inputs": [
        {
          "internalType": "uint256",
          "name": "_seconds",
          "type": "uint256"
        }
      ],
      "name": "SetInjuryTime",
      "outputs": [],
      "stateMutability": "nonpayable",
      "type": "function"
    },
    {
      "inputs": [
        {
          "internalType": "uint256",
          "name": "_multiplier",
          "type": "uint256"
        }
      ],
      "name": "SetLevelUpCostMultiplier",
      "outputs": [],
      "stateMutability": "nonpayable",
      "type": "function"
    },
    {
      "inputs": [
        {
          "internalType": "uint256",
          "name": "_seconds",
          "type": "uint256"
        }
      ],
      "name": "SetMinimumClaimTime",
      "outputs": [],
      "stateMutability": "nonpayable",
      "type": "function"
    },
    {
      "inputs": [
        {
          "internalType": "bool",
          "name": "_rescue",
          "type": "bool"
        }
      ],
      "name": "SetRescueEnabled",
      "outputs": [],
      "stateMutability": "nonpayable",
      "type": "function"
    },
    {
      "inputs": [
        {
          "internalType": "address",
          "name": "account",
          "type": "address"
        },
        {
          "internalType": "uint256[]",
          "name": "tokenIds",
          "type": "uint256[]"
        },
        {
          "internalType": "uint8",
          "name": "activityId",
          "type": "uint8"
        }
      ],
      "name": "addManyToPalace",
      "outputs": [],
      "stateMutability": "nonpayable",
      "type": "function"
    },
    {
      "inputs": [
        {
          "internalType": "uint16[]",
          "name": "tokenIds",
          "type": "uint16[]"
        },
        {
          "internalType": "bool",
          "name": "unstake",
          "type": "bool"
        }
      ],
      "name": "claimMany",
      "outputs": [],
      "stateMutability": "nonpayable",
      "type": "function"
    },
    {
      "inputs": [
        {
          "internalType": "uint256",
          "name": "",
          "type": "uint256"
        }
      ],
      "name": "experience",
      "outputs": [
        {
          "internalType": "uint256",
          "name": "",
          "type": "uint256"
        }
      ],
      "stateMutability": "view",
      "type": "function"
    },
    {
      "inputs": [
        {
          "internalType": "uint256",
          "name": "",
          "type": "uint256"
        },
        {
          "internalType": "uint256",
          "name": "",
          "type": "uint256"
        }
      ],
      "name": "exprates",
      "outputs": [
        {
          "internalType": "uint256",
          "name": "",
          "type": "uint256"
        }
      ],
      "stateMutability": "view",
      "type": "function"
    },
    {
      "inputs": [
        {
          "internalType": "uint256",
          "name": "",
          "type": "uint256"
        }
      ],
      "name": "fighterArray",
      "outputs": [
        {
          "internalType": "uint16",
          "name": "tokenId",
          "type": "uint16"
        },
        {
          "internalType": "uint80",
          "name": "value",
          "type": "uint80"
        },
        {
          "internalType": "uint8",
          "name": "activityId",
          "type": "uint8"
        },
        {
          "internalType": "address",
          "name": "owner",
          "type": "address"
        },
        {
          "internalType": "uint80",
          "name": "stakeTime",
          "type": "uint80"
        }
      ],
      "stateMutability": "view",
      "type": "function"
    },
    {
      "inputs": [
        {
          "internalType": "uint256",
          "name": "",
          "type": "uint256"
        }
      ],
      "name": "fighterIndices",
      "outputs": [
        {
          "internalType": "uint256",
          "name": "",
          "type": "uint256"
        }
      ],
      "stateMutability": "view",
      "type": "function"
    },
    {
      "inputs": [
        {
          "internalType": "uint256",
          "name": "",
          "type": "uint256"
        }
      ],
      "name": "fighters",
      "outputs": [
        {
          "internalType": "uint16",
          "name": "tokenId",
          "type": "uint16"
        },
        {
          "internalType": "uint80",
          "name": "value",
          "type": "uint80"
        },
        {
          "internalType": "uint8",
          "name": "activityId",
          "type": "uint8"
        },
        {
          "internalType": "address",
          "name": "owner",
          "type": "address"
        },
        {
          "internalType": "uint80",
          "name": "stakeTime",
          "type": "uint80"
        }
      ],
      "stateMutability": "view",
      "type": "function"
    },
    {
      "inputs": [
        {
          "internalType": "uint256",
          "name": "_new",
          "type": "uint256"
        }
      ],
      "name": "fightingStolenRisk",
      "outputs": [],
      "stateMutability": "nonpayable",
      "type": "function"
    },
    {
      "inputs": [],
      "name": "frxst",
      "outputs": [
        {
          "internalType": "contract FRXST",
          "name": "",
          "type": "address"
        }
      ],
      "stateMutability": "view",
      "type": "function"
    },
    {
      "inputs": [
        {
          "internalType": "uint256",
          "name": "_new",
          "type": "uint256"
        }
      ],
      "name": "gatheringFRXSTRisk",
      "outputs": [],
      "stateMutability": "nonpayable",
      "type": "function"
    },
    {
      "inputs": [],
      "name": "getSignerStore",
      "outputs": [
        {
          "internalType": "bytes32",
          "name": "",
          "type": "bytes32"
        }
      ],
      "stateMutability": "view",
      "type": "function"
    },
    {
      "inputs": [
        {
          "internalType": "address",
          "name": "_user",
          "type": "address"
        }
      ],
      "name": "getStakedTokens",
      "outputs": [
        {
          "internalType": "uint256[]",
          "name": "",
          "type": "uint256[]"
        }
      ],
      "stateMutability": "view",
      "type": "function"
    },
    {
      "inputs": [
        {
          "internalType": "uint256",
          "name": "cost",
          "type": "uint256"
        }
      ],
      "name": "healCostSetter",
      "outputs": [],
      "stateMutability": "nonpayable",
      "type": "function"
    },
    {
      "inputs": [
        {
          "internalType": "uint256",
          "name": "",
          "type": "uint256"
        }
      ],
      "name": "hospital",
      "outputs": [
        {
          "internalType": "uint16",
          "name": "tokenId",
          "type": "uint16"
        },
        {
          "internalType": "uint80",
          "name": "value",
          "type": "uint80"
        },
        {
          "internalType": "address",
          "name": "owner",
          "type": "address"
        }
      ],
      "stateMutability": "view",
      "type": "function"
    },
    {
      "inputs": [
        {
          "internalType": "uint256",
          "name": "_new",
          "type": "uint256"
        }
      ],
      "name": "huntingInjuryRisk",
      "outputs": [],
      "stateMutability": "nonpayable",
      "type": "function"
    },
    {
      "inputs": [
        {
          "internalType": "address",
          "name": "_yeti",
          "type": "address"
        },
        {
          "internalType": "address",
          "name": "_frxst",
          "type": "address"
        },
        {
          "internalType": "address",
          "name": "_treasury",
          "type": "address"
        },
        {
          "internalType": "address",
          "name": "_rs",
          "type": "address"
        },
        {
          "internalType": "address",
          "name": "_vrf",
          "type": "address"
        }
      ],
      "name": "init",
      "outputs": [],
      "stateMutability": "nonpayable",
      "type": "function"
    },
    {
      "inputs": [],
      "name": "initialize",
      "outputs": [],
      "stateMutability": "nonpayable",
      "type": "function"
    },
    {
      "inputs": [
        {
          "internalType": "uint256",
          "name": "",
          "type": "uint256"
        }
      ],
      "name": "initiateGame",
      "outputs": [
        {
          "internalType": "bool",
          "name": "",
          "type": "bool"
        }
      ],
      "stateMutability": "view",
      "type": "function"
    },
    {
      "inputs": [
        {
          "components": [
            {
              "internalType": "uint256",
              "name": "tokenId",
              "type": "uint256"
            },
            {
              "internalType": "uint256",
              "name": "rarityIndex",
              "type": "uint256"
            },
            {
              "internalType": "bytes",
              "name": "signature",
              "type": "bytes"
            }
          ],
          "internalType": "struct rarityCheck.Rarity[]",
          "name": "rarity",
          "type": "tuple[]"
        }
      ],
      "name": "initiateGameAt",
      "outputs": [],
      "stateMutability": "nonpayable",
      "type": "function"
    },
    {
      "inputs": [
        {
          "internalType": "uint256",
          "name": "",
          "type": "uint256"
        }
      ],
      "name": "levels",
      "outputs": [
        {
          "internalType": "uint8",
          "name": "",
          "type": "uint8"
        }
      ],
      "stateMutability": "view",
      "type": "function"
    },
    {
      "inputs": [
        {
          "internalType": "uint256",
          "name": "tokenId",
          "type": "uint256"
        }
      ],
      "name": "levelup",
      "outputs": [],
      "stateMutability": "nonpayable",
      "type": "function"
    },
    {
      "inputs": [
        {
          "internalType": "address",
          "name": "",
          "type": "address"
        },
        {
          "internalType": "address",
          "name": "from",
          "type": "address"
        },
        {
          "internalType": "uint256",
          "name": "",
          "type": "uint256"
        },
        {
          "internalType": "bytes",
          "name": "",
          "type": "bytes"
        }
      ],
      "name": "onERC721Received",
      "outputs": [
        {
          "internalType": "bytes4",
          "name": "",
          "type": "bytes4"
        }
      ],
      "stateMutability": "pure",
      "type": "function"
    },
    {
      "inputs": [],
      "name": "owner",
      "outputs": [
        {
          "internalType": "address",
          "name": "",
          "type": "address"
        }
      ],
      "stateMutability": "view",
      "type": "function"
    },
    {
      "inputs": [
        {
          "internalType": "uint256",
          "name": "",
          "type": "uint256"
        }
      ],
      "name": "palace",
      "outputs": [
        {
          "internalType": "uint16",
          "name": "tokenId",
          "type": "uint16"
        },
        {
          "internalType": "uint80",
          "name": "value",
          "type": "uint80"
        },
        {
          "internalType": "uint8",
          "name": "activityId",
          "type": "uint8"
        },
        {
          "internalType": "address",
          "name": "owner",
          "type": "address"
        },
        {
          "internalType": "uint80",
          "name": "stakeTime",
          "type": "uint80"
        }
      ],
      "stateMutability": "view",
      "type": "function"
    },
    {
      "inputs": [],
      "name": "paused",
      "outputs": [
        {
          "internalType": "bool",
          "name": "",
          "type": "bool"
        }
      ],
      "stateMutability": "view",
      "type": "function"
    },
    {
      "inputs": [
        {
          "internalType": "uint256",
          "name": "",
          "type": "uint256"
        }
      ],
      "name": "randomIndex",
      "outputs": [
        {
          "internalType": "uint256",
          "name": "randomValue",
          "type": "uint256"
        }
      ],
      "stateMutability": "view",
      "type": "function"
    },
    {
      "inputs": [
        {
          "internalType": "uint256",
          "name": "",
          "type": "uint256"
        },
        {
          "internalType": "uint256",
          "name": "",
          "type": "uint256"
        }
      ],
      "name": "rates",
      "outputs": [
        {
          "internalType": "uint256",
          "name": "",
          "type": "uint256"
        }
      ],
      "stateMutability": "view",
      "type": "function"
    },
    {
      "inputs": [],
      "name": "renounceOwnership",
      "outputs": [],
      "stateMutability": "nonpayable",
      "type": "function"
    },
    {
      "inputs": [
        {
          "internalType": "uint256[]",
          "name": "tokenIds",
          "type": "uint256[]"
        }
      ],
      "name": "rescue",
      "outputs": [],
      "stateMutability": "nonpayable",
      "type": "function"
    },
    {
      "inputs": [],
      "name": "rescueEnabled",
      "outputs": [
        {
          "internalType": "bool",
          "name": "",
          "type": "bool"
        }
      ],
      "stateMutability": "view",
      "type": "function"
    },
    {
      "inputs": [],
      "name": "rewardCalculationDuration",
      "outputs": [
        {
          "internalType": "uint256",
          "name": "",
          "type": "uint256"
        }
      ],
      "stateMutability": "view",
      "type": "function"
    },
    {
      "inputs": [],
      "name": "rs",
      "outputs": [
        {
          "internalType": "contract rarityCheck",
          "name": "",
          "type": "address"
        }
      ],
      "stateMutability": "view",
      "type": "function"
    },
    {
      "inputs": [
        {
          "internalType": "uint256[]",
          "name": "_levelExp",
          "type": "uint256[]"
        }
      ],
      "name": "setLevelExp",
      "outputs": [],
      "stateMutability": "nonpayable",
      "type": "function"
    },
    {
      "inputs": [
        {
          "internalType": "bool",
          "name": "_paused",
          "type": "bool"
        }
      ],
      "name": "setPaused",
      "outputs": [],
      "stateMutability": "nonpayable",
      "type": "function"
    },
    {
      "inputs": [
        {
          "internalType": "uint256",
          "name": "_amount",
          "type": "uint256"
        }
      ],
      "name": "setRewardCalculationDuration",
      "outputs": [],
      "stateMutability": "nonpayable",
      "type": "function"
    },
    {
      "inputs": [
        {
          "internalType": "address",
          "name": "_vrf",
          "type": "address"
        }
      ],
      "name": "setVRF",
      "outputs": [],
      "stateMutability": "nonpayable",
      "type": "function"
    },
    {
      "inputs": [
        {
          "internalType": "uint256[]",
          "name": "_levelCost",
          "type": "uint256[]"
        }
      ],
      "name": "setlevelCost",
      "outputs": [],
      "stateMutability": "nonpayable",
      "type": "function"
    },
    {
      "inputs": [
        {
          "internalType": "uint256[]",
          "name": "_yetiMultiplier",
          "type": "uint256[]"
        }
      ],
      "name": "setyetiMultiplier",
      "outputs": [],
      "stateMutability": "nonpayable",
      "type": "function"
    },
    {
      "inputs": [
        {
          "internalType": "address",
          "name": "",
          "type": "address"
        },
        {
          "internalType": "uint256",
          "name": "",
          "type": "uint256"
        }
      ],
      "name": "stakedToken",
      "outputs": [
        {
          "internalType": "uint256",
          "name": "",
          "type": "uint256"
        }
      ],
      "stateMutability": "view",
      "type": "function"
    },
    {
      "inputs": [
        {
          "internalType": "uint256",
          "name": "",
          "type": "uint256"
        }
      ],
      "name": "tokenRarity",
      "outputs": [
        {
          "internalType": "uint256",
          "name": "",
          "type": "uint256"
        }
      ],
      "stateMutability": "view",
      "type": "function"
    },
    {
      "inputs": [
        {
          "internalType": "uint256",
          "name": "",
          "type": "uint256"
        }
      ],
      "name": "tokenToPosition",
      "outputs": [
        {
          "internalType": "uint256",
          "name": "",
          "type": "uint256"
        }
      ],
      "stateMutability": "view",
      "type": "function"
    },
    {
      "inputs": [],
      "name": "totalYetiStakedFighting",
      "outputs": [
        {
          "internalType": "uint256",
          "name": "",
          "type": "uint256"
        }
      ],
      "stateMutability": "view",
      "type": "function"
    },
    {
      "inputs": [],
      "name": "totalYetiStakedGathering",
      "outputs": [
        {
          "internalType": "uint256",
          "name": "",
          "type": "uint256"
        }
      ],
      "stateMutability": "view",
      "type": "function"
    },
    {
      "inputs": [],
      "name": "totalYetiStakedHunting",
      "outputs": [
        {
          "internalType": "uint256",
          "name": "",
          "type": "uint256"
        }
      ],
      "stateMutability": "view",
      "type": "function"
    },
    {
      "inputs": [
        {
          "internalType": "address",
          "name": "newOwner",
          "type": "address"
        }
      ],
      "name": "transferOwnership",
      "outputs": [],
      "stateMutability": "nonpayable",
      "type": "function"
    },
    {
      "inputs": [],
      "name": "yeti",
      "outputs": [
        {
          "internalType": "contract YetiTown",
          "name": "",
          "type": "address"
        }
      ],
      "stateMutability": "view",
      "type": "function"
    },
    {
      "inputs": [
        {
          "internalType": "uint256",
          "name": "",
          "type": "uint256"
        }
      ],
      "name": "yetiMultiplier",
      "outputs": [
        {
          "internalType": "uint256",
          "name": "",
          "type": "uint256"
        }
      ],
      "stateMutability": "view",
      "type": "function"
    }
  ],
  "bytecode": "0x6202a300601355620151806014819055603260158190556101f460165560646017819055600a60188190556019839055601a938455681b1ae4d6e2ef500000601b55601c919091556101a0918252603c6101c05260046101e052610140918252605a61020090815260876102205261024091909152610160526102c0604052608261026090815260c3610280526102a09290925261018091909152620000aa906020906003620003a7565b506040805160c0810182526050606080830191825260646080840152607860a08401819052918352835180820185528181526020818101849052609082870152808501919091528451918201855291815260969181019190915260b4818401529181019190915262000121906021906003620003a7565b506040805160608101825260648152607860208201526096918101919091526200015090602290600362000405565b506040805161014081018252600081526030602082015260d29181019190915261020060608201526103d4608082015261083460a0820152610d6660c082015261129860e08201526118eb610100820152612079610120820152620001ba90602390600a62000456565b506040805161014081018252600081526032602082015260c8918101919091526101c26060820152610320608082015261064060a082015261099260c0820152610c8060e0820152610fd26101008201526113886101208201526200022490602490600a62000456565b50602580546001600160a81b031916742141fc90f4d8114e8778447d7c19b5992f6a0611001790553480156200025957600080fd5b50604051806040016040528060048152602001635965746960e01b815250604051806040016040528060018152602001603160f81b815250620002ab620002a56200035360201b60201c565b62000357565b815160208084019190912082518383012060e08290526101008190524660a0818152604080517f8b73c3c69bb8fe3d512ecc4cf759cc79239f7b179b0ffacaa9a75d522b39400f81880181905281830187905260608201869052608082019490945230818401528151808203909301835260c00190528051940193909320919290916080523060601b60c0526101205250506000805460ff60b01b1916905550620004f59050565b3390565b600080546001600160a01b038381166001600160a01b0319831681178455604051919092169283917f8be0079c531659141344cd1fd0a4f28419497f9722a3daafe3b4186f6b6457e09190a35050565b828054828255906000526020600020908101928215620003f3579160200282015b82811115620003f3578251620003e2908390600362000405565b5091602001919060010190620003c8565b50620004019291506200049a565b5090565b82805482825590600052602060002090810192821562000448579160200282015b8281111562000448578251829060ff1690559160200191906001019062000426565b5062000401929150620004bb565b82805482825590600052602060002090810192821562000448579160200282015b8281111562000448578251829061ffff1690559160200191906001019062000477565b8082111562000401576000620004b18282620004d2565b506001016200049a565b5b80821115620004015760008155600101620004bc565b5080546000825590600052602060002090810190620004f29190620004bb565b50565b60805160a05160c05160601c60e0516101005161012051615c58620005486000396000614f4001526000614f8f01526000614f6a01526000614ec301526000614eed01526000614f170152615c586000f3fe608060405234801561001057600080fd5b50600436106103925760003560e01c80636cb80c6f116101e0578063afb0a36911610110578063d3e97165116100a8578063d3e97165146108ef578063d60d6e041461090f578063d73782fc14610922578063dca06da714610935578063dd1d20d8146109ac578063def24a0e146109bf578063f2fde38b146109d2578063f5a62e19146109e5578063feeb88b7146109f857600080fd5b8063afb0a36914610831578063b0d6d00814610851578063b2596a6714610859578063b5b414521461088e578063b9dc92b214610897578063bd05e965146108aa578063c055d8ad146108ca578063c67505eb146108dd578063ce0dcbc4146108e657600080fd5b806385e0aca21161018357806385e0aca2146107a25780638da5cb5b146107c2578063917d6982146107ca578063940d7227146107dd5780639b6cad3c146107e6578063a4296b9b146107f9578063a5a2e76914610802578063a7a102901461080b578063acb6be2d1461081e57600080fd5b80636cb80c6f1461072a578063715018a61461073d57806372af7e5f14610745578063803e437f146107585780638129fc1c1461076b5780638175e4a31461077357806383669b6714610786578063842651721461078f57600080fd5b80633977d774116102c657806350d414811161025e57806350d414811461069157806356aaf2571461069a57806359b31abf146106ad5780635c0d7398146106c05780635c975abb146106c95780635ce32083146106d157806363c28db1146106e4578063695a69d6146107045780636a3ef0571461071757600080fd5b80633977d774146105b457806339db714f146105bd5780634015d6c7146105ca578063439dc414146105d357806345371338146105e65780634668b759146105f9578063478dc7cb1461060c578063480057241461066b5780634ad922601461067e57600080fd5b80631f8f1fdc116103395780631f8f1fdc1461048a578063247185741461049d578063272d9889146104b05780632cd41e6f146104c35780632e6b221d146104cc578063343e613a1461056f578063359ef75b1461058f57806337a386b9146105a257806338ba7d8b146105ab57600080fd5b8063091708d8146103975780630b67112c146103ac5780631006551e146103bf578063107ebaa5146103f757806313c53d401461040a578063150b7a021461041d57806316c38b3c146104495780631e5c5fa41461045c575b600080fd5b6103aa6103a5366004615740565b610a0b565b005b6103aa6103ba3660046157da565b610a5a565b6103e26103cd3660046157da565b60096020526000908152604090205460ff1681565b60405190151581526020015b60405180910390f35b6103aa6104053660046157da565b610a8e565b6103aa6104183660046157da565b610ac2565b61043061042b36600461537c565b610b09565b6040516001600160e01b031990911681526020016103ee565b6103aa61045736600461577c565b610b82565b61047c61046a3660046157da565b600d6020526000908152604090205481565b6040519081526020016103ee565b6103aa6104983660046157da565b610bca565b6103aa6104ab3660046154af565b610bfe565b61047c6104be36600461580c565b610c40565b61047c60155481565b61052b6104da3660046157da565b600b602052600090815260409020805460019091015461ffff8216916201000081046001600160501b0390811692600160601b90920460ff16916001600160a01b03811691600160a01b9091041685565b6040805161ffff90961686526001600160501b03948516602087015260ff909316928501929092526001600160a01b0316606084015216608082015260a0016103ee565b600154610582906001600160a01b031681565b6040516103ee919061582e565b6103aa61059d36600461530b565b610c7d565b61047c60135481565b61047c601c5481565b61047c60165481565b6025546103e29060ff1681565b61047c601b5481565b61047c6105e13660046157da565b610d8a565b6103aa6105f4366004615740565b610dab565b6103aa6106073660046157da565b610ded565b61052b61061a3660046157da565b600a602052600090815260409020805460019091015461ffff8216916201000081046001600160501b0390811692600160601b90920460ff16916001600160a01b03811691600160a01b9091041685565b600254610582906001600160a01b031681565b600454610582906001600160a01b031681565b61047c601f5481565b6103aa6106a83660046154af565b610df8565b61047c6106bb36600461580c565b610e39565b61047c601d5481565b6103e2610e49565b6103aa6106df3660046157da565b610e59565b6106f76106f23660046152d1565b610e8d565b6040516103ee91906158db565b6103aa610712366004615740565b610ef9565b6103aa6107253660046156ff565b610f3b565b6103aa6107383660046157da565b611502565b6103aa61192a565b600354610582906001600160a01b031681565b6103aa610766366004615566565b611965565b6103aa611a42565b6103aa6107813660046157da565b611b27565b61047c60065481565b6103aa61079d3660046157da565b611b5b565b61047c6107b03660046157da565b600e6020526000908152604090205481565b610582611b8f565b6103aa6107d83660046157da565b611b9e565b61047c601e5481565b6103aa6107f43660046157da565b611d18565b61047c60175481565b61047c60185481565b6103aa6108193660046156b4565b611d4c565b6103aa61082c36600461541a565b61200a565b61047c61083f3660046157da565b60126020526000908152604090205481565b61047c612705565b61087c6108673660046157da565b60116020526000908152604090205460ff1681565b60405160ff90911681526020016103ee565b61047c60195481565b61052b6108a53660046157da565b612729565b61047c6108b83660046157da565b60086020526000908152604090205481565b6103aa6108d83660046157da565b61278c565b61047c601a5481565b61047c60145481565b61047c6108fd3660046157da565b60106020526000908152604090205481565b6103aa61091d36600461577c565b6127c0565b6103aa6109303660046152d1565b612802565b61097b6109433660046157da565b600f6020526000908152604090205461ffff8116906201000081046001600160501b031690600160601b90046001600160a01b031683565b6040805161ffff90941684526001600160501b0390921660208401526001600160a01b0316908201526060016103ee565b6103aa6109ba3660046157da565b612859565b61047c6109cd366004615483565b61288d565b6103aa6109e03660046152d1565b6128a9565b6103aa6109f33660046152d1565b612946565b6103aa610a063660046157da565b612997565b33610a14611b8f565b6001600160a01b031614610a435760405162461bcd60e51b8152600401610a3a906159a6565b60405180910390fd5b8051610a569060229060208401906150f9565b5050565b33610a63611b8f565b6001600160a01b031614610a895760405162461bcd60e51b8152600401610a3a906159a6565b601655565b33610a97611b8f565b6001600160a01b031614610abd5760405162461bcd60e51b8152600401610a3a906159a6565b601455565b33610acb611b8f565b6001600160a01b031614610af15760405162461bcd60e51b8152600401610a3a906159a6565b610b0381670de0b6b3a7640000615ad3565b601c5550565b60006001600160a01b03851615610b705760405162461bcd60e51b815260206004820152602560248201527f43616e6e6f742073656e6420746f6b656e7320746f2050616c616365206469726044820152646563746c7960d81b6064820152608401610a3a565b50630a85bd0160e11b95945050505050565b33610b8b611b8f565b6001600160a01b031614610bb15760405162461bcd60e51b8152600401610a3a906159a6565b8015610bc257610bbf6129cb565b50565b610bbf612a42565b33610bd3611b8f565b6001600160a01b031614610bf95760405162461bcd60e51b8152600401610a3a906159a6565b601555565b33610c07611b8f565b6001600160a01b031614610c2d5760405162461bcd60e51b8152600401610a3a906159a6565b8051610a56906021906020840190615144565b60218281548110610c5057600080fd5b906000526020600020018181548110610c6857600080fd5b90600052602060002001600091509150505481565b33610c86611b8f565b6001600160a01b031614610cac5760405162461bcd60e51b8152600401610a3a906159a6565b6001600160a01b03851615610cd757600180546001600160a01b0319166001600160a01b0387161790555b6001600160a01b03841615610d0257600280546001600160a01b0319166001600160a01b0386161790555b6001600160a01b03831615610d2d57600580546001600160a01b0319166001600160a01b0385161790555b6001600160a01b03821615610d5857600380546001600160a01b0319166001600160a01b0384161790555b6001600160a01b03811615610d8357600480546001600160a01b0319166001600160a01b0383161790555b5050505050565b60228181548110610d9a57600080fd5b600091825260209091200154905081565b33610db4611b8f565b6001600160a01b031614610dda5760405162461bcd60e51b8152600401610a3a906159a6565b8051610a569060239060208401906150f9565b610bbf816000612ac1565b33610e01611b8f565b6001600160a01b031614610e275760405162461bcd60e51b8152600401610a3a906159a6565b8051610a569060209081840190615144565b60208281548110610c5057600080fd5b600054600160b01b900460ff1690565b33610e62611b8f565b6001600160a01b031614610e885760405162461bcd60e51b8152600401610a3a906159a6565b601355565b6001600160a01b038116600090815260076020908152604091829020805483518184028101840190945280845260609392830182828015610eed57602002820191906000526020600020905b815481526020019060010190808311610ed9575b50505050509050919050565b33610f02611b8f565b6001600160a01b031614610f285760405162461bcd60e51b8152600401610a3a906159a6565b8051610a569060249060208401906150f9565b60255460ff16610f7f5760405162461bcd60e51b815260206004820152600f60248201526e149154d0d55148111254d050931151608a1b6044820152606401610a3a565b6000610f8961519d565b610f9161519d565b60005b848110156114fa5760008181526009602052604090205460ff161515600114610fcf5760405162461bcd60e51b8152600401610a3a906159db565b858582818110610fe157610fe1615bb3565b602090810292909201356000818152600b9093526040909220549195505061ffff1684146111a8576000848152600a6020908152604091829020825160a081018452815461ffff811682526001600160501b0362010000820481169483019490945260ff600160601b9091041693810193909352600101546001600160a01b03811660608401819052600160a01b9091049091166080830152909350331461109b5760405162461bcd60e51b8152600401610a3a90615950565b6001546001600160a01b031663b88d4fde3033876040518463ffffffff1660e01b81526004016110cd93929190615866565b600060405180830381600087803b1580156110e757600080fd5b505af11580156110fb573d6000803e3d6000fd5b5050506000858152600a60205260409081902080546001600160681b0319168155600190810180546001600160f01b03191690559085015160ff161415905061115c576001601d60008282546111519190615af2565b909155506111759050565b6001601e600082825461116f9190615af2565b90915550505b60408051858152600060208201526001818301529051600080516020615c038339815191529181900360600190a16114e8565b6000848152600d6020526040902054600c805490919081106111cc576111cc615bb3565b60009182526020918290206040805160a0810182526002909302909101805461ffff811684526001600160501b0362010000820481169585019590955260ff600160601b9091041691830191909152600101546001600160a01b0381166060830152600160a01b9004909116608082015292506112463390565b6001600160a01b031683606001516001600160a01b03161461127a5760405162461bcd60e51b8152600401610a3a90615950565b6001546001600160a01b031663b88d4fde3033876040518463ffffffff1660e01b81526004016112ac93929190615866565b600060405180830381600087803b1580156112c657600080fd5b505af11580156112da573d6000803e3d6000fd5b5050600c80549092506112f09150600190615af2565b8154811061130057611300615bb3565b600091825260208083206040805160a0810182526002909402909101805461ffff811685526001600160501b0362010000820481169486019490945260ff600160601b90910416918401919091526001908101546001600160a01b0381166060850152600160a01b90049091166080830152601f805492955090929091611388908490615af2565b90915550506000848152600d6020818152604080842080548552600b835281852087518154858a0151858b015160ff16600160601b0260ff60601b196001600160501b0392831662010000026001600160601b031990941661ffff95861617939093179290921691909117835560608a01516001909301805460808c0151909216600160a01b026001600160f01b03199092166001600160a01b0390941693909317179091558986529390925290548551909216835290912055600c80548061145357611453615b9d565b600082815260208082206002600019949094019384020180546001600160681b03199081168255600191820180546001600160f01b031990811690915594909555888352600d82526040808420849055600b835280842080549096168655948101805490941690935583518881529081019190915291820152600080516020615c038339815191529060600160405180910390a15b806114f281615b2c565b915050610f94565b505050505050565b61150a610e49565b156115275760405162461bcd60e51b8152600401610a3a9061597c565b60008181526009602052604090205460ff16151560011461155a5760405162461bcd60e51b8152600401610a3a906159db565b6000818152600b602052604090205461ffff168114156115bc5760405162461bcd60e51b815260206004820152601d60248201527f43616e2774206c6576656c207570207768696c65206669676874696e670000006044820152606401610a3a565b6000818152600a602052604090205461ffff1681141561161e5760405162461bcd60e51b815260206004820152601b60248201527f43616e2774206c6576656c207570207768696c65207374616b656400000000006044820152606401610a3a565b6000818152600f602052604090205461ffff168114156116805760405162461bcd60e51b815260206004820152601c60248201527f43616e2774206c6576656c207570207768696c6520696e6a75726564000000006044820152606401610a3a565b60008181526011602052604090205460ff16158015906116b35750600081815260116020526040902054600a60ff909116105b6116f65760405162461bcd60e51b815260206004820152601460248201527321b0b71032bc31b2b2b2103632bb32b6103930b760611b6044820152606401610a3a565b60008181526011602052604090205460238054909160ff1690811061171d5761171d615bb3565b6000918252602090912001546002546040516370a0823160e01b81526001600160a01b03909116906370a082319061175990339060040161582e565b60206040518083038186803b15801561177157600080fd5b505afa158015611785573d6000803e3d6000fd5b505050506040513d601f19601f820116820180604052508101906117a991906157f3565b10156117ec5760405162461bcd60e51b8152602060048201526012602482015271125b9cdd59999a58da595b9d0811949614d560721b6044820152606401610a3a565b6002546001600160a01b0316639dc29fac3360008481526011602052604090205460238054909160ff1690811061182557611825615bb3565b9060005260206000200154670de0b6b3a76400006118439190615ad3565b6040518363ffffffff1660e01b8152600401611860929190615899565b600060405180830381600087803b15801561187a57600080fd5b505af115801561188e573d6000803e3d6000fd5b5050506000828152601160205260409020546024805490925060ff9091169081106118bb576118bb615bb3565b90600052602060002001546010600083815260200190815260200160002060008282546118e89190615af2565b9091555050600081815260116020526040812080546001929061190f90849060ff16615a9a565b92506101000a81548160ff021916908360ff16021790555050565b33611933611b8f565b6001600160a01b0316146119595760405162461bcd60e51b8152600401610a3a906159a6565b6119636000612c25565b565b60005b8151811015610a5657600082828151811061198557611985615bb3565b60200260200101519050602560019054906101000a90046001600160a01b03166001600160a01b03166119b782612c75565b6001600160a01b031614611a005760405162461bcd60e51b815260206004820152601060248201526f2737ba103b30b634b21039b4b3b732b960811b6044820152606401610a3a565b60208082015182516000908152601283526040808220929092559251835260099091529020805460ff1916600117905580611a3a81615b2c565b915050611968565b600054600160a81b900460ff16611a6657600054600160a01b900460ff1615611a6a565b303b155b611acd5760405162461bcd60e51b815260206004820152602e60248201527f496e697469616c697a61626c653a20636f6e747261637420697320616c72656160448201526d191e481a5b9a5d1a585b1a5e995960921b6064820152608401610a3a565b600054600160a81b900460ff16158015611af7576000805461ffff60a01b191661010160a01b1790555b611b096000805460ff60b01b19169055565b611b11612c86565b8015610bbf576000805460ff60a81b1916905550565b33611b30611b8f565b6001600160a01b031614611b565760405162461bcd60e51b8152600401610a3a906159a6565b601c55565b33611b64611b8f565b6001600160a01b031614611b8a5760405162461bcd60e51b8152600401610a3a906159a6565b601855565b6000546001600160a01b031690565b6014546000828152600f60205260409020544291611bca916201000090046001600160501b0316615a82565b11611c0d5760405162461bcd60e51b81526020600482015260136024820152721653d548105491481393d50812539295549151606a1b6044820152606401610a3a565b6002546005546001600160a01b03918216916323b872dd91339116611c3185612cc9565b611c4390670de0b6b3a7640000615ad3565b6040518463ffffffff1660e01b8152600401611c6193929190615842565b602060405180830381600087803b158015611c7b57600080fd5b505af1158015611c8f573d6000803e3d6000fd5b505050506040513d601f19601f82011682018060405250810190611cb39190615799565b15610bbf57611cc3816001612ac1565b7f73c2e0bab400670f07cad02b2a28bdb7570cc41a53df183c79ef6c29faf4ad278133611cef84612cc9565b604080519384526001600160a01b0390921660208401529082015260600160405180910390a150565b33611d21611b8f565b6001600160a01b031614611d475760405162461bcd60e51b8152600401610a3a906159a6565b601b55565b611d54610e49565b15611d715760405162461bcd60e51b8152600401610a3a9061597c565b6000805b83811015611f595760096000868684818110611d9357611d93615bb3565b9050602002016020810190611da891906157b6565b61ffff16815260208101919091526040016000205460ff161515600114611de15760405162461bcd60e51b8152600401610a3a906159db565b848482818110611df357611df3615bb3565b9050602002016020810190611e0891906157b6565b61ffff16600b6000878785818110611e2257611e22615bb3565b9050602002016020810190611e3791906157b6565b61ffff9081168252602082019290925260400160002054161480611ec65750848482818110611e6857611e68615bb3565b9050602002016020810190611e7d91906157b6565b61ffff16600a6000878785818110611e9757611e97615bb3565b9050602002016020810190611eac91906157b6565b61ffff908116825260208201929092526040016000205416145b611f075760405162461bcd60e51b815260206004820152601260248201527116595d1a481a5cc81b9bdd081cdd185ad95960721b6044820152606401610a3a565b611f3b858583818110611f1c57611f1c615bb3565b9050602002016020810190611f3191906157b6565b61ffff1684612d10565b611f459083615a82565b915080611f5181615b2c565b915050611d75565b5060008111611fa25760405162461bcd60e51b8152602060048201526015602482015274436c61696d696e67206265666f726520312064617960581b6044820152606401610a3a565b6002546001600160a01b03166340c10f1933836040518363ffffffff1660e01b8152600401611fd2929190615899565b600060405180830381600087803b158015611fec57600080fd5b505af1158015612000573d6000803e3d6000fd5b5050505050505050565b60038160ff16106120555760405162461bcd60e51b8152602060048201526015602482015274139bdd081d985b1a59081858dd1a5d9a5d1e481a59605a1b6044820152606401610a3a565b6001600160a01b03831633148061207f57506001546001600160a01b0316336001600160a01b0316145b6120cb5760405162461bcd60e51b815260206004820152601a60248201527f444f4e54204749564520594f555220544f4b454e5320415741590000000000006044820152606401610a3a565b60005b82518110156126ff57600960008483815181106120ed576120ed615bb3565b60209081029190910181015182528101919091526040016000205460ff16151560011461212c5760405162461bcd60e51b8152600401610a3a906159db565b82818151811061213e5761213e615bb3565b6020026020010151600b600085848151811061215c5761215c615bb3565b60209081029190910181015182528101919091526040016000205461ffff1614156121b95760405162461bcd60e51b815260206004820152600d60248201526c6669676874696e67207965746960981b6044820152606401610a3a565b8281815181106121cb576121cb615bb3565b6020026020010151600a60008584815181106121e9576121e9615bb3565b60209081029190910181015182528101919091526040016000205461ffff1614156122445760405162461bcd60e51b815260206004820152600b60248201526a7374616b6564207965746960a81b6044820152606401610a3a565b82818151811061225657612256615bb3565b6020026020010151600f600085848151811061227457612274615bb3565b60209081029190910181015182528101919091526040016000205461ffff1614156122d05760405162461bcd60e51b815260206004820152600c60248201526b696e6a75726564207965746960a01b6044820152606401610a3a565b6000600460009054906101000a90046001600160a01b03166001600160a01b0316630d9005ae6040518163ffffffff1660e01b815260040160206040518083038186803b15801561232057600080fd5b505afa158015612334573d6000803e3d6000fd5b505050506040513d601f19601f8201168201806040525081019061235891906157f3565b9050604051806020016040528082815250600e600086858151811061237f5761237f615bb3565b6020908102919091018101518252810191909152604001600020905190556001546001600160a01b0316336001600160a01b0316146125b957600154845133916001600160a01b031690636352211e908790869081106123e1576123e1615bb3565b60200260200101516040518263ffffffff1660e01b815260040161240791815260200190565b60206040518083038186803b15801561241f57600080fd5b505afa158015612433573d6000803e3d6000fd5b505050506040513d601f19601f8201168201806040525081019061245791906152ee565b6001600160a01b03161461249e5760405162461bcd60e51b815260206004820152600e60248201526d20a4a713aa102ca7902a27a5a2a760911b6044820152606401610a3a565b6001546001600160a01b03166323b872dd33308786815181106124c3576124c3615bb3565b60200260200101516040518463ffffffff1660e01b81526004016124e993929190615842565b600060405180830381600087803b15801561250357600080fd5b505af1158015612517573d6000803e3d6000fd5b50503360009081526007602052604081205487519093506008925087908690811061254457612544615bb3565b602002602001015181526020019081526020016000208190555060076000336001600160a01b03166001600160a01b0316815260200190815260200160002084838151811061259557612595615bb3565b602090810291909101810151825460018101845560009384529190922001556125e1565b8382815181106125cb576125cb615bb3565b6020026020010151600014156125e157506126ed565b601160008584815181106125f7576125f7615bb3565b60209081029190910181015182528101919091526040016000205460ff166126925760016011600086858151811061263157612631615bb3565b6020026020010151815260200190815260200160002060006101000a81548160ff021916908360ff16021790555060006010600086858151811061267757612677615bb3565b60200260200101518152602001908152602001600020819055505b8260ff16600214156126c7576126c2858584815181106126b4576126b4615bb3565b602002602001015185612d44565b6126eb565b6126eb858584815181106126dd576126dd615bb3565b602002602001015185613006565b505b806126f781615b2c565b9150506120ce565b50505050565b6000601f54601e54601d5461271a9190615a82565b6127249190615a82565b905090565b600c818154811061273957600080fd5b60009182526020909120600290910201805460019091015461ffff821692506001600160501b0362010000830481169260ff600160601b90910416916001600160a01b03811691600160a01b9091041685565b33612795611b8f565b6001600160a01b0316146127bb5760405162461bcd60e51b8152600401610a3a906159a6565b601955565b336127c9611b8f565b6001600160a01b0316146127ef5760405162461bcd60e51b8152600401610a3a906159a6565b6025805460ff1916911515919091179055565b3361280b611b8f565b6001600160a01b0316146128315760405162461bcd60e51b8152600401610a3a906159a6565b602580546001600160a01b0390921661010002610100600160a81b0319909216919091179055565b33612862611b8f565b6001600160a01b0316146128885760405162461bcd60e51b8152600401610a3a906159a6565b601755565b60076020528160005260406000208181548110610c6857600080fd5b336128b2611b8f565b6001600160a01b0316146128d85760405162461bcd60e51b8152600401610a3a906159a6565b6001600160a01b03811661293d5760405162461bcd60e51b815260206004820152602660248201527f4f776e61626c653a206e6577206f776e657220697320746865207a65726f206160448201526564647265737360d01b6064820152608401610a3a565b610bbf81612c25565b3361294f611b8f565b6001600160a01b0316146129755760405162461bcd60e51b8152600401610a3a906159a6565b600480546001600160a01b0319166001600160a01b0392909216919091179055565b336129a0611b8f565b6001600160a01b0316146129c65760405162461bcd60e51b8152600401610a3a906159a6565b601a55565b6129d3610e49565b156129f05760405162461bcd60e51b8152600401610a3a9061597c565b6000805460ff60b01b1916600160b01b1790557f62e78cea01bee320cd4e420270b5ea74000d11b0c9f74754ebdbfc544b05a258612a2b3390565b604051612a38919061582e565b60405180910390a1565b612a4a610e49565b612a8d5760405162461bcd60e51b815260206004820152601460248201527314185d5cd8589b194e881b9bdd081c185d5cd95960621b6044820152606401610a3a565b6000805460ff60b01b191690557f5db9ee0a495bf2e6ff9c91a7834c1ba4fdd244a5e8aa4e537bd38aeae4b073aa33612a2b565b6000828152600f60209081526040918290208251606081018452905461ffff811682526201000081046001600160501b031692820192909252600160601b9091046001600160a01b0316918101829052903314612b305760405162461bcd60e51b8152600401610a3a90615950565b8180612b5457506014546020820151612b52906001600160501b031642615af2565b115b612b975760405162461bcd60e51b815260206004820152601460248201527359657469206e6f74206865616c6564207965742160601b6044820152606401610a3a565b6001546001600160a01b031663b88d4fde3033866040518463ffffffff1660e01b8152600401612bc993929190615866565b600060405180830381600087803b158015612be357600080fd5b505af1158015612bf7573d6000803e3d6000fd5b50505050612c058333613152565b50506000908152600860209081526040808320839055600f909152812055565b600080546001600160a01b038381166001600160a01b0319831681178455604051919092169283917f8be0079c531659141344cd1fd0a4f28419497f9722a3daafe3b4186f6b6457e09190a35050565b6000612c8082613219565b92915050565b33612c9081612c25565b6040516001600160a01b038216906000907f8be0079c531659141344cd1fd0a4f28419497f9722a3daafe3b4186f6b6457e0908290a350565b60008181526012602052604081205460228054606492908110612cee57612cee615bb3565b906000526020600020015461012c612d069190615ad3565b612c809190615abf565b6000828152600b602052604081205461ffff168314612d3a57612d33838361323c565b9050612c80565b612d338383613f50565b601f54600d60008481526020019081526020016000208190555060006040518060a001604052808461ffff168152602001426001600160501b031681526020018360ff168152602001856001600160a01b03168152602001426001600160501b0316815250905080600b600085815260200190815260200160002060008201518160000160006101000a81548161ffff021916908361ffff16021790555060208201518160000160026101000a8154816001600160501b0302191690836001600160501b03160217905550604082015181600001600c6101000a81548160ff021916908360ff16021790555060608201518160010160006101000a8154816001600160a01b0302191690836001600160a01b0316021790555060808201518160010160146101000a8154816001600160501b0302191690836001600160501b03160217905550905050600c81908060018154018082558091505060019003906000526020600020906002020160009091909190915060008201518160000160006101000a81548161ffff021916908361ffff16021790555060208201518160000160026101000a8154816001600160501b0302191690836001600160501b03160217905550604082015181600001600c6101000a81548160ff021916908360ff16021790555060608201518160010160006101000a8154816001600160a01b0302191690836001600160a01b0316021790555060808201518160010160146101000a8154816001600160501b0302191690836001600160501b0316021790555050506001600c80549050612f989190615af2565b6000848152600d6020526040812091909155601f805460019290612fbd908490615a82565b90915550506040517fadd17b9d82cb146eaff151f4f864faa55b09599b4eff7714935025b99054fe1c90612ff89086908690869042906158b2565b60405180910390a150505050565b6040805160a08101825261ffff80851682526001600160501b03428116602080850182815260ff8089168789018181526001600160a01b03808e1660608b0190815260808b0197885260008e8152600a9097529a9095209851895494519151909316600160601b0260ff60601b1991881662010000026001600160601b0319909516939098169290921792909217169490941785559451600190940180549151909216600160a01b026001600160f01b031990911693909416929092179290921790556130eb576001601d60008282546130e09190615a82565b909155506131109050565b8060ff1660011415613110576001601e600082825461310a9190615a82565b90915550505b7fadd17b9d82cb146eaff151f4f864faa55b09599b4eff7714935025b99054fe1c8383834260405161314594939291906158b2565b60405180910390a1505050565b6001600160a01b03811660009081526007602052604081208054909190829061317d90600190615af2565b8154811061318d5761318d615bb3565b60009182526020808320909101548683526008909152604080832054828452922082905583549092508291849181106131c8576131c8615bb3565b60009182526020808320909101929092556001600160a01b03851681526007909152604090208054806131fd576131fd615b9d565b6001900381819060005260206000200160009055905550505050565b60008061322583614a3b565b9050613235818460400151614aa9565b9392505050565b6000828152600a60209081526040808320815160a081018352815461ffff811682526001600160501b0362010000820481169583019590955260ff600160601b9091041692810192909252600101546001600160a01b03811660608301819052600160a01b90910490921660808201529033146132cb5760405162461bcd60e51b8152600401610a3a90615950565b60008481526009602052604090205460ff1615156001146132fe5760405162461bcd60e51b8152600401610a3a906159db565b82801561332357506013546020820151613321906001600160501b031642615af2565b105b1561337f5760405162461bcd60e51b815260206004820152602660248201527f4e6565642074776f2064617973206f66204672787374206265666f726520636c60448201526561696d696e6760d01b6064820152608401610a3a565b600084815260126020526040808220549083015190919060ff166001141561344057602082815481106133b4576133b4615bb3565b90600052602060002001836040015160ff16815481106133d6576133d6615bb3565b9060005260206000200154670de0b6b3a76400006133f49190615ad3565b600087815260116020526040902054909150600a906134189060019060ff16615b09565b6134259060ff1683615ad3565b61342f9190615abf565b6134399082615a82565b90506134db565b6020828154811061345357613453615bb3565b90600052602060002001836040015160ff168154811061347557613475615bb3565b9060005260206000200154670de0b6b3a76400006134939190615ad3565b600087815260116020526040902054909150600a906134b79060019060ff16615b09565b6134c49060ff1683615ad3565b6134ce9190615abf565b6134d89082615a82565b90505b8415613dc2576000601a5484602001516001600160501b0316426134ff9190615af2565b6135099190615abf565b90506135158183615ad3565b945060006021848154811061352c5761352c615bb3565b90600052602060002001856040015160ff168154811061354e5761354e615bb3565b9060005260206000200154601a5486608001516001600160501b0316426135759190615af2565b61357f9190615abf565b6135899190615ad3565b9050846040015160ff16600014156138b7576000888152600e6020526040808220600480548254935163054b431960e51b81529182018d905260248201939093529092916001600160a01b03169063a96863209060440160206040518083038186803b1580156135f857600080fd5b505afa15801561360c573d6000803e3d6000fd5b505050506040513d601f19601f8201168201806040525081019061363091906157f3565b9050600081116136525760405162461bcd60e51b8152600401610a3a9061591f565b60048054604080516306c802d760e11b815290516001600160a01b0390921692630d9005ae928282019260209290829003018186803b15801561369457600080fd5b505afa1580156136a8573d6000803e3d6000fd5b505050506040513d601f19601f820116820180604052508101906136cc91906157f3565b82556019546136dc606483615b47565b10156137415760008a8152601160205260408120546136fd9060ff16614acd565b905061371d606461370e838c615ad3565b6137189190615abf565b614af3565b60646137298282615af2565b613733908b615ad3565b61373d9190615abf565b9850505b6001546001600160a01b031663b88d4fde30338d6040518463ffffffff1660e01b815260040161377393929190615866565b600060405180830381600087803b15801561378d57600080fd5b505af11580156137a1573d6000803e3d6000fd5b505050506137af8a33613152565b60008a8152600860209081526040808320839055601190915290205460248054909160ff169081106137e3576137e3615bb3565b9060005260206000200154601060008c81526020019081526020016000205410156138b05760008a81526011602052604090205460248054909160ff1690811061382f5761382f615bb3565b906000526020600020015483111561388c5760008a81526010602090815260408083205460119092529091205460248054909160ff1690811061387457613874615bb3565b90600052602060002001546138899190615af2565b92505b60008a815260106020526040812080548592906138aa908490615a82565b90915550505b5050613d8e565b846040015160ff1660011415613d8e576000888152600e6020526040808220600480548254935163054b431960e51b81529182018d905260248201939093529092916001600160a01b03169063a96863209060440160206040518083038186803b15801561392457600080fd5b505afa158015613938573d6000803e3d6000fd5b505050506040513d601f19601f8201168201806040525081019061395c91906157f3565b90506000811161397e5760405162461bcd60e51b8152600401610a3a9061591f565b60048054604080516306c802d760e11b815290516001600160a01b0390921692630d9005ae928282019260209290829003018186803b1580156139c057600080fd5b505afa1580156139d4573d6000803e3d6000fd5b505050506040513d601f19601f820116820180604052508101906139f891906157f3565b825560008a815260116020526040902054613a159060ff16614b57565b613a216103e883615b47565b1015613c0457613a32600284615abf565b60008b815260116020526040902054602480549295509160ff909116908110613a5d57613a5d615bb3565b9060005260206000200154601060008c8152602001908152602001600020541015613b2a5760008a81526011602052604090205460248054909160ff16908110613aa957613aa9615bb3565b9060005260206000200154831115613b065760008a81526010602090815260408083205460119092529091205460248054909160ff16908110613aee57613aee615bb3565b9060005260206000200154613b039190615af2565b92505b60008a81526010602052604081208054859290613b24908490615a82565b90915550505b60405180606001604052808b61ffff168152602001426001600160501b03168152602001613b553390565b6001600160a01b0390811690915260008c8152600f602090815260409182902084518154868401519685015161ffff9092166001600160601b031990911617620100006001600160501b0397881602176bffffffffffffffffffffffff16600160601b91909516029390931790925580518d815242909316918301919091527f79e9c89b27777596a7f5d2692dfac3988b9297a96fa573f7ef11c7454499850a910160405180910390a1613d73565b6001546001600160a01b031663b88d4fde30338d6040518463ffffffff1660e01b8152600401613c3693929190615866565b600060405180830381600087803b158015613c5057600080fd5b505af1158015613c64573d6000803e3d6000fd5b50505050613c728a33613152565b60008a8152600860209081526040808320839055601190915290205460248054909160ff16908110613ca657613ca6615bb3565b9060005260206000200154601060008c8152602001908152602001600020541015613d735760008a81526011602052604090205460248054909160ff16908110613cf257613cf2615bb3565b9060005260206000200154831115613d4f5760008a81526010602090815260408083205460119092529091205460248054909160ff16908110613d3757613d37615bb3565b9060005260206000200154613d4c9190615af2565b92505b60008a81526010602052604081208054859290613d6d908490615a82565b90915550505b6001601e6000828254613d869190615af2565b909155505050505b50506000868152600a6020526040902080546001600160681b031916815560010180546001600160f01b0319169055613f18565b6000601a5484602001516001600160501b031642613de09190615af2565b613dea9190615abf565b9050613df68183615ad3565b9450613e0b60646018548761370e9190615ad3565b60646018546064613e1c9190615af2565b613e269087615ad3565b613e309190615abf565b94506040518060a001604052808861ffff168152602001426001600160501b03168152602001856040015160ff168152602001613e6a3390565b6001600160a01b0390811682526080808801516001600160501b0390811660209485015260008c8152600a855260409081902086518154968801519288015160ff16600160601b0260ff60601b1993851662010000026001600160601b031990981661ffff909216919091179690961791909116949094178455606085015160019094018054959092015116600160a01b026001600160f01b03199094169290911691909117919091179055505b6040805187815260208101869052861515818301529051600080516020615c038339815191529181900360600190a150505092915050565b6000828152600b60209081526040808320815160a081018352815461ffff811682526001600160501b0362010000820481168387015260ff600160601b9092048216838601526001938401546001600160a01b0381166060850152600160a01b9004166080830152878652600990945291842054919291909116151514613fe95760405162461bcd60e51b8152600401610a3a906159db565b60608101516001600160a01b031633146140155760405162461bcd60e51b8152600401610a3a90615950565b82801561403a57506013546020820151614038906001600160501b031642615af2565b105b156140955760405162461bcd60e51b815260206004820152602560248201527f474f4e4e4120424520434f4c4420574954484f55542054574f20444159275320604482015264119493d4d560da1b6064820152608401610a3a565b6000848152601160209081526040808320546012835290832054825460ff909216929181106140c6576140c6615bb3565b90600052602060002001836040015160ff16815481106140e8576140e8615bb3565b90600052602060002001546140fd9190615ad3565b61410f90670de0b6b3a7640000615ad3565b600086815260116020526040902054909150600a906141339060019060ff16615b09565b6141409060ff1683615ad3565b61414a9190615abf565b6141549082615a82565b9050831561484f576000601a5483602001516001600160501b03164261417a9190615af2565b6141849190615abf565b90506141908183615ad3565b60008781526012602052604081205460218054939750919281106141b6576141b6615bb3565b90600052602060002001846040015160ff16815481106141d8576141d8615bb3565b9060005260206000200154601a5485608001516001600160501b0316426141ff9190615af2565b6142099190615abf565b6142139190615ad3565b6000888152600e6020526040808220600480548254935163054b431960e51b81529182018d90526024820193909352939450926001600160a01b039091169063a96863209060440160206040518083038186803b15801561427357600080fd5b505afa158015614287573d6000803e3d6000fd5b505050506040513d601f19601f820116820180604052508101906142ab91906157f3565b9050600081116142cd5760405162461bcd60e51b8152600401610a3a9061591f565b600c8054600091906142e190600190615af2565b815481106142f1576142f1615bb3565b600091825260208083206040805160a0810182526002909402909101805461ffff811685526001600160501b0362010000820481168686015260ff600160601b9092048216868501526001909201546001600160a01b0381166060870152600160a01b900490911660808501528e855260119092529092205460248054929450921690811061438257614382615bb3565b9060005260206000200154601060008c815260200190815260200160002054101561444f5760008a81526011602052604090205460248054909160ff169081106143ce576143ce615bb3565b906000526020600020015484111561442b5760008a81526010602090815260408083205460119092529091205460248054909160ff1690811061441357614413615bb3565b90600052602060002001546144289190615af2565b93505b60008a81526010602052604081208054869290614449908490615a82565b90915550505b60008a81526011602052604090205461446a9060ff16614b73565b6144766103e884615b47565b10156146325760048054604080516306c802d760e11b815290516001600160a01b0390921692630d9005ae928282019260209290829003018186803b1580156144be57600080fd5b505afa1580156144d2573d6000803e3d6000fd5b505050506040513d601f19601f820116820180604052508101906144f691906157f3565b83556040516000906145489061452a9085906020019081526c636f6e7374616e7456616c756560981b6020820152602d0190565b6040516020818303038152906040528051906020012060001c614b8f565b9050600160009054906101000a90046001600160a01b03166001600160a01b031663b88d4fde30838e6040518463ffffffff1660e01b815260040161458f93929190615866565b600060405180830381600087803b1580156145a957600080fd5b505af11580156145bd573d6000803e3d6000fd5b505050506145cb8b33613152565b60008b8152600860209081526040808320839055601082528083208390556011825291829020805460ff1916600117905590518c81527f6009b4228a9952cbf04a8ebbd80f931efb8053ad815f7fb937aa0812ac2433fc910160405180910390a1506146b2565b600154604051635c46a7ef60e11b81526001600160a01b039091169063b88d4fde9061466690309033908f90600401615866565b600060405180830381600087803b15801561468057600080fd5b505af1158015614694573d6000803e3d6000fd5b505050506146a28a33613152565b60008a8152600860205260408120555b60008a8152600d6020526040902054600c805483929081106146d6576146d6615bb3565b60009182526020808320845160029093020180548583015160408088015160ff16600160601b0260ff60601b196001600160501b0393841662010000026001600160601b031990951661ffff988916179490941793909316929092178355606087015160019093018054608090980151909116600160a01b026001600160f01b03199097166001600160a01b03909316929092179590951790558d8352600d9052828220548451909116825291902055600c80548061479757614797615b9d565b6000828152602080822060026000199094019384020180546001600160681b03199081168255600191820180546001600160f01b0319908116909155949095558e8352600d82526040808420849055600b909252908220805490941684559283018054909216909155601f8054909190614812908490615af2565b9091555050506000898152600b6020526040902080546001600160681b031916815560010180546001600160f01b031916905550614a0492505050565b6000601a5483602001516001600160501b03164261486d9190615af2565b6148779190615abf565b90506148838183615ad3565b60008781526012602052604081205460218054939750919281106148a9576148a9615bb3565b90600052602060002001846040015160ff16815481106148cb576148cb615bb3565b9060005260206000200154826148e19190615ad3565b90506148f660646018548761370e9190615ad3565b606460185460646149079190615af2565b6149119087615ad3565b61491b9190615abf565b94506040518060a001604052808861ffff168152602001426001600160501b03168152602001856040015160ff1681526020016149553390565b6001600160a01b0390811682526080808801516001600160501b0390811660209485015260008c8152600b855260409081902086518154968801519288015160ff16600160601b0260ff60601b1993851662010000026001600160601b031990981661ffff909216919091179690961791909116949094178455606085015160019094018054959092015116600160a01b026001600160f01b0319909416929091169190911791909117905550505b6040805186815260208101859052851515818301529051600080516020615c038339815191529181900360600190a1505092915050565b6000612c807f9ce55602eb9311bc580e3d359f7f1b6503f00966e7234333911956d5e0851b2583600001518460200151604051602001614a8e939291909283526020830191909152604082015260600190565b60405160208183030381529060405280519060200120614bb1565b6000806000614ab88585614bff565b91509150614ac581614c6f565b509392505050565b601554600090614ade600184615af2565b614ae9906002615ad3565b6132359082615af2565b6002546005546040516340c10f1960e01b81526001600160a01b03928316926340c10f1992614b29929116908590600401615899565b600060405180830381600087803b158015614b4357600080fd5b505af1158015610d83573d6000803e3d6000fd5b601654600090614b68600184615af2565b614ae9906019615ad3565b601754600090614b84600184615af2565b614ae9906005615ad3565b600080614b9b83614e25565b90506001600160a01b038116612c805733613235565b6000612c80614bbe614eb6565b8360405161190160f01b6020820152602281018390526042810182905260009060620160405160208183030381529060405280519060200120905092915050565b600080825160411415614c365760208301516040840151606085015160001a614c2a87828585614fdd565b94509450505050614c68565b825160401415614c605760208301516040840151614c558683836150c0565b935093505050614c68565b506000905060025b9250929050565b6000816004811115614c8357614c83615b87565b1415614c8c5750565b6001816004811115614ca057614ca0615b87565b1415614ce95760405162461bcd60e51b815260206004820152601860248201527745434453413a20696e76616c6964207369676e617475726560401b6044820152606401610a3a565b6002816004811115614cfd57614cfd615b87565b1415614d4b5760405162461bcd60e51b815260206004820152601f60248201527f45434453413a20696e76616c6964207369676e6174757265206c656e677468006044820152606401610a3a565b6003816004811115614d5f57614d5f615b87565b1415614db85760405162461bcd60e51b815260206004820152602260248201527f45434453413a20696e76616c6964207369676e6174757265202773272076616c604482015261756560f01b6064820152608401610a3a565b6004816004811115614dcc57614dcc615b87565b1415610bbf5760405162461bcd60e51b815260206004820152602260248201527f45434453413a20696e76616c6964207369676e6174757265202776272076616c604482015261756560f01b6064820152608401610a3a565b600c54600090614e665760405162461bcd60e51b815260206004820152600c60248201526b041727261792053697a6520360a41b6044820152606401610a3a565b601f54614e7557506000919050565b600c8054614e839084615b47565b81548110614e9357614e93615bb3565b60009182526020909120600160029092020101546001600160a01b031692915050565b6000306001600160a01b037f000000000000000000000000000000000000000000000000000000000000000016148015614f0f57507f000000000000000000000000000000000000000000000000000000000000000046145b15614f3957507f000000000000000000000000000000000000000000000000000000000000000090565b50604080517f00000000000000000000000000000000000000000000000000000000000000006020808301919091527f0000000000000000000000000000000000000000000000000000000000000000828401527f000000000000000000000000000000000000000000000000000000000000000060608301524660808301523060a0808401919091528351808403909101815260c0909201909252805191012090565b6000806fa2a8918ca85bafe22016d0b997e4df60600160ff1b0383111561500a57506000905060036150b7565b8460ff16601b1415801561502257508460ff16601c14155b1561503357506000905060046150b7565b6040805160008082526020820180845289905260ff881692820192909252606081018690526080810185905260019060a0016020604051602081039080840390855afa158015615087573d6000803e3d6000fd5b5050604051601f1901519150506001600160a01b0381166150b0576000600192509250506150b7565b9150600090505b94509492505050565b6000806001600160ff1b038316816150dd60ff86901c601b615a82565b90506150eb87828885614fdd565b935093505050935093915050565b828054828255906000526020600020908101928215615134579160200282015b82811115615134578251825591602001919060010190615119565b506151409291506151cb565b5090565b828054828255906000526020600020908101928215615191579160200282015b8281111561519157825180516151819184916020909101906150f9565b5091602001919060010190615164565b506151409291506151e0565b6040805160a08101825260008082526020820181905291810182905260608101829052608081019190915290565b5b8082111561514057600081556001016151cc565b808211156151405760006151f482826151fd565b506001016151e0565b5080546000825590600052602060002090810190610bbf91906151cb565b60008083601f84011261522d57600080fd5b5081356001600160401b0381111561524457600080fd5b6020830191508360208260051b8501011115614c6857600080fd5b600082601f83011261527057600080fd5b8135602061528561528083615a5f565b615a2f565b80838252828201915082860187848660051b89010111156152a557600080fd5b60005b858110156152c4578135845292840192908401906001016152a8565b5090979650505050505050565b6000602082840312156152e357600080fd5b813561323581615bdf565b60006020828403121561530057600080fd5b815161323581615bdf565b600080600080600060a0868803121561532357600080fd5b853561532e81615bdf565b9450602086013561533e81615bdf565b9350604086013561534e81615bdf565b9250606086013561535e81615bdf565b9150608086013561536e81615bdf565b809150509295509295909350565b60008060008060006080868803121561539457600080fd5b853561539f81615bdf565b945060208601356153af81615bdf565b93506040860135925060608601356001600160401b03808211156153d257600080fd5b818801915088601f8301126153e657600080fd5b8135818111156153f557600080fd5b89602082850101111561540757600080fd5b9699959850939650602001949392505050565b60008060006060848603121561542f57600080fd5b833561543a81615bdf565b925060208401356001600160401b0381111561545557600080fd5b6154618682870161525f565b925050604084013560ff8116811461547857600080fd5b809150509250925092565b6000806040838503121561549657600080fd5b82356154a181615bdf565b946020939093013593505050565b600060208083850312156154c257600080fd5b82356001600160401b03808211156154d957600080fd5b818501915085601f8301126154ed57600080fd5b81356154fb61528082615a5f565b80828252858201915085850189878560051b880101111561551b57600080fd5b6000805b8581101561555657823587811115615535578283fd5b6155438d8b838c010161525f565b865250938801939188019160010161551f565b50919a9950505050505050505050565b6000602080838503121561557957600080fd5b82356001600160401b038082111561559057600080fd5b818501915085601f8301126155a457600080fd5b81356155b261528082615a5f565b80828252858201915085850189878560051b88010111156155d257600080fd5b60005b848110156156a5578135868111156155ec57600080fd5b8701601f196060828e038201121561560357600080fd5b61560b615a07565b8a83013581526040808401358c83015260608401358a81111561562d57600080fd5b8085019450508e603f85011261564257600080fd5b8b8401358a81111561565657615656615bc9565b6156668d85601f84011601615a2f565b93508084528f8282870101111561567c57600080fd5b808286018e86013760009084018d015281019190915285525092870192908701906001016155d5565b50909998505050505050505050565b6000806000604084860312156156c957600080fd5b83356001600160401b038111156156df57600080fd5b6156eb8682870161521b565b909450925050602084013561547881615bf4565b6000806020838503121561571257600080fd5b82356001600160401b0381111561572857600080fd5b6157348582860161521b565b90969095509350505050565b60006020828403121561575257600080fd5b81356001600160401b0381111561576857600080fd5b6157748482850161525f565b949350505050565b60006020828403121561578e57600080fd5b813561323581615bf4565b6000602082840312156157ab57600080fd5b815161323581615bf4565b6000602082840312156157c857600080fd5b813561ffff8116811461323557600080fd5b6000602082840312156157ec57600080fd5b5035919050565b60006020828403121561580557600080fd5b5051919050565b6000806040838503121561581f57600080fd5b50508035926020909101359150565b6001600160a01b0391909116815260200190565b6001600160a01b039384168152919092166020820152604081019190915260600190565b6001600160a01b039384168152919092166020820152604081019190915260806060820181905260009082015260a00190565b6001600160a01b03929092168252602082015260400190565b6001600160a01b03949094168452602084019290925260ff166040830152606082015260800190565b6020808252825182820181905260009190848201906040850190845b81811015615913578351835292840192918401916001016158f7565b50909695505050505050565b60208082526017908201527614985b991bdb5b995cdcc81b9bdd081c9958d95a5d9959604a1b604082015260600190565b6020808252601290820152715357495045522c204e4f2053574950494e4760701b604082015260600190565b60208082526010908201526f14185d5cd8589b194e881c185d5cd95960821b604082015260600190565b6020808252818101527f4f776e61626c653a2063616c6c6572206973206e6f7420746865206f776e6572604082015260600190565b60208082526012908201527111d85b5948139bdd08125b9a5d1a585d195960721b604082015260600190565b604051606081016001600160401b0381118282101715615a2957615a29615bc9565b60405290565b604051601f8201601f191681016001600160401b0381118282101715615a5757615a57615bc9565b604052919050565b60006001600160401b03821115615a7857615a78615bc9565b5060051b60200190565b60008219821115615a9557615a95615b5b565b500190565b600060ff821660ff84168060ff03821115615ab757615ab7615b5b565b019392505050565b600082615ace57615ace615b71565b500490565b6000816000190483118215151615615aed57615aed615b5b565b500290565b600082821015615b0457615b04615b5b565b500390565b600060ff821660ff841680821015615b2357615b23615b5b565b90039392505050565b6000600019821415615b4057615b40615b5b565b5060010190565b600082615b5657615b56615b71565b500690565b634e487b7160e01b600052601160045260246000fd5b634e487b7160e01b600052601260045260246000fd5b634e487b7160e01b600052602160045260246000fd5b634e487b7160e01b600052603160045260246000fd5b634e487b7160e01b600052603260045260246000fd5b634e487b7160e01b600052604160045260246000fd5b6001600160a01b0381168114610bbf57600080fd5b8015158114610bbf57600080fdfe793540b1cd54af1ddd03a0cc5273b7527b06876452a2b78b07b7784077d8820ea2646970667358221220e0e30032dbd355156afc58d60159a55223c52b03caed078b7630660ed892eb7264736f6c63430008070033",
  "linkReferences": {},
  "deployedLinkReferences": {}
}