{
  "_format": "hh-sol-artifact-1",
  "contractName": "V3YetiGameLogic",
  "sourceName": "contracts/mainnetTesting/testV3.sol",
  "abi": [
    {
      "anonymous": false,
      "inputs": [
        {
          "indexed": false,
          "internalType": "uint256",
          "name": "tokenId",
          "type": "uint256"
        },
        {
          "indexed": false,
          "internalType": "address",
          "name": "healer",
          "type": "address"
        },
        {
          "indexed": false,
          "internalType": "uint256",
          "name": "cost",
          "type": "uint256"
        }
      ],
      "name": "Healing",
      "type": "event"
    },
    {
      "anonymous": false,
      "inputs": [
        {
          "indexed": false,
          "internalType": "uint256",
          "name": "tokenId",
          "type": "uint256"
        },
        {
          "indexed": false,
          "internalType": "uint80",
          "name": "injuredblock",
          "type": "uint80"
        }
      ],
      "name": "Injury",
      "type": "event"
    },
    {
      "anonymous": false,
      "inputs": [
        {
          "indexed": false,
          "internalType": "address",
          "name": "",
          "type": "address"
        },
        {
          "indexed": false,
          "internalType": "uint16",
          "name": "",
          "type": "uint16"
        },
        {
          "indexed": false,
          "internalType": "uint8",
          "name": "",
          "type": "uint8"
        }
      ],
      "name": "Log",
      "type": "event"
    },
    {
      "anonymous": false,
      "inputs": [
        {
          "indexed": true,
          "internalType": "address",
          "name": "previousOwner",
          "type": "address"
        },
        {
          "indexed": true,
          "internalType": "address",
          "name": "newOwner",
          "type": "address"
        }
      ],
      "name": "OwnershipTransferred",
      "type": "event"
    },
    {
      "anonymous": false,
      "inputs": [
        {
          "indexed": false,
          "internalType": "address",
          "name": "account",
          "type": "address"
        }
      ],
      "name": "Paused",
      "type": "event"
    },
    {
      "anonymous": false,
      "inputs": [
        {
          "indexed": false,
          "internalType": "uint256",
          "name": "tokenId",
          "type": "uint256"
        }
      ],
      "name": "Stolen",
      "type": "event"
    },
    {
      "anonymous": false,
      "inputs": [
        {
          "indexed": false,
          "internalType": "address",
          "name": "owner",
          "type": "address"
        },
        {
          "indexed": false,
          "internalType": "uint256",
          "name": "tokenId",
          "type": "uint256"
        },
        {
          "indexed": false,
          "internalType": "uint8",
          "name": "activityId",
          "type": "uint8"
        },
        {
          "indexed": false,
          "internalType": "uint256",
          "name": "value",
          "type": "uint256"
        }
      ],
      "name": "TokenStaked",
      "type": "event"
    },
    {
      "anonymous": false,
      "inputs": [
        {
          "indexed": false,
          "internalType": "address",
          "name": "account",
          "type": "address"
        }
      ],
      "name": "Unpaused",
      "type": "event"
    },
    {
      "anonymous": false,
      "inputs": [
        {
          "indexed": false,
          "internalType": "uint256",
          "name": "tokenId",
          "type": "uint256"
        },
        {
          "indexed": false,
          "internalType": "uint256",
          "name": "earned",
          "type": "uint256"
        },
        {
          "indexed": false,
          "internalType": "bool",
          "name": "unstaked",
          "type": "bool"
        }
      ],
      "name": "YetiClaimed",
      "type": "event"
    },
    {
      "inputs": [
        {
          "internalType": "uint256",
          "name": "tokenId",
          "type": "uint256"
        }
      ],
      "name": "ClaimSickYeti",
      "outputs": [],
      "stateMutability": "nonpayable",
      "type": "function"
    },
    {
      "inputs": [],
      "name": "FIGHTING_STOLEN_RISK_PERCENTAGE",
      "outputs": [
        {
          "internalType": "uint256",
          "name": "",
          "type": "uint256"
        }
      ],
      "stateMutability": "view",
      "type": "function"
    },
    {
      "inputs": [],
      "name": "GATHERING_FRXST_TAX_PERCENTAGE",
      "outputs": [
        {
          "internalType": "uint256",
          "name": "",
          "type": "uint256"
        }
      ],
      "stateMutability": "view",
      "type": "function"
    },
    {
      "inputs": [],
      "name": "GATHERING_TAX_RISK_PERCENTAGE",
      "outputs": [
        {
          "internalType": "uint256",
          "name": "",
          "type": "uint256"
        }
      ],
      "stateMutability": "view",
      "type": "function"
    },
    {
      "inputs": [],
      "name": "GENERAL_FRXST_TAX_PERCENTAGE",
      "outputs": [
        {
          "internalType": "uint256",
          "name": "",
          "type": "uint256"
        }
      ],
      "stateMutability": "view",
      "type": "function"
    },
    {
      "inputs": [],
      "name": "GetTotalYetiStaked",
      "outputs": [
        {
          "internalType": "uint256",
          "name": "",
          "type": "uint256"
        }
      ],
      "stateMutability": "view",
      "type": "function"
    },
    {
      "inputs": [],
      "name": "HEALING_COST",
      "outputs": [
        {
          "internalType": "uint256",
          "name": "",
          "type": "uint256"
        }
      ],
      "stateMutability": "view",
      "type": "function"
    },
    {
      "inputs": [],
      "name": "HUNTING_INJURY_RISK_PERCENTAGE",
      "outputs": [
        {
          "internalType": "uint256",
          "name": "",
          "type": "uint256"
        }
      ],
      "stateMutability": "view",
      "type": "function"
    },
    {
      "inputs": [
        {
          "internalType": "uint256",
          "name": "tokenId",
          "type": "uint256"
        }
      ],
      "name": "Heal",
      "outputs": [],
      "stateMutability": "nonpayable",
      "type": "function"
    },
    {
      "inputs": [],
      "name": "INJURY_TIME",
      "outputs": [
        {
          "internalType": "uint256",
          "name": "",
          "type": "uint256"
        }
      ],
      "stateMutability": "view",
      "type": "function"
    },
    {
      "inputs": [],
      "name": "LEVEL_UP_COST_MULTIPLIER",
      "outputs": [
        {
          "internalType": "uint256",
          "name": "",
          "type": "uint256"
        }
      ],
      "stateMutability": "view",
      "type": "function"
    },
    {
      "inputs": [],
      "name": "MINIMUM_TO_EXIT",
      "outputs": [
        {
          "internalType": "uint256",
          "name": "",
          "type": "uint256"
        }
      ],
      "stateMutability": "view",
      "type": "function"
    },
    {
      "inputs": [],
      "name": "RandomnessEngine",
      "outputs": [
        {
          "internalType": "contract IVRF",
          "name": "",
          "type": "address"
        }
      ],
      "stateMutability": "view",
      "type": "function"
    },
    {
      "inputs": [
        {
          "internalType": "address",
          "name": "newSigner",
          "type": "address"
        }
      ],
      "name": "SetDesignatedSigner",
      "outputs": [],
      "stateMutability": "nonpayable",
      "type": "function"
    },
    {
      "inputs": [
        {
          "internalType": "uint256[][]",
          "name": "_exprates",
          "type": "uint256[][]"
        }
      ],
      "name": "SetExpRates",
      "outputs": [],
      "stateMutability": "nonpayable",
      "type": "function"
    },
    {
      "inputs": [
        {
          "internalType": "uint256[][]",
          "name": "_rates",
          "type": "uint256[][]"
        }
      ],
      "name": "SetFrxstRates",
      "outputs": [],
      "stateMutability": "nonpayable",
      "type": "function"
    },
    {
      "inputs": [
        {
          "internalType": "uint256",
          "name": "_tax",
          "type": "uint256"
        }
      ],
      "name": "SetGatherTaxPercentage",
      "outputs": [],
      "stateMutability": "nonpayable",
      "type": "function"
    },
    {
      "inputs": [
        {
          "internalType": "uint256",
          "name": "_tax",
          "type": "uint256"
        }
      ],
      "name": "SetGeneralTaxPercentage",
      "outputs": [],
      "stateMutability": "nonpayable",
      "type": "function"
    },
    {
      "inputs": [
        {
          "internalType": "uint256",
          "name": "_healingcost",
          "type": "uint256"
        }
      ],
      "name": "SetHealingCost",
      "outputs": [],
      "stateMutability": "nonpayable",
      "type": "function"
    },
    {
      "inputs": [
        {
          "internalType": "uint256",
          "name": "_seconds",
          "type": "uint256"
        }
      ],
      "name": "SetInjuryTime",
      "outputs": [],
      "stateMutability": "nonpayable",
      "type": "function"
    },
    {
      "inputs": [
        {
          "internalType": "uint256",
          "name": "_multiplier",
          "type": "uint256"
        }
      ],
      "name": "SetLevelUpCostMultiplier",
      "outputs": [],
      "stateMutability": "nonpayable",
      "type": "function"
    },
    {
      "inputs": [
        {
          "internalType": "uint256",
          "name": "_seconds",
          "type": "uint256"
        }
      ],
      "name": "SetMinimumClaimTime",
      "outputs": [],
      "stateMutability": "nonpayable",
      "type": "function"
    },
    {
      "inputs": [
        {
          "internalType": "bool",
          "name": "_rescue",
          "type": "bool"
        }
      ],
      "name": "SetRescueEnabled",
      "outputs": [],
      "stateMutability": "nonpayable",
      "type": "function"
    },
    {
      "inputs": [
        {
          "internalType": "address",
          "name": "account",
          "type": "address"
        },
        {
          "internalType": "uint256[]",
          "name": "tokenIds",
          "type": "uint256[]"
        },
        {
          "internalType": "uint8",
          "name": "activityId",
          "type": "uint8"
        }
      ],
      "name": "addManyToPalace",
      "outputs": [],
      "stateMutability": "nonpayable",
      "type": "function"
    },
    {
      "inputs": [
        {
          "internalType": "uint16[]",
          "name": "tokenIds",
          "type": "uint16[]"
        },
        {
          "internalType": "bool",
          "name": "unstake",
          "type": "bool"
        }
      ],
      "name": "claimMany",
      "outputs": [],
      "stateMutability": "nonpayable",
      "type": "function"
    },
    {
      "inputs": [
        {
          "internalType": "uint256",
          "name": "",
          "type": "uint256"
        }
      ],
      "name": "experience",
      "outputs": [
        {
          "internalType": "uint256",
          "name": "",
          "type": "uint256"
        }
      ],
      "stateMutability": "view",
      "type": "function"
    },
    {
      "inputs": [
        {
          "internalType": "uint256",
          "name": "",
          "type": "uint256"
        },
        {
          "internalType": "uint256",
          "name": "",
          "type": "uint256"
        }
      ],
      "name": "exprates",
      "outputs": [
        {
          "internalType": "uint256",
          "name": "",
          "type": "uint256"
        }
      ],
      "stateMutability": "view",
      "type": "function"
    },
    {
      "inputs": [
        {
          "internalType": "uint256",
          "name": "",
          "type": "uint256"
        }
      ],
      "name": "fighterArray",
      "outputs": [
        {
          "internalType": "uint16",
          "name": "tokenId",
          "type": "uint16"
        },
        {
          "internalType": "uint80",
          "name": "value",
          "type": "uint80"
        },
        {
          "internalType": "uint8",
          "name": "activityId",
          "type": "uint8"
        },
        {
          "internalType": "address",
          "name": "owner",
          "type": "address"
        },
        {
          "internalType": "uint80",
          "name": "stakeTime",
          "type": "uint80"
        }
      ],
      "stateMutability": "view",
      "type": "function"
    },
    {
      "inputs": [
        {
          "internalType": "uint256",
          "name": "",
          "type": "uint256"
        }
      ],
      "name": "fighterIndices",
      "outputs": [
        {
          "internalType": "uint256",
          "name": "",
          "type": "uint256"
        }
      ],
      "stateMutability": "view",
      "type": "function"
    },
    {
      "inputs": [
        {
          "internalType": "uint256",
          "name": "",
          "type": "uint256"
        }
      ],
      "name": "fighters",
      "outputs": [
        {
          "internalType": "uint16",
          "name": "tokenId",
          "type": "uint16"
        },
        {
          "internalType": "uint80",
          "name": "value",
          "type": "uint80"
        },
        {
          "internalType": "uint8",
          "name": "activityId",
          "type": "uint8"
        },
        {
          "internalType": "address",
          "name": "owner",
          "type": "address"
        },
        {
          "internalType": "uint80",
          "name": "stakeTime",
          "type": "uint80"
        }
      ],
      "stateMutability": "view",
      "type": "function"
    },
    {
      "inputs": [
        {
          "internalType": "uint256",
          "name": "_new",
          "type": "uint256"
        }
      ],
      "name": "fightingStolenRisk",
      "outputs": [],
      "stateMutability": "nonpayable",
      "type": "function"
    },
    {
      "inputs": [],
      "name": "frxst",
      "outputs": [
        {
          "internalType": "contract FRXST",
          "name": "",
          "type": "address"
        }
      ],
      "stateMutability": "view",
      "type": "function"
    },
    {
      "inputs": [
        {
          "internalType": "uint256",
          "name": "_new",
          "type": "uint256"
        }
      ],
      "name": "gatheringFRXSTRisk",
      "outputs": [],
      "stateMutability": "nonpayable",
      "type": "function"
    },
    {
      "inputs": [],
      "name": "getSignerStore",
      "outputs": [
        {
          "internalType": "bytes32",
          "name": "",
          "type": "bytes32"
        }
      ],
      "stateMutability": "view",
      "type": "function"
    },
    {
      "inputs": [
        {
          "internalType": "address",
          "name": "_user",
          "type": "address"
        }
      ],
      "name": "getStakedTokens",
      "outputs": [
        {
          "internalType": "uint256[]",
          "name": "",
          "type": "uint256[]"
        }
      ],
      "stateMutability": "view",
      "type": "function"
    },
    {
      "inputs": [
        {
          "internalType": "uint256",
          "name": "cost",
          "type": "uint256"
        }
      ],
      "name": "healCostSetter",
      "outputs": [],
      "stateMutability": "nonpayable",
      "type": "function"
    },
    {
      "inputs": [
        {
          "internalType": "uint256",
          "name": "",
          "type": "uint256"
        }
      ],
      "name": "hospital",
      "outputs": [
        {
          "internalType": "uint16",
          "name": "tokenId",
          "type": "uint16"
        },
        {
          "internalType": "uint80",
          "name": "value",
          "type": "uint80"
        },
        {
          "internalType": "address",
          "name": "owner",
          "type": "address"
        }
      ],
      "stateMutability": "view",
      "type": "function"
    },
    {
      "inputs": [
        {
          "internalType": "uint256",
          "name": "_new",
          "type": "uint256"
        }
      ],
      "name": "huntingInjuryRisk",
      "outputs": [],
      "stateMutability": "nonpayable",
      "type": "function"
    },
    {
      "inputs": [
        {
          "internalType": "address",
          "name": "_yeti",
          "type": "address"
        },
        {
          "internalType": "address",
          "name": "_frxst",
          "type": "address"
        },
        {
          "internalType": "address",
          "name": "_treasury",
          "type": "address"
        },
        {
          "internalType": "address",
          "name": "_rs",
          "type": "address"
        },
        {
          "internalType": "address",
          "name": "_vrf",
          "type": "address"
        }
      ],
      "name": "init",
      "outputs": [],
      "stateMutability": "nonpayable",
      "type": "function"
    },
    {
      "inputs": [],
      "name": "initialize",
      "outputs": [],
      "stateMutability": "nonpayable",
      "type": "function"
    },
    {
      "inputs": [
        {
          "internalType": "uint256",
          "name": "",
          "type": "uint256"
        }
      ],
      "name": "initiateGame",
      "outputs": [
        {
          "internalType": "bool",
          "name": "",
          "type": "bool"
        }
      ],
      "stateMutability": "view",
      "type": "function"
    },
    {
      "inputs": [
        {
          "internalType": "uint256",
          "name": "tokenId",
          "type": "uint256"
        },
        {
          "internalType": "uint256",
          "name": "rarity",
          "type": "uint256"
        }
      ],
      "name": "initiateGameAt",
      "outputs": [],
      "stateMutability": "nonpayable",
      "type": "function"
    },
    {
      "inputs": [
        {
          "internalType": "uint256",
          "name": "",
          "type": "uint256"
        }
      ],
      "name": "levels",
      "outputs": [
        {
          "internalType": "uint8",
          "name": "",
          "type": "uint8"
        }
      ],
      "stateMutability": "view",
      "type": "function"
    },
    {
      "inputs": [
        {
          "internalType": "uint256",
          "name": "tokenId",
          "type": "uint256"
        }
      ],
      "name": "levelup",
      "outputs": [],
      "stateMutability": "nonpayable",
      "type": "function"
    },
    {
      "inputs": [
        {
          "internalType": "address",
          "name": "",
          "type": "address"
        },
        {
          "internalType": "address",
          "name": "from",
          "type": "address"
        },
        {
          "internalType": "uint256",
          "name": "",
          "type": "uint256"
        },
        {
          "internalType": "bytes",
          "name": "",
          "type": "bytes"
        }
      ],
      "name": "onERC721Received",
      "outputs": [
        {
          "internalType": "bytes4",
          "name": "",
          "type": "bytes4"
        }
      ],
      "stateMutability": "pure",
      "type": "function"
    },
    {
      "inputs": [],
      "name": "owner",
      "outputs": [
        {
          "internalType": "address",
          "name": "",
          "type": "address"
        }
      ],
      "stateMutability": "view",
      "type": "function"
    },
    {
      "inputs": [
        {
          "internalType": "uint256",
          "name": "",
          "type": "uint256"
        }
      ],
      "name": "palace",
      "outputs": [
        {
          "internalType": "uint16",
          "name": "tokenId",
          "type": "uint16"
        },
        {
          "internalType": "uint80",
          "name": "value",
          "type": "uint80"
        },
        {
          "internalType": "uint8",
          "name": "activityId",
          "type": "uint8"
        },
        {
          "internalType": "address",
          "name": "owner",
          "type": "address"
        },
        {
          "internalType": "uint80",
          "name": "stakeTime",
          "type": "uint80"
        }
      ],
      "stateMutability": "view",
      "type": "function"
    },
    {
      "inputs": [],
      "name": "paused",
      "outputs": [
        {
          "internalType": "bool",
          "name": "",
          "type": "bool"
        }
      ],
      "stateMutability": "view",
      "type": "function"
    },
    {
      "inputs": [
        {
          "internalType": "uint256",
          "name": "",
          "type": "uint256"
        }
      ],
      "name": "randomIndex",
      "outputs": [
        {
          "internalType": "uint256",
          "name": "randomValue",
          "type": "uint256"
        }
      ],
      "stateMutability": "view",
      "type": "function"
    },
    {
      "inputs": [
        {
          "internalType": "uint256",
          "name": "",
          "type": "uint256"
        },
        {
          "internalType": "uint256",
          "name": "",
          "type": "uint256"
        }
      ],
      "name": "rates",
      "outputs": [
        {
          "internalType": "uint256",
          "name": "",
          "type": "uint256"
        }
      ],
      "stateMutability": "view",
      "type": "function"
    },
    {
      "inputs": [],
      "name": "renounceOwnership",
      "outputs": [],
      "stateMutability": "nonpayable",
      "type": "function"
    },
    {
      "inputs": [
        {
          "internalType": "uint256[]",
          "name": "tokenIds",
          "type": "uint256[]"
        }
      ],
      "name": "rescue",
      "outputs": [],
      "stateMutability": "nonpayable",
      "type": "function"
    },
    {
      "inputs": [],
      "name": "rescueEnabled",
      "outputs": [
        {
          "internalType": "bool",
          "name": "",
          "type": "bool"
        }
      ],
      "stateMutability": "view",
      "type": "function"
    },
    {
      "inputs": [],
      "name": "rewardCalculationDuration",
      "outputs": [
        {
          "internalType": "uint256",
          "name": "",
          "type": "uint256"
        }
      ],
      "stateMutability": "view",
      "type": "function"
    },
    {
      "inputs": [],
      "name": "rs",
      "outputs": [
        {
          "internalType": "contract rarityCheck",
          "name": "",
          "type": "address"
        }
      ],
      "stateMutability": "view",
      "type": "function"
    },
    {
      "inputs": [
        {
          "internalType": "uint256[]",
          "name": "_levelExp",
          "type": "uint256[]"
        }
      ],
      "name": "setLevelExp",
      "outputs": [],
      "stateMutability": "nonpayable",
      "type": "function"
    },
    {
      "inputs": [
        {
          "internalType": "bool",
          "name": "_paused",
          "type": "bool"
        }
      ],
      "name": "setPaused",
      "outputs": [],
      "stateMutability": "nonpayable",
      "type": "function"
    },
    {
      "inputs": [
        {
          "internalType": "uint256",
          "name": "_amount",
          "type": "uint256"
        }
      ],
      "name": "setRewardCalculationDuration",
      "outputs": [],
      "stateMutability": "nonpayable",
      "type": "function"
    },
    {
      "inputs": [
        {
          "internalType": "address",
          "name": "_vrf",
          "type": "address"
        }
      ],
      "name": "setVRF",
      "outputs": [],
      "stateMutability": "nonpayable",
      "type": "function"
    },
    {
      "inputs": [
        {
          "internalType": "uint256[]",
          "name": "_levelCost",
          "type": "uint256[]"
        }
      ],
      "name": "setlevelCost",
      "outputs": [],
      "stateMutability": "nonpayable",
      "type": "function"
    },
    {
      "inputs": [
        {
          "internalType": "uint256[]",
          "name": "_yetiMultiplier",
          "type": "uint256[]"
        }
      ],
      "name": "setyetiMultiplier",
      "outputs": [],
      "stateMutability": "nonpayable",
      "type": "function"
    },
    {
      "inputs": [
        {
          "internalType": "address",
          "name": "",
          "type": "address"
        },
        {
          "internalType": "uint256",
          "name": "",
          "type": "uint256"
        }
      ],
      "name": "stakedToken",
      "outputs": [
        {
          "internalType": "uint256",
          "name": "",
          "type": "uint256"
        }
      ],
      "stateMutability": "view",
      "type": "function"
    },
    {
      "inputs": [
        {
          "internalType": "uint256",
          "name": "",
          "type": "uint256"
        }
      ],
      "name": "tokenRarity",
      "outputs": [
        {
          "internalType": "uint256",
          "name": "",
          "type": "uint256"
        }
      ],
      "stateMutability": "view",
      "type": "function"
    },
    {
      "inputs": [
        {
          "internalType": "uint256",
          "name": "",
          "type": "uint256"
        }
      ],
      "name": "tokenToPosition",
      "outputs": [
        {
          "internalType": "uint256",
          "name": "",
          "type": "uint256"
        }
      ],
      "stateMutability": "view",
      "type": "function"
    },
    {
      "inputs": [],
      "name": "totalYetiStakedFighting",
      "outputs": [
        {
          "internalType": "uint256",
          "name": "",
          "type": "uint256"
        }
      ],
      "stateMutability": "view",
      "type": "function"
    },
    {
      "inputs": [],
      "name": "totalYetiStakedGathering",
      "outputs": [
        {
          "internalType": "uint256",
          "name": "",
          "type": "uint256"
        }
      ],
      "stateMutability": "view",
      "type": "function"
    },
    {
      "inputs": [],
      "name": "totalYetiStakedHunting",
      "outputs": [
        {
          "internalType": "uint256",
          "name": "",
          "type": "uint256"
        }
      ],
      "stateMutability": "view",
      "type": "function"
    },
    {
      "inputs": [
        {
          "internalType": "address",
          "name": "newOwner",
          "type": "address"
        }
      ],
      "name": "transferOwnership",
      "outputs": [],
      "stateMutability": "nonpayable",
      "type": "function"
    },
    {
      "inputs": [],
      "name": "yeti",
      "outputs": [
        {
          "internalType": "contract YetiTown",
          "name": "",
          "type": "address"
        }
      ],
      "stateMutability": "view",
      "type": "function"
    },
    {
      "inputs": [
        {
          "internalType": "uint256",
          "name": "",
          "type": "uint256"
        }
      ],
      "name": "yetiMultiplier",
      "outputs": [
        {
          "internalType": "uint256",
          "name": "",
          "type": "uint256"
        }
      ],
      "stateMutability": "view",
      "type": "function"
    }
  ],
  "bytecode": "0x6202a300601355620151806014819055603260158190556101f460165560646017819055600a60188190556019839055601a938455681b1ae4d6e2ef500000601b55601c919091556101a0918252603c6101c05260046101e052610140918252605a61020090815260876102205261024091909152610160526102c0604052608261026090815260c3610280526102a09290925261018091909152620000aa906020906003620003a7565b506040805160c0810182526050606080830191825260646080840152607860a08401819052918352835180820185528181526020818101849052609082870152808501919091528451918201855291815260969181019190915260b4818401529181019190915262000121906021906003620003a7565b506040805160608101825260648152607860208201526096918101919091526200015090602290600362000405565b506040805161014081018252600081526030602082015260d29181019190915261020060608201526103d4608082015261083460a0820152610d6660c082015261129860e08201526118eb610100820152612079610120820152620001ba90602390600a62000456565b506040805161014081018252600081526032602082015260c8918101919091526101c26060820152610320608082015261064060a082015261099260c0820152610c8060e0820152610fd26101008201526113886101208201526200022490602490600a62000456565b50602580546001600160a81b031916742141fc90f4d8114e8778447d7c19b5992f6a0611001790553480156200025957600080fd5b50604051806040016040528060048152602001635965746960e01b815250604051806040016040528060018152602001603160f81b815250620002ab620002a56200035360201b60201c565b62000357565b815160208084019190912082518383012060e08290526101008190524660a0818152604080517f8b73c3c69bb8fe3d512ecc4cf759cc79239f7b179b0ffacaa9a75d522b39400f81880181905281830187905260608201869052608082019490945230818401528151808203909301835260c00190528051940193909320919290916080523060601b60c0526101205250506000805460ff60b01b1916905550620004f59050565b3390565b600080546001600160a01b038381166001600160a01b0319831681178455604051919092169283917f8be0079c531659141344cd1fd0a4f28419497f9722a3daafe3b4186f6b6457e09190a35050565b828054828255906000526020600020908101928215620003f3579160200282015b82811115620003f3578251620003e2908390600362000405565b5091602001919060010190620003c8565b50620004019291506200049a565b5090565b82805482825590600052602060002090810192821562000448579160200282015b8281111562000448578251829060ff1690559160200191906001019062000426565b5062000401929150620004bb565b82805482825590600052602060002090810192821562000448579160200282015b8281111562000448578251829061ffff1690559160200191906001019062000477565b8082111562000401576000620004b18282620004d2565b506001016200049a565b5b80821115620004015760008155600101620004bc565b5080546000825590600052602060002090810190620004f29190620004bb565b50565b60805160a05160c05160601c60e05161010051610120516154d8620005366000396000505060005050600050506000505060005050600050506154d86000f3fe608060405234801561001057600080fd5b50600436106103925760003560e01c80636a3ef057116101e0578063afb0a36911610110578063d3e97165116100a8578063d3e9716514610912578063d60d6e0414610932578063d73782fc14610945578063dca06da714610958578063dd1d20d8146109cf578063def24a0e146109e2578063f2fde38b146109f5578063f5a62e1914610a08578063feeb88b714610a1b57600080fd5b8063afb0a36914610854578063b0d6d00814610874578063b2596a671461087c578063b5b41452146108b1578063b9dc92b2146108ba578063bd05e965146108cd578063c055d8ad146108ed578063c67505eb14610900578063ce0dcbc41461090957600080fd5b806385e0aca21161018357806385e0aca2146107c55780638da5cb5b146107e5578063917d6982146107ed578063940d7227146108005780639b6cad3c14610809578063a4296b9b1461081c578063a5a2e76914610825578063a7a102901461082e578063acb6be2d1461084157600080fd5b80636a3ef0571461074d5780636cb80c6f14610760578063715018a61461077357806372af7e5f1461077b5780638129fc1c1461078e5780638175e4a31461079657806383669b67146107a957806384265172146107b257600080fd5b80633977d774116102c657806350d414811161025e57806350d414811461069157806356aaf2571461069a5780635773ee8e146106ad57806359b31abf146106e35780635c0d7398146106f65780635c975abb146106ff5780635ce320831461070757806363c28db11461071a578063695a69d61461073a57600080fd5b80633977d774146105b457806339db714f146105bd5780634015d6c7146105ca578063439dc414146105d357806345371338146105e65780634668b759146105f9578063478dc7cb1461060c578063480057241461066b5780634ad922601461067e57600080fd5b80631f8f1fdc116103395780631f8f1fdc1461048a578063247185741461049d578063272d9889146104b05780632cd41e6f146104c35780632e6b221d146104cc578063343e613a1461056f578063359ef75b1461058f57806337a386b9146105a257806338ba7d8b146105ab57600080fd5b8063091708d8146103975780630b67112c146103ac5780631006551e146103bf578063107ebaa5146103f757806313c53d401461040a578063150b7a021461041d57806316c38b3c146104495780631e5c5fa41461045c575b600080fd5b6103aa6103a5366004614ffe565b610a2e565b005b6103aa6103ba366004615098565b610a7d565b6103e26103cd366004615098565b60096020526000908152604090205460ff1681565b60405190151581526020015b60405180910390f35b6103aa610405366004615098565b610ab1565b6103aa610418366004615098565b610ae5565b61043061042b366004614d88565b610b2c565b6040516001600160e01b031990911681526020016103ee565b6103aa61045736600461503a565b610ba5565b61047c61046a366004615098565b600d6020526000908152604090205481565b6040519081526020016103ee565b6103aa610498366004615098565b610bed565b6103aa6104ab366004614ebb565b610c21565b61047c6104be3660046150ca565b610c63565b61047c60155481565b61052b6104da366004615098565b600b602052600090815260409020805460019091015461ffff8216916201000081046001600160501b0390811692600160601b90920460ff16916001600160a01b03811691600160a01b9091041685565b6040805161ffff90961686526001600160501b03948516602087015260ff909316928501929092526001600160a01b0316606084015216608082015260a0016103ee565b600154610582906001600160a01b031681565b6040516103ee91906150ec565b6103aa61059d366004614d17565b610ca0565b61047c60135481565b61047c601c5481565b61047c60165481565b6025546103e29060ff1681565b61047c601b5481565b61047c6105e1366004615098565b610dad565b6103aa6105f4366004614ffe565b610dce565b6103aa610607366004615098565b610e10565b61052b61061a366004615098565b600a602052600090815260409020805460019091015461ffff8216916201000081046001600160501b0390811692600160601b90920460ff16916001600160a01b03811691600160a01b9091041685565b600254610582906001600160a01b031681565b600454610582906001600160a01b031681565b61047c601f5481565b6103aa6106a8366004614ebb565b610e1b565b6103aa6106bb3660046150ca565b600091825260126020908152604080842092909255600990529020805460ff19166001179055565b61047c6106f13660046150ca565b610e5c565b61047c601d5481565b6103e2610e6c565b6103aa610715366004615098565b610e7c565b61072d610728366004614cdd565b610eb0565b6040516103ee9190615199565b6103aa610748366004614ffe565b610f1c565b6103aa61075b366004614fbd565b610f5e565b6103aa61076e366004615098565b611525565b6103aa61194d565b600354610582906001600160a01b031681565b6103aa611988565b6103aa6107a4366004615098565b611a9c565b61047c60065481565b6103aa6107c0366004615098565b611ad0565b61047c6107d3366004615098565b600e6020526000908152604090205481565b610582611b04565b6103aa6107fb366004615098565b611b13565b61047c601e5481565b6103aa610817366004615098565b611c8d565b61047c60175481565b61047c60185481565b6103aa61083c366004614f72565b611cc1565b6103aa61084f366004614e26565b611f7f565b61047c610862366004615098565b60126020526000908152604090205481565b61047c61267a565b61089f61088a366004615098565b60116020526000908152604090205460ff1681565b60405160ff90911681526020016103ee565b61047c60195481565b61052b6108c8366004615098565b61269e565b61047c6108db366004615098565b60086020526000908152604090205481565b6103aa6108fb366004615098565b612701565b61047c601a5481565b61047c60145481565b61047c610920366004615098565b60106020526000908152604090205481565b6103aa61094036600461503a565b612735565b6103aa610953366004614cdd565b612777565b61099e610966366004615098565b600f6020526000908152604090205461ffff8116906201000081046001600160501b031690600160601b90046001600160a01b031683565b6040805161ffff90941684526001600160501b0390921660208401526001600160a01b0316908201526060016103ee565b6103aa6109dd366004615098565b6127ce565b61047c6109f0366004614e8f565b612802565b6103aa610a03366004614cdd565b61281e565b6103aa610a16366004614cdd565b6128bb565b6103aa610a29366004615098565b61290c565b33610a37611b04565b6001600160a01b031614610a665760405162461bcd60e51b8152600401610a5d90615264565b60405180910390fd5b8051610a79906022906020840190614afe565b5050565b33610a86611b04565b6001600160a01b031614610aac5760405162461bcd60e51b8152600401610a5d90615264565b601655565b33610aba611b04565b6001600160a01b031614610ae05760405162461bcd60e51b8152600401610a5d90615264565b601455565b33610aee611b04565b6001600160a01b031614610b145760405162461bcd60e51b8152600401610a5d90615264565b610b2681670de0b6b3a7640000615369565b601c5550565b60006001600160a01b03851615610b935760405162461bcd60e51b815260206004820152602560248201527f43616e6e6f742073656e6420746f6b656e7320746f2050616c616365206469726044820152646563746c7960d81b6064820152608401610a5d565b50630a85bd0160e11b95945050505050565b33610bae611b04565b6001600160a01b031614610bd45760405162461bcd60e51b8152600401610a5d90615264565b8015610be557610be2612940565b50565b610be26129b7565b33610bf6611b04565b6001600160a01b031614610c1c5760405162461bcd60e51b8152600401610a5d90615264565b601555565b33610c2a611b04565b6001600160a01b031614610c505760405162461bcd60e51b8152600401610a5d90615264565b8051610a79906021906020840190614b49565b60218281548110610c7357600080fd5b906000526020600020018181548110610c8b57600080fd5b90600052602060002001600091509150505481565b33610ca9611b04565b6001600160a01b031614610ccf5760405162461bcd60e51b8152600401610a5d90615264565b6001600160a01b03851615610cfa57600180546001600160a01b0319166001600160a01b0387161790555b6001600160a01b03841615610d2557600280546001600160a01b0319166001600160a01b0386161790555b6001600160a01b03831615610d5057600580546001600160a01b0319166001600160a01b0385161790555b6001600160a01b03821615610d7b57600380546001600160a01b0319166001600160a01b0384161790555b6001600160a01b03811615610da657600480546001600160a01b0319166001600160a01b0383161790555b5050505050565b60228181548110610dbd57600080fd5b600091825260209091200154905081565b33610dd7611b04565b6001600160a01b031614610dfd5760405162461bcd60e51b8152600401610a5d90615264565b8051610a79906023906020840190614afe565b610be2816000612a36565b33610e24611b04565b6001600160a01b031614610e4a5760405162461bcd60e51b8152600401610a5d90615264565b8051610a799060209081840190614b49565b60208281548110610c7357600080fd5b600054600160b01b900460ff1690565b33610e85611b04565b6001600160a01b031614610eab5760405162461bcd60e51b8152600401610a5d90615264565b601355565b6001600160a01b038116600090815260076020908152604091829020805483518184028101840190945280845260609392830182828015610f1057602002820191906000526020600020905b815481526020019060010190808311610efc575b50505050509050919050565b33610f25611b04565b6001600160a01b031614610f4b5760405162461bcd60e51b8152600401610a5d90615264565b8051610a79906024906020840190614afe565b60255460ff16610fa25760405162461bcd60e51b815260206004820152600f60248201526e149154d0d55148111254d050931151608a1b6044820152606401610a5d565b6000610fac614ba2565b610fb4614ba2565b60005b8481101561151d5760008181526009602052604090205460ff161515600114610ff25760405162461bcd60e51b8152600401610a5d90615299565b85858281811061100457611004615433565b602090810292909201356000818152600b9093526040909220549195505061ffff1684146111cb576000848152600a6020908152604091829020825160a081018452815461ffff811682526001600160501b0362010000820481169483019490945260ff600160601b9091041693810193909352600101546001600160a01b03811660608401819052600160a01b909104909116608083015290935033146110be5760405162461bcd60e51b8152600401610a5d9061520e565b6001546001600160a01b031663b88d4fde3033876040518463ffffffff1660e01b81526004016110f093929190615124565b600060405180830381600087803b15801561110a57600080fd5b505af115801561111e573d6000803e3d6000fd5b5050506000858152600a60205260409081902080546001600160681b0319168155600190810180546001600160f01b03191690559085015160ff161415905061117f576001601d60008282546111749190615388565b909155506111989050565b6001601e60008282546111929190615388565b90915550505b604080518581526000602082015260018183015290516000805160206154838339815191529181900360600190a161150b565b6000848152600d6020526040902054600c805490919081106111ef576111ef615433565b60009182526020918290206040805160a0810182526002909302909101805461ffff811684526001600160501b0362010000820481169585019590955260ff600160601b9091041691830191909152600101546001600160a01b0381166060830152600160a01b9004909116608082015292506112693390565b6001600160a01b031683606001516001600160a01b03161461129d5760405162461bcd60e51b8152600401610a5d9061520e565b6001546001600160a01b031663b88d4fde3033876040518463ffffffff1660e01b81526004016112cf93929190615124565b600060405180830381600087803b1580156112e957600080fd5b505af11580156112fd573d6000803e3d6000fd5b5050600c80549092506113139150600190615388565b8154811061132357611323615433565b600091825260208083206040805160a0810182526002909402909101805461ffff811685526001600160501b0362010000820481169486019490945260ff600160601b90910416918401919091526001908101546001600160a01b0381166060850152600160a01b90049091166080830152601f8054929550909290916113ab908490615388565b90915550506000848152600d6020818152604080842080548552600b835281852087518154858a0151858b015160ff16600160601b0260ff60601b196001600160501b0392831662010000026001600160601b031990941661ffff95861617939093179290921691909117835560608a01516001909301805460808c0151909216600160a01b026001600160f01b03199092166001600160a01b0390941693909317179091558986529390925290548551909216835290912055600c8054806114765761147661541d565b600082815260208082206002600019949094019384020180546001600160681b03199081168255600191820180546001600160f01b031990811690915594909555888352600d82526040808420849055600b8352808420805490961686559481018054909416909355835188815290810191909152918201526000805160206154838339815191529060600160405180910390a15b80611515816153c2565b915050610fb7565b505050505050565b61152d610e6c565b1561154a5760405162461bcd60e51b8152600401610a5d9061523a565b60008181526009602052604090205460ff16151560011461157d5760405162461bcd60e51b8152600401610a5d90615299565b6000818152600b602052604090205461ffff168114156115df5760405162461bcd60e51b815260206004820152601d60248201527f43616e2774206c6576656c207570207768696c65206669676874696e670000006044820152606401610a5d565b6000818152600a602052604090205461ffff168114156116415760405162461bcd60e51b815260206004820152601b60248201527f43616e2774206c6576656c207570207768696c65207374616b656400000000006044820152606401610a5d565b6000818152600f602052604090205461ffff168114156116a35760405162461bcd60e51b815260206004820152601c60248201527f43616e2774206c6576656c207570207768696c6520696e6a75726564000000006044820152606401610a5d565b60008181526011602052604090205460ff16158015906116d65750600081815260116020526040902054600a60ff909116105b6117195760405162461bcd60e51b815260206004820152601460248201527321b0b71032bc31b2b2b2103632bb32b6103930b760611b6044820152606401610a5d565b60008181526011602052604090205460238054909160ff1690811061174057611740615433565b6000918252602090912001546002546040516370a0823160e01b81526001600160a01b03909116906370a082319061177c9033906004016150ec565b60206040518083038186803b15801561179457600080fd5b505afa1580156117a8573d6000803e3d6000fd5b505050506040513d601f19601f820116820180604052508101906117cc91906150b1565b101561180f5760405162461bcd60e51b8152602060048201526012602482015271125b9cdd59999a58da595b9d0811949614d560721b6044820152606401610a5d565b6002546001600160a01b0316639dc29fac3360008481526011602052604090205460238054909160ff1690811061184857611848615433565b9060005260206000200154670de0b6b3a76400006118669190615369565b6040518363ffffffff1660e01b8152600401611883929190615157565b600060405180830381600087803b15801561189d57600080fd5b505af11580156118b1573d6000803e3d6000fd5b5050506000828152601160205260409020546024805490925060ff9091169081106118de576118de615433565b906000526020600020015460106000838152602001908152602001600020600082825461190b9190615388565b9091555050600081815260116020526040812080546001929061193290849060ff16615330565b92506101000a81548160ff021916908360ff16021790555050565b33611956611b04565b6001600160a01b03161461197c5760405162461bcd60e51b8152600401610a5d90615264565b6119866000612b9a565b565b600054600160a81b900460ff166119ac57600054600160a01b900460ff16156119b0565b303b155b611a135760405162461bcd60e51b815260206004820152602e60248201527f496e697469616c697a61626c653a20636f6e747261637420697320616c72656160448201526d191e481a5b9a5d1a585b1a5e995960921b6064820152608401610a5d565b600054600160a81b900460ff16158015611a3d576000805461ffff60a01b191661010160a01b1790555b33611a46611b04565b6001600160a01b031614611a6c5760405162461bcd60e51b8152600401610a5d90615264565b611a7e6000805460ff60b01b19169055565b611a86612bea565b8015610be2576000805460ff60a81b1916905550565b33611aa5611b04565b6001600160a01b031614611acb5760405162461bcd60e51b8152600401610a5d90615264565b601c55565b33611ad9611b04565b6001600160a01b031614611aff5760405162461bcd60e51b8152600401610a5d90615264565b601855565b6000546001600160a01b031690565b6014546000828152600f60205260409020544291611b3f916201000090046001600160501b0316615318565b11611b825760405162461bcd60e51b81526020600482015260136024820152721653d548105491481393d50812539295549151606a1b6044820152606401610a5d565b6002546005546001600160a01b03918216916323b872dd91339116611ba685612c2d565b611bb890670de0b6b3a7640000615369565b6040518463ffffffff1660e01b8152600401611bd693929190615100565b602060405180830381600087803b158015611bf057600080fd5b505af1158015611c04573d6000803e3d6000fd5b505050506040513d601f19601f82011682018060405250810190611c289190615057565b15610be257611c38816001612a36565b7f73c2e0bab400670f07cad02b2a28bdb7570cc41a53df183c79ef6c29faf4ad278133611c6484612c2d565b604080519384526001600160a01b0390921660208401529082015260600160405180910390a150565b33611c96611b04565b6001600160a01b031614611cbc5760405162461bcd60e51b8152600401610a5d90615264565b601b55565b611cc9610e6c565b15611ce65760405162461bcd60e51b8152600401610a5d9061523a565b6000805b83811015611ece5760096000868684818110611d0857611d08615433565b9050602002016020810190611d1d9190615074565b61ffff16815260208101919091526040016000205460ff161515600114611d565760405162461bcd60e51b8152600401610a5d90615299565b848482818110611d6857611d68615433565b9050602002016020810190611d7d9190615074565b61ffff16600b6000878785818110611d9757611d97615433565b9050602002016020810190611dac9190615074565b61ffff9081168252602082019290925260400160002054161480611e3b5750848482818110611ddd57611ddd615433565b9050602002016020810190611df29190615074565b61ffff16600a6000878785818110611e0c57611e0c615433565b9050602002016020810190611e219190615074565b61ffff908116825260208201929092526040016000205416145b611e7c5760405162461bcd60e51b815260206004820152601260248201527116595d1a481a5cc81b9bdd081cdd185ad95960721b6044820152606401610a5d565b611eb0858583818110611e9157611e91615433565b9050602002016020810190611ea69190615074565b61ffff1684612c7a565b611eba9083615318565b915080611ec6816153c2565b915050611cea565b5060008111611f175760405162461bcd60e51b8152602060048201526015602482015274436c61696d696e67206265666f726520312064617960581b6044820152606401610a5d565b6002546001600160a01b03166340c10f1933836040518363ffffffff1660e01b8152600401611f47929190615157565b600060405180830381600087803b158015611f6157600080fd5b505af1158015611f75573d6000803e3d6000fd5b5050505050505050565b60038160ff1610611fca5760405162461bcd60e51b8152602060048201526015602482015274139bdd081d985b1a59081858dd1a5d9a5d1e481a59605a1b6044820152606401610a5d565b6001600160a01b038316331480611ff457506001546001600160a01b0316336001600160a01b0316145b6120405760405162461bcd60e51b815260206004820152601a60248201527f444f4e54204749564520594f555220544f4b454e5320415741590000000000006044820152606401610a5d565b60005b8251811015612674576009600084838151811061206257612062615433565b60209081029190910181015182528101919091526040016000205460ff1615156001146120a15760405162461bcd60e51b8152600401610a5d90615299565b8281815181106120b3576120b3615433565b6020026020010151600b60008584815181106120d1576120d1615433565b60209081029190910181015182528101919091526040016000205461ffff16141561212e5760405162461bcd60e51b815260206004820152600d60248201526c6669676874696e67207965746960981b6044820152606401610a5d565b82818151811061214057612140615433565b6020026020010151600a600085848151811061215e5761215e615433565b60209081029190910181015182528101919091526040016000205461ffff1614156121b95760405162461bcd60e51b815260206004820152600b60248201526a7374616b6564207965746960a81b6044820152606401610a5d565b8281815181106121cb576121cb615433565b6020026020010151600f60008584815181106121e9576121e9615433565b60209081029190910181015182528101919091526040016000205461ffff1614156122455760405162461bcd60e51b815260206004820152600c60248201526b696e6a75726564207965746960a01b6044820152606401610a5d565b6000600460009054906101000a90046001600160a01b03166001600160a01b0316630d9005ae6040518163ffffffff1660e01b815260040160206040518083038186803b15801561229557600080fd5b505afa1580156122a9573d6000803e3d6000fd5b505050506040513d601f19601f820116820180604052508101906122cd91906150b1565b9050604051806020016040528082815250600e60008685815181106122f4576122f4615433565b6020908102919091018101518252810191909152604001600020905190556001546001600160a01b0316336001600160a01b03161461252e57600154845133916001600160a01b031690636352211e9087908690811061235657612356615433565b60200260200101516040518263ffffffff1660e01b815260040161237c91815260200190565b60206040518083038186803b15801561239457600080fd5b505afa1580156123a8573d6000803e3d6000fd5b505050506040513d601f19601f820116820180604052508101906123cc9190614cfa565b6001600160a01b0316146124135760405162461bcd60e51b815260206004820152600e60248201526d20a4a713aa102ca7902a27a5a2a760911b6044820152606401610a5d565b6001546001600160a01b03166323b872dd333087868151811061243857612438615433565b60200260200101516040518463ffffffff1660e01b815260040161245e93929190615100565b600060405180830381600087803b15801561247857600080fd5b505af115801561248c573d6000803e3d6000fd5b5050336000908152600760205260408120548751909350600892508790869081106124b9576124b9615433565b602002602001015181526020019081526020016000208190555060076000336001600160a01b03166001600160a01b0316815260200190815260200160002084838151811061250a5761250a615433565b60209081029190910181015182546001810184556000938452919092200155612556565b83828151811061254057612540615433565b6020026020010151600014156125565750612662565b6011600085848151811061256c5761256c615433565b60209081029190910181015182528101919091526040016000205460ff16612607576001601160008685815181106125a6576125a6615433565b6020026020010151815260200190815260200160002060006101000a81548160ff021916908360ff1602179055506000601060008685815181106125ec576125ec615433565b60200260200101518152602001908152602001600020819055505b8260ff166002141561263c576126378585848151811061262957612629615433565b602002602001015185612cae565b612660565b6126608585848151811061265257612652615433565b602002602001015185612f70565b505b8061266c816153c2565b915050612043565b50505050565b6000601f54601e54601d5461268f9190615318565b6126999190615318565b905090565b600c81815481106126ae57600080fd5b60009182526020909120600290910201805460019091015461ffff821692506001600160501b0362010000830481169260ff600160601b90910416916001600160a01b03811691600160a01b9091041685565b3361270a611b04565b6001600160a01b0316146127305760405162461bcd60e51b8152600401610a5d90615264565b601955565b3361273e611b04565b6001600160a01b0316146127645760405162461bcd60e51b8152600401610a5d90615264565b6025805460ff1916911515919091179055565b33612780611b04565b6001600160a01b0316146127a65760405162461bcd60e51b8152600401610a5d90615264565b602580546001600160a01b0390921661010002610100600160a81b0319909216919091179055565b336127d7611b04565b6001600160a01b0316146127fd5760405162461bcd60e51b8152600401610a5d90615264565b601755565b60076020528160005260406000208181548110610c8b57600080fd5b33612827611b04565b6001600160a01b03161461284d5760405162461bcd60e51b8152600401610a5d90615264565b6001600160a01b0381166128b25760405162461bcd60e51b815260206004820152602660248201527f4f776e61626c653a206e6577206f776e657220697320746865207a65726f206160448201526564647265737360d01b6064820152608401610a5d565b610be281612b9a565b336128c4611b04565b6001600160a01b0316146128ea5760405162461bcd60e51b8152600401610a5d90615264565b600480546001600160a01b0319166001600160a01b0392909216919091179055565b33612915611b04565b6001600160a01b03161461293b5760405162461bcd60e51b8152600401610a5d90615264565b601a55565b612948610e6c565b156129655760405162461bcd60e51b8152600401610a5d9061523a565b6000805460ff60b01b1916600160b01b1790557f62e78cea01bee320cd4e420270b5ea74000d11b0c9f74754ebdbfc544b05a2586129a03390565b6040516129ad91906150ec565b60405180910390a1565b6129bf610e6c565b612a025760405162461bcd60e51b815260206004820152601460248201527314185d5cd8589b194e881b9bdd081c185d5cd95960621b6044820152606401610a5d565b6000805460ff60b01b191690557f5db9ee0a495bf2e6ff9c91a7834c1ba4fdd244a5e8aa4e537bd38aeae4b073aa336129a0565b6000828152600f60209081526040918290208251606081018452905461ffff811682526201000081046001600160501b031692820192909252600160601b9091046001600160a01b0316918101829052903314612aa55760405162461bcd60e51b8152600401610a5d9061520e565b8180612ac957506014546020820151612ac7906001600160501b031642615388565b115b612b0c5760405162461bcd60e51b815260206004820152601460248201527359657469206e6f74206865616c6564207965742160601b6044820152606401610a5d565b6001546001600160a01b031663b88d4fde3033866040518463ffffffff1660e01b8152600401612b3e93929190615124565b600060405180830381600087803b158015612b5857600080fd5b505af1158015612b6c573d6000803e3d6000fd5b50505050612b7a83336130bc565b50506000908152600860209081526040808320839055600f909152812055565b600080546001600160a01b038381166001600160a01b0319831681178455604051919092169283917f8be0079c531659141344cd1fd0a4f28419497f9722a3daafe3b4186f6b6457e09190a35050565b33612bf481612b9a565b6040516001600160a01b038216906000907f8be0079c531659141344cd1fd0a4f28419497f9722a3daafe3b4186f6b6457e0908290a350565b60008181526012602052604081205460228054606492908110612c5257612c52615433565b906000526020600020015461012c612c6a9190615369565b612c749190615355565b92915050565b6000828152600b602052604081205461ffff168314612ca457612c9d8383613183565b9050612c74565b612c9d8383613e97565b601f54600d60008481526020019081526020016000208190555060006040518060a001604052808461ffff168152602001426001600160501b031681526020018360ff168152602001856001600160a01b03168152602001426001600160501b0316815250905080600b600085815260200190815260200160002060008201518160000160006101000a81548161ffff021916908361ffff16021790555060208201518160000160026101000a8154816001600160501b0302191690836001600160501b03160217905550604082015181600001600c6101000a81548160ff021916908360ff16021790555060608201518160010160006101000a8154816001600160a01b0302191690836001600160a01b0316021790555060808201518160010160146101000a8154816001600160501b0302191690836001600160501b03160217905550905050600c81908060018154018082558091505060019003906000526020600020906002020160009091909190915060008201518160000160006101000a81548161ffff021916908361ffff16021790555060208201518160000160026101000a8154816001600160501b0302191690836001600160501b03160217905550604082015181600001600c6101000a81548160ff021916908360ff16021790555060608201518160010160006101000a8154816001600160a01b0302191690836001600160a01b0316021790555060808201518160010160146101000a8154816001600160501b0302191690836001600160501b0316021790555050506001600c80549050612f029190615388565b6000848152600d6020526040812091909155601f805460019290612f27908490615318565b90915550506040517fadd17b9d82cb146eaff151f4f864faa55b09599b4eff7714935025b99054fe1c90612f62908690869086904290615170565b60405180910390a150505050565b6040805160a08101825261ffff80851682526001600160501b03428116602080850182815260ff8089168789018181526001600160a01b03808e1660608b0190815260808b0197885260008e8152600a9097529a9095209851895494519151909316600160601b0260ff60601b1991881662010000026001600160601b0319909516939098169290921792909217169490941785559451600190940180549151909216600160a01b026001600160f01b03199091169390941692909217929092179055613055576001601d600082825461304a9190615318565b9091555061307a9050565b8060ff166001141561307a576001601e60008282546130749190615318565b90915550505b7fadd17b9d82cb146eaff151f4f864faa55b09599b4eff7714935025b99054fe1c838383426040516130af9493929190615170565b60405180910390a1505050565b6001600160a01b0381166000908152600760205260408120805490919082906130e790600190615388565b815481106130f7576130f7615433565b600091825260208083209091015486835260089091526040808320548284529220829055835490925082918491811061313257613132615433565b60009182526020808320909101929092556001600160a01b03851681526007909152604090208054806131675761316761541d565b6001900381819060005260206000200160009055905550505050565b6000828152600a60209081526040808320815160a081018352815461ffff811682526001600160501b0362010000820481169583019590955260ff600160601b9091041692810192909252600101546001600160a01b03811660608301819052600160a01b90910490921660808201529033146132125760405162461bcd60e51b8152600401610a5d9061520e565b60008481526009602052604090205460ff1615156001146132455760405162461bcd60e51b8152600401610a5d90615299565b82801561326a57506013546020820151613268906001600160501b031642615388565b105b156132c65760405162461bcd60e51b815260206004820152602660248201527f4e6565642074776f2064617973206f66204672787374206265666f726520636c60448201526561696d696e6760d01b6064820152608401610a5d565b600084815260126020526040808220549083015190919060ff166001141561338757602082815481106132fb576132fb615433565b90600052602060002001836040015160ff168154811061331d5761331d615433565b9060005260206000200154670de0b6b3a764000061333b9190615369565b600087815260116020526040902054909150600a9061335f9060019060ff1661539f565b61336c9060ff1683615369565b6133769190615355565b6133809082615318565b9050613422565b6020828154811061339a5761339a615433565b90600052602060002001836040015160ff16815481106133bc576133bc615433565b9060005260206000200154670de0b6b3a76400006133da9190615369565b600087815260116020526040902054909150600a906133fe9060019060ff1661539f565b61340b9060ff1683615369565b6134159190615355565b61341f9082615318565b90505b8415613d09576000601a5484602001516001600160501b0316426134469190615388565b6134509190615355565b905061345c8183615369565b945060006021848154811061347357613473615433565b90600052602060002001856040015160ff168154811061349557613495615433565b9060005260206000200154601a5486608001516001600160501b0316426134bc9190615388565b6134c69190615355565b6134d09190615369565b9050846040015160ff16600014156137fe576000888152600e6020526040808220600480548254935163054b431960e51b81529182018d905260248201939093529092916001600160a01b03169063a96863209060440160206040518083038186803b15801561353f57600080fd5b505afa158015613553573d6000803e3d6000fd5b505050506040513d601f19601f8201168201806040525081019061357791906150b1565b9050600081116135995760405162461bcd60e51b8152600401610a5d906151dd565b60048054604080516306c802d760e11b815290516001600160a01b0390921692630d9005ae928282019260209290829003018186803b1580156135db57600080fd5b505afa1580156135ef573d6000803e3d6000fd5b505050506040513d601f19601f8201168201806040525081019061361391906150b1565b82556019546136236064836153dd565b10156136885760008a8152601160205260408120546136449060ff16614982565b90506136646064613655838c615369565b61365f9190615355565b6149af565b60646136708282615388565b61367a908b615369565b6136849190615355565b9850505b6001546001600160a01b031663b88d4fde30338d6040518463ffffffff1660e01b81526004016136ba93929190615124565b600060405180830381600087803b1580156136d457600080fd5b505af11580156136e8573d6000803e3d6000fd5b505050506136f68a336130bc565b60008a8152600860209081526040808320839055601190915290205460248054909160ff1690811061372a5761372a615433565b9060005260206000200154601060008c81526020019081526020016000205410156137f75760008a81526011602052604090205460248054909160ff1690811061377657613776615433565b90600052602060002001548311156137d35760008a81526010602090815260408083205460119092529091205460248054909160ff169081106137bb576137bb615433565b90600052602060002001546137d09190615388565b92505b60008a815260106020526040812080548592906137f1908490615318565b90915550505b5050613cd5565b846040015160ff1660011415613cd5576000888152600e6020526040808220600480548254935163054b431960e51b81529182018d905260248201939093529092916001600160a01b03169063a96863209060440160206040518083038186803b15801561386b57600080fd5b505afa15801561387f573d6000803e3d6000fd5b505050506040513d601f19601f820116820180604052508101906138a391906150b1565b9050600081116138c55760405162461bcd60e51b8152600401610a5d906151dd565b60048054604080516306c802d760e11b815290516001600160a01b0390921692630d9005ae928282019260209290829003018186803b15801561390757600080fd5b505afa15801561391b573d6000803e3d6000fd5b505050506040513d601f19601f8201168201806040525081019061393f91906150b1565b825560008a81526011602052604090205461395c9060ff16614a13565b6139686103e8836153dd565b1015613b4b57613979600284615355565b60008b815260116020526040902054602480549295509160ff9091169081106139a4576139a4615433565b9060005260206000200154601060008c8152602001908152602001600020541015613a715760008a81526011602052604090205460248054909160ff169081106139f0576139f0615433565b9060005260206000200154831115613a4d5760008a81526010602090815260408083205460119092529091205460248054909160ff16908110613a3557613a35615433565b9060005260206000200154613a4a9190615388565b92505b60008a81526010602052604081208054859290613a6b908490615318565b90915550505b60405180606001604052808b61ffff168152602001426001600160501b03168152602001613a9c3390565b6001600160a01b0390811690915260008c8152600f602090815260409182902084518154868401519685015161ffff9092166001600160601b031990911617620100006001600160501b0397881602176bffffffffffffffffffffffff16600160601b91909516029390931790925580518d815242909316918301919091527f79e9c89b27777596a7f5d2692dfac3988b9297a96fa573f7ef11c7454499850a910160405180910390a1613cba565b6001546001600160a01b031663b88d4fde30338d6040518463ffffffff1660e01b8152600401613b7d93929190615124565b600060405180830381600087803b158015613b9757600080fd5b505af1158015613bab573d6000803e3d6000fd5b50505050613bb98a336130bc565b60008a8152600860209081526040808320839055601190915290205460248054909160ff16908110613bed57613bed615433565b9060005260206000200154601060008c8152602001908152602001600020541015613cba5760008a81526011602052604090205460248054909160ff16908110613c3957613c39615433565b9060005260206000200154831115613c965760008a81526010602090815260408083205460119092529091205460248054909160ff16908110613c7e57613c7e615433565b9060005260206000200154613c939190615388565b92505b60008a81526010602052604081208054859290613cb4908490615318565b90915550505b6001601e6000828254613ccd9190615388565b909155505050505b50506000868152600a6020526040902080546001600160681b031916815560010180546001600160f01b0319169055613e5f565b6000601a5484602001516001600160501b031642613d279190615388565b613d319190615355565b9050613d3d8183615369565b9450613d526064601854876136559190615369565b60646018546064613d639190615388565b613d6d9087615369565b613d779190615355565b94506040518060a001604052808861ffff168152602001426001600160501b03168152602001856040015160ff168152602001613db13390565b6001600160a01b0390811682526080808801516001600160501b0390811660209485015260008c8152600a855260409081902086518154968801519288015160ff16600160601b0260ff60601b1993851662010000026001600160601b031990981661ffff909216919091179690961791909116949094178455606085015160019094018054959092015116600160a01b026001600160f01b03199094169290911691909117919091179055505b60408051878152602081018690528615158183015290516000805160206154838339815191529181900360600190a150505092915050565b6000828152600b60209081526040808320815160a081018352815461ffff811682526001600160501b0362010000820481168387015260ff600160601b9092048216838601526001938401546001600160a01b0381166060850152600160a01b9004166080830152878652600990945291842054919291909116151514613f305760405162461bcd60e51b8152600401610a5d90615299565b60608101516001600160a01b03163314613f5c5760405162461bcd60e51b8152600401610a5d9061520e565b828015613f8157506013546020820151613f7f906001600160501b031642615388565b105b15613fdc5760405162461bcd60e51b815260206004820152602560248201527f474f4e4e4120424520434f4c4420574954484f55542054574f20444159275320604482015264119493d4d560da1b6064820152608401610a5d565b6000848152601160209081526040808320546012835290832054825460ff9092169291811061400d5761400d615433565b90600052602060002001836040015160ff168154811061402f5761402f615433565b90600052602060002001546140449190615369565b61405690670de0b6b3a7640000615369565b600086815260116020526040902054909150600a9061407a9060019060ff1661539f565b6140879060ff1683615369565b6140919190615355565b61409b9082615318565b90508315614796576000601a5483602001516001600160501b0316426140c19190615388565b6140cb9190615355565b90506140d78183615369565b60008781526012602052604081205460218054939750919281106140fd576140fd615433565b90600052602060002001846040015160ff168154811061411f5761411f615433565b9060005260206000200154601a5485608001516001600160501b0316426141469190615388565b6141509190615355565b61415a9190615369565b6000888152600e6020526040808220600480548254935163054b431960e51b81529182018d90526024820193909352939450926001600160a01b039091169063a96863209060440160206040518083038186803b1580156141ba57600080fd5b505afa1580156141ce573d6000803e3d6000fd5b505050506040513d601f19601f820116820180604052508101906141f291906150b1565b9050600081116142145760405162461bcd60e51b8152600401610a5d906151dd565b600c80546000919061422890600190615388565b8154811061423857614238615433565b600091825260208083206040805160a0810182526002909402909101805461ffff811685526001600160501b0362010000820481168686015260ff600160601b9092048216868501526001909201546001600160a01b0381166060870152600160a01b900490911660808501528e85526011909252909220546024805492945092169081106142c9576142c9615433565b9060005260206000200154601060008c81526020019081526020016000205410156143965760008a81526011602052604090205460248054909160ff1690811061431557614315615433565b90600052602060002001548411156143725760008a81526010602090815260408083205460119092529091205460248054909160ff1690811061435a5761435a615433565b906000526020600020015461436f9190615388565b93505b60008a81526010602052604081208054869290614390908490615318565b90915550505b60008a8152601160205260409020546143b19060ff16614a2f565b6143bd6103e8846153dd565b10156145795760048054604080516306c802d760e11b815290516001600160a01b0390921692630d9005ae928282019260209290829003018186803b15801561440557600080fd5b505afa158015614419573d6000803e3d6000fd5b505050506040513d601f19601f8201168201806040525081019061443d91906150b1565b835560405160009061448f906144719085906020019081526c636f6e7374616e7456616c756560981b6020820152602d0190565b6040516020818303038152906040528051906020012060001c614a4b565b9050600160009054906101000a90046001600160a01b03166001600160a01b031663b88d4fde30838e6040518463ffffffff1660e01b81526004016144d693929190615124565b600060405180830381600087803b1580156144f057600080fd5b505af1158015614504573d6000803e3d6000fd5b505050506145128b336130bc565b60008b8152600860209081526040808320839055601082528083208390556011825291829020805460ff1916600117905590518c81527f6009b4228a9952cbf04a8ebbd80f931efb8053ad815f7fb937aa0812ac2433fc910160405180910390a1506145f9565b600154604051635c46a7ef60e11b81526001600160a01b039091169063b88d4fde906145ad90309033908f90600401615124565b600060405180830381600087803b1580156145c757600080fd5b505af11580156145db573d6000803e3d6000fd5b505050506145e98a336130bc565b60008a8152600860205260408120555b60008a8152600d6020526040902054600c8054839290811061461d5761461d615433565b60009182526020808320845160029093020180548583015160408088015160ff16600160601b0260ff60601b196001600160501b0393841662010000026001600160601b031990951661ffff988916179490941793909316929092178355606087015160019093018054608090980151909116600160a01b026001600160f01b03199097166001600160a01b03909316929092179590951790558d8352600d9052828220548451909116825291902055600c8054806146de576146de61541d565b6000828152602080822060026000199094019384020180546001600160681b03199081168255600191820180546001600160f01b0319908116909155949095558e8352600d82526040808420849055600b909252908220805490941684559283018054909216909155601f8054909190614759908490615388565b9091555050506000898152600b6020526040902080546001600160681b031916815560010180546001600160f01b03191690555061494b92505050565b6000601a5483602001516001600160501b0316426147b49190615388565b6147be9190615355565b90506147ca8183615369565b60008781526012602052604081205460218054939750919281106147f0576147f0615433565b90600052602060002001846040015160ff168154811061481257614812615433565b9060005260206000200154826148289190615369565b905061483d6064601854876136559190615369565b6064601854606461484e9190615388565b6148589087615369565b6148629190615355565b94506040518060a001604052808861ffff168152602001426001600160501b03168152602001856040015160ff16815260200161489c3390565b6001600160a01b0390811682526080808801516001600160501b0390811660209485015260008c8152600b855260409081902086518154968801519288015160ff16600160601b0260ff60601b1993851662010000026001600160601b031990981661ffff909216919091179690961791909116949094178455606085015160019094018054959092015116600160a01b026001600160f01b0319909416929091169190911791909117905550505b60408051868152602081018590528515158183015290516000805160206154838339815191529181900360600190a1505092915050565b601554600090614993600184615388565b61499e906002615369565b6149a89082615388565b9392505050565b6002546005546040516340c10f1960e01b81526001600160a01b03928316926340c10f19926149e5929116908590600401615157565b600060405180830381600087803b1580156149ff57600080fd5b505af1158015610da6573d6000803e3d6000fd5b601654600090614a24600184615388565b61499e906019615369565b601754600090614a40600184615388565b61499e906005615369565b600080614a5783614a6d565b90506001600160a01b038116612c7457336149a8565b600c54600090614aae5760405162461bcd60e51b815260206004820152600c60248201526b041727261792053697a6520360a41b6044820152606401610a5d565b601f54614abd57506000919050565b600c8054614acb90846153dd565b81548110614adb57614adb615433565b60009182526020909120600160029092020101546001600160a01b031692915050565b828054828255906000526020600020908101928215614b39579160200282015b82811115614b39578251825591602001919060010190614b1e565b50614b45929150614bd0565b5090565b828054828255906000526020600020908101928215614b96579160200282015b82811115614b965782518051614b86918491602090910190614afe565b5091602001919060010190614b69565b50614b45929150614be5565b6040805160a08101825260008082526020820181905291810182905260608101829052608081019190915290565b5b80821115614b455760008155600101614bd1565b80821115614b45576000614bf98282614c02565b50600101614be5565b5080546000825590600052602060002090810190610be29190614bd0565b60008083601f840112614c3257600080fd5b5081356001600160401b03811115614c4957600080fd5b6020830191508360208260051b8501011115614c6457600080fd5b9250929050565b600082601f830112614c7c57600080fd5b81356020614c91614c8c836152f5565b6152c5565b80838252828201915082860187848660051b8901011115614cb157600080fd5b60005b85811015614cd057813584529284019290840190600101614cb4565b5090979650505050505050565b600060208284031215614cef57600080fd5b81356149a88161545f565b600060208284031215614d0c57600080fd5b81516149a88161545f565b600080600080600060a08688031215614d2f57600080fd5b8535614d3a8161545f565b94506020860135614d4a8161545f565b93506040860135614d5a8161545f565b92506060860135614d6a8161545f565b91506080860135614d7a8161545f565b809150509295509295909350565b600080600080600060808688031215614da057600080fd5b8535614dab8161545f565b94506020860135614dbb8161545f565b93506040860135925060608601356001600160401b0380821115614dde57600080fd5b818801915088601f830112614df257600080fd5b813581811115614e0157600080fd5b896020828501011115614e1357600080fd5b9699959850939650602001949392505050565b600080600060608486031215614e3b57600080fd5b8335614e468161545f565b925060208401356001600160401b03811115614e6157600080fd5b614e6d86828701614c6b565b925050604084013560ff81168114614e8457600080fd5b809150509250925092565b60008060408385031215614ea257600080fd5b8235614ead8161545f565b946020939093013593505050565b60006020808385031215614ece57600080fd5b82356001600160401b0380821115614ee557600080fd5b818501915085601f830112614ef957600080fd5b8135614f07614c8c826152f5565b80828252858201915085850189878560051b8801011115614f2757600080fd5b6000805b85811015614f6257823587811115614f41578283fd5b614f4f8d8b838c0101614c6b565b8652509388019391880191600101614f2b565b50919a9950505050505050505050565b600080600060408486031215614f8757600080fd5b83356001600160401b03811115614f9d57600080fd5b614fa986828701614c20565b9094509250506020840135614e8481615474565b60008060208385031215614fd057600080fd5b82356001600160401b03811115614fe657600080fd5b614ff285828601614c20565b90969095509350505050565b60006020828403121561501057600080fd5b81356001600160401b0381111561502657600080fd5b61503284828501614c6b565b949350505050565b60006020828403121561504c57600080fd5b81356149a881615474565b60006020828403121561506957600080fd5b81516149a881615474565b60006020828403121561508657600080fd5b813561ffff811681146149a857600080fd5b6000602082840312156150aa57600080fd5b5035919050565b6000602082840312156150c357600080fd5b5051919050565b600080604083850312156150dd57600080fd5b50508035926020909101359150565b6001600160a01b0391909116815260200190565b6001600160a01b039384168152919092166020820152604081019190915260600190565b6001600160a01b039384168152919092166020820152604081019190915260806060820181905260009082015260a00190565b6001600160a01b03929092168252602082015260400190565b6001600160a01b03949094168452602084019290925260ff166040830152606082015260800190565b6020808252825182820181905260009190848201906040850190845b818110156151d1578351835292840192918401916001016151b5565b50909695505050505050565b60208082526017908201527614985b991bdb5b995cdcc81b9bdd081c9958d95a5d9959604a1b604082015260600190565b6020808252601290820152715357495045522c204e4f2053574950494e4760701b604082015260600190565b60208082526010908201526f14185d5cd8589b194e881c185d5cd95960821b604082015260600190565b6020808252818101527f4f776e61626c653a2063616c6c6572206973206e6f7420746865206f776e6572604082015260600190565b60208082526012908201527111d85b5948139bdd08125b9a5d1a585d195960721b604082015260600190565b604051601f8201601f191681016001600160401b03811182821017156152ed576152ed615449565b604052919050565b60006001600160401b0382111561530e5761530e615449565b5060051b60200190565b6000821982111561532b5761532b6153f1565b500190565b600060ff821660ff84168060ff0382111561534d5761534d6153f1565b019392505050565b60008261536457615364615407565b500490565b6000816000190483118215151615615383576153836153f1565b500290565b60008282101561539a5761539a6153f1565b500390565b600060ff821660ff8416808210156153b9576153b96153f1565b90039392505050565b60006000198214156153d6576153d66153f1565b5060010190565b6000826153ec576153ec615407565b500690565b634e487b7160e01b600052601160045260246000fd5b634e487b7160e01b600052601260045260246000fd5b634e487b7160e01b600052603160045260246000fd5b634e487b7160e01b600052603260045260246000fd5b634e487b7160e01b600052604160045260246000fd5b6001600160a01b0381168114610be257600080fd5b8015158114610be257600080fdfe793540b1cd54af1ddd03a0cc5273b7527b06876452a2b78b07b7784077d8820ea2646970667358221220995a2d61e91c9493a0d9d8d6a385075cd55a8e1a26467d32c118013ebad6ad0b64736f6c63430008070033",
  "linkReferences": {},
  "deployedLinkReferences": {}
}