{
  "_format": "hh-sol-artifact-1",
  "contractName": "GameLogic",
  "sourceName": "contracts/GameLogic.sol",
  "abi": [
    {
      "inputs": [
        {
          "internalType": "address",
          "name": "_yeti",
          "type": "address"
        },
        {
          "internalType": "address",
          "name": "_frxst",
          "type": "address"
        },
        {
          "internalType": "address",
          "name": "_treasury",
          "type": "address"
        },
        {
          "internalType": "address",
          "name": "_rs",
          "type": "address"
        }
      ],
      "stateMutability": "nonpayable",
      "type": "constructor"
    },
    {
      "anonymous": false,
      "inputs": [
        {
          "indexed": false,
          "internalType": "uint256",
          "name": "tokenId",
          "type": "uint256"
        },
        {
          "indexed": false,
          "internalType": "address",
          "name": "healer",
          "type": "address"
        },
        {
          "indexed": false,
          "internalType": "uint256",
          "name": "cost",
          "type": "uint256"
        }
      ],
      "name": "Healing",
      "type": "event"
    },
    {
      "anonymous": false,
      "inputs": [
        {
          "indexed": false,
          "internalType": "uint256",
          "name": "tokenId",
          "type": "uint256"
        },
        {
          "indexed": false,
          "internalType": "uint80",
          "name": "injuredblock",
          "type": "uint80"
        }
      ],
      "name": "Injury",
      "type": "event"
    },
    {
      "anonymous": false,
      "inputs": [
        {
          "indexed": false,
          "internalType": "address",
          "name": "",
          "type": "address"
        },
        {
          "indexed": false,
          "internalType": "uint16",
          "name": "",
          "type": "uint16"
        },
        {
          "indexed": false,
          "internalType": "uint8",
          "name": "",
          "type": "uint8"
        }
      ],
      "name": "Log",
      "type": "event"
    },
    {
      "anonymous": false,
      "inputs": [
        {
          "indexed": true,
          "internalType": "address",
          "name": "previousOwner",
          "type": "address"
        },
        {
          "indexed": true,
          "internalType": "address",
          "name": "newOwner",
          "type": "address"
        }
      ],
      "name": "OwnershipTransferred",
      "type": "event"
    },
    {
      "anonymous": false,
      "inputs": [
        {
          "indexed": false,
          "internalType": "address",
          "name": "account",
          "type": "address"
        }
      ],
      "name": "Paused",
      "type": "event"
    },
    {
      "anonymous": false,
      "inputs": [
        {
          "indexed": false,
          "internalType": "uint256",
          "name": "tokenId",
          "type": "uint256"
        }
      ],
      "name": "Stolen",
      "type": "event"
    },
    {
      "anonymous": false,
      "inputs": [
        {
          "indexed": false,
          "internalType": "address",
          "name": "owner",
          "type": "address"
        },
        {
          "indexed": false,
          "internalType": "uint256",
          "name": "tokenId",
          "type": "uint256"
        },
        {
          "indexed": false,
          "internalType": "uint8",
          "name": "activityId",
          "type": "uint8"
        },
        {
          "indexed": false,
          "internalType": "uint256",
          "name": "value",
          "type": "uint256"
        }
      ],
      "name": "TokenStaked",
      "type": "event"
    },
    {
      "anonymous": false,
      "inputs": [
        {
          "indexed": false,
          "internalType": "address",
          "name": "account",
          "type": "address"
        }
      ],
      "name": "Unpaused",
      "type": "event"
    },
    {
      "anonymous": false,
      "inputs": [
        {
          "indexed": false,
          "internalType": "uint256",
          "name": "tokenId",
          "type": "uint256"
        },
        {
          "indexed": false,
          "internalType": "uint256",
          "name": "earned",
          "type": "uint256"
        },
        {
          "indexed": false,
          "internalType": "bool",
          "name": "unstaked",
          "type": "bool"
        }
      ],
      "name": "YetiClaimed",
      "type": "event"
    },
    {
      "inputs": [
        {
          "internalType": "uint256",
          "name": "tokenId",
          "type": "uint256"
        }
      ],
      "name": "ClaimSickYeti",
      "outputs": [],
      "stateMutability": "nonpayable",
      "type": "function"
    },
    {
      "inputs": [],
      "name": "FIGHTING_STOLEN_RISK_PERCENTAGE",
      "outputs": [
        {
          "internalType": "uint256",
          "name": "",
          "type": "uint256"
        }
      ],
      "stateMutability": "view",
      "type": "function"
    },
    {
      "inputs": [],
      "name": "GATHERING_FRXST_TAX_PERCENTAGE",
      "outputs": [
        {
          "internalType": "uint256",
          "name": "",
          "type": "uint256"
        }
      ],
      "stateMutability": "view",
      "type": "function"
    },
    {
      "inputs": [],
      "name": "GATHERING_TAX_RISK_PERCENTAGE",
      "outputs": [
        {
          "internalType": "uint256",
          "name": "",
          "type": "uint256"
        }
      ],
      "stateMutability": "view",
      "type": "function"
    },
    {
      "inputs": [],
      "name": "GENERAL_FRXST_TAX_PERCENTAGE",
      "outputs": [
        {
          "internalType": "uint256",
          "name": "",
          "type": "uint256"
        }
      ],
      "stateMutability": "view",
      "type": "function"
    },
    {
      "inputs": [],
      "name": "GetExpRates",
      "outputs": [
        {
          "internalType": "uint256[]",
          "name": "",
          "type": "uint256[]"
        }
      ],
      "stateMutability": "view",
      "type": "function"
    },
    {
      "inputs": [
        {
          "internalType": "uint256",
          "name": "tokenId",
          "type": "uint256"
        }
      ],
      "name": "GetExperience",
      "outputs": [
        {
          "internalType": "uint256",
          "name": "",
          "type": "uint256"
        }
      ],
      "stateMutability": "view",
      "type": "function"
    },
    {
      "inputs": [],
      "name": "GetFrxstRates",
      "outputs": [
        {
          "internalType": "uint256[][]",
          "name": "",
          "type": "uint256[][]"
        }
      ],
      "stateMutability": "view",
      "type": "function"
    },
    {
      "inputs": [],
      "name": "GetGatherTaxPercentage",
      "outputs": [
        {
          "internalType": "uint256",
          "name": "",
          "type": "uint256"
        }
      ],
      "stateMutability": "view",
      "type": "function"
    },
    {
      "inputs": [],
      "name": "GetGeneralTaxPercentage",
      "outputs": [
        {
          "internalType": "uint256",
          "name": "",
          "type": "uint256"
        }
      ],
      "stateMutability": "view",
      "type": "function"
    },
    {
      "inputs": [],
      "name": "GetHealingCost",
      "outputs": [
        {
          "internalType": "uint256",
          "name": "",
          "type": "uint256"
        }
      ],
      "stateMutability": "view",
      "type": "function"
    },
    {
      "inputs": [],
      "name": "GetInjuryRiskPercentage",
      "outputs": [
        {
          "internalType": "uint256",
          "name": "",
          "type": "uint256"
        }
      ],
      "stateMutability": "view",
      "type": "function"
    },
    {
      "inputs": [],
      "name": "GetInjuryTime",
      "outputs": [
        {
          "internalType": "uint256",
          "name": "",
          "type": "uint256"
        }
      ],
      "stateMutability": "view",
      "type": "function"
    },
    {
      "inputs": [
        {
          "internalType": "uint256",
          "name": "tokenId",
          "type": "uint256"
        }
      ],
      "name": "GetLevel",
      "outputs": [
        {
          "internalType": "uint8",
          "name": "",
          "type": "uint8"
        }
      ],
      "stateMutability": "view",
      "type": "function"
    },
    {
      "inputs": [
        {
          "internalType": "uint8",
          "name": "level",
          "type": "uint8"
        }
      ],
      "name": "GetLevelModifier",
      "outputs": [
        {
          "internalType": "uint256",
          "name": "",
          "type": "uint256"
        }
      ],
      "stateMutability": "pure",
      "type": "function"
    },
    {
      "inputs": [],
      "name": "GetLevelUpCostMultiplier",
      "outputs": [
        {
          "internalType": "uint256",
          "name": "",
          "type": "uint256"
        }
      ],
      "stateMutability": "view",
      "type": "function"
    },
    {
      "inputs": [],
      "name": "GetMinimumClaimTime",
      "outputs": [
        {
          "internalType": "uint256",
          "name": "",
          "type": "uint256"
        }
      ],
      "stateMutability": "view",
      "type": "function"
    },
    {
      "inputs": [],
      "name": "GetRescueEnabled",
      "outputs": [
        {
          "internalType": "bool",
          "name": "",
          "type": "bool"
        }
      ],
      "stateMutability": "view",
      "type": "function"
    },
    {
      "inputs": [],
      "name": "GetStealChance",
      "outputs": [
        {
          "internalType": "uint256",
          "name": "",
          "type": "uint256"
        }
      ],
      "stateMutability": "view",
      "type": "function"
    },
    {
      "inputs": [],
      "name": "GetThisAddress",
      "outputs": [
        {
          "internalType": "address",
          "name": "",
          "type": "address"
        }
      ],
      "stateMutability": "view",
      "type": "function"
    },
    {
      "inputs": [],
      "name": "GetTotalYetiStaked",
      "outputs": [
        {
          "internalType": "uint256",
          "name": "",
          "type": "uint256"
        }
      ],
      "stateMutability": "view",
      "type": "function"
    },
    {
      "inputs": [
        {
          "internalType": "uint256",
          "name": "tokenId",
          "type": "uint256"
        }
      ],
      "name": "GetYetiInHospital",
      "outputs": [
        {
          "components": [
            {
              "internalType": "uint16",
              "name": "tokenId",
              "type": "uint16"
            },
            {
              "internalType": "uint80",
              "name": "value",
              "type": "uint80"
            },
            {
              "internalType": "address",
              "name": "owner",
              "type": "address"
            }
          ],
          "internalType": "struct GameLogic.InjuryStake",
          "name": "",
          "type": "tuple"
        }
      ],
      "stateMutability": "view",
      "type": "function"
    },
    {
      "inputs": [
        {
          "internalType": "uint256",
          "name": "tokenId",
          "type": "uint256"
        }
      ],
      "name": "GetYetiInPalace",
      "outputs": [
        {
          "components": [
            {
              "internalType": "uint16",
              "name": "tokenId",
              "type": "uint16"
            },
            {
              "internalType": "uint80",
              "name": "value",
              "type": "uint80"
            },
            {
              "internalType": "uint8",
              "name": "activityId",
              "type": "uint8"
            },
            {
              "internalType": "address",
              "name": "owner",
              "type": "address"
            }
          ],
          "internalType": "struct GameLogic.Stake",
          "name": "",
          "type": "tuple"
        }
      ],
      "stateMutability": "view",
      "type": "function"
    },
    {
      "inputs": [
        {
          "internalType": "uint256",
          "name": "tokenId",
          "type": "uint256"
        }
      ],
      "name": "GetYetiOwner",
      "outputs": [
        {
          "internalType": "address",
          "name": "",
          "type": "address"
        }
      ],
      "stateMutability": "view",
      "type": "function"
    },
    {
      "inputs": [
        {
          "internalType": "uint256",
          "name": "tokenId",
          "type": "uint256"
        }
      ],
      "name": "GetYetiRarity",
      "outputs": [
        {
          "internalType": "uint256",
          "name": "",
          "type": "uint256"
        }
      ],
      "stateMutability": "view",
      "type": "function"
    },
    {
      "inputs": [],
      "name": "HEALING_COST",
      "outputs": [
        {
          "internalType": "uint256",
          "name": "",
          "type": "uint256"
        }
      ],
      "stateMutability": "view",
      "type": "function"
    },
    {
      "inputs": [],
      "name": "HUNTING_INJURY_RISK_PERCENTAGE",
      "outputs": [
        {
          "internalType": "uint256",
          "name": "",
          "type": "uint256"
        }
      ],
      "stateMutability": "view",
      "type": "function"
    },
    {
      "inputs": [
        {
          "internalType": "uint256",
          "name": "tokenId",
          "type": "uint256"
        }
      ],
      "name": "Heal",
      "outputs": [],
      "stateMutability": "nonpayable",
      "type": "function"
    },
    {
      "inputs": [],
      "name": "INJURY_TIME",
      "outputs": [
        {
          "internalType": "uint256",
          "name": "",
          "type": "uint256"
        }
      ],
      "stateMutability": "view",
      "type": "function"
    },
    {
      "inputs": [],
      "name": "LEVEL_UP_COST_MULTIPLIER",
      "outputs": [
        {
          "internalType": "uint256",
          "name": "",
          "type": "uint256"
        }
      ],
      "stateMutability": "view",
      "type": "function"
    },
    {
      "inputs": [],
      "name": "MINIMUM_TO_EXIT",
      "outputs": [
        {
          "internalType": "uint256",
          "name": "",
          "type": "uint256"
        }
      ],
      "stateMutability": "view",
      "type": "function"
    },
    {
      "inputs": [
        {
          "internalType": "uint256[]",
          "name": "_exprates",
          "type": "uint256[]"
        }
      ],
      "name": "SetExpRates",
      "outputs": [],
      "stateMutability": "nonpayable",
      "type": "function"
    },
    {
      "inputs": [
        {
          "internalType": "uint256",
          "name": "_stealrisk",
          "type": "uint256"
        }
      ],
      "name": "SetFightingStealPercentage",
      "outputs": [],
      "stateMutability": "nonpayable",
      "type": "function"
    },
    {
      "inputs": [
        {
          "internalType": "uint256[][]",
          "name": "_rates",
          "type": "uint256[][]"
        }
      ],
      "name": "SetFrxstRates",
      "outputs": [],
      "stateMutability": "nonpayable",
      "type": "function"
    },
    {
      "inputs": [
        {
          "internalType": "uint256",
          "name": "_tax",
          "type": "uint256"
        }
      ],
      "name": "SetGatherTaxPercentage",
      "outputs": [],
      "stateMutability": "nonpayable",
      "type": "function"
    },
    {
      "inputs": [
        {
          "internalType": "uint256",
          "name": "_tax",
          "type": "uint256"
        }
      ],
      "name": "SetGeneralTaxPercentage",
      "outputs": [],
      "stateMutability": "nonpayable",
      "type": "function"
    },
    {
      "inputs": [
        {
          "internalType": "uint256",
          "name": "_healingcost",
          "type": "uint256"
        }
      ],
      "name": "SetHealingCost",
      "outputs": [],
      "stateMutability": "nonpayable",
      "type": "function"
    },
    {
      "inputs": [
        {
          "internalType": "uint256",
          "name": "_injuryrisk",
          "type": "uint256"
        }
      ],
      "name": "SetHuntingInjuryPercentage",
      "outputs": [],
      "stateMutability": "nonpayable",
      "type": "function"
    },
    {
      "inputs": [
        {
          "internalType": "uint256",
          "name": "_seconds",
          "type": "uint256"
        }
      ],
      "name": "SetInjuryTime",
      "outputs": [],
      "stateMutability": "nonpayable",
      "type": "function"
    },
    {
      "inputs": [
        {
          "internalType": "uint256",
          "name": "_multiplier",
          "type": "uint256"
        }
      ],
      "name": "SetLevelUpCostMultiplier",
      "outputs": [],
      "stateMutability": "nonpayable",
      "type": "function"
    },
    {
      "inputs": [
        {
          "internalType": "uint256",
          "name": "_seconds",
          "type": "uint256"
        }
      ],
      "name": "SetMinimumClaimTime",
      "outputs": [],
      "stateMutability": "nonpayable",
      "type": "function"
    },
    {
      "inputs": [
        {
          "internalType": "bool",
          "name": "_rescue",
          "type": "bool"
        }
      ],
      "name": "SetRescueEnabled",
      "outputs": [],
      "stateMutability": "nonpayable",
      "type": "function"
    },
    {
      "inputs": [
        {
          "internalType": "uint256",
          "name": "tokenId",
          "type": "uint256"
        },
        {
          "internalType": "bool",
          "name": "unstake",
          "type": "bool"
        }
      ],
      "name": "_claimYetiFromPalace",
      "outputs": [
        {
          "internalType": "uint256",
          "name": "owedFrxst",
          "type": "uint256"
        }
      ],
      "stateMutability": "nonpayable",
      "type": "function"
    },
    {
      "inputs": [
        {
          "internalType": "address",
          "name": "account",
          "type": "address"
        },
        {
          "internalType": "uint256[]",
          "name": "tokenIds",
          "type": "uint256[]"
        },
        {
          "internalType": "uint8",
          "name": "activityId",
          "type": "uint8"
        }
      ],
      "name": "addManyToPalace",
      "outputs": [],
      "stateMutability": "nonpayable",
      "type": "function"
    },
    {
      "inputs": [
        {
          "internalType": "uint16[]",
          "name": "tokenIds",
          "type": "uint16[]"
        },
        {
          "internalType": "bool",
          "name": "unstake",
          "type": "bool"
        }
      ],
      "name": "claimMany",
      "outputs": [],
      "stateMutability": "nonpayable",
      "type": "function"
    },
    {
      "inputs": [
        {
          "internalType": "uint256",
          "name": "",
          "type": "uint256"
        }
      ],
      "name": "experience",
      "outputs": [
        {
          "internalType": "uint256",
          "name": "",
          "type": "uint256"
        }
      ],
      "stateMutability": "view",
      "type": "function"
    },
    {
      "inputs": [
        {
          "internalType": "uint256",
          "name": "",
          "type": "uint256"
        }
      ],
      "name": "exprates",
      "outputs": [
        {
          "internalType": "uint256",
          "name": "",
          "type": "uint256"
        }
      ],
      "stateMutability": "view",
      "type": "function"
    },
    {
      "inputs": [
        {
          "internalType": "uint256",
          "name": "",
          "type": "uint256"
        }
      ],
      "name": "fighterArray",
      "outputs": [
        {
          "internalType": "uint16",
          "name": "tokenId",
          "type": "uint16"
        },
        {
          "internalType": "uint80",
          "name": "value",
          "type": "uint80"
        },
        {
          "internalType": "uint8",
          "name": "activityId",
          "type": "uint8"
        },
        {
          "internalType": "address",
          "name": "owner",
          "type": "address"
        }
      ],
      "stateMutability": "view",
      "type": "function"
    },
    {
      "inputs": [
        {
          "internalType": "uint256",
          "name": "",
          "type": "uint256"
        }
      ],
      "name": "fighterIndices",
      "outputs": [
        {
          "internalType": "uint256",
          "name": "",
          "type": "uint256"
        }
      ],
      "stateMutability": "view",
      "type": "function"
    },
    {
      "inputs": [
        {
          "internalType": "uint256",
          "name": "",
          "type": "uint256"
        }
      ],
      "name": "fighters",
      "outputs": [
        {
          "internalType": "uint16",
          "name": "tokenId",
          "type": "uint16"
        },
        {
          "internalType": "uint80",
          "name": "value",
          "type": "uint80"
        },
        {
          "internalType": "uint8",
          "name": "activityId",
          "type": "uint8"
        },
        {
          "internalType": "address",
          "name": "owner",
          "type": "address"
        }
      ],
      "stateMutability": "view",
      "type": "function"
    },
    {
      "inputs": [],
      "name": "frxst",
      "outputs": [
        {
          "internalType": "contract FRXST",
          "name": "",
          "type": "address"
        }
      ],
      "stateMutability": "view",
      "type": "function"
    },
    {
      "inputs": [
        {
          "internalType": "uint256",
          "name": "",
          "type": "uint256"
        }
      ],
      "name": "hospital",
      "outputs": [
        {
          "internalType": "uint16",
          "name": "tokenId",
          "type": "uint16"
        },
        {
          "internalType": "uint80",
          "name": "value",
          "type": "uint80"
        },
        {
          "internalType": "address",
          "name": "owner",
          "type": "address"
        }
      ],
      "stateMutability": "view",
      "type": "function"
    },
    {
      "inputs": [
        {
          "internalType": "uint256",
          "name": "",
          "type": "uint256"
        }
      ],
      "name": "levels",
      "outputs": [
        {
          "internalType": "uint8",
          "name": "",
          "type": "uint8"
        }
      ],
      "stateMutability": "view",
      "type": "function"
    },
    {
      "inputs": [
        {
          "internalType": "uint256",
          "name": "tokenId",
          "type": "uint256"
        }
      ],
      "name": "levelup",
      "outputs": [],
      "stateMutability": "nonpayable",
      "type": "function"
    },
    {
      "inputs": [
        {
          "internalType": "address",
          "name": "",
          "type": "address"
        },
        {
          "internalType": "address",
          "name": "from",
          "type": "address"
        },
        {
          "internalType": "uint256",
          "name": "",
          "type": "uint256"
        },
        {
          "internalType": "bytes",
          "name": "",
          "type": "bytes"
        }
      ],
      "name": "onERC721Received",
      "outputs": [
        {
          "internalType": "bytes4",
          "name": "",
          "type": "bytes4"
        }
      ],
      "stateMutability": "pure",
      "type": "function"
    },
    {
      "inputs": [],
      "name": "owner",
      "outputs": [
        {
          "internalType": "address",
          "name": "",
          "type": "address"
        }
      ],
      "stateMutability": "view",
      "type": "function"
    },
    {
      "inputs": [
        {
          "internalType": "uint256",
          "name": "",
          "type": "uint256"
        }
      ],
      "name": "palace",
      "outputs": [
        {
          "internalType": "uint16",
          "name": "tokenId",
          "type": "uint16"
        },
        {
          "internalType": "uint80",
          "name": "value",
          "type": "uint80"
        },
        {
          "internalType": "uint8",
          "name": "activityId",
          "type": "uint8"
        },
        {
          "internalType": "address",
          "name": "owner",
          "type": "address"
        }
      ],
      "stateMutability": "view",
      "type": "function"
    },
    {
      "inputs": [],
      "name": "paused",
      "outputs": [
        {
          "internalType": "bool",
          "name": "",
          "type": "bool"
        }
      ],
      "stateMutability": "view",
      "type": "function"
    },
    {
      "inputs": [
        {
          "internalType": "uint256",
          "name": "",
          "type": "uint256"
        },
        {
          "internalType": "uint256",
          "name": "",
          "type": "uint256"
        }
      ],
      "name": "rates",
      "outputs": [
        {
          "internalType": "uint256",
          "name": "",
          "type": "uint256"
        }
      ],
      "stateMutability": "view",
      "type": "function"
    },
    {
      "inputs": [],
      "name": "renounceOwnership",
      "outputs": [],
      "stateMutability": "nonpayable",
      "type": "function"
    },
    {
      "inputs": [
        {
          "internalType": "uint256[]",
          "name": "tokenIds",
          "type": "uint256[]"
        }
      ],
      "name": "rescue",
      "outputs": [],
      "stateMutability": "nonpayable",
      "type": "function"
    },
    {
      "inputs": [],
      "name": "rescueEnabled",
      "outputs": [
        {
          "internalType": "bool",
          "name": "",
          "type": "bool"
        }
      ],
      "stateMutability": "view",
      "type": "function"
    },
    {
      "inputs": [],
      "name": "rs",
      "outputs": [
        {
          "internalType": "contract RarityStorage",
          "name": "",
          "type": "address"
        }
      ],
      "stateMutability": "view",
      "type": "function"
    },
    {
      "inputs": [
        {
          "internalType": "bool",
          "name": "_paused",
          "type": "bool"
        }
      ],
      "name": "setPaused",
      "outputs": [],
      "stateMutability": "nonpayable",
      "type": "function"
    },
    {
      "inputs": [],
      "name": "totalFrxstEarned",
      "outputs": [
        {
          "internalType": "uint256",
          "name": "",
          "type": "uint256"
        }
      ],
      "stateMutability": "view",
      "type": "function"
    },
    {
      "inputs": [],
      "name": "totalYetiStakedFighting",
      "outputs": [
        {
          "internalType": "uint256",
          "name": "",
          "type": "uint256"
        }
      ],
      "stateMutability": "view",
      "type": "function"
    },
    {
      "inputs": [],
      "name": "totalYetiStakedGathering",
      "outputs": [
        {
          "internalType": "uint256",
          "name": "",
          "type": "uint256"
        }
      ],
      "stateMutability": "view",
      "type": "function"
    },
    {
      "inputs": [],
      "name": "totalYetiStakedHunting",
      "outputs": [
        {
          "internalType": "uint256",
          "name": "",
          "type": "uint256"
        }
      ],
      "stateMutability": "view",
      "type": "function"
    },
    {
      "inputs": [
        {
          "internalType": "address",
          "name": "newOwner",
          "type": "address"
        }
      ],
      "name": "transferOwnership",
      "outputs": [],
      "stateMutability": "nonpayable",
      "type": "function"
    },
    {
      "inputs": [],
      "name": "yeti",
      "outputs": [
        {
          "internalType": "contract YetiTown",
          "name": "",
          "type": "address"
        }
      ],
      "stateMutability": "view",
      "type": "function"
    }
  ],
  "bytecode": "0x603c600c819055600d8190556014600e8190556032600f81905560108190556011819055600a601255681b1ae4d6e2ef500000601355606491829055600060155560e09283526101005260286101205260809182526046610140908152605a6101605260506101805260a0526102006040526101a090815260786101c052608c6101e05260c05262000096906019906003620001c3565b506040805160608101825260028152600360208201819052600692820192909252620000c691601a919062000221565b50601b805460ff19169055348015620000de57600080fd5b5060405162004aa938038062004aa98339810160408190526200010191620002ea565b6000805460ff1916905562000116336200016a565b600180546001600160a01b039586166001600160a01b031991821617909155600280549486169482169490941790935560048054928516928416929092179091556003805491909316911617905562000346565b600080546001600160a01b03838116610100818102610100600160a81b0319851617855560405193049190911692909183917f8be0079c531659141344cd1fd0a4f28419497f9722a3daafe3b4186f6b6457e091a35050565b8280548282559060005260206000209081019282156200020f579160200282015b828111156200020f578251620001fe908390600362000221565b5091602001919060010190620001e4565b506200021d92915062000272565b5090565b82805482825590600052602060002090810192821562000264579160200282015b8281111562000264578251829060ff1690559160200191906001019062000242565b506200021d92915062000293565b808211156200021d576000620002898282620002aa565b5060010162000272565b5b808211156200021d576000815560010162000294565b5080546000825590600052602060002090810190620002ca919062000293565b50565b80516001600160a01b0381168114620002e557600080fd5b919050565b6000806000806080858703121562000300578384fd5b6200030b85620002cd565b93506200031b60208601620002cd565b92506200032b60408601620002cd565b91506200033b60608601620002cd565b905092959194509250565b61475380620003566000396000f3fe608060405234801561001057600080fd5b50600436106104115760003560e01c80636cb80c6f11610220578063a841441411610130578063c055d8ad116100b8578063d60d6e0411610087578063d60d6e0414610aa9578063dca06da714610abc578063dcd4648b14610b33578063e68d929c14610b46578063f2fde38b14610b4e57600080fd5b8063c055d8ad14610a5a578063c0765e2e14610a6d578063ce0dcbc414610a80578063d3e9716514610a8957600080fd5b8063b0eed65f116100ff578063b0eed65f146109d3578063b2596a6714610a08578063b51e49f014610a2b578063b5b4145214610a3e578063b9dc92b214610a4757600080fd5b8063a84144141461056a578063a8ee50d1146109b0578063acb6be2d146109b8578063b0d6d008146109cb57600080fd5b80638da5cb5b116101b3578063a07b38c711610182578063a07b38c71461096e578063a1b610c514610976578063a4296b9b1461098b578063a5a2e76914610994578063a7a102901461099d57600080fd5b80638da5cb5b14610929578063917d69821461093f578063940d7227146109525780639ac9433f1461095b57600080fd5b806380246d15116101ef57806380246d15146108f25780638175e4a3146108fa578063842651721461090d57806389fabe5b1461092057600080fd5b80636cb80c6f146108b1578063715018a6146108c457806372af7e5f146108cc57806378c73739146108df57600080fd5b806338ba7d8b1161032657806350d41481116102ae5780635c0d73981161027d5780635c0d7398146107965780635c975abb1461079f5780635ce32083146107aa5780636146d0de146107bd5780636a3ef0571461089e57600080fd5b806350d4148114610754578063518092f21461075d57806356aaf2571461077057806359b31abf1461078357600080fd5b806341626a71116102f557806341626a71146106a75780634668b759146106bc578063478dc7cb146106cf578063480057241461072157806349da5d671461073457600080fd5b806338ba7d8b1461067f5780633977d7741461068857806339db714f146106915780634015d6c71461069e57600080fd5b80631e5c5fa4116103a95780632e6b221d116103785780632e6b221d146105c557806332d7c0521461065557806333696c5f1461065d578063343e613a1461066357806337a386b91461067657600080fd5b80631e5c5fa41461057257806320013a7a146105925780632cd41e6f146105a55780632d4030a6146105ae57600080fd5b806313c53d40116103e557806313c53d4014610518578063150b7a021461052b57806316c38b3c14610557578063191d1a101461056a57600080fd5b806285a92f146104165780630bcbefbd1461042d578063107ebaa5146104d85780631165f7c6146104ed575b600080fd5b600c545b6040519081526020015b60405180910390f35b6104a061043b366004614338565b6040805160608082018352600080835260208084018290529284018190529384526009825292829020825193840183525461ffff811684526201000081046001600160501b031691840191909152600160601b90046001600160a01b03169082015290565b60408051825161ffff1681526020808401516001600160501b031690820152918101516001600160a01b031690820152606001610424565b6104eb6104e6366004614338565b610b61565b005b6105006104fb366004614338565b610b9f565b6040516001600160a01b039091168152602001610424565b6104eb610526366004614338565b610c22565b61053e610539366004614065565b610c6a565b6040516001600160e01b03199091168152602001610424565b6104eb6105653660046142de565b610ce3565b60145461041a565b61041a610580366004614338565b60086020526000908152604090205481565b61041a6105a0366004614338565b610d2c565b61041a60105481565b601b5460ff165b6040519015158152602001610424565b6106176105d3366004614338565b6006602052600090815260409020805460019091015461ffff8216916201000081046001600160501b031691600160601b90910460ff16906001600160a01b031684565b6040805161ffff90951685526001600160501b03909316602085015260ff909116918301919091526001600160a01b03166060820152608001610424565b60125461041a565b30610500565b600154610500906001600160a01b031681565b61041a600c5481565b61041a60145481565b61041a60115481565b601b546105b59060ff1681565b61041a60135481565b6106af610d4d565b60405161042491906144a0565b6104eb6106ca366004614338565b610da5565b6106176106dd366004614338565b6005602052600090815260409020805460019091015461ffff8216916201000081046001600160501b031691600160601b90910460ff16906001600160a01b031684565b600254610500906001600160a01b031681565b61041a610742366004614338565b6000908152600a602052604090205490565b61041a60185481565b6104eb61076b366004614338565b610db0565b6104eb61077e36600461415d565b610de5565b61041a610791366004614397565b610e2c565b61041a60165481565b60005460ff166105b5565b6104eb6107b8366004614338565b610e69565b6108526107cb366004614338565b604080516080810182526000808252602082018190529181018290526060810191909152506000908152600560209081526040918290208251608081018452815461ffff811682526201000081046001600160501b031693820193909352600160601b90920460ff16928201929092526001909101546001600160a01b0316606082015290565b6040516104249190815161ffff1681526020808301516001600160501b03169082015260408083015160ff16908201526060918201516001600160a01b03169181019190915260800190565b6104eb6108ac366004614263565b610e9e565b6104eb6108bf366004614338565b61143c565b6104eb6117ed565b600354610500906001600160a01b031681565b6104eb6108ed366004614338565b611829565b600e5461041a565b6104eb610908366004614338565b61185e565b6104eb61091b366004614338565b611893565b61041a60155481565b60005461010090046001600160a01b0316610500565b6104eb61094d366004614338565b6118c8565b61041a60175481565b6104eb6109693660046142a3565b611a1f565b60115461041a565b61097e611a62565b604051610424919061443f565b61041a60125481565b61041a600e5481565b6104eb6109ab36600461420e565b611afb565b600d5461041a565b6104eb6109c63660046140ff565b611d94565b61041a6123d6565b6109f66109e1366004614338565b6000908152600b602052604090205460ff1690565b60405160ff9091168152602001610424565b6109f6610a16366004614338565b600b6020526000908152604090205460ff1681565b61041a610a39366004614368565b6123fa565b61041a600f5481565b610617610a55366004614338565b612bc0565b6104eb610a68366004614338565b612c16565b61041a610a7b366004614338565b612c4b565b61041a600d5481565b61041a610a97366004614338565b600a6020526000908152604090205481565b6104eb610ab73660046142de565b612cc8565b610b02610aca366004614338565b60096020526000908152604090205461ffff8116906201000081046001600160501b031690600160601b90046001600160a01b031683565b6040805161ffff90941684526001600160501b0390921660208401526001600160a01b031690820152606001610424565b61041a610b413660046143b8565b612d0b565b600f5461041a565b6104eb610b5c36600461402d565b612d21565b6000546001600160a01b03610100909104163314610b9a5760405162461bcd60e51b8152600401610b9190614509565b60405180910390fd5b600d55565b6001546040516331a9108f60e11b8152600481018390526000916001600160a01b031690636352211e9060240160206040518083038186803b158015610be457600080fd5b505afa158015610bf8573d6000803e3d6000fd5b505050506040513d601f19601f82011682018060405250810190610c1c9190614049565b92915050565b6000546001600160a01b03610100909104163314610c525760405162461bcd60e51b8152600401610b9190614509565b610c6481670de0b6b3a764000061460a565b60145550565b60006001600160a01b03851615610cd15760405162461bcd60e51b815260206004820152602560248201527f43616e6e6f742073656e6420746f6b656e7320746f2050616c616365206469726044820152646563746c7960d81b6064820152608401610b91565b50630a85bd0160e11b95945050505050565b6000546001600160a01b03610100909104163314610d135760405162461bcd60e51b8152600401610b9190614509565b8015610d2457610d21612dbf565b50565b610d21612e34565b601a8181548110610d3c57600080fd5b600091825260209091200154905081565b6060601a805480602002602001604051908101604052809291908181526020018280548015610d9b57602002820191906000526020600020905b815481526020019060010190808311610d87575b5050505050905090565b610d21816000612eae565b6000546001600160a01b03610100909104163314610de05760405162461bcd60e51b8152600401610b9190614509565b601255565b6000546001600160a01b03610100909104163314610e155760405162461bcd60e51b8152600401610b9190614509565b8051610e28906019906020840190613e6a565b5050565b60198281548110610e3c57600080fd5b906000526020600020018181548110610e5457600080fd5b90600052602060002001600091509150505481565b6000546001600160a01b03610100909104163314610e995760405162461bcd60e51b8152600401610b9190614509565b600c55565b601b5460ff16610ee25760405162461bcd60e51b815260206004820152600f60248201526e149154d0d55148111254d050931151608a1b6044820152606401610b91565b604080516080810182526000808252602082018190529181018290526060810182905260408051608081018252600080825260208201819052918101829052606081019190915260005b8481101561143457858582818110610f5457634e487b7160e01b600052603260045260246000fd5b60209081029290920135600081815260069093526040909220549195505061ffff16841461110b576000848152600560209081526040918290208251608081018452815461ffff811682526201000081046001600160501b031693820193909352600160601b90920460ff16928201929092526001909101546001600160a01b0316606082018190529093503314610ffe5760405162461bcd60e51b8152600401610b91906144b3565b6001546001600160a01b031663b88d4fde3033876040518463ffffffff1660e01b81526004016110309392919061440c565b600060405180830381600087803b15801561104a57600080fd5b505af115801561105e573d6000803e3d6000fd5b5050506000858152600560205260409081902080546001600160681b0319168155600190810180546001600160a01b03191690559085015160ff16141590506110bf576001601660008282546110b49190614652565b909155506110d89050565b6001601760008282546110d29190614652565b90915550505b604080518581526000602082015260018183015290516000805160206146fe8339815191529181900360600190a1611422565b60008481526008602052604090205460078054909190811061113d57634e487b7160e01b600052603260045260246000fd5b600091825260209182902060408051608081018252600293909302909101805461ffff811684526201000081046001600160501b031694840194909452600160601b90930460ff16908201526001909101546001600160a01b03166060820181905290935033146111c05760405162461bcd60e51b8152600401610b91906144b3565b6001546001600160a01b031663b88d4fde3033876040518463ffffffff1660e01b81526004016111f29392919061440c565b600060405180830381600087803b15801561120c57600080fd5b505af1158015611220573d6000803e3d6000fd5b5050600780549092506112369150600190614652565b8154811061125457634e487b7160e01b600052603260045260246000fd5b6000918252602080832060408051608081018252600294909402909101805461ffff811685526201000081046001600160501b031693850193909352600160601b90920460ff16908301526001908101546001600160a01b0316606083015260188054929550909290916112c9908490614652565b90915550506000848152600860208181526040808420805485526006835281852087518154858a0151858b015160ff16600160601b0260ff60601b196001600160501b0390921662010000026001600160601b031990931661ffff9485161792909217161782556060890151600190920180546001600160a01b039093166001600160a01b0319909316929092179091558986529390925290548551909216835290912055600780548061138d57634e487b7160e01b600052603160045260246000fd5b600082815260208082206002600019949094019384020180546001600160681b03199081168255600191820180546001600160a01b03199081169091559490955588835260088252604080842084905560068352808420805490961686559481018054909416909355835188815290810191909152918201526000805160206146fe8339815191529060600160405180910390a15b8061142c81614669565b915050610f2c565b505050505050565b60005460ff161561145f5760405162461bcd60e51b8152600401610b91906144df565b60008181526006602052604090205461ffff168114156114c15760405162461bcd60e51b815260206004820152601d60248201527f43616e2774206c6576656c207570207768696c65206669676874696e670000006044820152606401610b91565b60008181526005602052604090205461ffff168114156115235760405162461bcd60e51b815260206004820152601b60248201527f43616e2774206c6576656c207570207768696c65207374616b656400000000006044820152606401610b91565b60008181526009602052604090205461ffff168114156115855760405162461bcd60e51b815260206004820152601c60248201527f43616e2774206c6576656c207570207768696c6520696e6a75726564000000006044820152606401610b91565b6000818152600b60205260409020546115a09060ff16612ffd565b6000828152600a6020526040902054116115b957600080fd5b6000818152600b602052604090205460ff16158015906115ec57506000818152600b6020526040902054600a60ff909116105b6115f557600080fd5b6014546000828152600b60205260409020546116139060ff16612ffd565b61161d919061460a565b6002546040516370a0823160e01b81523360048201526001600160a01b03909116906370a082319060240160206040518083038186803b15801561166057600080fd5b505afa158015611674573d6000803e3d6000fd5b505050506040513d601f19601f820116820180604052508101906116989190614350565b116116da5760405162461bcd60e51b8152602060048201526012602482015271125b9cdd59999a58da595b9d0811949614d560721b6044820152606401610b91565b6002546001600160a01b0316639dc29fac336014546000858152600b602052604090205461170a9060ff16612ffd565b611714919061460a565b6040516001600160e01b031960e085901b1681526001600160a01b0390921660048301526024820152604401600060405180830381600087803b15801561175a57600080fd5b505af115801561176e573d6000803e3d6000fd5b5050506000828152600b602052604090205461178d915060ff16612ffd565b6000828152600a6020526040812080549091906117ab908490614652565b90915550506000818152600b602052604081208054600192906117d290849060ff166145ab565b92506101000a81548160ff021916908360ff16021790555050565b6000546001600160a01b0361010090910416331461181d5760405162461bcd60e51b8152600401610b9190614509565b6118276000613014565b565b6000546001600160a01b036101009091041633146118595760405162461bcd60e51b8152600401610b9190614509565b601155565b6000546001600160a01b0361010090910416331461188e5760405162461bcd60e51b8152600401610b9190614509565b601455565b6000546001600160a01b036101009091041633146118c35760405162461bcd60e51b8152600401610b9190614509565b600e55565b600d5460008281526009602052604090205442916118f4916201000090046001600160501b0316614593565b116119375760405162461bcd60e51b81526020600482015260136024820152721653d548105491481393d50812539295549151606a1b6044820152606401610b91565b600254600480546013546040516323b872dd60e01b815233938101939093526001600160a01b0391821660248401526044830152909116906323b872dd90606401602060405180830381600087803b15801561199257600080fd5b505af11580156119a6573d6000803e3d6000fd5b505050506040513d601f19601f820116820180604052508101906119ca91906142fa565b15610d21576119da816001612eae565b6013546040805183815233602082015280820192909252517f73c2e0bab400670f07cad02b2a28bdb7570cc41a53df183c79ef6c29faf4ad279181900360600190a150565b6000546001600160a01b03610100909104163314611a4f5760405162461bcd60e51b8152600401610b9190614509565b8051610e2890601a906020840190613ec7565b60606019805480602002602001604051908101604052809291908181526020016000905b82821015611af257600084815260209081902083018054604080518285028101850190915281815292830182828015611ade57602002820191906000526020600020905b815481526020019060010190808311611aca575b505050505081526020019060010190611a86565b50505050905090565b60005460ff1615611b1e5760405162461bcd60e51b8152600401610b91906144df565b6000805b83811015611d1057848482818110611b4a57634e487b7160e01b600052603260045260246000fd5b9050602002016020810190611b5f9190614316565b61ffff1660066000878785818110611b8757634e487b7160e01b600052603260045260246000fd5b9050602002016020810190611b9c9190614316565b61ffff9081168252602082019290925260400160002054161480611c475750848482818110611bdb57634e487b7160e01b600052603260045260246000fd5b9050602002016020810190611bf09190614316565b61ffff1660056000878785818110611c1857634e487b7160e01b600052603260045260246000fd5b9050602002016020810190611c2d9190614316565b61ffff908116825260208201929092526040016000205416145b611cb05760405162461bcd60e51b815260206004820152603460248201527f59657469206973206e6f74207374616b656420616e642063616e2074686572656044820152733337b932903737ba1031329031b630b4b6b2b21760611b6064820152608401610b91565b611cf2858583818110611cd357634e487b7160e01b600052603260045260246000fd5b9050602002016020810190611ce89190614316565b61ffff168461306d565b611cfc9083614593565b915080611d0881614669565b915050611b22565b5080611d1c5750505050565b6002546001600160a01b03166340c10f19336040516001600160e01b031960e084901b1681526001600160a01b03909116600482015260248101849052604401600060405180830381600087803b158015611d7657600080fd5b505af1158015611d8a573d6000803e3d6000fd5b5050505050505050565b6001600160a01b038316331480611dbe57506001546001600160a01b0316336001600160a01b0316145b611e0a5760405162461bcd60e51b815260206004820152601a60248201527f444f4e54204749564520594f555220544f4b454e5320415741590000000000006044820152606401610b91565b60005b82518110156123d057828181518110611e3657634e487b7160e01b600052603260045260246000fd5b602002602001015160066000858481518110611e6257634e487b7160e01b600052603260045260246000fd5b60209081029190910181015182528101919091526040016000205461ffff161415611ee85760405162461bcd60e51b815260206004820152603060248201527f526576657274696e672c20747279696e6720746f207374616b6520616c72656160448201526f6479206669676874696e67207965746960801b6064820152608401610b91565b828181518110611f0857634e487b7160e01b600052603260045260246000fd5b602002602001015160056000858481518110611f3457634e487b7160e01b600052603260045260246000fd5b60209081029190910181015182528101919091526040016000205461ffff161415611fb85760405162461bcd60e51b815260206004820152602e60248201527f526576657274696e672c20747279696e6720746f207374616b6520616c72656160448201526d6479207374616b6564207965746960901b6064820152608401610b91565b828181518110611fd857634e487b7160e01b600052603260045260246000fd5b60200260200101516009600085848151811061200457634e487b7160e01b600052603260045260246000fd5b60209081029190910181015182528101919091526040016000205461ffff1614156120815760405162461bcd60e51b815260206004820152602760248201527f526576657274696e672c20747279696e6720746f207374616b6520696e6a75726044820152666564207965746960c81b6064820152608401610b91565b6001546001600160a01b0316336001600160a01b03161461223957600154835133916001600160a01b031690636352211e908690859081106120d357634e487b7160e01b600052603260045260246000fd5b60200260200101516040518263ffffffff1660e01b81526004016120f991815260200190565b60206040518083038186803b15801561211157600080fd5b505afa158015612125573d6000803e3d6000fd5b505050506040513d601f19601f820116820180604052508101906121499190614049565b6001600160a01b03161461218f5760405162461bcd60e51b815260206004820152600d60248201526c20a4a72a102ca7902a27a5a2a760991b6044820152606401610b91565b6001546001600160a01b03166323b872dd33308685815181106121c257634e487b7160e01b600052603260045260246000fd5b60209081029190910101516040516001600160e01b031960e086901b1681526001600160a01b0393841660048201529290911660248301526044820152606401600060405180830381600087803b15801561221c57600080fd5b505af1158015612230573d6000803e3d6000fd5b5050505061226e565b82818151811061225957634e487b7160e01b600052603260045260246000fd5b60200260200101516000141561226e576123be565b600b600084838151811061229257634e487b7160e01b600052603260045260246000fd5b60209081029190910181015182528101919091526040016000205460ff16612349576001600b60008584815181106122da57634e487b7160e01b600052603260045260246000fd5b6020026020010151815260200190815260200160002060006101000a81548160ff021916908360ff1602179055506000600a600085848151811061232e57634e487b7160e01b600052603260045260246000fd5b60200260200101518152602001908152602001600020819055505b8160ff166002141561238c576123878484838151811061237957634e487b7160e01b600052603260045260246000fd5b6020026020010151846130a1565b6123be565b6123be848483815181106123b057634e487b7160e01b600052603260045260246000fd5b60200260200101518461333c565b806123c881614669565b915050611e0d565b50505050565b60006018546017546016546123eb9190614593565b6123f59190614593565b905090565b60008281526005602090815260408083208151608081018352815461ffff811682526201000081046001600160501b031694820194909452600160601b90930460ff1691830191909152600101546001600160a01b03166060820181905233146124765760405162461bcd60e51b8152600401610b91906144b3565b82801561249b5750600c546020820151612499906001600160501b031642614652565b105b156124f75760405162461bcd60e51b815260206004820152602660248201527f4e6565642074776f2064617973206f66204672787374206265666f726520636c60448201526561696d696e6760d01b6064820152608401610b91565b60035460405163321a85ad60e21b8152600481018690526000916001600160a01b03169063c86a16b49060240160206040518083038186803b15801561253c57600080fd5b505afa158015612550573d6000803e3d6000fd5b505050506040513d601f19601f820116820180604052508101906125749190614350565b90506000826040015160ff1660011415612619576000868152600b60205260409081902054908401516019805460ff9384169391929091169081106125c957634e487b7160e01b600052603260045260246000fd5b9060005260206000200183815481106125f257634e487b7160e01b600052603260045260246000fd5b9060005260206000200154612607919061460a565b6126129060c861460a565b90506126a6565b6000868152600b60205260409081902054908401516019805460ff93841693919290911690811061265a57634e487b7160e01b600052603260045260246000fd5b90600052602060002001838154811061268357634e487b7160e01b600052603260045260246000fd5b9060005260206000200154612698919061460a565b6126a390606461460a565b90505b60006201518084602001516126bb91906145e4565b6126ce906001600160501b031642614652565b905060646126dc828461460a565b6126e691906145d0565b94506000601a856040015160ff168154811061271257634e487b7160e01b600052603260045260246000fd5b906000526020600020015482612728919061460a565b90508615612a7f57604085015160ff1661287457601054606461274a8a6134ad565b6127549190614684565b10156127cb576000888152600b60205260408120546127779060ff166005614629565b60ff16600f546127879190614652565b90506127a76064612798838a61460a565b6127a291906145d0565b613507565b60646127b38282614652565b6127bd908961460a565b6127c791906145d0565b9650505b6001546001600160a01b031663b88d4fde30338b6040518463ffffffff1660e01b81526004016127fd9392919061440c565b600060405180830381600087803b15801561281757600080fd5b505af115801561282b573d6000803e3d6000fd5b5050506000898152600a60205260408120805484935090919061284f908490614593565b925050819055506001601660008282546128699190614652565b90915550612a4d9050565b846040015160ff1660011415612a4d576000888152600b60205260408120546128a19060ff166005614629565b60ff166011546128b19190614652565b90508060646128bf8b6134ad565b6128c99190614684565b10156129a95760405180606001604052808a61ffff168152602001426001600160501b031681526020016128fa3390565b6001600160a01b0390811690915260008b81526009602090815260409182902084518154868401519685015161ffff9092166001600160601b031990911617620100006001600160501b0397881602176bffffffffffffffffffffffff16600160601b91909516029390931790925580518c815242909316918301919091527f79e9c89b27777596a7f5d2692dfac3988b9297a96fa573f7ef11c7454499850a910160405180910390a1612a33565b6001546001600160a01b031663b88d4fde30338c6040518463ffffffff1660e01b81526004016129db9392919061440c565b600060405180830381600087803b1580156129f557600080fd5b505af1158015612a09573d6000803e3d6000fd5b50505060008a8152600a602052604081208054859350909190612a2d908490614593565b90915550505b600160176000828254612a469190614652565b9091555050505b600088815260056020526040902080546001600160681b031916815560010180546001600160a01b0319169055612b81565b612a926064600e5488612798919061460a565b6064600e546064612aa39190614652565b612aad908861460a565b612ab791906145d0565b955060405180608001604052808961ffff168152602001426001600160501b03168152602001866040015160ff168152602001612af13390565b6001600160a01b0390811690915260008a81526005602090815260409182902084518154928601519386015160ff16600160601b0260ff60601b196001600160501b0390951662010000026001600160601b031990941661ffff90921691909117929092179290921617815560609092015160019092018054929091166001600160a01b03199092169190911790555b6040805189815260208101889052881515918101919091526000805160206146fe833981519152906060015b60405180910390a1505050505092915050565b60078181548110612bd057600080fd5b60009182526020909120600290910201805460019091015461ffff821692506201000082046001600160501b031691600160601b900460ff16906001600160a01b031684565b6000546001600160a01b03610100909104163314612c465760405162461bcd60e51b8152600401610b9190614509565b600f55565b60035460405163321a85ad60e21b8152600481018390526000916001600160a01b03169063c86a16b49060240160206040518083038186803b158015612c9057600080fd5b505afa158015612ca4573d6000803e3d6000fd5b505050506040513d601f19601f82011682018060405250810190610c1c9190614350565b6000546001600160a01b03610100909104163314612cf85760405162461bcd60e51b8152600401610b9190614509565b601b805460ff1916911515919091179055565b6000612d1882600a6145ab565b60ff1692915050565b6000546001600160a01b03610100909104163314612d515760405162461bcd60e51b8152600401610b9190614509565b6001600160a01b038116612db65760405162461bcd60e51b815260206004820152602660248201527f4f776e61626c653a206e6577206f776e657220697320746865207a65726f206160448201526564647265737360d01b6064820152608401610b91565b610d2181613014565b60005460ff1615612de25760405162461bcd60e51b8152600401610b91906144df565b6000805460ff191660011790557f62e78cea01bee320cd4e420270b5ea74000d11b0c9f74754ebdbfc544b05a258612e173390565b6040516001600160a01b03909116815260200160405180910390a1565b60005460ff16612e7d5760405162461bcd60e51b815260206004820152601460248201527314185d5cd8589b194e881b9bdd081c185d5cd95960621b6044820152606401610b91565b6000805460ff191690557f5db9ee0a495bf2e6ff9c91a7834c1ba4fdd244a5e8aa4e537bd38aeae4b073aa33612e17565b6000828152600960209081526040918290208251606081018452905461ffff811682526201000081046001600160501b031692820192909252600160601b9091046001600160a01b0316918101829052903314612f1d5760405162461bcd60e51b8152600401610b91906144b3565b818015612f425750600d546020820151612f40906001600160501b031642614652565b105b15612f865760405162461bcd60e51b815260206004820152601460248201527359657469206e6f74206865616c6564207965742160601b6044820152606401610b91565b6001546001600160a01b031663b88d4fde3033866040518463ffffffff1660e01b8152600401612fb89392919061440c565b600060405180830381600087803b158015612fd257600080fd5b505af1158015612fe6573d6000803e3d6000fd5b505050600093845250506009602052506040812055565b60006130098280614629565b612d1890600a614629565b600080546001600160a01b03838116610100818102610100600160a81b0319851617855560405193049190911692909183917f8be0079c531659141344cd1fd0a4f28419497f9722a3daafe3b4186f6b6457e091a35050565b60008281526006602052604081205461ffff1683146130975761309083836123fa565b9050610c1c565b6130908383613576565b60005460ff16156130c45760405162461bcd60e51b8152600401610b91906144df565b60016018546130d39190614652565b6008600084815260200190815260200160002081905550600060405180608001604052808461ffff168152602001426001600160501b031681526020018360ff168152602001856001600160a01b03168152509050806006600085815260200190815260200160002060008201518160000160006101000a81548161ffff021916908361ffff16021790555060208201518160000160026101000a8154816001600160501b0302191690836001600160501b03160217905550604082015181600001600c6101000a81548160ff021916908360ff16021790555060608201518160010160006101000a8154816001600160a01b0302191690836001600160a01b03160217905550905050600781908060018154018082558091505060019003906000526020600020906002020160009091909190915060008201518160000160006101000a81548161ffff021916908361ffff16021790555060208201518160000160026101000a8154816001600160501b0302191690836001600160501b03160217905550604082015181600001600c6101000a81548160ff021916908360ff16021790555060608201518160010160006101000a8154816001600160a01b0302191690836001600160a01b03160217905550505060016007805490506132bb9190614652565b60008481526008602052604081209190915560188054600192906132e0908490614593565b9091555050604080516001600160a01b03861681526020810185905260ff84168183015242606082015290517fadd17b9d82cb146eaff151f4f864faa55b09599b4eff7714935025b99054fe1c9181900360800190a150505050565b60005460ff161561335f5760405162461bcd60e51b8152600401610b91906144df565b6040805160808101825261ffff80851682526001600160501b03428116602080850191825260ff8088168688018181526001600160a01b03808d1660608a0190815260008d81526005909652999094209751885495519151909316600160601b0260ff60601b199190961662010000026001600160601b031990951692909616919091179290921793909316919091178355925160019092018054929091166001600160a01b0319909216919091179055613432576001601660008282546134279190614593565b909155506134579050565b8060ff1660011415613457576001601760008282546134519190614593565b90915550505b604080516001600160a01b03851681526020810184905260ff83168183015242606082015290517fadd17b9d82cb146eaff151f4f864faa55b09599b4eff7714935025b99054fe1c9181900360800190a1505050565b6000326134bb600143614652565b60405160609290921b6001600160601b03191660208301524060348201524260548201526074810183905260940160408051601f19818403018152919052805160209091012092915050565b600254600480546040516340c10f1960e01b81526001600160a01b039182169281019290925260248201849052909116906340c10f1990604401600060405180830381600087803b15801561355b57600080fd5b505af115801561356f573d6000803e3d6000fd5b5050505050565b60008281526006602090815260408083208151608081018352815461ffff811682526201000081046001600160501b031694820194909452600160601b90930460ff1691830191909152600101546001600160a01b03166060820181905233146135f25760405162461bcd60e51b8152600401610b91906144b3565b8280156136175750600c546020820151613615906001600160501b031642614652565b105b156136725760405162461bcd60e51b815260206004820152602560248201527f474f4e4e4120424520434f4c4420574954484f55542054574f20444159275320604482015264119493d4d560da1b6064820152608401610b91565b60035460405163321a85ad60e21b8152600481018690526000916001600160a01b03169063c86a16b49060240160206040518083038186803b1580156136b757600080fd5b505afa1580156136cb573d6000803e3d6000fd5b505050506040513d601f19601f820116820180604052508101906136ef9190614350565b6000868152600b6020526040808220549085015160198054949550929360ff92831693849390921690811061373457634e487b7160e01b600052603260045260246000fd5b90600052602060002001848154811061375d57634e487b7160e01b600052603260045260246000fd5b9060005260206000200154613772919061460a565b61377c919061460a565b61378790606461460a565b9050600062015180846020015161379e91906145e4565b6137b1906001600160501b031642614652565b905060646137bf828461460a565b6137c991906145d0565b94506000601a856040015160ff16815481106137f557634e487b7160e01b600052603260045260246000fd5b90600052602060002001548261380b919061460a565b90508615613cbd576001546001600160a01b031663b88d4fde30338b6040518463ffffffff1660e01b81526004016138459392919061440c565b600060405180830381600087803b15801561385f57600080fd5b505af1158015613873573d6000803e3d6000fd5b5050505060006007600160078054905061388d9190614652565b815481106138ab57634e487b7160e01b600052603260045260246000fd5b60009182526020808320604080516080810182526002909402909101805461ffff811685526001600160501b03620100008204168585015260ff600160601b9091041684830152600101546001600160a01b031660608401528c8452600890915290912054600780549293508392909190811061393857634e487b7160e01b600052603260045260246000fd5b60009182526020808320845160029093020180548583015160408088015160ff16600160601b0260ff60601b196001600160501b0390931662010000026001600160601b031990941661ffff978816179390931791909116919091178255606090950151600190910180546001600160a01b039092166001600160a01b03199092169190911790558c83526008905282822054845190911682529190205560078054806139f557634e487b7160e01b600052603160045260246000fd5b6000828152602080822060026000199094019384020180546001600160681b03199081168255600191820180546001600160a01b0319908116909155949095558d8352600882526040808420849055600683528084208054909616865594018054909316909255600a9091529081208054849290613a74908490614593565b90915550506000898152600b6020526040812054601254613a989160ff1690614652565b9050806064613aa68c6134ad565b613ab09190614684565b1015613c0c576000613b46600160009054906101000a90046001600160a01b03166001600160a01b0316630bdb095e6040518163ffffffff1660e01b815260040160206040518083038186803b158015613b0957600080fd5b505afa158015613b1d573d6000803e3d6000fd5b505050506040513d601f19601f82011682018060405250810190613b419190614350565b6134ad565b90506000613b5382613de1565b9050600160009054906101000a90046001600160a01b03166001600160a01b031663b88d4fde30838f6040518463ffffffff1660e01b8152600401613b9a9392919061440c565b600060405180830381600087803b158015613bb457600080fd5b505af1158015613bc8573d6000803e3d6000fd5b505050507f6009b4228a9952cbf04a8ebbd80f931efb8053ad815f7fb937aa0812ac2433fc8c604051613bfd91815260200190565b60405180910390a15050613c71565b6001546001600160a01b031663b88d4fde30338d6040518463ffffffff1660e01b8152600401613c3e9392919061440c565b600060405180830381600087803b158015613c5857600080fd5b505af1158015613c6c573d6000803e3d6000fd5b505050505b600160186000828254613c849190614652565b909155505050600089815260066020526040902080546001600160681b031916815560010180546001600160a01b031916905550612b81565b613cd06064600e5488612798919061460a565b6064600e546064613ce19190614652565b613ceb908861460a565b613cf591906145d0565b955060405180608001604052808961ffff168152602001426001600160501b03168152602001866040015160ff168152602001613d2f3390565b6001600160a01b0390811690915260008a81526006602090815260409182902084518154868401518786015160ff16600160601b0260ff60601b196001600160501b0390921662010000026001600160601b031990931661ffff90941693909317919091171617815560609485015160019091018054919094166001600160a01b03199091161790925580518b8152918201899052891515908201526000805160206146fe8339815191529101612bad565b600080613ded83613e06565b90506001600160a01b038116610c1c57335b9392505050565b600060185460001415613e1b57506000919050565b60078054613e299084614684565b81548110613e4757634e487b7160e01b600052603260045260246000fd5b60009182526020909120600160029092020101546001600160a01b031692915050565b828054828255906000526020600020908101928215613eb7579160200282015b82811115613eb75782518051613ea7918491602090910190613ec7565b5091602001919060010190613e8a565b50613ec3929150613f0e565b5090565b828054828255906000526020600020908101928215613f02579160200282015b82811115613f02578251825591602001919060010190613ee7565b50613ec3929150613f2b565b80821115613ec3576000613f228282613f40565b50600101613f0e565b5b80821115613ec35760008155600101613f2c565b5080546000825590600052602060002090810190610d219190613f2b565b60008083601f840112613f6f578182fd5b50813567ffffffffffffffff811115613f86578182fd5b6020830191508360208260051b8501011115613fa157600080fd5b9250929050565b600082601f830112613fb8578081fd5b81356020613fcd613fc88361456f565b61453e565b80838252828201915082860187848660051b8901011115613fec578586fd5b855b8581101561400a57813584529284019290840190600101613fee565b5090979650505050505050565b803560ff8116811461402857600080fd5b919050565b60006020828403121561403e578081fd5b8135613dff816146da565b60006020828403121561405a578081fd5b8151613dff816146da565b60008060008060006080868803121561407c578081fd5b8535614087816146da565b94506020860135614097816146da565b935060408601359250606086013567ffffffffffffffff808211156140ba578283fd5b818801915088601f8301126140cd578283fd5b8135818111156140db578384fd5b8960208285010111156140ec578384fd5b9699959850939650602001949392505050565b600080600060608486031215614113578283fd5b833561411e816146da565b9250602084013567ffffffffffffffff811115614139578283fd5b61414586828701613fa8565b92505061415460408501614017565b90509250925092565b6000602080838503121561416f578182fd5b823567ffffffffffffffff80821115614186578384fd5b818501915085601f830112614199578384fd5b81356141a7613fc88261456f565b80828252858201915085850189878560051b88010111156141c6578788fd5b875b848110156141ff578135868111156141de57898afd5b6141ec8c8a838b0101613fa8565b85525092870192908701906001016141c8565b50909998505050505050505050565b600080600060408486031215614222578283fd5b833567ffffffffffffffff811115614238578384fd5b61424486828701613f5e565b9094509250506020840135614258816146ef565b809150509250925092565b60008060208385031215614275578182fd5b823567ffffffffffffffff81111561428b578283fd5b61429785828601613f5e565b90969095509350505050565b6000602082840312156142b4578081fd5b813567ffffffffffffffff8111156142ca578182fd5b6142d684828501613fa8565b949350505050565b6000602082840312156142ef578081fd5b8135613dff816146ef565b60006020828403121561430b578081fd5b8151613dff816146ef565b600060208284031215614327578081fd5b813561ffff81168114613dff578182fd5b600060208284031215614349578081fd5b5035919050565b600060208284031215614361578081fd5b5051919050565b6000806040838503121561437a578182fd5b82359150602083013561438c816146ef565b809150509250929050565b600080604083850312156143a9578182fd5b50508035926020909101359150565b6000602082840312156143c9578081fd5b613dff82614017565b6000815180845260208085019450808401835b83811015614401578151875295820195908201906001016143e5565b509495945050505050565b6001600160a01b039384168152919092166020820152604081019190915260806060820181905260009082015260a00190565b6000602080830181845280855180835260408601915060408160051b8701019250838701855b8281101561449357603f198886030184526144818583516143d2565b94509285019290850190600101614465565b5092979650505050505050565b602081526000613dff60208301846143d2565b6020808252601290820152715357495045522c204e4f2053574950494e4760701b604082015260600190565b60208082526010908201526f14185d5cd8589b194e881c185d5cd95960821b604082015260600190565b6020808252818101527f4f776e61626c653a2063616c6c6572206973206e6f7420746865206f776e6572604082015260600190565b604051601f8201601f1916810167ffffffffffffffff81118282101715614567576145676146c4565b604052919050565b600067ffffffffffffffff821115614589576145896146c4565b5060051b60200190565b600082198211156145a6576145a6614698565b500190565b600060ff821660ff84168060ff038211156145c8576145c8614698565b019392505050565b6000826145df576145df6146ae565b500490565b60006001600160501b03808416806145fe576145fe6146ae565b92169190910492915050565b600081600019048311821515161561462457614624614698565b500290565b600060ff821660ff84168160ff048111821515161561464a5761464a614698565b029392505050565b60008282101561466457614664614698565b500390565b600060001982141561467d5761467d614698565b5060010190565b600082614693576146936146ae565b500690565b634e487b7160e01b600052601160045260246000fd5b634e487b7160e01b600052601260045260246000fd5b634e487b7160e01b600052604160045260246000fd5b6001600160a01b0381168114610d2157600080fd5b8015158114610d2157600080fdfe793540b1cd54af1ddd03a0cc5273b7527b06876452a2b78b07b7784077d8820ea2646970667358221220f1ffcbcd518fdf788f7bef78824078d7a37285ecac18f3254e39c3d5dcf8a38a64736f6c63430008040033",
  "linkReferences": {},
  "deployedLinkReferences": {}
}