{
  "_format": "hh-sol-artifact-1",
  "contractName": "GameLogic",
  "sourceName": "contracts/GameLogic.sol",
  "abi": [
    {
      "inputs": [
        {
          "internalType": "address",
          "name": "_yeti",
          "type": "address"
        },
        {
          "internalType": "address",
          "name": "_frxst",
          "type": "address"
        },
        {
          "internalType": "address",
          "name": "_treasury",
          "type": "address"
        },
        {
          "internalType": "address",
          "name": "_rs",
          "type": "address"
        }
      ],
      "stateMutability": "nonpayable",
      "type": "constructor"
    },
    {
      "anonymous": false,
      "inputs": [
        {
          "indexed": false,
          "internalType": "uint256",
          "name": "tokenId",
          "type": "uint256"
        },
        {
          "indexed": false,
          "internalType": "address",
          "name": "healer",
          "type": "address"
        },
        {
          "indexed": false,
          "internalType": "uint256",
          "name": "cost",
          "type": "uint256"
        }
      ],
      "name": "Healing",
      "type": "event"
    },
    {
      "anonymous": false,
      "inputs": [
        {
          "indexed": false,
          "internalType": "uint256",
          "name": "tokenId",
          "type": "uint256"
        },
        {
          "indexed": false,
          "internalType": "uint80",
          "name": "injuredblock",
          "type": "uint80"
        }
      ],
      "name": "Injury",
      "type": "event"
    },
    {
      "anonymous": false,
      "inputs": [
        {
          "indexed": false,
          "internalType": "address",
          "name": "",
          "type": "address"
        },
        {
          "indexed": false,
          "internalType": "uint16",
          "name": "",
          "type": "uint16"
        },
        {
          "indexed": false,
          "internalType": "uint8",
          "name": "",
          "type": "uint8"
        }
      ],
      "name": "Log",
      "type": "event"
    },
    {
      "anonymous": false,
      "inputs": [
        {
          "indexed": true,
          "internalType": "address",
          "name": "previousOwner",
          "type": "address"
        },
        {
          "indexed": true,
          "internalType": "address",
          "name": "newOwner",
          "type": "address"
        }
      ],
      "name": "OwnershipTransferred",
      "type": "event"
    },
    {
      "anonymous": false,
      "inputs": [
        {
          "indexed": false,
          "internalType": "address",
          "name": "account",
          "type": "address"
        }
      ],
      "name": "Paused",
      "type": "event"
    },
    {
      "anonymous": false,
      "inputs": [
        {
          "indexed": false,
          "internalType": "uint256",
          "name": "tokenId",
          "type": "uint256"
        }
      ],
      "name": "Stolen",
      "type": "event"
    },
    {
      "anonymous": false,
      "inputs": [
        {
          "indexed": false,
          "internalType": "address",
          "name": "owner",
          "type": "address"
        },
        {
          "indexed": false,
          "internalType": "uint256",
          "name": "tokenId",
          "type": "uint256"
        },
        {
          "indexed": false,
          "internalType": "uint8",
          "name": "activityId",
          "type": "uint8"
        },
        {
          "indexed": false,
          "internalType": "uint256",
          "name": "value",
          "type": "uint256"
        }
      ],
      "name": "TokenStaked",
      "type": "event"
    },
    {
      "anonymous": false,
      "inputs": [
        {
          "indexed": false,
          "internalType": "address",
          "name": "account",
          "type": "address"
        }
      ],
      "name": "Unpaused",
      "type": "event"
    },
    {
      "anonymous": false,
      "inputs": [
        {
          "indexed": false,
          "internalType": "uint256",
          "name": "tokenId",
          "type": "uint256"
        },
        {
          "indexed": false,
          "internalType": "uint256",
          "name": "earned",
          "type": "uint256"
        },
        {
          "indexed": false,
          "internalType": "bool",
          "name": "unstaked",
          "type": "bool"
        }
      ],
      "name": "YetiClaimed",
      "type": "event"
    },
    {
      "inputs": [
        {
          "internalType": "uint256",
          "name": "tokenId",
          "type": "uint256"
        }
      ],
      "name": "ClaimSickYeti",
      "outputs": [],
      "stateMutability": "nonpayable",
      "type": "function"
    },
    {
      "inputs": [],
      "name": "FIGHTING_STOLEN_RISK_PERCENTAGE",
      "outputs": [
        {
          "internalType": "uint256",
          "name": "",
          "type": "uint256"
        }
      ],
      "stateMutability": "view",
      "type": "function"
    },
    {
      "inputs": [],
      "name": "GATHERING_FRXST_TAX_PERCENTAGE",
      "outputs": [
        {
          "internalType": "uint256",
          "name": "",
          "type": "uint256"
        }
      ],
      "stateMutability": "view",
      "type": "function"
    },
    {
      "inputs": [],
      "name": "GATHERING_TAX_RISK_PERCENTAGE",
      "outputs": [
        {
          "internalType": "uint256",
          "name": "",
          "type": "uint256"
        }
      ],
      "stateMutability": "view",
      "type": "function"
    },
    {
      "inputs": [],
      "name": "GENERAL_FRXST_TAX_PERCENTAGE",
      "outputs": [
        {
          "internalType": "uint256",
          "name": "",
          "type": "uint256"
        }
      ],
      "stateMutability": "view",
      "type": "function"
    },
    {
      "inputs": [],
      "name": "GetExpRates",
      "outputs": [
        {
          "internalType": "uint256[]",
          "name": "",
          "type": "uint256[]"
        }
      ],
      "stateMutability": "view",
      "type": "function"
    },
    {
      "inputs": [
        {
          "internalType": "uint256",
          "name": "tokenId",
          "type": "uint256"
        }
      ],
      "name": "GetExperience",
      "outputs": [
        {
          "internalType": "uint256",
          "name": "",
          "type": "uint256"
        }
      ],
      "stateMutability": "view",
      "type": "function"
    },
    {
      "inputs": [],
      "name": "GetFrxstRates",
      "outputs": [
        {
          "internalType": "uint256[][]",
          "name": "",
          "type": "uint256[][]"
        }
      ],
      "stateMutability": "view",
      "type": "function"
    },
    {
      "inputs": [],
      "name": "GetGatherTaxPercentage",
      "outputs": [
        {
          "internalType": "uint256",
          "name": "",
          "type": "uint256"
        }
      ],
      "stateMutability": "view",
      "type": "function"
    },
    {
      "inputs": [],
      "name": "GetGeneralTaxPercentage",
      "outputs": [
        {
          "internalType": "uint256",
          "name": "",
          "type": "uint256"
        }
      ],
      "stateMutability": "view",
      "type": "function"
    },
    {
      "inputs": [],
      "name": "GetHealingCost",
      "outputs": [
        {
          "internalType": "uint256",
          "name": "",
          "type": "uint256"
        }
      ],
      "stateMutability": "view",
      "type": "function"
    },
    {
      "inputs": [],
      "name": "GetInjuryRiskPercentage",
      "outputs": [
        {
          "internalType": "uint256",
          "name": "",
          "type": "uint256"
        }
      ],
      "stateMutability": "view",
      "type": "function"
    },
    {
      "inputs": [],
      "name": "GetInjuryTime",
      "outputs": [
        {
          "internalType": "uint256",
          "name": "",
          "type": "uint256"
        }
      ],
      "stateMutability": "view",
      "type": "function"
    },
    {
      "inputs": [
        {
          "internalType": "uint256",
          "name": "tokenId",
          "type": "uint256"
        }
      ],
      "name": "GetLevel",
      "outputs": [
        {
          "internalType": "uint8",
          "name": "",
          "type": "uint8"
        }
      ],
      "stateMutability": "view",
      "type": "function"
    },
    {
      "inputs": [
        {
          "internalType": "uint8",
          "name": "level",
          "type": "uint8"
        }
      ],
      "name": "GetLevelModifier",
      "outputs": [
        {
          "internalType": "uint256",
          "name": "",
          "type": "uint256"
        }
      ],
      "stateMutability": "pure",
      "type": "function"
    },
    {
      "inputs": [],
      "name": "GetLevelUpCostMultiplier",
      "outputs": [
        {
          "internalType": "uint256",
          "name": "",
          "type": "uint256"
        }
      ],
      "stateMutability": "view",
      "type": "function"
    },
    {
      "inputs": [],
      "name": "GetMinimumClaimTime",
      "outputs": [
        {
          "internalType": "uint256",
          "name": "",
          "type": "uint256"
        }
      ],
      "stateMutability": "view",
      "type": "function"
    },
    {
      "inputs": [],
      "name": "GetRescueEnabled",
      "outputs": [
        {
          "internalType": "bool",
          "name": "",
          "type": "bool"
        }
      ],
      "stateMutability": "view",
      "type": "function"
    },
    {
      "inputs": [],
      "name": "GetStealChance",
      "outputs": [
        {
          "internalType": "uint256",
          "name": "",
          "type": "uint256"
        }
      ],
      "stateMutability": "view",
      "type": "function"
    },
    {
      "inputs": [],
      "name": "GetTotalYetiStaked",
      "outputs": [
        {
          "internalType": "uint256",
          "name": "",
          "type": "uint256"
        }
      ],
      "stateMutability": "view",
      "type": "function"
    },
    {
      "inputs": [
        {
          "internalType": "uint256",
          "name": "tokenId",
          "type": "uint256"
        }
      ],
      "name": "GetYetiInHospital",
      "outputs": [
        {
          "components": [
            {
              "internalType": "uint16",
              "name": "tokenId",
              "type": "uint16"
            },
            {
              "internalType": "uint80",
              "name": "value",
              "type": "uint80"
            },
            {
              "internalType": "address",
              "name": "owner",
              "type": "address"
            }
          ],
          "internalType": "struct GameLogic.InjuryStake",
          "name": "",
          "type": "tuple"
        }
      ],
      "stateMutability": "view",
      "type": "function"
    },
    {
      "inputs": [
        {
          "internalType": "uint256",
          "name": "tokenId",
          "type": "uint256"
        }
      ],
      "name": "GetYetiInPalace",
      "outputs": [
        {
          "components": [
            {
              "internalType": "uint16",
              "name": "tokenId",
              "type": "uint16"
            },
            {
              "internalType": "uint80",
              "name": "value",
              "type": "uint80"
            },
            {
              "internalType": "uint8",
              "name": "activityId",
              "type": "uint8"
            },
            {
              "internalType": "address",
              "name": "owner",
              "type": "address"
            }
          ],
          "internalType": "struct GameLogic.Stake",
          "name": "",
          "type": "tuple"
        }
      ],
      "stateMutability": "view",
      "type": "function"
    },
    {
      "inputs": [
        {
          "internalType": "uint256",
          "name": "tokenId",
          "type": "uint256"
        }
      ],
      "name": "GetYetiOwner",
      "outputs": [
        {
          "internalType": "address",
          "name": "",
          "type": "address"
        }
      ],
      "stateMutability": "view",
      "type": "function"
    },
    {
      "inputs": [
        {
          "internalType": "uint256",
          "name": "tokenId",
          "type": "uint256"
        }
      ],
      "name": "GetYetiRarity",
      "outputs": [
        {
          "internalType": "uint256",
          "name": "",
          "type": "uint256"
        }
      ],
      "stateMutability": "view",
      "type": "function"
    },
    {
      "inputs": [],
      "name": "HEALING_COST",
      "outputs": [
        {
          "internalType": "uint256",
          "name": "",
          "type": "uint256"
        }
      ],
      "stateMutability": "view",
      "type": "function"
    },
    {
      "inputs": [],
      "name": "HUNTING_INJURY_RISK_PERCENTAGE",
      "outputs": [
        {
          "internalType": "uint256",
          "name": "",
          "type": "uint256"
        }
      ],
      "stateMutability": "view",
      "type": "function"
    },
    {
      "inputs": [
        {
          "internalType": "uint256",
          "name": "tokenId",
          "type": "uint256"
        }
      ],
      "name": "Heal",
      "outputs": [],
      "stateMutability": "nonpayable",
      "type": "function"
    },
    {
      "inputs": [],
      "name": "INJURY_TIME",
      "outputs": [
        {
          "internalType": "uint256",
          "name": "",
          "type": "uint256"
        }
      ],
      "stateMutability": "view",
      "type": "function"
    },
    {
      "inputs": [],
      "name": "LEVEL_UP_COST_MULTIPLIER",
      "outputs": [
        {
          "internalType": "uint256",
          "name": "",
          "type": "uint256"
        }
      ],
      "stateMutability": "view",
      "type": "function"
    },
    {
      "inputs": [],
      "name": "MINIMUM_TO_EXIT",
      "outputs": [
        {
          "internalType": "uint256",
          "name": "",
          "type": "uint256"
        }
      ],
      "stateMutability": "view",
      "type": "function"
    },
    {
      "inputs": [
        {
          "internalType": "uint256[]",
          "name": "_exprates",
          "type": "uint256[]"
        }
      ],
      "name": "SetExpRates",
      "outputs": [],
      "stateMutability": "nonpayable",
      "type": "function"
    },
    {
      "inputs": [
        {
          "internalType": "uint256",
          "name": "_stealrisk",
          "type": "uint256"
        }
      ],
      "name": "SetFightingStealPercentage",
      "outputs": [],
      "stateMutability": "nonpayable",
      "type": "function"
    },
    {
      "inputs": [
        {
          "internalType": "uint256[][]",
          "name": "_rates",
          "type": "uint256[][]"
        }
      ],
      "name": "SetFrxstRates",
      "outputs": [],
      "stateMutability": "nonpayable",
      "type": "function"
    },
    {
      "inputs": [
        {
          "internalType": "uint256",
          "name": "_tax",
          "type": "uint256"
        }
      ],
      "name": "SetGatherTaxPercentage",
      "outputs": [],
      "stateMutability": "nonpayable",
      "type": "function"
    },
    {
      "inputs": [
        {
          "internalType": "uint256",
          "name": "_tax",
          "type": "uint256"
        }
      ],
      "name": "SetGeneralTaxPercentage",
      "outputs": [],
      "stateMutability": "nonpayable",
      "type": "function"
    },
    {
      "inputs": [
        {
          "internalType": "uint256",
          "name": "_healingcost",
          "type": "uint256"
        }
      ],
      "name": "SetHealingCost",
      "outputs": [],
      "stateMutability": "nonpayable",
      "type": "function"
    },
    {
      "inputs": [
        {
          "internalType": "uint256",
          "name": "_injuryrisk",
          "type": "uint256"
        }
      ],
      "name": "SetHuntingInjuryPercentage",
      "outputs": [],
      "stateMutability": "nonpayable",
      "type": "function"
    },
    {
      "inputs": [
        {
          "internalType": "uint256",
          "name": "_seconds",
          "type": "uint256"
        }
      ],
      "name": "SetInjuryTime",
      "outputs": [],
      "stateMutability": "nonpayable",
      "type": "function"
    },
    {
      "inputs": [
        {
          "internalType": "uint256",
          "name": "_multiplier",
          "type": "uint256"
        }
      ],
      "name": "SetLevelUpCostMultiplier",
      "outputs": [],
      "stateMutability": "nonpayable",
      "type": "function"
    },
    {
      "inputs": [
        {
          "internalType": "uint256",
          "name": "_seconds",
          "type": "uint256"
        }
      ],
      "name": "SetMinimumClaimTime",
      "outputs": [],
      "stateMutability": "nonpayable",
      "type": "function"
    },
    {
      "inputs": [
        {
          "internalType": "bool",
          "name": "_rescue",
          "type": "bool"
        }
      ],
      "name": "SetRescueEnabled",
      "outputs": [],
      "stateMutability": "nonpayable",
      "type": "function"
    },
    {
      "inputs": [
        {
          "internalType": "uint256",
          "name": "tokenId",
          "type": "uint256"
        },
        {
          "internalType": "bool",
          "name": "unstake",
          "type": "bool"
        }
      ],
      "name": "_claimYetiFromPalace",
      "outputs": [
        {
          "internalType": "uint256",
          "name": "owedFrxst",
          "type": "uint256"
        }
      ],
      "stateMutability": "nonpayable",
      "type": "function"
    },
    {
      "inputs": [
        {
          "internalType": "address",
          "name": "account",
          "type": "address"
        },
        {
          "internalType": "uint256[]",
          "name": "tokenIds",
          "type": "uint256[]"
        },
        {
          "internalType": "uint8",
          "name": "activityId",
          "type": "uint8"
        }
      ],
      "name": "addManyToPalace",
      "outputs": [],
      "stateMutability": "nonpayable",
      "type": "function"
    },
    {
      "inputs": [
        {
          "internalType": "uint16[]",
          "name": "tokenIds",
          "type": "uint16[]"
        },
        {
          "internalType": "bool",
          "name": "unstake",
          "type": "bool"
        }
      ],
      "name": "claimMany",
      "outputs": [],
      "stateMutability": "nonpayable",
      "type": "function"
    },
    {
      "inputs": [
        {
          "internalType": "uint256",
          "name": "",
          "type": "uint256"
        }
      ],
      "name": "experience",
      "outputs": [
        {
          "internalType": "uint256",
          "name": "",
          "type": "uint256"
        }
      ],
      "stateMutability": "view",
      "type": "function"
    },
    {
      "inputs": [
        {
          "internalType": "uint256",
          "name": "",
          "type": "uint256"
        }
      ],
      "name": "exprates",
      "outputs": [
        {
          "internalType": "uint256",
          "name": "",
          "type": "uint256"
        }
      ],
      "stateMutability": "view",
      "type": "function"
    },
    {
      "inputs": [
        {
          "internalType": "uint256",
          "name": "",
          "type": "uint256"
        }
      ],
      "name": "fighterArray",
      "outputs": [
        {
          "internalType": "uint16",
          "name": "tokenId",
          "type": "uint16"
        },
        {
          "internalType": "uint80",
          "name": "value",
          "type": "uint80"
        },
        {
          "internalType": "uint8",
          "name": "activityId",
          "type": "uint8"
        },
        {
          "internalType": "address",
          "name": "owner",
          "type": "address"
        }
      ],
      "stateMutability": "view",
      "type": "function"
    },
    {
      "inputs": [
        {
          "internalType": "uint256",
          "name": "",
          "type": "uint256"
        }
      ],
      "name": "fighterIndices",
      "outputs": [
        {
          "internalType": "uint256",
          "name": "",
          "type": "uint256"
        }
      ],
      "stateMutability": "view",
      "type": "function"
    },
    {
      "inputs": [
        {
          "internalType": "uint256",
          "name": "",
          "type": "uint256"
        }
      ],
      "name": "fighters",
      "outputs": [
        {
          "internalType": "uint16",
          "name": "tokenId",
          "type": "uint16"
        },
        {
          "internalType": "uint80",
          "name": "value",
          "type": "uint80"
        },
        {
          "internalType": "uint8",
          "name": "activityId",
          "type": "uint8"
        },
        {
          "internalType": "address",
          "name": "owner",
          "type": "address"
        }
      ],
      "stateMutability": "view",
      "type": "function"
    },
    {
      "inputs": [],
      "name": "frxst",
      "outputs": [
        {
          "internalType": "contract FRXST",
          "name": "",
          "type": "address"
        }
      ],
      "stateMutability": "view",
      "type": "function"
    },
    {
      "inputs": [
        {
          "internalType": "uint256",
          "name": "",
          "type": "uint256"
        }
      ],
      "name": "hospital",
      "outputs": [
        {
          "internalType": "uint16",
          "name": "tokenId",
          "type": "uint16"
        },
        {
          "internalType": "uint80",
          "name": "value",
          "type": "uint80"
        },
        {
          "internalType": "address",
          "name": "owner",
          "type": "address"
        }
      ],
      "stateMutability": "view",
      "type": "function"
    },
    {
      "inputs": [
        {
          "internalType": "uint256",
          "name": "",
          "type": "uint256"
        }
      ],
      "name": "levels",
      "outputs": [
        {
          "internalType": "uint8",
          "name": "",
          "type": "uint8"
        }
      ],
      "stateMutability": "view",
      "type": "function"
    },
    {
      "inputs": [
        {
          "internalType": "uint256",
          "name": "tokenId",
          "type": "uint256"
        }
      ],
      "name": "levelup",
      "outputs": [],
      "stateMutability": "nonpayable",
      "type": "function"
    },
    {
      "inputs": [
        {
          "internalType": "address",
          "name": "",
          "type": "address"
        },
        {
          "internalType": "address",
          "name": "from",
          "type": "address"
        },
        {
          "internalType": "uint256",
          "name": "",
          "type": "uint256"
        },
        {
          "internalType": "bytes",
          "name": "",
          "type": "bytes"
        }
      ],
      "name": "onERC721Received",
      "outputs": [
        {
          "internalType": "bytes4",
          "name": "",
          "type": "bytes4"
        }
      ],
      "stateMutability": "pure",
      "type": "function"
    },
    {
      "inputs": [],
      "name": "owner",
      "outputs": [
        {
          "internalType": "address",
          "name": "",
          "type": "address"
        }
      ],
      "stateMutability": "view",
      "type": "function"
    },
    {
      "inputs": [
        {
          "internalType": "uint256",
          "name": "",
          "type": "uint256"
        }
      ],
      "name": "palace",
      "outputs": [
        {
          "internalType": "uint16",
          "name": "tokenId",
          "type": "uint16"
        },
        {
          "internalType": "uint80",
          "name": "value",
          "type": "uint80"
        },
        {
          "internalType": "uint8",
          "name": "activityId",
          "type": "uint8"
        },
        {
          "internalType": "address",
          "name": "owner",
          "type": "address"
        }
      ],
      "stateMutability": "view",
      "type": "function"
    },
    {
      "inputs": [],
      "name": "paused",
      "outputs": [
        {
          "internalType": "bool",
          "name": "",
          "type": "bool"
        }
      ],
      "stateMutability": "view",
      "type": "function"
    },
    {
      "inputs": [
        {
          "internalType": "uint256",
          "name": "",
          "type": "uint256"
        },
        {
          "internalType": "uint256",
          "name": "",
          "type": "uint256"
        }
      ],
      "name": "rates",
      "outputs": [
        {
          "internalType": "uint256",
          "name": "",
          "type": "uint256"
        }
      ],
      "stateMutability": "view",
      "type": "function"
    },
    {
      "inputs": [],
      "name": "renounceOwnership",
      "outputs": [],
      "stateMutability": "nonpayable",
      "type": "function"
    },
    {
      "inputs": [
        {
          "internalType": "uint256[]",
          "name": "tokenIds",
          "type": "uint256[]"
        }
      ],
      "name": "rescue",
      "outputs": [],
      "stateMutability": "nonpayable",
      "type": "function"
    },
    {
      "inputs": [],
      "name": "rescueEnabled",
      "outputs": [
        {
          "internalType": "bool",
          "name": "",
          "type": "bool"
        }
      ],
      "stateMutability": "view",
      "type": "function"
    },
    {
      "inputs": [],
      "name": "rs",
      "outputs": [
        {
          "internalType": "contract RarityStorage",
          "name": "",
          "type": "address"
        }
      ],
      "stateMutability": "view",
      "type": "function"
    },
    {
      "inputs": [
        {
          "internalType": "bool",
          "name": "_paused",
          "type": "bool"
        }
      ],
      "name": "setPaused",
      "outputs": [],
      "stateMutability": "nonpayable",
      "type": "function"
    },
    {
      "inputs": [],
      "name": "totalFrxstEarned",
      "outputs": [
        {
          "internalType": "uint256",
          "name": "",
          "type": "uint256"
        }
      ],
      "stateMutability": "view",
      "type": "function"
    },
    {
      "inputs": [],
      "name": "totalYetiStakedFighting",
      "outputs": [
        {
          "internalType": "uint256",
          "name": "",
          "type": "uint256"
        }
      ],
      "stateMutability": "view",
      "type": "function"
    },
    {
      "inputs": [],
      "name": "totalYetiStakedGathering",
      "outputs": [
        {
          "internalType": "uint256",
          "name": "",
          "type": "uint256"
        }
      ],
      "stateMutability": "view",
      "type": "function"
    },
    {
      "inputs": [],
      "name": "totalYetiStakedHunting",
      "outputs": [
        {
          "internalType": "uint256",
          "name": "",
          "type": "uint256"
        }
      ],
      "stateMutability": "view",
      "type": "function"
    },
    {
      "inputs": [
        {
          "internalType": "address",
          "name": "newOwner",
          "type": "address"
        }
      ],
      "name": "transferOwnership",
      "outputs": [],
      "stateMutability": "nonpayable",
      "type": "function"
    },
    {
      "inputs": [],
      "name": "yeti",
      "outputs": [
        {
          "internalType": "contract YetiTown",
          "name": "",
          "type": "address"
        }
      ],
      "stateMutability": "view",
      "type": "function"
    }
  ],
  "bytecode": "0x603c600c819055600d8190556014600e8190556032600f81905560108190556011819055600a601255681b1ae4d6e2ef500000601355606491829055600060155560e09283526101005260286101205260809182526046610140908152605a6101605260506101805260a0526102006040526101a090815260786101c052608c6101e05260c05262000096906019906003620001c3565b506040805160608101825260028152600360208201819052600692820192909252620000c691601a919062000221565b50601b805460ff19169055348015620000de57600080fd5b5060405162004828380380620048288339810160408190526200010191620002ea565b6000805460ff1916905562000116336200016a565b600180546001600160a01b039586166001600160a01b031991821617909155600280549486169482169490941790935560048054928516928416929092179091556003805491909316911617905562000347565b600080546001600160a01b03838116610100818102610100600160a81b0319851617855560405193049190911692909183917f8be0079c531659141344cd1fd0a4f28419497f9722a3daafe3b4186f6b6457e091a35050565b8280548282559060005260206000209081019282156200020f579160200282015b828111156200020f578251620001fe908390600362000221565b5091602001919060010190620001e4565b506200021d92915062000272565b5090565b82805482825590600052602060002090810192821562000264579160200282015b8281111562000264578251829060ff1690559160200191906001019062000242565b506200021d92915062000293565b808211156200021d576000620002898282620002aa565b5060010162000272565b5b808211156200021d576000815560010162000294565b5080546000825590600052602060002090810190620002ca919062000293565b50565b80516001600160a01b0381168114620002e557600080fd5b919050565b600080600080608085870312156200030157600080fd5b6200030c85620002cd565b93506200031c60208601620002cd565b92506200032c60408601620002cd565b91506200033c60608601620002cd565b905092959194509250565b6144d180620003576000396000f3fe608060405234801561001057600080fd5b50600436106103865760003560e01c80636cb80c6f116101e0578063a841441411610110578063c055d8ad116100a8578063c055d8ad1461092e578063c0765e2e14610941578063ce0dcbc414610954578063d3e971651461095d578063d60d6e041461097d578063dca06da714610990578063dcd4648b14610a07578063e68d929c14610a1a578063f2fde38b14610a2257600080fd5b8063a8414414146104d4578063a8ee50d114610884578063acb6be2d1461088c578063b0d6d0081461089f578063b0eed65f146108a7578063b2596a67146108dc578063b51e49f0146108ff578063b5b4145214610912578063b9dc92b21461091b57600080fd5b80638da5cb5b116101835780638da5cb5b1461080b578063917d698214610813578063940d7227146108265780639ac9433f1461082f578063a07b38c714610842578063a1b610c51461084a578063a4296b9b1461085f578063a5a2e76914610868578063a7a102901461087157600080fd5b80636cb80c6f14610793578063715018a6146107a657806372af7e5f146107ae57806378c73739146107c157806380246d15146107d45780638175e4a3146107dc57806384265172146107ef57806389fabe5b1461080257600080fd5b80633977d774116102bb57806350d414811161025e57806350d41481146106b8578063518092f2146106c157806356aaf257146106d457806359b31abf146106e75780635c0d7398146106fa5780635c975abb146107035780635ce320831461070e5780636146d0de146107215780636a3ef0571461078057600080fd5b80633977d774146105ec57806339db714f146105f55780634015d6c71461060257806341626a711461060b5780634668b75914610620578063478dc7cb14610633578063480057241461068557806349da5d671461069857600080fd5b80631e5c5fa41161032e5780631e5c5fa4146104dc57806320013a7a146104fc5780632cd41e6f1461050f5780632d4030a6146105185780632e6b221d1461052f57806332d7c052146105bf578063343e613a146105c757806337a386b9146105da57806338ba7d8b146105e357600080fd5b806285a92f1461038b5780630bcbefbd146103a2578063107ebaa51461044d5780631165f7c61461046257806313c53d4014610482578063150b7a021461049557806316c38b3c146104c1578063191d1a10146104d4575b600080fd5b600c545b6040519081526020015b60405180910390f35b6104156103b0366004614031565b6040805160608082018352600080835260208084018290529284018190529384526009825292829020825193840183525461ffff811684526201000081046001600160501b031691840191909152600160601b90046001600160a01b03169082015290565b60408051825161ffff1681526020808401516001600160501b031690820152918101516001600160a01b031690820152606001610399565b61046061045b366004614031565b610a35565b005b610475610470366004614031565b610a72565b604051610399919061410b565b610460610490366004614031565b610af5565b6104a86104a3366004613d4c565b610b3c565b6040516001600160e01b03199091168152602001610399565b6104606104cf366004613fd3565b610bb5565b60145461038f565b61038f6104ea366004614031565b60086020526000908152604090205481565b61038f61050a366004614031565b610bfd565b61038f60105481565b601b5460ff165b6040519015158152602001610399565b61058161053d366004614031565b6006602052600090815260409020805460019091015461ffff8216916201000081046001600160501b031691600160601b90910460ff16906001600160a01b031684565b6040805161ffff90951685526001600160501b03909316602085015260ff909116918301919091526001600160a01b03166060820152608001610399565b60125461038f565b600154610475906001600160a01b031681565b61038f600c5481565b61038f60145481565b61038f60115481565b601b5461051f9060ff1681565b61038f60135481565b610613610c1e565b604051610399919061421a565b61046061062e366004614031565b610c76565b610581610641366004614031565b6005602052600090815260409020805460019091015461ffff8216916201000081046001600160501b031691600160601b90910460ff16906001600160a01b031684565b600254610475906001600160a01b031681565b61038f6106a6366004614031565b6000908152600a602052604090205490565b61038f60185481565b6104606106cf366004614031565b610c81565b6104606106e2366004613e49565b610cb5565b61038f6106f5366004614093565b610cfb565b61038f60165481565b60005460ff1661051f565b61046061071c366004614031565b610d38565b61073461072f366004614031565b610d6c565b6040516103999190815161ffff1681526020808301516001600160501b03169082015260408083015160ff16908201526060918201516001600160a01b03169181019190915260800190565b61046061078e366004613f56565b610dd7565b6104606107a1366004614031565b611308565b6104606116af565b600354610475906001600160a01b031681565b6104606107cf366004614031565b6116ea565b600e5461038f565b6104606107ea366004614031565b61171e565b6104606107fd366004614031565b611752565b61038f60155481565b610475611786565b610460610821366004614031565b61179a565b61038f60175481565b61046061083d366004613f97565b6118e8565b60115461038f565b61085261192a565b60405161039991906141b8565b61038f60125481565b61038f600e5481565b61046061087f366004613f00565b6119c3565b600d5461038f565b61046061089a366004613dea565b611c06565b61038f61216a565b6108ca6108b5366004614031565b6000908152600b602052604090205460ff1690565b60405160ff9091168152602001610399565b6108ca6108ea366004614031565b600b6020526000908152604090205460ff1681565b61038f61090d366004614063565b61218e565b61038f600f5481565b610581610929366004614031565b61290f565b61046061093c366004614031565b612965565b61038f61094f366004614031565b612999565b61038f600d5481565b61038f61096b366004614031565b600a6020526000908152604090205481565b61046061098b366004613fd3565b612a16565b6109d661099e366004614031565b60096020526000908152604090205461ffff8116906201000081046001600160501b031690600160601b90046001600160a01b031683565b6040805161ffff90941684526001600160501b0390921660208401526001600160a01b031690820152606001610399565b61038f610a153660046140b5565b612a58565b600f5461038f565b610460610a30366004613d12565b612a6e565b33610a3e611786565b6001600160a01b031614610a6d5760405162461bcd60e51b8152600401610a6490614283565b60405180910390fd5b600d55565b6001546040516331a9108f60e11b8152600481018390526000916001600160a01b031690636352211e9060240160206040518083038186803b158015610ab757600080fd5b505afa158015610acb573d6000803e3d6000fd5b505050506040513d601f19601f82011682018060405250810190610aef9190613d2f565b92915050565b33610afe611786565b6001600160a01b031614610b245760405162461bcd60e51b8152600401610a6490614283565b610b3681670de0b6b3a764000061435c565b60145550565b60006001600160a01b03851615610ba35760405162461bcd60e51b815260206004820152602560248201527f43616e6e6f742073656e6420746f6b656e7320746f2050616c616365206469726044820152646563746c7960d81b6064820152608401610a64565b50630a85bd0160e11b95945050505050565b33610bbe611786565b6001600160a01b031614610be45760405162461bcd60e51b8152600401610a6490614283565b8015610bf557610bf2612b0b565b50565b610bf2612b7a565b601a8181548110610c0d57600080fd5b600091825260209091200154905081565b6060601a805480602002602001604051908101604052809291908181526020018280548015610c6c57602002820191906000526020600020905b815481526020019060010190808311610c58575b5050505050905090565b610bf2816000612bf4565b33610c8a611786565b6001600160a01b031614610cb05760405162461bcd60e51b8152600401610a6490614283565b601255565b33610cbe611786565b6001600160a01b031614610ce45760405162461bcd60e51b8152600401610a6490614283565b8051610cf7906019906020840190613b24565b5050565b60198281548110610d0b57600080fd5b906000526020600020018181548110610d2357600080fd5b90600052602060002001600091509150505481565b33610d41611786565b6001600160a01b031614610d675760405162461bcd60e51b8152600401610a6490614283565b600c55565b610d74613b81565b506000908152600560209081526040918290208251608081018452815461ffff811682526201000081046001600160501b031693820193909352600160601b90920460ff16928201929092526001909101546001600160a01b0316606082015290565b601b5460ff16610e1b5760405162461bcd60e51b815260206004820152600f60248201526e149154d0d55148111254d050931151608a1b6044820152606401610a64565b6000610e25613b81565b610e2d613b81565b60005b8481101561130057858582818110610e4a57610e4a61442c565b60209081029290920135600081815260069093526040909220549195505061ffff168414611001576000848152600560209081526040918290208251608081018452815461ffff811682526201000081046001600160501b031693820193909352600160601b90920460ff16928201929092526001909101546001600160a01b0316606082018190529093503314610ef45760405162461bcd60e51b8152600401610a649061422d565b6001546001600160a01b031663b88d4fde3033876040518463ffffffff1660e01b8152600401610f2693929190614143565b600060405180830381600087803b158015610f4057600080fd5b505af1158015610f54573d6000803e3d6000fd5b5050506000858152600560205260409081902080546001600160681b0319168155600190810180546001600160a01b03191690559085015160ff1614159050610fb557600160166000828254610faa91906143a4565b90915550610fce9050565b600160176000828254610fc891906143a4565b90915550505b6040805185815260006020820152600181830152905160008051602061447c8339815191529181900360600190a16112ee565b6000848152600860205260409020546007805490919081106110255761102561442c565b600091825260209182902060408051608081018252600293909302909101805461ffff811684526201000081046001600160501b031694840194909452600160601b90930460ff16908201526001909101546001600160a01b03166060820181905290935033146110a85760405162461bcd60e51b8152600401610a649061422d565b6001546001600160a01b031663b88d4fde3033876040518463ffffffff1660e01b81526004016110da93929190614143565b600060405180830381600087803b1580156110f457600080fd5b505af1158015611108573d6000803e3d6000fd5b50506007805490925061111e91506001906143a4565b8154811061112e5761112e61442c565b6000918252602080832060408051608081018252600294909402909101805461ffff811685526201000081046001600160501b031693850193909352600160601b90920460ff16908301526001908101546001600160a01b0316606083015260188054929550909290916111a39084906143a4565b90915550506000848152600860208181526040808420805485526006835281852087518154858a0151858b015160ff16600160601b0260ff60601b196001600160501b0390921662010000026001600160601b031990931661ffff9485161792909217161782556060890151600190920180546001600160a01b039093166001600160a01b0319909316929092179091558986529390925290548551909216835290912055600780548061125957611259614416565b600082815260208082206002600019949094019384020180546001600160681b03199081168255600191820180546001600160a01b031990811690915594909555888352600882526040808420849055600683528084208054909616865594810180549094169093558351888152908101919091529182015260008051602061447c8339815191529060600160405180910390a15b806112f8816143bb565b915050610e30565b505050505050565b60005460ff161561132b5760405162461bcd60e51b8152600401610a6490614259565b60008181526006602052604090205461ffff1681141561138d5760405162461bcd60e51b815260206004820152601d60248201527f43616e2774206c6576656c207570207768696c65206669676874696e670000006044820152606401610a64565b60008181526005602052604090205461ffff168114156113ef5760405162461bcd60e51b815260206004820152601b60248201527f43616e2774206c6576656c207570207768696c65207374616b656400000000006044820152606401610a64565b60008181526009602052604090205461ffff168114156114515760405162461bcd60e51b815260206004820152601c60248201527f43616e2774206c6576656c207570207768696c6520696e6a75726564000000006044820152606401610a64565b6000818152600b602052604090205461146c9060ff16612d43565b6000828152600a60205260409020541161148557600080fd5b6000818152600b602052604090205460ff16158015906114b857506000818152600b6020526040902054600a60ff909116105b6114c157600080fd5b6014546000828152600b60205260409020546114df9060ff16612d43565b6114e9919061435c565b6002546040516370a0823160e01b81526001600160a01b03909116906370a082319061151990339060040161410b565b60206040518083038186803b15801561153157600080fd5b505afa158015611545573d6000803e3d6000fd5b505050506040513d601f19601f82011682018060405250810190611569919061404a565b116115ab5760405162461bcd60e51b8152602060048201526012602482015271125b9cdd59999a58da595b9d0811949614d560721b6044820152606401610a64565b6002546001600160a01b0316639dc29fac336014546000858152600b60205260409020546115db9060ff16612d43565b6115e5919061435c565b6040518363ffffffff1660e01b8152600401611602929190614176565b600060405180830381600087803b15801561161c57600080fd5b505af1158015611630573d6000803e3d6000fd5b5050506000828152600b602052604090205461164f915060ff16612d43565b6000828152600a60205260408120805490919061166d9084906143a4565b90915550506000818152600b6020526040812080546001929061169490849060ff16614323565b92506101000a81548160ff021916908360ff16021790555050565b336116b8611786565b6001600160a01b0316146116de5760405162461bcd60e51b8152600401610a6490614283565b6116e86000612d5a565b565b336116f3611786565b6001600160a01b0316146117195760405162461bcd60e51b8152600401610a6490614283565b601155565b33611727611786565b6001600160a01b03161461174d5760405162461bcd60e51b8152600401610a6490614283565b601455565b3361175b611786565b6001600160a01b0316146117815760405162461bcd60e51b8152600401610a6490614283565b600e55565b60005461010090046001600160a01b031690565b600d5460008281526009602052604090205442916117c6916201000090046001600160501b031661430b565b116118095760405162461bcd60e51b81526020600482015260136024820152721653d548105491481393d50812539295549151606a1b6044820152606401610a64565b600254600480546013546040516323b872dd60e01b81526001600160a01b03948516946323b872dd946118419433949216920161411f565b602060405180830381600087803b15801561185b57600080fd5b505af115801561186f573d6000803e3d6000fd5b505050506040513d601f19601f820116820180604052508101906118939190613ff0565b15610bf2576118a3816001612bf4565b6013546040805183815233602082015280820192909252517f73c2e0bab400670f07cad02b2a28bdb7570cc41a53df183c79ef6c29faf4ad279181900360600190a150565b336118f1611786565b6001600160a01b0316146119175760405162461bcd60e51b8152600401610a6490614283565b8051610cf790601a906020840190613ba8565b60606019805480602002602001604051908101604052809291908181526020016000905b828210156119ba576000848152602090819020830180546040805182850281018501909152818152928301828280156119a657602002820191906000526020600020905b815481526020019060010190808311611992575b50505050508152602001906001019061194e565b50505050905090565b60005460ff16156119e65760405162461bcd60e51b8152600401610a6490614259565b6000805b83811015611b9257848482818110611a0457611a0461442c565b9050602002016020810190611a19919061400d565b61ffff1660066000878785818110611a3357611a3361442c565b9050602002016020810190611a48919061400d565b61ffff9081168252602082019290925260400160002054161480611ad75750848482818110611a7957611a7961442c565b9050602002016020810190611a8e919061400d565b61ffff1660056000878785818110611aa857611aa861442c565b9050602002016020810190611abd919061400d565b61ffff908116825260208201929092526040016000205416145b611b405760405162461bcd60e51b815260206004820152603460248201527f59657469206973206e6f74207374616b656420616e642063616e2074686572656044820152733337b932903737ba1031329031b630b4b6b2b21760611b6064820152608401610a64565b611b74858583818110611b5557611b5561442c565b9050602002016020810190611b6a919061400d565b61ffff1684612db3565b611b7e908361430b565b915080611b8a816143bb565b9150506119ea565b5080611b9e5750505050565b6002546001600160a01b03166340c10f1933836040518363ffffffff1660e01b8152600401611bce929190614176565b600060405180830381600087803b158015611be857600080fd5b505af1158015611bfc573d6000803e3d6000fd5b5050505050505050565b6001600160a01b038316331480611c3057506001546001600160a01b0316336001600160a01b0316145b611c7c5760405162461bcd60e51b815260206004820152601a60248201527f444f4e54204749564520594f555220544f4b454e5320415741590000000000006044820152606401610a64565b60005b825181101561216457828181518110611c9a57611c9a61442c565b602002602001015160066000858481518110611cb857611cb861442c565b60209081029190910181015182528101919091526040016000205461ffff161415611d3e5760405162461bcd60e51b815260206004820152603060248201527f526576657274696e672c20747279696e6720746f207374616b6520616c72656160448201526f6479206669676874696e67207965746960801b6064820152608401610a64565b828181518110611d5057611d5061442c565b602002602001015160056000858481518110611d6e57611d6e61442c565b60209081029190910181015182528101919091526040016000205461ffff161415611df25760405162461bcd60e51b815260206004820152602e60248201527f526576657274696e672c20747279696e6720746f207374616b6520616c72656160448201526d6479207374616b6564207965746960901b6064820152608401610a64565b828181518110611e0457611e0461442c565b602002602001015160096000858481518110611e2257611e2261442c565b60209081029190910181015182528101919091526040016000205461ffff161415611e9f5760405162461bcd60e51b815260206004820152602760248201527f526576657274696e672c20747279696e6720746f207374616b6520696e6a75726044820152666564207965746960c81b6064820152608401610a64565b6001546001600160a01b0316336001600160a01b03161461202157600154835133916001600160a01b031690636352211e90869085908110611ee357611ee361442c565b60200260200101516040518263ffffffff1660e01b8152600401611f0991815260200190565b60206040518083038186803b158015611f2157600080fd5b505afa158015611f35573d6000803e3d6000fd5b505050506040513d601f19601f82011682018060405250810190611f599190613d2f565b6001600160a01b031614611f9f5760405162461bcd60e51b815260206004820152600d60248201526c20a4a72a102ca7902a27a5a2a760991b6044820152606401610a64565b6001546001600160a01b03166323b872dd3330868581518110611fc457611fc461442c565b60200260200101516040518463ffffffff1660e01b8152600401611fea9392919061411f565b600060405180830381600087803b15801561200457600080fd5b505af1158015612018573d6000803e3d6000fd5b50505050612048565b8281815181106120335761203361442c565b60200260200101516000141561204857612152565b600b600084838151811061205e5761205e61442c565b60209081029190910181015182528101919091526040016000205460ff166120f9576001600b60008584815181106120985761209861442c565b6020026020010151815260200190815260200160002060006101000a81548160ff021916908360ff1602179055506000600a60008584815181106120de576120de61442c565b60200260200101518152602001908152602001600020819055505b8160ff166002141561212e576121298484838151811061211b5761211b61442c565b602002602001015184612de7565b612152565b612152848483815181106121445761214461442c565b60200260200101518461306f565b8061215c816143bb565b915050611c7f565b50505050565b600060185460175460165461217f919061430b565b612189919061430b565b905090565b60008281526005602090815260408083208151608081018352815461ffff811682526201000081046001600160501b031694820194909452600160601b90930460ff1691830191909152600101546001600160a01b031660608201819052331461220a5760405162461bcd60e51b8152600401610a649061422d565b82801561222f5750600c54602082015161222d906001600160501b0316426143a4565b105b1561228b5760405162461bcd60e51b815260206004820152602660248201527f4e6565642074776f2064617973206f66204672787374206265666f726520636c60448201526561696d696e6760d01b6064820152608401610a64565b60035460405163321a85ad60e21b8152600481018690526000916001600160a01b03169063c86a16b49060240160206040518083038186803b1580156122d057600080fd5b505afa1580156122e4573d6000803e3d6000fd5b505050506040513d601f19601f82011682018060405250810190612308919061404a565b90506000826040015160ff1660011415612391576000868152600b60205260409081902054908401516019805460ff93841693919290911690811061234f5761234f61442c565b90600052602060002001838154811061236a5761236a61442c565b906000526020600020015461237f919061435c565b61238a9060c861435c565b9050612402565b6000868152600b60205260409081902054908401516019805460ff9384169391929091169081106123c4576123c461442c565b9060005260206000200183815481106123df576123df61442c565b90600052602060002001546123f4919061435c565b6123ff90606461435c565b90505b60006201518084602001516001600160501b03164261242191906143a4565b61242b9190614348565b90506064612439828461435c565b6124439190614348565b94506000601a856040015160ff16815481106124615761246161442c565b906000526020600020015482612477919061435c565b905086156127ce57604085015160ff166125c35760105460646124998a6131cc565b6124a391906143d6565b101561251a576000888152600b60205260408120546124c69060ff16600561437b565b60ff16600f546124d691906143a4565b90506124f660646124e7838a61435c565b6124f19190614348565b613226565b606461250282826143a4565b61250c908961435c565b6125169190614348565b9650505b6001546001600160a01b031663b88d4fde30338b6040518463ffffffff1660e01b815260040161254c93929190614143565b600060405180830381600087803b15801561256657600080fd5b505af115801561257a573d6000803e3d6000fd5b5050506000898152600a60205260408120805484935090919061259e90849061430b565b925050819055506001601660008282546125b891906143a4565b9091555061279c9050565b846040015160ff166001141561279c576000888152600b60205260408120546125f09060ff16600561437b565b60ff1660115461260091906143a4565b905080606461260e8b6131cc565b61261891906143d6565b10156126f85760405180606001604052808a61ffff168152602001426001600160501b031681526020016126493390565b6001600160a01b0390811690915260008b81526009602090815260409182902084518154868401519685015161ffff9092166001600160601b031990911617620100006001600160501b0397881602176bffffffffffffffffffffffff16600160601b91909516029390931790925580518c815242909316918301919091527f79e9c89b27777596a7f5d2692dfac3988b9297a96fa573f7ef11c7454499850a910160405180910390a1612782565b6001546001600160a01b031663b88d4fde30338c6040518463ffffffff1660e01b815260040161272a93929190614143565b600060405180830381600087803b15801561274457600080fd5b505af1158015612758573d6000803e3d6000fd5b50505060008a8152600a60205260408120805485935090919061277c90849061430b565b90915550505b60016017600082825461279591906143a4565b9091555050505b600088815260056020526040902080546001600160681b031916815560010180546001600160a01b03191690556128d0565b6127e16064600e54886124e7919061435c565b6064600e5460646127f291906143a4565b6127fc908861435c565b6128069190614348565b955060405180608001604052808961ffff168152602001426001600160501b03168152602001866040015160ff1681526020016128403390565b6001600160a01b0390811690915260008a81526005602090815260409182902084518154928601519386015160ff16600160601b0260ff60601b196001600160501b0390951662010000026001600160601b031990941661ffff90921691909117929092179290921617815560609092015160019092018054929091166001600160a01b03199092169190911790555b60408051898152602081018890528815159181019190915260008051602061447c833981519152906060015b60405180910390a1505050505092915050565b6007818154811061291f57600080fd5b60009182526020909120600290910201805460019091015461ffff821692506201000082046001600160501b031691600160601b900460ff16906001600160a01b031684565b3361296e611786565b6001600160a01b0316146129945760405162461bcd60e51b8152600401610a6490614283565b600f55565b60035460405163321a85ad60e21b8152600481018390526000916001600160a01b03169063c86a16b49060240160206040518083038186803b1580156129de57600080fd5b505afa1580156129f2573d6000803e3d6000fd5b505050506040513d601f19601f82011682018060405250810190610aef919061404a565b33612a1f611786565b6001600160a01b031614612a455760405162461bcd60e51b8152600401610a6490614283565b601b805460ff1916911515919091179055565b6000612a6582600a614323565b60ff1692915050565b33612a77611786565b6001600160a01b031614612a9d5760405162461bcd60e51b8152600401610a6490614283565b6001600160a01b038116612b025760405162461bcd60e51b815260206004820152602660248201527f4f776e61626c653a206e6577206f776e657220697320746865207a65726f206160448201526564647265737360d01b6064820152608401610a64565b610bf281612d5a565b60005460ff1615612b2e5760405162461bcd60e51b8152600401610a6490614259565b6000805460ff191660011790557f62e78cea01bee320cd4e420270b5ea74000d11b0c9f74754ebdbfc544b05a258612b633390565b604051612b70919061410b565b60405180910390a1565b60005460ff16612bc35760405162461bcd60e51b815260206004820152601460248201527314185d5cd8589b194e881b9bdd081c185d5cd95960621b6044820152606401610a64565b6000805460ff191690557f5db9ee0a495bf2e6ff9c91a7834c1ba4fdd244a5e8aa4e537bd38aeae4b073aa33612b63565b6000828152600960209081526040918290208251606081018452905461ffff811682526201000081046001600160501b031692820192909252600160601b9091046001600160a01b0316918101829052903314612c635760405162461bcd60e51b8152600401610a649061422d565b818015612c885750600d546020820151612c86906001600160501b0316426143a4565b105b15612ccc5760405162461bcd60e51b815260206004820152601460248201527359657469206e6f74206865616c6564207965742160601b6044820152606401610a64565b6001546001600160a01b031663b88d4fde3033866040518463ffffffff1660e01b8152600401612cfe93929190614143565b600060405180830381600087803b158015612d1857600080fd5b505af1158015612d2c573d6000803e3d6000fd5b505050600093845250506009602052506040812055565b6000612d4f828061437b565b612a6590600a61437b565b600080546001600160a01b03838116610100818102610100600160a81b0319851617855560405193049190911692909183917f8be0079c531659141344cd1fd0a4f28419497f9722a3daafe3b4186f6b6457e091a35050565b60008281526006602052604081205461ffff168314612ddd57612dd6838361218e565b9050610aef565b612dd68383613291565b60005460ff1615612e0a5760405162461bcd60e51b8152600401610a6490614259565b6001601854612e1991906143a4565b6008600084815260200190815260200160002081905550600060405180608001604052808461ffff168152602001426001600160501b031681526020018360ff168152602001856001600160a01b03168152509050806006600085815260200190815260200160002060008201518160000160006101000a81548161ffff021916908361ffff16021790555060208201518160000160026101000a8154816001600160501b0302191690836001600160501b03160217905550604082015181600001600c6101000a81548160ff021916908360ff16021790555060608201518160010160006101000a8154816001600160a01b0302191690836001600160a01b03160217905550905050600781908060018154018082558091505060019003906000526020600020906002020160009091909190915060008201518160000160006101000a81548161ffff021916908361ffff16021790555060208201518160000160026101000a8154816001600160501b0302191690836001600160501b03160217905550604082015181600001600c6101000a81548160ff021916908360ff16021790555060608201518160010160006101000a8154816001600160a01b0302191690836001600160a01b031602179055505050600160078054905061300191906143a4565b600084815260086020526040812091909155601880546001929061302690849061430b565b90915550506040517fadd17b9d82cb146eaff151f4f864faa55b09599b4eff7714935025b99054fe1c9061306190869086908690429061418f565b60405180910390a150505050565b60005460ff16156130925760405162461bcd60e51b8152600401610a6490614259565b6040805160808101825261ffff80851682526001600160501b03428116602080850191825260ff8088168688018181526001600160a01b03808d1660608a0190815260008d81526005909652999094209751885495519151909316600160601b0260ff60601b199190961662010000026001600160601b031990951692909616919091179290921793909316919091178355925160019092018054929091166001600160a01b03199092169190911790556131655760016016600082825461315a919061430b565b9091555061318a9050565b8060ff166001141561318a57600160176000828254613184919061430b565b90915550505b7fadd17b9d82cb146eaff151f4f864faa55b09599b4eff7714935025b99054fe1c838383426040516131bf949392919061418f565b60405180910390a1505050565b6000326131da6001436143a4565b60405160609290921b6001600160601b03191660208301524060348201524260548201526074810183905260940160408051601f19818403018152919052805160209091012092915050565b600254600480546040516340c10f1960e01b81526001600160a01b03938416936340c10f199361325c9390911691869101614176565b600060405180830381600087803b15801561327657600080fd5b505af115801561328a573d6000803e3d6000fd5b5050505050565b60008281526006602090815260408083208151608081018352815461ffff811682526201000081046001600160501b031694820194909452600160601b90930460ff1691830191909152600101546001600160a01b031660608201819052331461330d5760405162461bcd60e51b8152600401610a649061422d565b8280156133325750600c546020820151613330906001600160501b0316426143a4565b105b1561338d5760405162461bcd60e51b815260206004820152602560248201527f474f4e4e4120424520434f4c4420574954484f55542054574f20444159275320604482015264119493d4d560da1b6064820152608401610a64565b60035460405163321a85ad60e21b8152600481018690526000916001600160a01b03169063c86a16b49060240160206040518083038186803b1580156133d257600080fd5b505afa1580156133e6573d6000803e3d6000fd5b505050506040513d601f19601f8201168201806040525081019061340a919061404a565b6000868152600b6020526040808220549085015160198054949550929360ff9283169384939092169081106134415761344161442c565b90600052602060002001848154811061345c5761345c61442c565b9060005260206000200154613471919061435c565b61347b919061435c565b61348690606461435c565b905060006201518084602001516001600160501b0316426134a791906143a4565b6134b19190614348565b905060646134bf828461435c565b6134c99190614348565b94506000601a856040015160ff16815481106134e7576134e761442c565b9060005260206000200154826134fd919061435c565b90508615613985576001546001600160a01b031663b88d4fde30338b6040518463ffffffff1660e01b815260040161353793929190614143565b600060405180830381600087803b15801561355157600080fd5b505af1158015613565573d6000803e3d6000fd5b5050505060006007600160078054905061357f91906143a4565b8154811061358f5761358f61442c565b60009182526020808320604080516080810182526002909402909101805461ffff811685526001600160501b03620100008204168585015260ff600160601b9091041684830152600101546001600160a01b031660608401528c8452600890915290912054600780549293508392909190811061360e5761360e61442c565b60009182526020808320845160029093020180548583015160408088015160ff16600160601b0260ff60601b196001600160501b0390931662010000026001600160601b031990941661ffff978816179390931791909116919091178255606090950151600190910180546001600160a01b039092166001600160a01b03199092169190911790558c83526008905282822054845190911682529190205560078054806136bd576136bd614416565b6000828152602080822060026000199094019384020180546001600160681b03199081168255600191820180546001600160a01b0319908116909155949095558d8352600882526040808420849055600683528084208054909616865594018054909316909255600a909152908120805484929061373c90849061430b565b90915550506000898152600b60205260408120546012546137609160ff16906143a4565b905080606461376e8c6131cc565b61377891906143d6565b10156138d457600061380e600160009054906101000a90046001600160a01b03166001600160a01b0316630bdb095e6040518163ffffffff1660e01b815260040160206040518083038186803b1580156137d157600080fd5b505afa1580156137e5573d6000803e3d6000fd5b505050506040513d601f19601f82011682018060405250810190613809919061404a565b6131cc565b9050600061381b82613aa9565b9050600160009054906101000a90046001600160a01b03166001600160a01b031663b88d4fde30838f6040518463ffffffff1660e01b815260040161386293929190614143565b600060405180830381600087803b15801561387c57600080fd5b505af1158015613890573d6000803e3d6000fd5b505050507f6009b4228a9952cbf04a8ebbd80f931efb8053ad815f7fb937aa0812ac2433fc8c6040516138c591815260200190565b60405180910390a15050613939565b6001546001600160a01b031663b88d4fde30338d6040518463ffffffff1660e01b815260040161390693929190614143565b600060405180830381600087803b15801561392057600080fd5b505af1158015613934573d6000803e3d6000fd5b505050505b60016018600082825461394c91906143a4565b909155505050600089815260066020526040902080546001600160681b031916815560010180546001600160a01b0319169055506128d0565b6139986064600e54886124e7919061435c565b6064600e5460646139a991906143a4565b6139b3908861435c565b6139bd9190614348565b955060405180608001604052808961ffff168152602001426001600160501b03168152602001866040015160ff1681526020016139f73390565b6001600160a01b0390811690915260008a81526006602090815260409182902084518154868401518786015160ff16600160601b0260ff60601b196001600160501b0390921662010000026001600160601b031990931661ffff90941693909317919091171617815560609485015160019091018054919094166001600160a01b03199091161790925580518b81529182018990528915159082015260008051602061447c83398151915291016128fc565b600080613ab583613ace565b90506001600160a01b038116610aef57335b9392505050565b600060185460001415613ae357506000919050565b60078054613af190846143d6565b81548110613b0157613b0161442c565b60009182526020909120600160029092020101546001600160a01b031692915050565b828054828255906000526020600020908101928215613b71579160200282015b82811115613b715782518051613b61918491602090910190613ba8565b5091602001919060010190613b44565b50613b7d929150613bef565b5090565b60408051608081018252600080825260208201819052918101829052606081019190915290565b828054828255906000526020600020908101928215613be3579160200282015b82811115613be3578251825591602001919060010190613bc8565b50613b7d929150613c0c565b80821115613b7d576000613c038282613c21565b50600101613bef565b5b80821115613b7d5760008155600101613c0d565b5080546000825590600052602060002090810190610bf29190613c0c565b60008083601f840112613c5157600080fd5b5081356001600160401b03811115613c6857600080fd5b6020830191508360208260051b8501011115613c8357600080fd5b9250929050565b600082601f830112613c9b57600080fd5b81356020613cb0613cab836142e8565b6142b8565b80838252828201915082860187848660051b8901011115613cd057600080fd5b60005b85811015613cef57813584529284019290840190600101613cd3565b5090979650505050505050565b803560ff81168114613d0d57600080fd5b919050565b600060208284031215613d2457600080fd5b8135613ac781614458565b600060208284031215613d4157600080fd5b8151613ac781614458565b600080600080600060808688031215613d6457600080fd5b8535613d6f81614458565b94506020860135613d7f81614458565b93506040860135925060608601356001600160401b0380821115613da257600080fd5b818801915088601f830112613db657600080fd5b813581811115613dc557600080fd5b896020828501011115613dd757600080fd5b9699959850939650602001949392505050565b600080600060608486031215613dff57600080fd5b8335613e0a81614458565b925060208401356001600160401b03811115613e2557600080fd5b613e3186828701613c8a565b925050613e4060408501613cfc565b90509250925092565b60006020808385031215613e5c57600080fd5b82356001600160401b0380821115613e7357600080fd5b818501915085601f830112613e8757600080fd5b8135613e95613cab826142e8565b80828252858201915085850189878560051b8801011115613eb557600080fd5b6000805b85811015613ef057823587811115613ecf578283fd5b613edd8d8b838c0101613c8a565b8652509388019391880191600101613eb9565b50919a9950505050505050505050565b600080600060408486031215613f1557600080fd5b83356001600160401b03811115613f2b57600080fd5b613f3786828701613c3f565b9094509250506020840135613f4b8161446d565b809150509250925092565b60008060208385031215613f6957600080fd5b82356001600160401b03811115613f7f57600080fd5b613f8b85828601613c3f565b90969095509350505050565b600060208284031215613fa957600080fd5b81356001600160401b03811115613fbf57600080fd5b613fcb84828501613c8a565b949350505050565b600060208284031215613fe557600080fd5b8135613ac78161446d565b60006020828403121561400257600080fd5b8151613ac78161446d565b60006020828403121561401f57600080fd5b813561ffff81168114613ac757600080fd5b60006020828403121561404357600080fd5b5035919050565b60006020828403121561405c57600080fd5b5051919050565b6000806040838503121561407657600080fd5b8235915060208301356140888161446d565b809150509250929050565b600080604083850312156140a657600080fd5b50508035926020909101359150565b6000602082840312156140c757600080fd5b613ac782613cfc565b600081518084526020808501945080840160005b83811015614100578151875295820195908201906001016140e4565b509495945050505050565b6001600160a01b0391909116815260200190565b6001600160a01b039384168152919092166020820152604081019190915260600190565b6001600160a01b039384168152919092166020820152604081019190915260806060820181905260009082015260a00190565b6001600160a01b03929092168252602082015260400190565b6001600160a01b03949094168452602084019290925260ff166040830152606082015260800190565b6000602080830181845280855180835260408601915060408160051b870101925083870160005b8281101561420d57603f198886030184526141fb8583516140d0565b945092850192908501906001016141df565b5092979650505050505050565b602081526000613ac760208301846140d0565b6020808252601290820152715357495045522c204e4f2053574950494e4760701b604082015260600190565b60208082526010908201526f14185d5cd8589b194e881c185d5cd95960821b604082015260600190565b6020808252818101527f4f776e61626c653a2063616c6c6572206973206e6f7420746865206f776e6572604082015260600190565b604051601f8201601f191681016001600160401b03811182821017156142e0576142e0614442565b604052919050565b60006001600160401b0382111561430157614301614442565b5060051b60200190565b6000821982111561431e5761431e6143ea565b500190565b600060ff821660ff84168060ff03821115614340576143406143ea565b019392505050565b60008261435757614357614400565b500490565b6000816000190483118215151615614376576143766143ea565b500290565b600060ff821660ff84168160ff048111821515161561439c5761439c6143ea565b029392505050565b6000828210156143b6576143b66143ea565b500390565b60006000198214156143cf576143cf6143ea565b5060010190565b6000826143e5576143e5614400565b500690565b634e487b7160e01b600052601160045260246000fd5b634e487b7160e01b600052601260045260246000fd5b634e487b7160e01b600052603160045260246000fd5b634e487b7160e01b600052603260045260246000fd5b634e487b7160e01b600052604160045260246000fd5b6001600160a01b0381168114610bf257600080fd5b8015158114610bf257600080fdfe793540b1cd54af1ddd03a0cc5273b7527b06876452a2b78b07b7784077d8820ea26469706673582212205bff75a9b2bc493b27fae1d8604faf2f19ba72f926224e1ff5ecb4ba116a13ce64736f6c63430008070033",
  "linkReferences": {},
  "deployedLinkReferences": {}
}