{
  "_format": "hh-sol-artifact-1",
  "contractName": "TimestampVRF",
  "sourceName": "contracts/mainnetTesting/Timestamp.sol",
  "abi": [
    {
      "inputs": [
        {
          "internalType": "address",
          "name": "oracleAddress",
          "type": "address"
        }
      ],
      "stateMutability": "nonpayable",
      "type": "constructor"
    },
    {
      "anonymous": false,
      "inputs": [
        {
          "indexed": true,
          "internalType": "address",
          "name": "previousOwner",
          "type": "address"
        },
        {
          "indexed": true,
          "internalType": "address",
          "name": "newOwner",
          "type": "address"
        }
      ],
      "name": "OwnershipTransferred",
      "type": "event"
    },
    {
      "inputs": [],
      "name": "getCurrentIndex",
      "outputs": [
        {
          "internalType": "uint256",
          "name": "",
          "type": "uint256"
        }
      ],
      "stateMutability": "view",
      "type": "function"
    },
    {
      "inputs": [],
      "name": "initialize",
      "outputs": [],
      "stateMutability": "nonpayable",
      "type": "function"
    },
    {
      "inputs": [
        {
          "internalType": "uint256",
          "name": "_tokenId",
          "type": "uint256"
        },
        {
          "internalType": "uint256",
          "name": "_timestamp",
          "type": "uint256"
        }
      ],
      "name": "initiateRandomness",
      "outputs": [
        {
          "internalType": "uint256",
          "name": "",
          "type": "uint256"
        }
      ],
      "stateMutability": "view",
      "type": "function"
    },
    {
      "inputs": [],
      "name": "owner",
      "outputs": [
        {
          "internalType": "address",
          "name": "",
          "type": "address"
        }
      ],
      "stateMutability": "view",
      "type": "function"
    },
    {
      "inputs": [],
      "name": "renounceOwnership",
      "outputs": [],
      "stateMutability": "nonpayable",
      "type": "function"
    },
    {
      "inputs": [
        {
          "internalType": "address",
          "name": "oracleAddress",
          "type": "address"
        }
      ],
      "name": "setOracle",
      "outputs": [],
      "stateMutability": "nonpayable",
      "type": "function"
    },
    {
      "inputs": [
        {
          "internalType": "address",
          "name": "newOwner",
          "type": "address"
        }
      ],
      "name": "transferOwnership",
      "outputs": [],
      "stateMutability": "nonpayable",
      "type": "function"
    }
  ],
  "bytecode": "0x608060405234801561001057600080fd5b506040516104b53803806104b583398101604081905261002f916100ad565b6100383361005d565b600180546001600160a01b0319166001600160a01b03929092169190911790556100dd565b600080546001600160a01b038381166001600160a01b0319831681178455604051919092169283917f8be0079c531659141344cd1fd0a4f28419497f9722a3daafe3b4186f6b6457e09190a35050565b6000602082840312156100bf57600080fd5b81516001600160a01b03811681146100d657600080fd5b9392505050565b6103c9806100ec6000396000f3fe608060405234801561001057600080fd5b506004361061006d5760003560e01c80630d9005ae14610072578063715018a6146100885780637adbf973146100925780638129fc1c146100a55780638da5cb5b146100ad578063a9686320146100c8578063f2fde38b146100db575b600080fd5b60055b6040519081526020015b60405180910390f35b6100906100ee565b005b6100906100a03660046102ea565b61012d565b610090610179565b6000546040516001600160a01b03909116815260200161007f565b6100756100d636600461031a565b6101bc565b6100906100e93660046102ea565b6101ff565b6000546001600160a01b031633146101215760405162461bcd60e51b81526004016101189061033c565b60405180910390fd5b61012b600061029a565b565b6000546001600160a01b031633146101575760405162461bcd60e51b81526004016101189061033c565b600180546001600160a01b0319166001600160a01b0392909216919091179055565b336101838161029a565b6040516001600160a01b038216906000907f8be0079c531659141344cd1fd0a4f28419497f9722a3daafe3b4186f6b6457e0908290a350565b60006001836101cd61012c42610371565b60408051602081019390935282015260600160408051601f198184030181529190528051602090910120949350505050565b6000546001600160a01b031633146102295760405162461bcd60e51b81526004016101189061033c565b6001600160a01b03811661028e5760405162461bcd60e51b815260206004820152602660248201527f4f776e61626c653a206e6577206f776e657220697320746865207a65726f206160448201526564647265737360d01b6064820152608401610118565b6102978161029a565b50565b600080546001600160a01b038381166001600160a01b0319831681178455604051919092169283917f8be0079c531659141344cd1fd0a4f28419497f9722a3daafe3b4186f6b6457e09190a35050565b6000602082840312156102fc57600080fd5b81356001600160a01b038116811461031357600080fd5b9392505050565b6000806040838503121561032d57600080fd5b50508035926020909101359150565b6020808252818101527f4f776e61626c653a2063616c6c6572206973206e6f7420746865206f776e6572604082015260600190565b60008261038e57634e487b7160e01b600052601260045260246000fd5b50049056fea26469706673582212209f04d29963a01d69832a73f0a15fffb2ea30778a41fdb0438298bdeae37a044964736f6c63430008070033",
  "linkReferences": {},
  "deployedLinkReferences": {}
}