{
  "_format": "hh-sol-artifact-1",
  "contractName": "FRXST",
  "sourceName": "contracts/FRXST.sol",
  "abi": [
    {
      "inputs": [],
      "stateMutability": "nonpayable",
      "type": "constructor"
    },
    {
      "anonymous": false,
      "inputs": [
        {
          "indexed": true,
          "internalType": "address",
          "name": "owner",
          "type": "address"
        },
        {
          "indexed": true,
          "internalType": "address",
          "name": "spender",
          "type": "address"
        },
        {
          "indexed": false,
          "internalType": "uint256",
          "name": "value",
          "type": "uint256"
        }
      ],
      "name": "Approval",
      "type": "event"
    },
    {
      "anonymous": false,
      "inputs": [
        {
          "indexed": true,
          "internalType": "address",
          "name": "previousOwner",
          "type": "address"
        },
        {
          "indexed": true,
          "internalType": "address",
          "name": "newOwner",
          "type": "address"
        }
      ],
      "name": "OwnershipTransferred",
      "type": "event"
    },
    {
      "anonymous": false,
      "inputs": [
        {
          "indexed": true,
          "internalType": "address",
          "name": "from",
          "type": "address"
        },
        {
          "indexed": true,
          "internalType": "address",
          "name": "to",
          "type": "address"
        },
        {
          "indexed": false,
          "internalType": "uint256",
          "name": "value",
          "type": "uint256"
        }
      ],
      "name": "Transfer",
      "type": "event"
    },
    {
      "inputs": [
        {
          "internalType": "address",
          "name": "controller",
          "type": "address"
        }
      ],
      "name": "addController",
      "outputs": [],
      "stateMutability": "nonpayable",
      "type": "function"
    },
    {
      "inputs": [
        {
          "internalType": "address",
          "name": "owner",
          "type": "address"
        },
        {
          "internalType": "address",
          "name": "spender",
          "type": "address"
        }
      ],
      "name": "allowance",
      "outputs": [
        {
          "internalType": "uint256",
          "name": "",
          "type": "uint256"
        }
      ],
      "stateMutability": "view",
      "type": "function"
    },
    {
      "inputs": [
        {
          "internalType": "address",
          "name": "spender",
          "type": "address"
        },
        {
          "internalType": "uint256",
          "name": "amount",
          "type": "uint256"
        }
      ],
      "name": "approve",
      "outputs": [
        {
          "internalType": "bool",
          "name": "",
          "type": "bool"
        }
      ],
      "stateMutability": "nonpayable",
      "type": "function"
    },
    {
      "inputs": [
        {
          "internalType": "address",
          "name": "account",
          "type": "address"
        }
      ],
      "name": "balanceOf",
      "outputs": [
        {
          "internalType": "uint256",
          "name": "",
          "type": "uint256"
        }
      ],
      "stateMutability": "view",
      "type": "function"
    },
    {
      "inputs": [
        {
          "internalType": "address",
          "name": "from",
          "type": "address"
        },
        {
          "internalType": "uint256",
          "name": "amount",
          "type": "uint256"
        }
      ],
      "name": "burn",
      "outputs": [],
      "stateMutability": "nonpayable",
      "type": "function"
    },
    {
      "inputs": [],
      "name": "decimals",
      "outputs": [
        {
          "internalType": "uint8",
          "name": "",
          "type": "uint8"
        }
      ],
      "stateMutability": "view",
      "type": "function"
    },
    {
      "inputs": [
        {
          "internalType": "address",
          "name": "spender",
          "type": "address"
        },
        {
          "internalType": "uint256",
          "name": "subtractedValue",
          "type": "uint256"
        }
      ],
      "name": "decreaseAllowance",
      "outputs": [
        {
          "internalType": "bool",
          "name": "",
          "type": "bool"
        }
      ],
      "stateMutability": "nonpayable",
      "type": "function"
    },
    {
      "inputs": [
        {
          "internalType": "address",
          "name": "spender",
          "type": "address"
        },
        {
          "internalType": "uint256",
          "name": "addedValue",
          "type": "uint256"
        }
      ],
      "name": "increaseAllowance",
      "outputs": [
        {
          "internalType": "bool",
          "name": "",
          "type": "bool"
        }
      ],
      "stateMutability": "nonpayable",
      "type": "function"
    },
    {
      "inputs": [
        {
          "internalType": "address",
          "name": "to",
          "type": "address"
        },
        {
          "internalType": "uint256",
          "name": "amount",
          "type": "uint256"
        }
      ],
      "name": "mint",
      "outputs": [],
      "stateMutability": "nonpayable",
      "type": "function"
    },
    {
      "inputs": [],
      "name": "name",
      "outputs": [
        {
          "internalType": "string",
          "name": "",
          "type": "string"
        }
      ],
      "stateMutability": "view",
      "type": "function"
    },
    {
      "inputs": [],
      "name": "owner",
      "outputs": [
        {
          "internalType": "address",
          "name": "",
          "type": "address"
        }
      ],
      "stateMutability": "view",
      "type": "function"
    },
    {
      "inputs": [
        {
          "internalType": "address",
          "name": "controller",
          "type": "address"
        }
      ],
      "name": "removeController",
      "outputs": [],
      "stateMutability": "nonpayable",
      "type": "function"
    },
    {
      "inputs": [],
      "name": "renounceOwnership",
      "outputs": [],
      "stateMutability": "nonpayable",
      "type": "function"
    },
    {
      "inputs": [],
      "name": "symbol",
      "outputs": [
        {
          "internalType": "string",
          "name": "",
          "type": "string"
        }
      ],
      "stateMutability": "view",
      "type": "function"
    },
    {
      "inputs": [],
      "name": "totalSupply",
      "outputs": [
        {
          "internalType": "uint256",
          "name": "",
          "type": "uint256"
        }
      ],
      "stateMutability": "view",
      "type": "function"
    },
    {
      "inputs": [
        {
          "internalType": "address",
          "name": "recipient",
          "type": "address"
        },
        {
          "internalType": "uint256",
          "name": "amount",
          "type": "uint256"
        }
      ],
      "name": "transfer",
      "outputs": [
        {
          "internalType": "bool",
          "name": "",
          "type": "bool"
        }
      ],
      "stateMutability": "nonpayable",
      "type": "function"
    },
    {
      "inputs": [
        {
          "internalType": "address",
          "name": "sender",
          "type": "address"
        },
        {
          "internalType": "address",
          "name": "recipient",
          "type": "address"
        },
        {
          "internalType": "uint256",
          "name": "amount",
          "type": "uint256"
        }
      ],
      "name": "transferFrom",
      "outputs": [
        {
          "internalType": "bool",
          "name": "",
          "type": "bool"
        }
      ],
      "stateMutability": "nonpayable",
      "type": "function"
    },
    {
      "inputs": [
        {
          "internalType": "address",
          "name": "newOwner",
          "type": "address"
        }
      ],
      "name": "transferOwnership",
      "outputs": [],
      "stateMutability": "nonpayable",
      "type": "function"
    }
  ],
  "bytecode": "0x60806040523480156200001157600080fd5b5060408051808201825260058082526411949614d560da1b60208084018281528551808701909652928552840152815191929162000052916003916200018c565b508051620000689060049060208401906200018c565b505050620000856200007f620000c760201b60201c565b620000cb565b620000c16040518060400160405280600e81526020016d12195e48199c9bdb4811949614d560921b8152506200011d60201b6200073f1760201c565b620002c5565b3390565b600580546001600160a01b038381166001600160a01b0319831681179093556040519116919082907f8be0079c531659141344cd1fd0a4f28419497f9722a3daafe3b4186f6b6457e090600090a35050565b620001688160405160240162000134919062000232565b60408051601f198184030181529190526020810180516001600160e01b0390811663104c13eb60e21b179091526200016b16565b50565b80516a636f6e736f6c652e6c6f67602083016000808483855afa5050505050565b8280546200019a9062000288565b90600052602060002090601f016020900481019282620001be576000855562000209565b82601f10620001d957805160ff191683800117855562000209565b8280016001018555821562000209579182015b8281111562000209578251825591602001919060010190620001ec565b50620002179291506200021b565b5090565b5b808211156200021757600081556001016200021c565b6000602080835283518082850152825b81811015620002605785810183015185820160400152820162000242565b81811115620002725783604083870101525b50601f01601f1916929092016040019392505050565b600181811c908216806200029d57607f821691505b60208210811415620002bf57634e487b7160e01b600052602260045260246000fd5b50919050565b610f1f80620002d56000396000f3fe608060405234801561001057600080fd5b50600436106101165760003560e01c80638da5cb5b116100a2578063a7fc7a0711610071578063a7fc7a0714610232578063a9059cbb14610245578063dd62ed3e14610258578063f2fde38b14610291578063f6a74ed7146102a457600080fd5b80638da5cb5b146101e957806395d89b41146102045780639dc29fac1461020c578063a457c2d71461021f57600080fd5b8063313ce567116100e9578063313ce56714610181578063395093511461019057806340c10f19146101a357806370a08231146101b8578063715018a6146101e157600080fd5b806306fdde031461011b578063095ea7b31461013957806318160ddd1461015c57806323b872dd1461016e575b600080fd5b6101236102b7565b6040516101309190610de1565b60405180910390f35b61014c610147366004610db8565b610349565b6040519015158152602001610130565b6002545b604051908152602001610130565b61014c61017c366004610d7d565b61035f565b60405160128152602001610130565b61014c61019e366004610db8565b61040e565b6101b66101b1366004610db8565b61044a565b005b6101606101c6366004610d2a565b6001600160a01b031660009081526020819052604090205490565b6101b66104b7565b6005546040516001600160a01b039091168152602001610130565b6101236104ed565b6101b661021a366004610db8565b6104fc565b61014c61022d366004610db8565b610565565b6101b6610240366004610d2a565b6105fe565b61014c610253366004610db8565b61064c565b610160610266366004610d4b565b6001600160a01b03918216600090815260016020908152604080832093909416825291909152205490565b6101b661029f366004610d2a565b610659565b6101b66102b2366004610d2a565b6106f4565b6060600380546102c690610e98565b80601f01602080910402602001604051908101604052809291908181526020018280546102f290610e98565b801561033f5780601f106103145761010080835404028352916020019161033f565b820191906000526020600020905b81548152906001019060200180831161032257829003601f168201915b5050505050905090565b6000610356338484610782565b50600192915050565b600061036c8484846108a7565b6001600160a01b0384166000908152600160209081526040808320338452909152902054828110156103f65760405162461bcd60e51b815260206004820152602860248201527f45524332303a207472616e7366657220616d6f756e74206578636565647320616044820152676c6c6f77616e636560c01b60648201526084015b60405180910390fd5b6104038533858403610782565b506001949350505050565b3360008181526001602090815260408083206001600160a01b03871684529091528120549091610356918590610445908690610e69565b610782565b3360009081526006602052604090205460ff166104a95760405162461bcd60e51b815260206004820152601960248201527f4f6e6c7920636f6e74726f6c6c6572732063616e206d696e740000000000000060448201526064016103ed565b6104b38282610a76565b5050565b6005546001600160a01b031633146104e15760405162461bcd60e51b81526004016103ed90610e34565b6104eb6000610b55565b565b6060600480546102c690610e98565b3360009081526006602052604090205460ff1661055b5760405162461bcd60e51b815260206004820152601960248201527f4f6e6c7920636f6e74726f6c6c6572732063616e206275726e0000000000000060448201526064016103ed565b6104b38282610ba7565b3360009081526001602090815260408083206001600160a01b0386168452909152812054828110156105e75760405162461bcd60e51b815260206004820152602560248201527f45524332303a2064656372656173656420616c6c6f77616e63652062656c6f77604482015264207a65726f60d81b60648201526084016103ed565b6105f43385858403610782565b5060019392505050565b6005546001600160a01b031633146106285760405162461bcd60e51b81526004016103ed90610e34565b6001600160a01b03166000908152600660205260409020805460ff19166001179055565b60006103563384846108a7565b6005546001600160a01b031633146106835760405162461bcd60e51b81526004016103ed90610e34565b6001600160a01b0381166106e85760405162461bcd60e51b815260206004820152602660248201527f4f776e61626c653a206e6577206f776e657220697320746865207a65726f206160448201526564647265737360d01b60648201526084016103ed565b6106f181610b55565b50565b6005546001600160a01b0316331461071e5760405162461bcd60e51b81526004016103ed90610e34565b6001600160a01b03166000908152600660205260409020805460ff19169055565b6106f1816040516024016107539190610de1565b60408051601f198184030181529190526020810180516001600160e01b031663104c13eb60e21b179052610ced565b6001600160a01b0383166107e45760405162461bcd60e51b8152602060048201526024808201527f45524332303a20617070726f76652066726f6d20746865207a65726f206164646044820152637265737360e01b60648201526084016103ed565b6001600160a01b0382166108455760405162461bcd60e51b815260206004820152602260248201527f45524332303a20617070726f766520746f20746865207a65726f206164647265604482015261737360f01b60648201526084016103ed565b6001600160a01b0383811660008181526001602090815260408083209487168084529482529182902085905590518481527f8c5be1e5ebec7d5bd14f71427d1e84f3dd0314c0f7b2291e5b200ac8c7c3b92591015b60405180910390a3505050565b6001600160a01b03831661090b5760405162461bcd60e51b815260206004820152602560248201527f45524332303a207472616e736665722066726f6d20746865207a65726f206164604482015264647265737360d81b60648201526084016103ed565b6001600160a01b03821661096d5760405162461bcd60e51b815260206004820152602360248201527f45524332303a207472616e7366657220746f20746865207a65726f206164647260448201526265737360e81b60648201526084016103ed565b6001600160a01b038316600090815260208190526040902054818110156109e55760405162461bcd60e51b815260206004820152602660248201527f45524332303a207472616e7366657220616d6f756e7420657863656564732062604482015265616c616e636560d01b60648201526084016103ed565b6001600160a01b03808516600090815260208190526040808220858503905591851681529081208054849290610a1c908490610e69565b92505081905550826001600160a01b0316846001600160a01b03167fddf252ad1be2c89b69c2b068fc378daa952ba7f163c4a11628f55a4df523b3ef84604051610a6891815260200190565b60405180910390a350505050565b6001600160a01b038216610acc5760405162461bcd60e51b815260206004820152601f60248201527f45524332303a206d696e7420746f20746865207a65726f20616464726573730060448201526064016103ed565b8060026000828254610ade9190610e69565b90915550506001600160a01b03821660009081526020819052604081208054839290610b0b908490610e69565b90915550506040518181526001600160a01b038316906000907fddf252ad1be2c89b69c2b068fc378daa952ba7f163c4a11628f55a4df523b3ef9060200160405180910390a35050565b600580546001600160a01b038381166001600160a01b0319831681179093556040519116919082907f8be0079c531659141344cd1fd0a4f28419497f9722a3daafe3b4186f6b6457e090600090a35050565b6001600160a01b038216610c075760405162461bcd60e51b815260206004820152602160248201527f45524332303a206275726e2066726f6d20746865207a65726f206164647265736044820152607360f81b60648201526084016103ed565b6001600160a01b03821660009081526020819052604090205481811015610c7b5760405162461bcd60e51b815260206004820152602260248201527f45524332303a206275726e20616d6f756e7420657863656564732062616c616e604482015261636560f01b60648201526084016103ed565b6001600160a01b0383166000908152602081905260408120838303905560028054849290610caa908490610e81565b90915550506040518281526000906001600160a01b038516907fddf252ad1be2c89b69c2b068fc378daa952ba7f163c4a11628f55a4df523b3ef9060200161089a565b80516a636f6e736f6c652e6c6f67602083016000808483855afa5050505050565b80356001600160a01b0381168114610d2557600080fd5b919050565b600060208284031215610d3b578081fd5b610d4482610d0e565b9392505050565b60008060408385031215610d5d578081fd5b610d6683610d0e565b9150610d7460208401610d0e565b90509250929050565b600080600060608486031215610d91578081fd5b610d9a84610d0e565b9250610da860208501610d0e565b9150604084013590509250925092565b60008060408385031215610dca578182fd5b610dd383610d0e565b946020939093013593505050565b6000602080835283518082850152825b81811015610e0d57858101830151858201604001528201610df1565b81811115610e1e5783604083870101525b50601f01601f1916929092016040019392505050565b6020808252818101527f4f776e61626c653a2063616c6c6572206973206e6f7420746865206f776e6572604082015260600190565b60008219821115610e7c57610e7c610ed3565b500190565b600082821015610e9357610e93610ed3565b500390565b600181811c90821680610eac57607f821691505b60208210811415610ecd57634e487b7160e01b600052602260045260246000fd5b50919050565b634e487b7160e01b600052601160045260246000fdfea26469706673582212205ca00d4f8856b4f9e47ad3d0c0809650149f5db25719eb654865bc93ae7700d064736f6c63430008040033",
  "linkReferences": {},
  "deployedLinkReferences": {}
}