{
  "_format": "hh-sol-artifact-1",
  "contractName": "FRXST",
  "sourceName": "contracts/mainnetTesting/FRXST.sol",
  "abi": [
    {
      "inputs": [],
      "stateMutability": "nonpayable",
      "type": "constructor"
    },
    {
      "anonymous": false,
      "inputs": [
        {
          "indexed": true,
          "internalType": "address",
          "name": "owner",
          "type": "address"
        },
        {
          "indexed": true,
          "internalType": "address",
          "name": "spender",
          "type": "address"
        },
        {
          "indexed": false,
          "internalType": "uint256",
          "name": "value",
          "type": "uint256"
        }
      ],
      "name": "Approval",
      "type": "event"
    },
    {
      "anonymous": false,
      "inputs": [
        {
          "indexed": true,
          "internalType": "address",
          "name": "previousOwner",
          "type": "address"
        },
        {
          "indexed": true,
          "internalType": "address",
          "name": "newOwner",
          "type": "address"
        }
      ],
      "name": "OwnershipTransferred",
      "type": "event"
    },
    {
      "anonymous": false,
      "inputs": [
        {
          "indexed": true,
          "internalType": "address",
          "name": "from",
          "type": "address"
        },
        {
          "indexed": true,
          "internalType": "address",
          "name": "to",
          "type": "address"
        },
        {
          "indexed": false,
          "internalType": "uint256",
          "name": "value",
          "type": "uint256"
        }
      ],
      "name": "Transfer",
      "type": "event"
    },
    {
      "inputs": [
        {
          "internalType": "address",
          "name": "controller",
          "type": "address"
        }
      ],
      "name": "addController",
      "outputs": [],
      "stateMutability": "nonpayable",
      "type": "function"
    },
    {
      "inputs": [
        {
          "internalType": "address",
          "name": "owner",
          "type": "address"
        },
        {
          "internalType": "address",
          "name": "spender",
          "type": "address"
        }
      ],
      "name": "allowance",
      "outputs": [
        {
          "internalType": "uint256",
          "name": "",
          "type": "uint256"
        }
      ],
      "stateMutability": "view",
      "type": "function"
    },
    {
      "inputs": [
        {
          "internalType": "address",
          "name": "spender",
          "type": "address"
        },
        {
          "internalType": "uint256",
          "name": "amount",
          "type": "uint256"
        }
      ],
      "name": "approve",
      "outputs": [
        {
          "internalType": "bool",
          "name": "",
          "type": "bool"
        }
      ],
      "stateMutability": "nonpayable",
      "type": "function"
    },
    {
      "inputs": [
        {
          "internalType": "address",
          "name": "account",
          "type": "address"
        }
      ],
      "name": "balanceOf",
      "outputs": [
        {
          "internalType": "uint256",
          "name": "",
          "type": "uint256"
        }
      ],
      "stateMutability": "view",
      "type": "function"
    },
    {
      "inputs": [
        {
          "internalType": "address",
          "name": "from",
          "type": "address"
        },
        {
          "internalType": "uint256",
          "name": "amount",
          "type": "uint256"
        }
      ],
      "name": "burn",
      "outputs": [],
      "stateMutability": "nonpayable",
      "type": "function"
    },
    {
      "inputs": [],
      "name": "decimals",
      "outputs": [
        {
          "internalType": "uint8",
          "name": "",
          "type": "uint8"
        }
      ],
      "stateMutability": "view",
      "type": "function"
    },
    {
      "inputs": [
        {
          "internalType": "address",
          "name": "spender",
          "type": "address"
        },
        {
          "internalType": "uint256",
          "name": "subtractedValue",
          "type": "uint256"
        }
      ],
      "name": "decreaseAllowance",
      "outputs": [
        {
          "internalType": "bool",
          "name": "",
          "type": "bool"
        }
      ],
      "stateMutability": "nonpayable",
      "type": "function"
    },
    {
      "inputs": [
        {
          "internalType": "address",
          "name": "spender",
          "type": "address"
        },
        {
          "internalType": "uint256",
          "name": "addedValue",
          "type": "uint256"
        }
      ],
      "name": "increaseAllowance",
      "outputs": [
        {
          "internalType": "bool",
          "name": "",
          "type": "bool"
        }
      ],
      "stateMutability": "nonpayable",
      "type": "function"
    },
    {
      "inputs": [],
      "name": "initialize",
      "outputs": [],
      "stateMutability": "nonpayable",
      "type": "function"
    },
    {
      "inputs": [
        {
          "internalType": "address",
          "name": "to",
          "type": "address"
        },
        {
          "internalType": "uint256",
          "name": "amount",
          "type": "uint256"
        }
      ],
      "name": "mint",
      "outputs": [],
      "stateMutability": "nonpayable",
      "type": "function"
    },
    {
      "inputs": [],
      "name": "name",
      "outputs": [
        {
          "internalType": "string",
          "name": "",
          "type": "string"
        }
      ],
      "stateMutability": "view",
      "type": "function"
    },
    {
      "inputs": [],
      "name": "owner",
      "outputs": [
        {
          "internalType": "address",
          "name": "",
          "type": "address"
        }
      ],
      "stateMutability": "view",
      "type": "function"
    },
    {
      "inputs": [
        {
          "internalType": "address",
          "name": "controller",
          "type": "address"
        }
      ],
      "name": "removeController",
      "outputs": [],
      "stateMutability": "nonpayable",
      "type": "function"
    },
    {
      "inputs": [],
      "name": "renounceOwnership",
      "outputs": [],
      "stateMutability": "nonpayable",
      "type": "function"
    },
    {
      "inputs": [],
      "name": "symbol",
      "outputs": [
        {
          "internalType": "string",
          "name": "",
          "type": "string"
        }
      ],
      "stateMutability": "view",
      "type": "function"
    },
    {
      "inputs": [],
      "name": "totalSupply",
      "outputs": [
        {
          "internalType": "uint256",
          "name": "",
          "type": "uint256"
        }
      ],
      "stateMutability": "view",
      "type": "function"
    },
    {
      "inputs": [
        {
          "internalType": "address",
          "name": "recipient",
          "type": "address"
        },
        {
          "internalType": "uint256",
          "name": "amount",
          "type": "uint256"
        }
      ],
      "name": "transfer",
      "outputs": [
        {
          "internalType": "bool",
          "name": "",
          "type": "bool"
        }
      ],
      "stateMutability": "nonpayable",
      "type": "function"
    },
    {
      "inputs": [
        {
          "internalType": "address",
          "name": "sender",
          "type": "address"
        },
        {
          "internalType": "address",
          "name": "recipient",
          "type": "address"
        },
        {
          "internalType": "uint256",
          "name": "amount",
          "type": "uint256"
        }
      ],
      "name": "transferFrom",
      "outputs": [
        {
          "internalType": "bool",
          "name": "",
          "type": "bool"
        }
      ],
      "stateMutability": "nonpayable",
      "type": "function"
    },
    {
      "inputs": [
        {
          "internalType": "address",
          "name": "newOwner",
          "type": "address"
        }
      ],
      "name": "transferOwnership",
      "outputs": [],
      "stateMutability": "nonpayable",
      "type": "function"
    }
  ],
  "bytecode": "0x60806040523480156200001157600080fd5b5060408051808201825260058082526411949614d560da1b60208084018281528551808701909652928552840152815191929162000052916003916200018c565b508051620000689060049060208401906200018c565b505050620000856200007f620000c760201b60201c565b620000cb565b620000c16040518060400160405280600e81526020016d12195e48199c9bdb4811949614d560921b8152506200011d60201b620007a51760201c565b620002c7565b3390565b600580546001600160a01b038381166001600160a01b0319831681179093556040519116919082907f8be0079c531659141344cd1fd0a4f28419497f9722a3daafe3b4186f6b6457e090600090a35050565b620001688160405160240162000134919062000232565b60408051601f198184030181529190526020810180516001600160e01b0390811663104c13eb60e21b179091526200016b16565b50565b80516a636f6e736f6c652e6c6f67602083016000808483855afa5050505050565b8280546200019a906200028a565b90600052602060002090601f016020900481019282620001be576000855562000209565b82601f10620001d957805160ff191683800117855562000209565b8280016001018555821562000209579182015b8281111562000209578251825591602001919060010190620001ec565b50620002179291506200021b565b5090565b5b808211156200021757600081556001016200021c565b600060208083528351808285015260005b81811015620002615785810183015185820160400152820162000243565b8181111562000274576000604083870101525b50601f01601f1916929092016040019392505050565b600181811c908216806200029f57607f821691505b60208210811415620002c157634e487b7160e01b600052602260045260246000fd5b50919050565b610f7580620002d76000396000f3fe608060405234801561001057600080fd5b50600436106101115760003560e01c80638129fc1c116100ad578063a7fc7a0711610071578063a7fc7a071461023a578063a9059cbb1461024d578063dd62ed3e14610260578063f2fde38b14610299578063f6a74ed7146102ac57600080fd5b80638129fc1c146101e45780638da5cb5b146101ec57806395d89b411461020c5780639dc29fac14610214578063a457c2d71461022757600080fd5b806306fdde0314610116578063095ea7b31461013457806318160ddd1461015757806323b872dd14610169578063313ce5671461017c578063395093511461018b57806340c10f191461019e57806370a08231146101b3578063715018a6146101dc575b600080fd5b61011e6102bf565b60405161012b9190610e15565b60405180910390f35b610147610142366004610deb565b610351565b604051901515815260200161012b565b6002545b60405190815260200161012b565b610147610177366004610daf565b610367565b6040516012815260200161012b565b610147610199366004610deb565b610416565b6101b16101ac366004610deb565b610452565b005b61015b6101c1366004610d5a565b6001600160a01b031660009081526020819052604090205490565b6101b16104bb565b6101b16104f6565b6101f4610539565b6040516001600160a01b03909116815260200161012b565b61011e610548565b6101b1610222366004610deb565b610557565b610147610235366004610deb565b6105bc565b6101b1610248366004610d5a565b610655565b61014761025b366004610deb565b6106a8565b61015b61026e366004610d7c565b6001600160a01b03918216600090815260016020908152604080832093909416825291909152205490565b6101b16102a7366004610d5a565b6106b5565b6101b16102ba366004610d5a565b610755565b6060600380546102ce90610ece565b80601f01602080910402602001604051908101604052809291908181526020018280546102fa90610ece565b80156103475780601f1061031c57610100808354040283529160200191610347565b820191906000526020600020905b81548152906001019060200180831161032a57829003601f168201915b5050505050905090565b600061035e3384846107e8565b50600192915050565b600061037484848461090d565b6001600160a01b0384166000908152600160209081526040808320338452909152902054828110156103fe5760405162461bcd60e51b815260206004820152602860248201527f45524332303a207472616e7366657220616d6f756e74206578636565647320616044820152676c6c6f77616e636560c01b60648201526084015b60405180910390fd5b61040b85338584036107e8565b506001949350505050565b3360008181526001602090815260408083206001600160a01b0387168452909152812054909161035e91859061044d908690610e9f565b6107e8565b3360009081526006602052604090205460ff166104ad5760405162461bcd60e51b815260206004820152601960248201527813db9b1e4818dbdb9d1c9bdb1b195c9cc818d85b881b5a5b9d603a1b60448201526064016103f5565b6104b78282610aca565b5050565b336104c4610539565b6001600160a01b0316146104ea5760405162461bcd60e51b81526004016103f590610e6a565b6104f46000610b97565b565b3361050081610b97565b6040516001600160a01b038216906000907f8be0079c531659141344cd1fd0a4f28419497f9722a3daafe3b4186f6b6457e0908290a350565b6005546001600160a01b031690565b6060600480546102ce90610ece565b3360009081526006602052604090205460ff166105b25760405162461bcd60e51b815260206004820152601960248201527827b7363c9031b7b73a3937b63632b9399031b0b710313ab93760391b60448201526064016103f5565b6104b78282610be9565b3360009081526001602090815260408083206001600160a01b03861684529091528120548281101561063e5760405162461bcd60e51b815260206004820152602560248201527f45524332303a2064656372656173656420616c6c6f77616e63652062656c6f77604482015264207a65726f60d81b60648201526084016103f5565b61064b33858584036107e8565b5060019392505050565b3361065e610539565b6001600160a01b0316146106845760405162461bcd60e51b81526004016103f590610e6a565b6001600160a01b03166000908152600660205260409020805460ff19166001179055565b600061035e33848461090d565b336106be610539565b6001600160a01b0316146106e45760405162461bcd60e51b81526004016103f590610e6a565b6001600160a01b0381166107495760405162461bcd60e51b815260206004820152602660248201527f4f776e61626c653a206e6577206f776e657220697320746865207a65726f206160448201526564647265737360d01b60648201526084016103f5565b61075281610b97565b50565b3361075e610539565b6001600160a01b0316146107845760405162461bcd60e51b81526004016103f590610e6a565b6001600160a01b03166000908152600660205260409020805460ff19169055565b610752816040516024016107b99190610e15565b60408051601f198184030181529190526020810180516001600160e01b031663104c13eb60e21b179052610d1d565b6001600160a01b03831661084a5760405162461bcd60e51b8152602060048201526024808201527f45524332303a20617070726f76652066726f6d20746865207a65726f206164646044820152637265737360e01b60648201526084016103f5565b6001600160a01b0382166108ab5760405162461bcd60e51b815260206004820152602260248201527f45524332303a20617070726f766520746f20746865207a65726f206164647265604482015261737360f01b60648201526084016103f5565b6001600160a01b0383811660008181526001602090815260408083209487168084529482529182902085905590518481527f8c5be1e5ebec7d5bd14f71427d1e84f3dd0314c0f7b2291e5b200ac8c7c3b92591015b60405180910390a3505050565b6001600160a01b0383166109715760405162461bcd60e51b815260206004820152602560248201527f45524332303a207472616e736665722066726f6d20746865207a65726f206164604482015264647265737360d81b60648201526084016103f5565b6001600160a01b0382166109d35760405162461bcd60e51b815260206004820152602360248201527f45524332303a207472616e7366657220746f20746865207a65726f206164647260448201526265737360e81b60648201526084016103f5565b6001600160a01b03831660009081526020819052604090205481811015610a4b5760405162461bcd60e51b815260206004820152602660248201527f45524332303a207472616e7366657220616d6f756e7420657863656564732062604482015265616c616e636560d01b60648201526084016103f5565b6001600160a01b03808516600090815260208190526040808220858503905591851681529081208054849290610a82908490610e9f565b92505081905550826001600160a01b0316846001600160a01b0316600080516020610f2083398151915284604051610abc91815260200190565b60405180910390a350505050565b6001600160a01b038216610b205760405162461bcd60e51b815260206004820152601f60248201527f45524332303a206d696e7420746f20746865207a65726f20616464726573730060448201526064016103f5565b8060026000828254610b329190610e9f565b90915550506001600160a01b03821660009081526020819052604081208054839290610b5f908490610e9f565b90915550506040518181526001600160a01b03831690600090600080516020610f208339815191529060200160405180910390a35050565b600580546001600160a01b038381166001600160a01b0319831681179093556040519116919082907f8be0079c531659141344cd1fd0a4f28419497f9722a3daafe3b4186f6b6457e090600090a35050565b6001600160a01b038216610c495760405162461bcd60e51b815260206004820152602160248201527f45524332303a206275726e2066726f6d20746865207a65726f206164647265736044820152607360f81b60648201526084016103f5565b6001600160a01b03821660009081526020819052604090205481811015610cbd5760405162461bcd60e51b815260206004820152602260248201527f45524332303a206275726e20616d6f756e7420657863656564732062616c616e604482015261636560f01b60648201526084016103f5565b6001600160a01b0383166000908152602081905260408120838303905560028054849290610cec908490610eb7565b90915550506040518281526000906001600160a01b03851690600080516020610f2083398151915290602001610900565b80516a636f6e736f6c652e6c6f67602083016000808483855afa5050505050565b80356001600160a01b0381168114610d5557600080fd5b919050565b600060208284031215610d6c57600080fd5b610d7582610d3e565b9392505050565b60008060408385031215610d8f57600080fd5b610d9883610d3e565b9150610da660208401610d3e565b90509250929050565b600080600060608486031215610dc457600080fd5b610dcd84610d3e565b9250610ddb60208501610d3e565b9150604084013590509250925092565b60008060408385031215610dfe57600080fd5b610e0783610d3e565b946020939093013593505050565b600060208083528351808285015260005b81811015610e4257858101830151858201604001528201610e26565b81811115610e54576000604083870101525b50601f01601f1916929092016040019392505050565b6020808252818101527f4f776e61626c653a2063616c6c6572206973206e6f7420746865206f776e6572604082015260600190565b60008219821115610eb257610eb2610f09565b500190565b600082821015610ec957610ec9610f09565b500390565b600181811c90821680610ee257607f821691505b60208210811415610f0357634e487b7160e01b600052602260045260246000fd5b50919050565b634e487b7160e01b600052601160045260246000fdfeddf252ad1be2c89b69c2b068fc378daa952ba7f163c4a11628f55a4df523b3efa2646970667358221220c587847432becb2f9dee239ee4a74dc9a96dc363de4238b58e683ead6fc021ec64736f6c63430008070033",
  "linkReferences": {},
  "deployedLinkReferences": {}
}