{
  "_format": "hh-sol-artifact-1",
  "contractName": "YetiTown",
  "sourceName": "contracts/mainnetTesting/YetiTown.sol",
  "abi": [
    {
      "inputs": [
        {
          "internalType": "string",
          "name": "_name",
          "type": "string"
        },
        {
          "internalType": "string",
          "name": "_symbol",
          "type": "string"
        },
        {
          "internalType": "string",
          "name": "_initBaseURI",
          "type": "string"
        },
        {
          "internalType": "string",
          "name": "_initNotRevealedUri",
          "type": "string"
        }
      ],
      "stateMutability": "nonpayable",
      "type": "constructor"
    },
    {
      "anonymous": false,
      "inputs": [
        {
          "indexed": true,
          "internalType": "address",
          "name": "owner",
          "type": "address"
        },
        {
          "indexed": true,
          "internalType": "address",
          "name": "approved",
          "type": "address"
        },
        {
          "indexed": true,
          "internalType": "uint256",
          "name": "tokenId",
          "type": "uint256"
        }
      ],
      "name": "Approval",
      "type": "event"
    },
    {
      "anonymous": false,
      "inputs": [
        {
          "indexed": true,
          "internalType": "address",
          "name": "owner",
          "type": "address"
        },
        {
          "indexed": true,
          "internalType": "address",
          "name": "operator",
          "type": "address"
        },
        {
          "indexed": false,
          "internalType": "bool",
          "name": "approved",
          "type": "bool"
        }
      ],
      "name": "ApprovalForAll",
      "type": "event"
    },
    {
      "anonymous": false,
      "inputs": [
        {
          "indexed": true,
          "internalType": "address",
          "name": "previousOwner",
          "type": "address"
        },
        {
          "indexed": true,
          "internalType": "address",
          "name": "newOwner",
          "type": "address"
        }
      ],
      "name": "OwnershipTransferred",
      "type": "event"
    },
    {
      "anonymous": false,
      "inputs": [
        {
          "indexed": true,
          "internalType": "address",
          "name": "from",
          "type": "address"
        },
        {
          "indexed": true,
          "internalType": "address",
          "name": "to",
          "type": "address"
        },
        {
          "indexed": true,
          "internalType": "uint256",
          "name": "tokenId",
          "type": "uint256"
        }
      ],
      "name": "Transfer",
      "type": "event"
    },
    {
      "anonymous": false,
      "inputs": [
        {
          "indexed": true,
          "internalType": "uint256",
          "name": "tokenId",
          "type": "uint256"
        }
      ],
      "name": "YetiBurned",
      "type": "event"
    },
    {
      "anonymous": false,
      "inputs": [
        {
          "indexed": true,
          "internalType": "uint256",
          "name": "tokenId",
          "type": "uint256"
        }
      ],
      "name": "YetiMinted",
      "type": "event"
    },
    {
      "inputs": [],
      "name": "NextTokenId",
      "outputs": [
        {
          "internalType": "uint256",
          "name": "",
          "type": "uint256"
        }
      ],
      "stateMutability": "view",
      "type": "function"
    },
    {
      "inputs": [
        {
          "internalType": "address",
          "name": "_address",
          "type": "address"
        }
      ],
      "name": "addToWhitelist",
      "outputs": [],
      "stateMutability": "nonpayable",
      "type": "function"
    },
    {
      "inputs": [
        {
          "internalType": "address",
          "name": "_address",
          "type": "address"
        }
      ],
      "name": "addressIsPresaleApproved",
      "outputs": [
        {
          "internalType": "bool",
          "name": "",
          "type": "bool"
        }
      ],
      "stateMutability": "view",
      "type": "function"
    },
    {
      "inputs": [
        {
          "internalType": "address",
          "name": "to",
          "type": "address"
        },
        {
          "internalType": "uint256",
          "name": "tokenId",
          "type": "uint256"
        }
      ],
      "name": "approve",
      "outputs": [],
      "stateMutability": "nonpayable",
      "type": "function"
    },
    {
      "inputs": [
        {
          "internalType": "address",
          "name": "owner",
          "type": "address"
        }
      ],
      "name": "balanceOf",
      "outputs": [
        {
          "internalType": "uint256",
          "name": "",
          "type": "uint256"
        }
      ],
      "stateMutability": "view",
      "type": "function"
    },
    {
      "inputs": [],
      "name": "baseExtension",
      "outputs": [
        {
          "internalType": "string",
          "name": "",
          "type": "string"
        }
      ],
      "stateMutability": "view",
      "type": "function"
    },
    {
      "inputs": [
        {
          "internalType": "uint256",
          "name": "tokenId",
          "type": "uint256"
        }
      ],
      "name": "burn",
      "outputs": [],
      "stateMutability": "nonpayable",
      "type": "function"
    },
    {
      "inputs": [],
      "name": "curTreasuryTokenAmount",
      "outputs": [
        {
          "internalType": "uint256",
          "name": "",
          "type": "uint256"
        }
      ],
      "stateMutability": "view",
      "type": "function"
    },
    {
      "inputs": [
        {
          "internalType": "address",
          "name": "_address",
          "type": "address"
        }
      ],
      "name": "flipWhitelistApproveStatus",
      "outputs": [],
      "stateMutability": "nonpayable",
      "type": "function"
    },
    {
      "inputs": [
        {
          "internalType": "uint256",
          "name": "tokenId",
          "type": "uint256"
        }
      ],
      "name": "getApproved",
      "outputs": [
        {
          "internalType": "address",
          "name": "",
          "type": "address"
        }
      ],
      "stateMutability": "view",
      "type": "function"
    },
    {
      "inputs": [
        {
          "internalType": "address[]",
          "name": "addr",
          "type": "address[]"
        }
      ],
      "name": "initPresaleWhitelist",
      "outputs": [],
      "stateMutability": "nonpayable",
      "type": "function"
    },
    {
      "inputs": [],
      "name": "initialize",
      "outputs": [],
      "stateMutability": "nonpayable",
      "type": "function"
    },
    {
      "inputs": [
        {
          "internalType": "address",
          "name": "owner",
          "type": "address"
        },
        {
          "internalType": "address",
          "name": "operator",
          "type": "address"
        }
      ],
      "name": "isApprovedForAll",
      "outputs": [
        {
          "internalType": "bool",
          "name": "",
          "type": "bool"
        }
      ],
      "stateMutability": "view",
      "type": "function"
    },
    {
      "inputs": [],
      "name": "lastMagicTokenID",
      "outputs": [
        {
          "internalType": "uint256",
          "name": "",
          "type": "uint256"
        }
      ],
      "stateMutability": "view",
      "type": "function"
    },
    {
      "inputs": [],
      "name": "maxAmountPerWallet",
      "outputs": [
        {
          "internalType": "uint256",
          "name": "",
          "type": "uint256"
        }
      ],
      "stateMutability": "view",
      "type": "function"
    },
    {
      "inputs": [],
      "name": "maxSupply",
      "outputs": [
        {
          "internalType": "uint256",
          "name": "",
          "type": "uint256"
        }
      ],
      "stateMutability": "view",
      "type": "function"
    },
    {
      "inputs": [
        {
          "internalType": "uint256",
          "name": "_mintAmount",
          "type": "uint256"
        }
      ],
      "name": "mint",
      "outputs": [],
      "stateMutability": "payable",
      "type": "function"
    },
    {
      "inputs": [],
      "name": "name",
      "outputs": [
        {
          "internalType": "string",
          "name": "",
          "type": "string"
        }
      ],
      "stateMutability": "view",
      "type": "function"
    },
    {
      "inputs": [],
      "name": "notRevealedUri",
      "outputs": [
        {
          "internalType": "string",
          "name": "",
          "type": "string"
        }
      ],
      "stateMutability": "view",
      "type": "function"
    },
    {
      "inputs": [],
      "name": "owner",
      "outputs": [
        {
          "internalType": "address",
          "name": "",
          "type": "address"
        }
      ],
      "stateMutability": "view",
      "type": "function"
    },
    {
      "inputs": [
        {
          "internalType": "uint256",
          "name": "tokenId",
          "type": "uint256"
        }
      ],
      "name": "ownerOf",
      "outputs": [
        {
          "internalType": "address",
          "name": "",
          "type": "address"
        }
      ],
      "stateMutability": "view",
      "type": "function"
    },
    {
      "inputs": [
        {
          "internalType": "bool",
          "name": "_state",
          "type": "bool"
        }
      ],
      "name": "pause",
      "outputs": [],
      "stateMutability": "nonpayable",
      "type": "function"
    },
    {
      "inputs": [],
      "name": "paused",
      "outputs": [
        {
          "internalType": "bool",
          "name": "",
          "type": "bool"
        }
      ],
      "stateMutability": "view",
      "type": "function"
    },
    {
      "inputs": [],
      "name": "preSaleCost",
      "outputs": [
        {
          "internalType": "uint256",
          "name": "",
          "type": "uint256"
        }
      ],
      "stateMutability": "view",
      "type": "function"
    },
    {
      "inputs": [],
      "name": "publicSaleCost",
      "outputs": [
        {
          "internalType": "uint256",
          "name": "",
          "type": "uint256"
        }
      ],
      "stateMutability": "view",
      "type": "function"
    },
    {
      "inputs": [],
      "name": "publicSaleFlag",
      "outputs": [
        {
          "internalType": "bool",
          "name": "",
          "type": "bool"
        }
      ],
      "stateMutability": "view",
      "type": "function"
    },
    {
      "inputs": [],
      "name": "renounceOwnership",
      "outputs": [],
      "stateMutability": "nonpayable",
      "type": "function"
    },
    {
      "inputs": [
        {
          "internalType": "address",
          "name": "from",
          "type": "address"
        },
        {
          "internalType": "address",
          "name": "to",
          "type": "address"
        },
        {
          "internalType": "uint256",
          "name": "tokenId",
          "type": "uint256"
        }
      ],
      "name": "safeTransferFrom",
      "outputs": [],
      "stateMutability": "nonpayable",
      "type": "function"
    },
    {
      "inputs": [
        {
          "internalType": "address",
          "name": "from",
          "type": "address"
        },
        {
          "internalType": "address",
          "name": "to",
          "type": "address"
        },
        {
          "internalType": "uint256",
          "name": "tokenId",
          "type": "uint256"
        },
        {
          "internalType": "bytes",
          "name": "_data",
          "type": "bytes"
        }
      ],
      "name": "safeTransferFrom",
      "outputs": [],
      "stateMutability": "nonpayable",
      "type": "function"
    },
    {
      "inputs": [
        {
          "internalType": "address",
          "name": "operator",
          "type": "address"
        },
        {
          "internalType": "bool",
          "name": "approved",
          "type": "bool"
        }
      ],
      "name": "setApprovalForAll",
      "outputs": [],
      "stateMutability": "nonpayable",
      "type": "function"
    },
    {
      "inputs": [
        {
          "internalType": "string",
          "name": "_newBaseExtension",
          "type": "string"
        }
      ],
      "name": "setBaseExtension",
      "outputs": [],
      "stateMutability": "nonpayable",
      "type": "function"
    },
    {
      "inputs": [
        {
          "internalType": "string",
          "name": "_newBaseURI",
          "type": "string"
        }
      ],
      "name": "setBaseURI",
      "outputs": [],
      "stateMutability": "nonpayable",
      "type": "function"
    },
    {
      "inputs": [
        {
          "internalType": "uint256",
          "name": "_newMaxSupply",
          "type": "uint256"
        }
      ],
      "name": "setMaxSupply",
      "outputs": [],
      "stateMutability": "nonpayable",
      "type": "function"
    },
    {
      "inputs": [
        {
          "internalType": "string",
          "name": "_notRevealedURI",
          "type": "string"
        }
      ],
      "name": "setNotRevealedURI",
      "outputs": [],
      "stateMutability": "nonpayable",
      "type": "function"
    },
    {
      "inputs": [],
      "name": "setWhitelistSaleStartDate",
      "outputs": [],
      "stateMutability": "nonpayable",
      "type": "function"
    },
    {
      "inputs": [
        {
          "internalType": "bytes4",
          "name": "interfaceId",
          "type": "bytes4"
        }
      ],
      "name": "supportsInterface",
      "outputs": [
        {
          "internalType": "bool",
          "name": "",
          "type": "bool"
        }
      ],
      "stateMutability": "view",
      "type": "function"
    },
    {
      "inputs": [],
      "name": "symbol",
      "outputs": [
        {
          "internalType": "string",
          "name": "",
          "type": "string"
        }
      ],
      "stateMutability": "view",
      "type": "function"
    },
    {
      "inputs": [
        {
          "internalType": "uint256",
          "name": "index",
          "type": "uint256"
        }
      ],
      "name": "tokenByIndex",
      "outputs": [
        {
          "internalType": "uint256",
          "name": "",
          "type": "uint256"
        }
      ],
      "stateMutability": "view",
      "type": "function"
    },
    {
      "inputs": [
        {
          "internalType": "address",
          "name": "owner",
          "type": "address"
        },
        {
          "internalType": "uint256",
          "name": "index",
          "type": "uint256"
        }
      ],
      "name": "tokenOfOwnerByIndex",
      "outputs": [
        {
          "internalType": "uint256",
          "name": "",
          "type": "uint256"
        }
      ],
      "stateMutability": "view",
      "type": "function"
    },
    {
      "inputs": [
        {
          "internalType": "uint256",
          "name": "tokenId",
          "type": "uint256"
        }
      ],
      "name": "tokenURI",
      "outputs": [
        {
          "internalType": "string",
          "name": "",
          "type": "string"
        }
      ],
      "stateMutability": "view",
      "type": "function"
    },
    {
      "inputs": [],
      "name": "totalSupply",
      "outputs": [
        {
          "internalType": "uint256",
          "name": "",
          "type": "uint256"
        }
      ],
      "stateMutability": "view",
      "type": "function"
    },
    {
      "inputs": [
        {
          "internalType": "address",
          "name": "from",
          "type": "address"
        },
        {
          "internalType": "address",
          "name": "to",
          "type": "address"
        },
        {
          "internalType": "uint256",
          "name": "tokenId",
          "type": "uint256"
        }
      ],
      "name": "transferFrom",
      "outputs": [],
      "stateMutability": "nonpayable",
      "type": "function"
    },
    {
      "inputs": [
        {
          "internalType": "address",
          "name": "newOwner",
          "type": "address"
        }
      ],
      "name": "transferOwnership",
      "outputs": [],
      "stateMutability": "nonpayable",
      "type": "function"
    },
    {
      "inputs": [
        {
          "internalType": "address",
          "name": "_to",
          "type": "address"
        },
        {
          "internalType": "uint256",
          "name": "_amount",
          "type": "uint256"
        }
      ],
      "name": "tresuryMint",
      "outputs": [],
      "stateMutability": "nonpayable",
      "type": "function"
    },
    {
      "inputs": [
        {
          "internalType": "address",
          "name": "_to",
          "type": "address"
        },
        {
          "internalType": "uint256",
          "name": "_amount",
          "type": "uint256"
        }
      ],
      "name": "tresuryPresaleMint",
      "outputs": [],
      "stateMutability": "nonpayable",
      "type": "function"
    },
    {
      "inputs": [
        {
          "internalType": "address",
          "name": "",
          "type": "address"
        }
      ],
      "name": "whitelist",
      "outputs": [
        {
          "internalType": "bool",
          "name": "",
          "type": "bool"
        }
      ],
      "stateMutability": "view",
      "type": "function"
    },
    {
      "inputs": [],
      "name": "withdraw",
      "outputs": [],
      "stateMutability": "payable",
      "type": "function"
    }
  ],
  "bytecode": "0x60c06040526005608081905264173539b7b760d91b60a09081526200002891600d91906200021c565b506000600e819055600f8190556115b36010556105dc6011556012805460ff19908116909155600160145560158290556016919091556017805490911690553480156200007457600080fd5b506040516200325738038062003257833981016040819052620000979162000379565b835184908490620000b09060009060208501906200021c565b508051620000c69060019060208401906200021c565b505050620000e3620000dd6200010360201b60201c565b62000107565b620000ee8262000159565b620000f981620001c1565b5050505062000485565b3390565b600a80546001600160a01b038381166001600160a01b0319831681179093556040519116919082907f8be0079c531659141344cd1fd0a4f28419497f9722a3daafe3b4186f6b6457e090600090a35050565b600a546001600160a01b03163314620001a85760405162461bcd60e51b815260206004820181905260248201526000805160206200323783398151915260448201526064015b60405180910390fd5b8051620001bd90600c9060208401906200021c565b5050565b600a546001600160a01b031633146200020c5760405162461bcd60e51b815260206004820181905260248201526000805160206200323783398151915260448201526064016200019f565b8051620001bd9060139060208401905b8280546200022a9062000432565b90600052602060002090601f0160209004810192826200024e576000855562000299565b82601f106200026957805160ff191683800117855562000299565b8280016001018555821562000299579182015b82811115620002995782518255916020019190600101906200027c565b50620002a7929150620002ab565b5090565b5b80821115620002a75760008155600101620002ac565b600082601f830112620002d457600080fd5b81516001600160401b0380821115620002f157620002f16200046f565b604051601f8301601f19908116603f011681019082821181831017156200031c576200031c6200046f565b816040528381526020925086838588010111156200033957600080fd5b600091505b838210156200035d57858201830151818301840152908201906200033e565b838211156200036f5760008385830101525b9695505050505050565b600080600080608085870312156200039057600080fd5b84516001600160401b0380821115620003a857600080fd5b620003b688838901620002c2565b95506020870151915080821115620003cd57600080fd5b620003db88838901620002c2565b94506040870151915080821115620003f257600080fd5b6200040088838901620002c2565b935060608701519150808211156200041757600080fd5b506200042687828801620002c2565b91505092959194509250565b600181811c908216806200044757607f821691505b602082108114156200046957634e487b7160e01b600052602260045260246000fd5b50919050565b634e487b7160e01b600052604160045260246000fd5b612da280620004956000396000f3fe6080604052600436106102885760003560e01c806366aabbab1161015a578063b88d4fde116100c1578063e43252d71161007a578063e43252d71461074b578063e956e92f1461076b578063e985e9c51461078b578063f2ac7b0d146107ab578063f2c4ce1e146107c1578063f2fde38b146107e157600080fd5b8063b88d4fde146106aa578063c6682862146106ca578063c87b56dd146106df578063cc9ff9c6146106ff578063d5abeb0114610715578063da3ef23f1461072b57600080fd5b80638420fc96116101135780638420fc96146105fd5780638da5cb5b1461061d57806395d89b41146106325780639b19251a14610647578063a0712d6814610677578063a22cb4651461068a57600080fd5b806366aabbab146105455780636f8b44b01461057e57806370a082311461059e578063715018a6146105be57806371ee45e9146105d35780638129fc1c146105e857600080fd5b806336db7129116101fe578063453afb0f116101b7578063453afb0f146104955780634f6ccce7146104ab57806355f804b3146104cb5780635c4ec71d146104eb5780635c975abb1461050b5780636352211e1461052557600080fd5b806336db7129146104075780633bc50f191461041d5780633ccfd60b146104375780633cdd8d231461043f57806342842e0e1461045557806342966c681461047557600080fd5b8063095ea7b311610250578063095ea7b3146103535780630bdb095e1461037357806318160ddd146103925780631dbc8836146103a757806323b872dd146103c75780632f745c59146103e757600080fd5b806301ffc9a71461028d57806302329a29146102c257806306fdde03146102e4578063081812fc14610306578063081c8c441461033e575b600080fd5b34801561029957600080fd5b506102ad6102a836600461285c565b610801565b60405190151581526020015b60405180910390f35b3480156102ce57600080fd5b506102e26102dd366004612841565b61082c565b005b3480156102f057600080fd5b506102f9610877565b6040516102b99190612a25565b34801561031257600080fd5b506103266103213660046128df565b610909565b6040516001600160a01b0390911681526020016102b9565b34801561034a57600080fd5b506102f9610991565b34801561035f57600080fd5b506102e261036e366004612763565b610a1f565b34801561037f57600080fd5b506014545b6040519081526020016102b9565b34801561039e57600080fd5b50600854610384565b3480156103b357600080fd5b506102e26103c236600461278d565b610b30565b3480156103d357600080fd5b506102e26103e2366004612681565b610bcb565b3480156103f357600080fd5b50610384610402366004612763565b610c2e565b34801561041357600080fd5b5061038460115481565b34801561042957600080fd5b506017546102ad9060ff1681565b6102e2610cc4565b34801561044b57600080fd5b5061038460155481565b34801561046157600080fd5b506102e2610470366004612681565b610d5d565b34801561048157600080fd5b506102e26104903660046128df565b610da4565b3480156104a157600080fd5b50610384600f5481565b3480156104b757600080fd5b506103846104c63660046128df565b610e07565b3480156104d757600080fd5b506102e26104e6366004612896565b610e9a565b3480156104f757600080fd5b506102e2610506366004612763565b610edc565b34801561051757600080fd5b506012546102ad9060ff1681565b34801561053157600080fd5b506103266105403660046128df565b610fd0565b34801561055157600080fd5b506102ad61056036600461262c565b6001600160a01b031660009081526018602052604090205460ff1690565b34801561058a57600080fd5b506102e26105993660046128df565b611047565b3480156105aa57600080fd5b506103846105b936600461262c565b61107b565b3480156105ca57600080fd5b506102e2611102565b3480156105df57600080fd5b506102e261113d565b3480156105f457600080fd5b506102e2611172565b34801561060957600080fd5b506102e2610618366004612763565b6111b5565b34801561062957600080fd5b50610326611361565b34801561063e57600080fd5b506102f9611370565b34801561065357600080fd5b506102ad61066236600461262c565b60186020526000908152604090205460ff1681565b6102e26106853660046128df565b61137f565b34801561069657600080fd5b506102e26106a5366004612739565b61160a565b3480156106b657600080fd5b506102e26106c53660046126bd565b6116cb565b3480156106d657600080fd5b506102f9611730565b3480156106eb57600080fd5b506102f96106fa3660046128df565b61173d565b34801561070b57600080fd5b50610384600e5481565b34801561072157600080fd5b5061038460105481565b34801561073757600080fd5b506102e2610746366004612896565b6118c7565b34801561075757600080fd5b506102e261076636600461262c565b611909565b34801561077757600080fd5b506102e261078636600461262c565b61197e565b34801561079757600080fd5b506102ad6107a636600461264e565b6119d6565b3480156107b757600080fd5b5061038460165481565b3480156107cd57600080fd5b506102e26107dc366004612896565b611a04565b3480156107ed57600080fd5b506102e26107fc36600461262c565b611a46565b60006001600160e01b0319821663780e9d6360e01b1480610826575061082682611ae3565b92915050565b33610835611361565b6001600160a01b0316146108645760405162461bcd60e51b815260040161085b90612af9565b60405180910390fd5b6012805460ff1916911515919091179055565b60606000805461088690612c3e565b80601f01602080910402602001604051908101604052809291908181526020018280546108b290612c3e565b80156108ff5780601f106108d4576101008083540402835291602001916108ff565b820191906000526020600020905b8154815290600101906020018083116108e257829003601f168201915b5050505050905090565b600061091482611b33565b6109755760405162461bcd60e51b815260206004820152602c60248201527f4552433732313a20617070726f76656420717565727920666f72206e6f6e657860448201526b34b9ba32b73a103a37b5b2b760a11b606482015260840161085b565b506000908152600460205260409020546001600160a01b031690565b6013805461099e90612c3e565b80601f01602080910402602001604051908101604052809291908181526020018280546109ca90612c3e565b8015610a175780601f106109ec57610100808354040283529160200191610a17565b820191906000526020600020905b8154815290600101906020018083116109fa57829003601f168201915b505050505081565b6000610a2a82610fd0565b9050806001600160a01b0316836001600160a01b03161415610a985760405162461bcd60e51b815260206004820152602160248201527f4552433732313a20617070726f76616c20746f2063757272656e74206f776e656044820152603960f91b606482015260840161085b565b336001600160a01b0382161480610ab45750610ab481336119d6565b610b215760405162461bcd60e51b815260206004820152603860248201527f4552433732313a20617070726f76652063616c6c6572206973206e6f74206f776044820152771b995c881b9bdc88185c1c1c9bdd995908199bdc88185b1b60421b606482015260840161085b565b610b2b8383611b50565b505050565b33610b39611361565b6001600160a01b031614610b5f5760405162461bcd60e51b815260040161085b90612af9565b60005b8151811015610bc757600160186000848481518110610b8357610b83612cea565b6020908102919091018101516001600160a01b03168252810191909152604001600020805460ff191691151591909117905580610bbf81612c79565b915050610b62565b5050565b6000610e10600b5442610bde9190612bfb565b610be89190612bc8565b905060188111610bf757600080fd5b610c013383611bbe565b610c1d5760405162461bcd60e51b815260040161085b90612b2e565b610c28848484611c80565b50505050565b6000610c398361107b565b8210610c9b5760405162461bcd60e51b815260206004820152602b60248201527f455243373231456e756d657261626c653a206f776e657220696e646578206f7560448201526a74206f6620626f756e647360a81b606482015260840161085b565b506001600160a01b03919091166000908152600660209081526040808320938352929052205490565b33610ccd611361565b6001600160a01b031614610cf35760405162461bcd60e51b815260040161085b90612af9565b6000610cfd611361565b6001600160a01b03164760405160006040518083038185875af1925050503d8060008114610d47576040519150601f19603f3d011682016040523d82523d6000602084013e610d4c565b606091505b5050905080610d5a57600080fd5b50565b6000610e10600b5442610d709190612bfb565b610d7a9190612bc8565b905060188111610d8957600080fd5b610c28848484604051806020016040528060008152506116cb565b33610dad611361565b6001600160a01b031614610dd35760405162461bcd60e51b815260040161085b90612af9565b60405181907feeabb09be3bb05c61220a396494efe63159608a2e41120749da291153772556590600090a2610d5a81611e19565b6000610e1260085490565b8210610e755760405162461bcd60e51b815260206004820152602c60248201527f455243373231456e756d657261626c653a20676c6f62616c20696e646578206f60448201526b7574206f6620626f756e647360a01b606482015260840161085b565b60088281548110610e8857610e88612cea565b90600052602060002001549050919050565b33610ea3611361565b6001600160a01b031614610ec95760405162461bcd60e51b815260040161085b90612af9565b8051610bc790600c90602084019061250f565b33610ee5611361565b6001600160a01b031614610f0b5760405162461bcd60e51b815260040161085b90612af9565b60008111610f2b5760405162461bcd60e51b815260040161085b90612a8a565b601054600182601454610f3e9190612bb0565b610f489190612bfb565b1115610f665760405162461bcd60e51b815260040161085b90612ab2565b60015b818111610b2b57610f7b601454611b33565b610fbe57601454604051600080516020612d4d83398151915290600090a2610fa583601454611eae565b600160146000828254610fb89190612bb0565b90915550505b80610fc881612c79565b915050610f69565b6000818152600260205260408120546001600160a01b0316806108265760405162461bcd60e51b815260206004820152602960248201527f4552433732313a206f776e657220717565727920666f72206e6f6e657869737460448201526832b73a103a37b5b2b760b91b606482015260840161085b565b33611050611361565b6001600160a01b0316146110765760405162461bcd60e51b815260040161085b90612af9565b601055565b60006001600160a01b0382166110e65760405162461bcd60e51b815260206004820152602a60248201527f4552433732313a2062616c616e636520717565727920666f7220746865207a65604482015269726f206164647265737360b01b606482015260840161085b565b506001600160a01b031660009081526003602052604090205490565b3361110b611361565b6001600160a01b0316146111315760405162461bcd60e51b815260040161085b90612af9565b61113b6000611ec8565b565b33611146611361565b6001600160a01b03161461116c5760405162461bcd60e51b815260040161085b90612af9565b42600b55565b3361117c81611ec8565b6040516001600160a01b038216906000907f8be0079c531659141344cd1fd0a4f28419497f9722a3daafe3b4186f6b6457e0908290a350565b336111be611361565b6001600160a01b0316146111e45760405162461bcd60e51b815260040161085b90612af9565b60125460ff16156111f457600080fd5b600081116112145760405162461bcd60e51b815260040161085b90612a8a565b601054816015546112259190612bb0565b11156112435760405162461bcd60e51b815260040161085b90612ab2565b602d816016546112539190612bb0565b11156112ba5760405162461bcd60e51b815260206004820152603060248201527f43616e6e6f7420657863656564206d6178206e756d626572206f66205472656160448201526f1cdd5c9e4814d85b1948105b5bdd5b9d60821b606482015260840161085b565b60015b81811161132c576112da816015546112d59190612bb0565b611b33565b61131a57806015546112ec9190612bb0565b604051600080516020612d4d83398151915290600090a261131a83826015546113159190612bb0565b611eae565b8061132481612c79565b9150506112bd565b50806015600082825461133f9190612bb0565b9250508190555080601660008282546113589190612bb0565b90915550505050565b600a546001600160a01b031690565b60606001805461088690612c3e565b60125460ff161561138f57600080fd5b600081116113db5760405162461bcd60e51b81526020600482015260196024820152784d757374206174206c65617374206d696e742031207965746960381b604482015260640161085b565b601154816113e83361107b565b6113f29190612bb0565b111561144f5760405162461bcd60e51b815260206004820152602660248201527f43616e206e6f74206d696e7420657863656564203620796574697320706572206044820152651dd85b1b195d60d21b606482015260840161085b565b6010546001826014546114629190612bb0565b61146c9190612bfb565b111561147757600080fd5b600b5468056bc75e2d6310000090600090610e10906114969042612bfb565b6114a09190612bc8565b9050601881106114dd5760175460ff166114d3576015546114c290602e612bb0565b6014556017805460ff191660011790555b600f54915061156c565b3360009081526018602052604090205460ff1661154f5760405162461bcd60e51b815260206004820152602a60248201527f596f7520617265206e6f7420696e207468652077686974656c69737420746f206044820152696d696e7420596574697360b01b606482015260840161085b565b82601560008282546115619190612bb0565b9091555050600e5491505b611574611361565b6001600160a01b0316336001600160a01b0316146115a2576115968383612bdc565b3410156115a257600080fd5b60005b83811015610c28576115b8601454611b33565b6115f857601454604051600080516020612d4d83398151915290600090a26115e233601454611eae565b601480549060006115f283612c79565b91905055505b8061160281612c79565b9150506115a5565b6001600160a01b03821633141561165f5760405162461bcd60e51b815260206004820152601960248201527822a9219b99189d1030b8383937bb32903a379031b0b63632b960391b604482015260640161085b565b3360008181526005602090815260408083206001600160a01b03871680855290835292819020805460ff191686151590811790915590519081529192917f17307eab39ab6107e8899845ad3d59bd9653f200f220920489ca2b5937696c31910160405180910390a35050565b6000610e10600b54426116de9190612bfb565b6116e89190612bc8565b9050601881116116f757600080fd5b6117013384611bbe565b61171d5760405162461bcd60e51b815260040161085b90612b2e565b61172985858585611f1a565b5050505050565b600d805461099e90612c3e565b606061174882611b33565b6117ac5760405162461bcd60e51b815260206004820152602f60248201527f4552433732314d657461646174613a2055524920717565727920666f72206e6f60448201526e3732bc34b9ba32b73a103a37b5b2b760891b606482015260840161085b565b6000610e10600b54426117bf9190612bfb565b6117c99190612bc8565b9050603081101561186757601380546117e190612c3e565b80601f016020809104026020016040519081016040528092919081815260200182805461180d90612c3e565b801561185a5780601f1061182f5761010080835404028352916020019161185a565b820191906000526020600020905b81548152906001019060200180831161183d57829003601f168201915b5050505050915050919050565b6000611871611f4d565b9050600081511161189157604051806020016040528060008152506118bf565b8061189b85611f5c565b600d6040516020016118af93929190612924565b6040516020818303038152906040525b949350505050565b336118d0611361565b6001600160a01b0316146118f65760405162461bcd60e51b815260040161085b90612af9565b8051610bc790600d90602084019061250f565b33611912611361565b6001600160a01b0316146119385760405162461bcd60e51b815260040161085b90612af9565b6001600160a01b03811660009081526018602052604090205460ff16610d5a576001600160a01b0381166000908152601860205260409020805460ff1916600117905550565b33611987611361565b6001600160a01b0316146119ad5760405162461bcd60e51b815260040161085b90612af9565b6001600160a01b03166000908152601860205260409020805460ff19811660ff90911615179055565b6001600160a01b03918216600090815260056020908152604080832093909416825291909152205460ff1690565b33611a0d611361565b6001600160a01b031614611a335760405162461bcd60e51b815260040161085b90612af9565b8051610bc790601390602084019061250f565b33611a4f611361565b6001600160a01b031614611a755760405162461bcd60e51b815260040161085b90612af9565b6001600160a01b038116611ada5760405162461bcd60e51b815260206004820152602660248201527f4f776e61626c653a206e6577206f776e657220697320746865207a65726f206160448201526564647265737360d01b606482015260840161085b565b610d5a81611ec8565b60006001600160e01b031982166380ac58cd60e01b1480611b1457506001600160e01b03198216635b5e139f60e01b145b8061082657506301ffc9a760e01b6001600160e01b0319831614610826565b6000908152600260205260409020546001600160a01b0316151590565b600081815260046020526040902080546001600160a01b0319166001600160a01b0384169081179091558190611b8582610fd0565b6001600160a01b03167f8c5be1e5ebec7d5bd14f71427d1e84f3dd0314c0f7b2291e5b200ac8c7c3b92560405160405180910390a45050565b6000611bc982611b33565b611c2a5760405162461bcd60e51b815260206004820152602c60248201527f4552433732313a206f70657261746f7220717565727920666f72206e6f6e657860448201526b34b9ba32b73a103a37b5b2b760a11b606482015260840161085b565b6000611c3583610fd0565b9050806001600160a01b0316846001600160a01b03161480611c705750836001600160a01b0316611c6584610909565b6001600160a01b0316145b806118bf57506118bf81856119d6565b826001600160a01b0316611c9382610fd0565b6001600160a01b031614611cfb5760405162461bcd60e51b815260206004820152602960248201527f4552433732313a207472616e73666572206f6620746f6b656e2074686174206960448201526839903737ba1037bbb760b91b606482015260840161085b565b6001600160a01b038216611d5d5760405162461bcd60e51b8152602060048201526024808201527f4552433732313a207472616e7366657220746f20746865207a65726f206164646044820152637265737360e01b606482015260840161085b565b611d6883838361205a565b611d73600082611b50565b6001600160a01b0383166000908152600360205260408120805460019290611d9c908490612bfb565b90915550506001600160a01b0382166000908152600360205260408120805460019290611dca908490612bb0565b909155505060008181526002602052604080822080546001600160a01b0319166001600160a01b038681169182179092559151849391871691600080516020612d2d83398151915291a4505050565b6000611e2482610fd0565b9050611e328160008461205a565b611e3d600083611b50565b6001600160a01b0381166000908152600360205260408120805460019290611e66908490612bfb565b909155505060008281526002602052604080822080546001600160a01b0319169055518391906001600160a01b03841690600080516020612d2d833981519152908390a45050565b610bc7828260405180602001604052806000815250612112565b600a80546001600160a01b038381166001600160a01b0319831681179093556040519116919082907f8be0079c531659141344cd1fd0a4f28419497f9722a3daafe3b4186f6b6457e090600090a35050565b611f25848484611c80565b611f3184848484612145565b610c285760405162461bcd60e51b815260040161085b90612a38565b6060600c805461088690612c3e565b606081611f805750506040805180820190915260018152600360fc1b602082015290565b8160005b8115611faa5780611f9481612c79565b9150611fa39050600a83612bc8565b9150611f84565b60008167ffffffffffffffff811115611fc557611fc5612d00565b6040519080825280601f01601f191660200182016040528015611fef576020820181803683370190505b5090505b84156118bf57612004600183612bfb565b9150612011600a86612c94565b61201c906030612bb0565b60f81b81838151811061203157612031612cea565b60200101906001600160f81b031916908160001a905350612053600a86612bc8565b9450611ff3565b6001600160a01b0383166120b5576120b081600880546000838152600960205260408120829055600182018355919091527ff3f7a9fe364faab93b216da50a3214154f22a0a2b415b23a84c8169e8b636ee30155565b6120d8565b816001600160a01b0316836001600160a01b0316146120d8576120d88382612252565b6001600160a01b0382166120ef57610b2b816122ef565b826001600160a01b0316826001600160a01b031614610b2b57610b2b828261239e565b61211c83836123e2565b6121296000848484612145565b610b2b5760405162461bcd60e51b815260040161085b90612a38565b60006001600160a01b0384163b1561224757604051630a85bd0160e11b81526001600160a01b0385169063150b7a02906121899033908990889088906004016129e8565b602060405180830381600087803b1580156121a357600080fd5b505af19250505080156121d3575060408051601f3d908101601f191682019092526121d091810190612879565b60015b61222d573d808015612201576040519150601f19603f3d011682016040523d82523d6000602084013e612206565b606091505b5080516122255760405162461bcd60e51b815260040161085b90612a38565b805181602001fd5b6001600160e01b031916630a85bd0160e11b1490506118bf565b506001949350505050565b6000600161225f8461107b565b6122699190612bfb565b6000838152600760205260409020549091508082146122bc576001600160a01b03841660009081526006602090815260408083208584528252808320548484528184208190558352600790915290208190555b5060009182526007602090815260408084208490556001600160a01b039094168352600681528383209183525290812055565b60085460009061230190600190612bfb565b6000838152600960205260408120546008805493945090928490811061232957612329612cea565b90600052602060002001549050806008838154811061234a5761234a612cea565b600091825260208083209091019290925582815260099091526040808220849055858252812055600880548061238257612382612cd4565b6001900381819060005260206000200160009055905550505050565b60006123a98361107b565b6001600160a01b039093166000908152600660209081526040808320868452825280832085905593825260079052919091209190915550565b6001600160a01b0382166124385760405162461bcd60e51b815260206004820181905260248201527f4552433732313a206d696e7420746f20746865207a65726f2061646472657373604482015260640161085b565b61244181611b33565b1561248e5760405162461bcd60e51b815260206004820152601c60248201527f4552433732313a20746f6b656e20616c7265616479206d696e74656400000000604482015260640161085b565b61249a6000838361205a565b6001600160a01b03821660009081526003602052604081208054600192906124c3908490612bb0565b909155505060008181526002602052604080822080546001600160a01b0319166001600160a01b0386169081179091559051839290600080516020612d2d833981519152908290a45050565b82805461251b90612c3e565b90600052602060002090601f01602090048101928261253d5760008555612583565b82601f1061255657805160ff1916838001178555612583565b82800160010185558215612583579182015b82811115612583578251825591602001919060010190612568565b5061258f929150612593565b5090565b5b8082111561258f5760008155600101612594565b600067ffffffffffffffff8311156125c2576125c2612d00565b6125d5601f8401601f1916602001612b7f565b90508281528383830111156125e957600080fd5b828260208301376000602084830101529392505050565b80356001600160a01b038116811461261757600080fd5b919050565b8035801515811461261757600080fd5b60006020828403121561263e57600080fd5b61264782612600565b9392505050565b6000806040838503121561266157600080fd5b61266a83612600565b915061267860208401612600565b90509250929050565b60008060006060848603121561269657600080fd5b61269f84612600565b92506126ad60208501612600565b9150604084013590509250925092565b600080600080608085870312156126d357600080fd5b6126dc85612600565b93506126ea60208601612600565b925060408501359150606085013567ffffffffffffffff81111561270d57600080fd5b8501601f8101871361271e57600080fd5b61272d878235602084016125a8565b91505092959194509250565b6000806040838503121561274c57600080fd5b61275583612600565b91506126786020840161261c565b6000806040838503121561277657600080fd5b61277f83612600565b946020939093013593505050565b600060208083850312156127a057600080fd5b823567ffffffffffffffff808211156127b857600080fd5b818501915085601f8301126127cc57600080fd5b8135818111156127de576127de612d00565b8060051b91506127ef848301612b7f565b8181528481019084860184860187018a101561280a57600080fd5b600095505b838610156128345761282081612600565b83526001959095019491860191860161280f565b5098975050505050505050565b60006020828403121561285357600080fd5b6126478261261c565b60006020828403121561286e57600080fd5b813561264781612d16565b60006020828403121561288b57600080fd5b815161264781612d16565b6000602082840312156128a857600080fd5b813567ffffffffffffffff8111156128bf57600080fd5b8201601f810184136128d057600080fd5b6118bf848235602084016125a8565b6000602082840312156128f157600080fd5b5035919050565b60008151808452612910816020860160208601612c12565b601f01601f19169290920160200192915050565b6000845160206129378285838a01612c12565b85519184019161294a8184848a01612c12565b8554920191600090600181811c908083168061296757607f831692505b85831081141561298557634e487b7160e01b85526022600452602485fd5b80801561299957600181146129aa576129d7565b60ff198516885283880195506129d7565b60008b81526020902060005b858110156129cf5781548a8201529084019088016129b6565b505083880195505b50939b9a5050505050505050505050565b6001600160a01b0385811682528416602082015260408101839052608060608201819052600090612a1b908301846128f8565b9695505050505050565b60208152600061264760208301846128f8565b60208082526032908201527f4552433732313a207472616e7366657220746f206e6f6e20455243373231526560408201527131b2b4bb32b91034b6b83632b6b2b73a32b960711b606082015260800190565b6020808252600e908201526d125b9d985b1a5908185b5bdd5b9d60921b604082015260600190565b60208082526027908201527f43616e6e6f7420657863656564206d6178696d756d206e756d626572206f662060408201526639bab838363c9760c91b606082015260800190565b6020808252818101527f4f776e61626c653a2063616c6c6572206973206e6f7420746865206f776e6572604082015260600190565b60208082526031908201527f4552433732313a207472616e736665722063616c6c6572206973206e6f74206f6040820152701ddb995c881b9bdc88185c1c1c9bdd9959607a1b606082015260800190565b604051601f8201601f1916810167ffffffffffffffff81118282101715612ba857612ba8612d00565b604052919050565b60008219821115612bc357612bc3612ca8565b500190565b600082612bd757612bd7612cbe565b500490565b6000816000190483118215151615612bf657612bf6612ca8565b500290565b600082821015612c0d57612c0d612ca8565b500390565b60005b83811015612c2d578181015183820152602001612c15565b83811115610c285750506000910152565b600181811c90821680612c5257607f821691505b60208210811415612c7357634e487b7160e01b600052602260045260246000fd5b50919050565b6000600019821415612c8d57612c8d612ca8565b5060010190565b600082612ca357612ca3612cbe565b500690565b634e487b7160e01b600052601160045260246000fd5b634e487b7160e01b600052601260045260246000fd5b634e487b7160e01b600052603160045260246000fd5b634e487b7160e01b600052603260045260246000fd5b634e487b7160e01b600052604160045260246000fd5b6001600160e01b031981168114610d5a57600080fdfeddf252ad1be2c89b69c2b068fc378daa952ba7f163c4a11628f55a4df523b3efddb5d2bc112c1172101a21fb089cd15f592240cd38d55a4fec3ae003442c7bada2646970667358221220fbaaf1ded81a95fc3a430cc2a86869eaad8475484a98889512cadcc23570374264736f6c634300080700334f776e61626c653a2063616c6c6572206973206e6f7420746865206f776e6572",
  "linkReferences": {},
  "deployedLinkReferences": {}
}