{
  "_format": "hh-sol-artifact-1",
  "contractName": "RarityStorage",
  "sourceName": "contracts/RarityStorage.sol",
  "abi": [
    {
      "anonymous": false,
      "inputs": [
        {
          "indexed": true,
          "internalType": "address",
          "name": "previousOwner",
          "type": "address"
        },
        {
          "indexed": true,
          "internalType": "address",
          "name": "newOwner",
          "type": "address"
        }
      ],
      "name": "OwnershipTransferred",
      "type": "event"
    },
    {
      "inputs": [
        {
          "internalType": "uint256",
          "name": "tokenId",
          "type": "uint256"
        },
        {
          "internalType": "uint256",
          "name": "rarity",
          "type": "uint256"
        }
      ],
      "name": "EditRarity",
      "outputs": [],
      "stateMutability": "nonpayable",
      "type": "function"
    },
    {
      "inputs": [
        {
          "internalType": "uint256",
          "name": "tokenId",
          "type": "uint256"
        }
      ],
      "name": "GetRarity",
      "outputs": [
        {
          "internalType": "uint256",
          "name": "",
          "type": "uint256"
        }
      ],
      "stateMutability": "view",
      "type": "function"
    },
    {
      "inputs": [],
      "name": "RaritiesCounter",
      "outputs": [
        {
          "internalType": "uint256",
          "name": "",
          "type": "uint256"
        }
      ],
      "stateMutability": "view",
      "type": "function"
    },
    {
      "inputs": [
        {
          "internalType": "uint256[]",
          "name": "rarities",
          "type": "uint256[]"
        }
      ],
      "name": "SetRarities",
      "outputs": [],
      "stateMutability": "nonpayable",
      "type": "function"
    },
    {
      "inputs": [
        {
          "internalType": "uint256",
          "name": "rarity",
          "type": "uint256"
        }
      ],
      "name": "SetRarity",
      "outputs": [],
      "stateMutability": "nonpayable",
      "type": "function"
    },
    {
      "inputs": [],
      "name": "owner",
      "outputs": [
        {
          "internalType": "address",
          "name": "",
          "type": "address"
        }
      ],
      "stateMutability": "view",
      "type": "function"
    },
    {
      "inputs": [],
      "name": "rarityCounter",
      "outputs": [
        {
          "internalType": "uint256",
          "name": "",
          "type": "uint256"
        }
      ],
      "stateMutability": "view",
      "type": "function"
    },
    {
      "inputs": [],
      "name": "renounceOwnership",
      "outputs": [],
      "stateMutability": "nonpayable",
      "type": "function"
    },
    {
      "inputs": [
        {
          "internalType": "uint256",
          "name": "",
          "type": "uint256"
        }
      ],
      "name": "tokenRarity",
      "outputs": [
        {
          "internalType": "uint256",
          "name": "",
          "type": "uint256"
        }
      ],
      "stateMutability": "view",
      "type": "function"
    },
    {
      "inputs": [
        {
          "internalType": "address",
          "name": "newOwner",
          "type": "address"
        }
      ],
      "name": "transferOwnership",
      "outputs": [],
      "stateMutability": "nonpayable",
      "type": "function"
    }
  ],
  "bytecode": "0x6080604052600160025534801561001557600080fd5b5061001f33610024565b610074565b600080546001600160a01b038381166001600160a01b0319831681178455604051919092169283917f8be0079c531659141344cd1fd0a4f28419497f9722a3daafe3b4186f6b6457e09190a35050565b6105d1806100836000396000f3fe608060405234801561001057600080fd5b506004361061009e5760003560e01c8063afb0a36911610066578063afb0a369146100fb578063c86a16b41461011b578063cb04836f1461013b578063e55ecbbd1461014e578063f2fde38b1461016157600080fd5b8063506546c7146100a35780635c7464c5146100ba578063715018a6146100cf5780638da5cb5b146100d7578063a87ae509146100f2575b600080fd5b6002545b6040519081526020015b60405180910390f35b6100cd6100c836600461040e565b610174565b005b6100cd610229565b6000546040516001600160a01b0390911681526020016100b1565b6100a760025481565b6100a76101093660046104ce565b60016020526000908152604090205481565b6100a76101293660046104ce565b60009081526001602052604090205490565b6100cd6101493660046104ce565b61025f565b6100cd61015c3660046104e6565b6102b9565b6100cd61016f3660046103e0565b6102f5565b6000546001600160a01b031633146101a75760405162461bcd60e51b815260040161019e90610507565b60405180910390fd5b6000815181106101b657600080fd5b8151811015610225578181815181106101df57634e487b7160e01b600052603260045260246000fd5b6020908102919091018101516002805460009081526001909352604083209190915580549161020d83610554565b9190505550808061021d90610554565b9150506101b6565b5050565b6000546001600160a01b031633146102535760405162461bcd60e51b815260040161019e90610507565b61025d6000610390565b565b6000546001600160a01b031633146102895760405162461bcd60e51b815260040161019e90610507565b60028054600090815260016020819052604082208490558254909291906102b190849061053c565b909155505050565b6000546001600160a01b031633146102e35760405162461bcd60e51b815260040161019e90610507565b60009182526001602052604090912055565b6000546001600160a01b0316331461031f5760405162461bcd60e51b815260040161019e90610507565b6001600160a01b0381166103845760405162461bcd60e51b815260206004820152602660248201527f4f776e61626c653a206e6577206f776e657220697320746865207a65726f206160448201526564647265737360d01b606482015260840161019e565b61038d81610390565b50565b600080546001600160a01b038381166001600160a01b0319831681178455604051919092169283917f8be0079c531659141344cd1fd0a4f28419497f9722a3daafe3b4186f6b6457e09190a35050565b6000602082840312156103f1578081fd5b81356001600160a01b0381168114610407578182fd5b9392505050565b60006020808385031215610420578182fd5b823567ffffffffffffffff80821115610437578384fd5b818501915085601f83011261044a578384fd5b81358181111561045c5761045c610585565b8060051b604051601f19603f8301168101818110858211171561048157610481610585565b604052828152858101935084860182860187018a101561049f578788fd5b8795505b838610156104c15780358552600195909501949386019386016104a3565b5098975050505050505050565b6000602082840312156104df578081fd5b5035919050565b600080604083850312156104f8578081fd5b50508035926020909101359150565b6020808252818101527f4f776e61626c653a2063616c6c6572206973206e6f7420746865206f776e6572604082015260600190565b6000821982111561054f5761054f61056f565b500190565b60006000198214156105685761056861056f565b5060010190565b634e487b7160e01b600052601160045260246000fd5b634e487b7160e01b600052604160045260246000fdfea2646970667358221220f456e86389a989450493f39357b669c3a0ef4f95f8bdc70de653e531c817fc5c64736f6c63430008040033",
  "linkReferences": {},
  "deployedLinkReferences": {}
}