{
  "_format": "hh-sol-artifact-1",
  "contractName": "RarityStorage",
  "sourceName": "contracts/RarityStorage.sol",
  "abi": [
    {
      "anonymous": false,
      "inputs": [
        {
          "indexed": true,
          "internalType": "address",
          "name": "previousOwner",
          "type": "address"
        },
        {
          "indexed": true,
          "internalType": "address",
          "name": "newOwner",
          "type": "address"
        }
      ],
      "name": "OwnershipTransferred",
      "type": "event"
    },
    {
      "inputs": [
        {
          "internalType": "uint256",
          "name": "tokenId",
          "type": "uint256"
        },
        {
          "internalType": "uint256",
          "name": "rarity",
          "type": "uint256"
        }
      ],
      "name": "EditRarity",
      "outputs": [],
      "stateMutability": "nonpayable",
      "type": "function"
    },
    {
      "inputs": [
        {
          "internalType": "uint256",
          "name": "tokenId",
          "type": "uint256"
        }
      ],
      "name": "GetRarity",
      "outputs": [
        {
          "internalType": "uint256",
          "name": "",
          "type": "uint256"
        }
      ],
      "stateMutability": "view",
      "type": "function"
    },
    {
      "inputs": [],
      "name": "RaritiesCounter",
      "outputs": [
        {
          "internalType": "uint256",
          "name": "",
          "type": "uint256"
        }
      ],
      "stateMutability": "view",
      "type": "function"
    },
    {
      "inputs": [
        {
          "internalType": "uint256[]",
          "name": "rarities",
          "type": "uint256[]"
        }
      ],
      "name": "SetRarities",
      "outputs": [],
      "stateMutability": "nonpayable",
      "type": "function"
    },
    {
      "inputs": [
        {
          "internalType": "uint256",
          "name": "rarity",
          "type": "uint256"
        }
      ],
      "name": "SetRarity",
      "outputs": [],
      "stateMutability": "nonpayable",
      "type": "function"
    },
    {
      "inputs": [],
      "name": "owner",
      "outputs": [
        {
          "internalType": "address",
          "name": "",
          "type": "address"
        }
      ],
      "stateMutability": "view",
      "type": "function"
    },
    {
      "inputs": [],
      "name": "rarityCounter",
      "outputs": [
        {
          "internalType": "uint256",
          "name": "",
          "type": "uint256"
        }
      ],
      "stateMutability": "view",
      "type": "function"
    },
    {
      "inputs": [],
      "name": "renounceOwnership",
      "outputs": [],
      "stateMutability": "nonpayable",
      "type": "function"
    },
    {
      "inputs": [
        {
          "internalType": "uint256",
          "name": "",
          "type": "uint256"
        }
      ],
      "name": "tokenRarity",
      "outputs": [
        {
          "internalType": "uint256",
          "name": "",
          "type": "uint256"
        }
      ],
      "stateMutability": "view",
      "type": "function"
    },
    {
      "inputs": [
        {
          "internalType": "address",
          "name": "newOwner",
          "type": "address"
        }
      ],
      "name": "transferOwnership",
      "outputs": [],
      "stateMutability": "nonpayable",
      "type": "function"
    }
  ],
  "bytecode": "0x6080604052600160025534801561001557600080fd5b5061001f33610024565b610074565b600080546001600160a01b038381166001600160a01b0319831681178455604051919092169283917f8be0079c531659141344cd1fd0a4f28419497f9722a3daafe3b4186f6b6457e09190a35050565b61060f806100836000396000f3fe608060405234801561001057600080fd5b506004361061009e5760003560e01c8063afb0a36911610066578063afb0a36914610100578063c86a16b414610120578063cb04836f14610140578063e55ecbbd14610153578063f2fde38b1461016657600080fd5b8063506546c7146100a35780635c7464c5146100ba578063715018a6146100cf5780638da5cb5b146100d7578063a87ae509146100f7575b600080fd5b6002545b6040519081526020015b60405180910390f35b6100cd6100c836600461042f565b610179565b005b6100cd610225565b6100df610260565b6040516001600160a01b0390911681526020016100b1565b6100a760025481565b6100a761010e3660046104f4565b60016020526000908152604090205481565b6100a761012e3660046104f4565b60009081526001602052604090205490565b6100cd61014e3660046104f4565b61026f565b6100cd61016136600461050d565b6102ce565b6100cd6101743660046103ff565b61030f565b33610182610260565b6001600160a01b0316146101b15760405162461bcd60e51b81526004016101a89061052f565b60405180910390fd5b6000815181106101c057600080fd5b8151811015610221578181815181106101db576101db6105ad565b602090810291909101810151600280546000908152600190935260408320919091558054916102098361057c565b919050555080806102199061057c565b9150506101c0565b5050565b3361022e610260565b6001600160a01b0316146102545760405162461bcd60e51b81526004016101a89061052f565b61025e60006103af565b565b6000546001600160a01b031690565b33610278610260565b6001600160a01b03161461029e5760405162461bcd60e51b81526004016101a89061052f565b60028054600090815260016020819052604082208490558254909291906102c6908490610564565b909155505050565b336102d7610260565b6001600160a01b0316146102fd5760405162461bcd60e51b81526004016101a89061052f565b60009182526001602052604090912055565b33610318610260565b6001600160a01b03161461033e5760405162461bcd60e51b81526004016101a89061052f565b6001600160a01b0381166103a35760405162461bcd60e51b815260206004820152602660248201527f4f776e61626c653a206e6577206f776e657220697320746865207a65726f206160448201526564647265737360d01b60648201526084016101a8565b6103ac816103af565b50565b600080546001600160a01b038381166001600160a01b0319831681178455604051919092169283917f8be0079c531659141344cd1fd0a4f28419497f9722a3daafe3b4186f6b6457e09190a35050565b60006020828403121561041157600080fd5b81356001600160a01b038116811461042857600080fd5b9392505050565b6000602080838503121561044257600080fd5b823567ffffffffffffffff8082111561045a57600080fd5b818501915085601f83011261046e57600080fd5b813581811115610480576104806105c3565b8060051b604051601f19603f830116810181811085821117156104a5576104a56105c3565b604052828152858101935084860182860187018a10156104c457600080fd5b600095505b838610156104e75780358552600195909501949386019386016104c9565b5098975050505050505050565b60006020828403121561050657600080fd5b5035919050565b6000806040838503121561052057600080fd5b50508035926020909101359150565b6020808252818101527f4f776e61626c653a2063616c6c6572206973206e6f7420746865206f776e6572604082015260600190565b6000821982111561057757610577610597565b500190565b600060001982141561059057610590610597565b5060010190565b634e487b7160e01b600052601160045260246000fd5b634e487b7160e01b600052603260045260246000fd5b634e487b7160e01b600052604160045260246000fdfea2646970667358221220c5b8fac3c822079172836244da5d70af5e4f7dbbbcf570e1efccead7fda19dce64736f6c63430008070033",
  "linkReferences": {},
  "deployedLinkReferences": {}
}